{
  "address": "0xf629A7009f3884525F44D945a18836861A0E178F",
  "abi": [
    {
      "inputs": [
        {
          "internalType": "address",
          "name": "deployer",
          "type": "address"
        },
        {
          "internalType": "address",
          "name": "beneficiary",
          "type": "address"
        },
        {
          "internalType": "address",
          "name": "lender",
          "type": "address"
        }
      ],
      "stateMutability": "nonpayable",
      "type": "constructor"
    },
    {
      "anonymous": false,
      "inputs": [
        {
          "indexed": true,
          "internalType": "address",
          "name": "account",
          "type": "address"
        },
        {
          "indexed": true,
          "internalType": "address",
          "name": "operator",
          "type": "address"
        },
        {
          "indexed": false,
          "internalType": "bool",
          "name": "approved",
          "type": "bool"
        }
      ],
      "name": "ApprovalForAll",
      "type": "event"
    },
    {
      "anonymous": false,
      "inputs": [
        {
          "indexed": true,
          "internalType": "address",
          "name": "operator",
          "type": "address"
        },
        {
          "indexed": true,
          "internalType": "address",
          "name": "from",
          "type": "address"
        },
        {
          "indexed": true,
          "internalType": "address",
          "name": "to",
          "type": "address"
        },
        {
          "indexed": false,
          "internalType": "uint256[]",
          "name": "ids",
          "type": "uint256[]"
        },
        {
          "indexed": false,
          "internalType": "uint256[]",
          "name": "values",
          "type": "uint256[]"
        }
      ],
      "name": "TransferBatch",
      "type": "event"
    },
    {
      "anonymous": false,
      "inputs": [
        {
          "indexed": true,
          "internalType": "address",
          "name": "operator",
          "type": "address"
        },
        {
          "indexed": true,
          "internalType": "address",
          "name": "from",
          "type": "address"
        },
        {
          "indexed": true,
          "internalType": "address",
          "name": "to",
          "type": "address"
        },
        {
          "indexed": false,
          "internalType": "uint256",
          "name": "id",
          "type": "uint256"
        },
        {
          "indexed": false,
          "internalType": "uint256",
          "name": "value",
          "type": "uint256"
        }
      ],
      "name": "TransferSingle",
      "type": "event"
    },
    {
      "anonymous": false,
      "inputs": [
        {
          "indexed": false,
          "internalType": "string",
          "name": "value",
          "type": "string"
        },
        {
          "indexed": true,
          "internalType": "uint256",
          "name": "id",
          "type": "uint256"
        }
      ],
      "name": "URI",
      "type": "event"
    },
    {
      "inputs": [],
      "name": "GOLD",
      "outputs": [
        {
          "internalType": "uint256",
          "name": "",
          "type": "uint256"
        }
      ],
      "stateMutability": "view",
      "type": "function"
    },
    {
      "inputs": [],
      "name": "SHIELD",
      "outputs": [
        {
          "internalType": "uint256",
          "name": "",
          "type": "uint256"
        }
      ],
      "stateMutability": "view",
      "type": "function"
    },
    {
      "inputs": [],
      "name": "SILVER",
      "outputs": [
        {
          "internalType": "uint256",
          "name": "",
          "type": "uint256"
        }
      ],
      "stateMutability": "view",
      "type": "function"
    },
    {
      "inputs": [],
      "name": "SWORD",
      "outputs": [
        {
          "internalType": "uint256",
          "name": "",
          "type": "uint256"
        }
      ],
      "stateMutability": "view",
      "type": "function"
    },
    {
      "inputs": [],
      "name": "THORS_HAMMER",
      "outputs": [
        {
          "internalType": "uint256",
          "name": "",
          "type": "uint256"
        }
      ],
      "stateMutability": "view",
      "type": "function"
    },
    {
      "inputs": [],
      "name": "award",
      "outputs": [
        {
          "internalType": "uint256",
          "name": "",
          "type": "uint256"
        }
      ],
      "stateMutability": "nonpayable",
      "type": "function"
    },
    {
      "inputs": [
        {
          "internalType": "address",
          "name": "account",
          "type": "address"
        },
        {
          "internalType": "uint256",
          "name": "id",
          "type": "uint256"
        }
      ],
      "name": "balanceOf",
      "outputs": [
        {
          "internalType": "uint256",
          "name": "",
          "type": "uint256"
        }
      ],
      "stateMutability": "view",
      "type": "function"
    },
    {
      "inputs": [
        {
          "internalType": "address[]",
          "name": "accounts",
          "type": "address[]"
        },
        {
          "internalType": "uint256[]",
          "name": "ids",
          "type": "uint256[]"
        }
      ],
      "name": "balanceOfBatch",
      "outputs": [
        {
          "internalType": "uint256[]",
          "name": "",
          "type": "uint256[]"
        }
      ],
      "stateMutability": "view",
      "type": "function"
    },
    {
      "inputs": [],
      "name": "faucet",
      "outputs": [],
      "stateMutability": "nonpayable",
      "type": "function"
    },
    {
      "inputs": [
        {
          "internalType": "address",
          "name": "account",
          "type": "address"
        },
        {
          "internalType": "address",
          "name": "operator",
          "type": "address"
        }
      ],
      "name": "isApprovedForAll",
      "outputs": [
        {
          "internalType": "bool",
          "name": "",
          "type": "bool"
        }
      ],
      "stateMutability": "view",
      "type": "function"
    },
    {
      "inputs": [
        {
          "internalType": "address",
          "name": "from",
          "type": "address"
        },
        {
          "internalType": "address",
          "name": "to",
          "type": "address"
        },
        {
          "internalType": "uint256[]",
          "name": "ids",
          "type": "uint256[]"
        },
        {
          "internalType": "uint256[]",
          "name": "amounts",
          "type": "uint256[]"
        },
        {
          "internalType": "bytes",
          "name": "data",
          "type": "bytes"
        }
      ],
      "name": "safeBatchTransferFrom",
      "outputs": [],
      "stateMutability": "nonpayable",
      "type": "function"
    },
    {
      "inputs": [
        {
          "internalType": "address",
          "name": "from",
          "type": "address"
        },
        {
          "internalType": "address",
          "name": "to",
          "type": "address"
        },
        {
          "internalType": "uint256",
          "name": "id",
          "type": "uint256"
        },
        {
          "internalType": "uint256",
          "name": "amount",
          "type": "uint256"
        },
        {
          "internalType": "bytes",
          "name": "data",
          "type": "bytes"
        }
      ],
      "name": "safeTransferFrom",
      "outputs": [],
      "stateMutability": "nonpayable",
      "type": "function"
    },
    {
      "inputs": [
        {
          "internalType": "address",
          "name": "operator",
          "type": "address"
        },
        {
          "internalType": "bool",
          "name": "approved",
          "type": "bool"
        }
      ],
      "name": "setApprovalForAll",
      "outputs": [],
      "stateMutability": "nonpayable",
      "type": "function"
    },
    {
      "inputs": [
        {
          "internalType": "bytes4",
          "name": "interfaceId",
          "type": "bytes4"
        }
      ],
      "name": "supportsInterface",
      "outputs": [
        {
          "internalType": "bool",
          "name": "",
          "type": "bool"
        }
      ],
      "stateMutability": "view",
      "type": "function"
    },
    {
      "inputs": [
        {
          "internalType": "uint256",
          "name": "",
          "type": "uint256"
        }
      ],
      "name": "uri",
      "outputs": [
        {
          "internalType": "string",
          "name": "",
          "type": "string"
        }
      ],
      "stateMutability": "view",
      "type": "function"
    }
  ],
  "transactionHash": "0x124fd40f5456c4026f2a983f990fe284972f032e538d87bce0c5944c78e6a5e7",
  "args": [
    "0x4F8645e873Af2355afD7E971736D6056c1758aBF",
    "0x00E296Be39f0614917db785601E99dA175A58e34",
    "0x99F4448DaCA8B2BB82ADfC363503e992407A7A26"
  ],
  "solcInputHash": "df8be8bb3db2b5e56d3e167cdedff2a9",
  "bytecode": "0x60806040523480156200001157600080fd5b5060405162001fa138038062001fa18339810160408190526200003491620004ae565b6040518060600160405280602b815260200162001f76602b9139620000598162000121565b5062000080836103e86001604051806020016040528060008152506200013a60201b60201c565b620000a6836103e9600a604051806020016040528060008152506200013a60201b60201c565b620000cc826103ea6014604051806020016040528060008152506200013a60201b60201c565b620000f2816103eb6001604051806020016040528060008152506200013a60201b60201c565b62000118816103ec6014604051806020016040528060008152506200013a60201b60201c565b505050620007de565b805162000136906002906020840190620003f0565b5050565b6001600160a01b0384166200016c5760405162461bcd60e51b8152600401620001639062000677565b60405180910390fd5b6000620001786200024a565b90506200019f816000876200018d886200024f565b62000198886200024f565b87620002ab565b6000848152602081815260408083206001600160a01b038916845290915281208054859290620001d1908490620006c6565b92505081905550846001600160a01b031660006001600160a01b0316826001600160a01b03167fc3d58168c5ae7397731d063d5bbf3d657854427343f4c083240f7aacaa2d0f6287876040516200022a929190620006b8565b60405180910390a46200024381600087878787620002b3565b5050505050565b335b90565b604080516001808252818301909252606091600091906020808301908036833701905050905082816000815181106200029857634e487b7160e01b600052603260045260246000fd5b602090810291909101015290505b919050565b505050505050565b620002d2846001600160a01b0316620003ea60201b620009e21760201c565b15620002ab5760405163f23a6e6160e01b81526001600160a01b0385169063f23a6e61906200030e908990899088908890889060040162000576565b602060405180830381600087803b1580156200032957600080fd5b505af19250505080156200035c575060408051601f3d908101601f191682019092526200035991810190620004f7565b60015b620003ae576200036b6200072e565b8062000378575062000394565b8060405162461bcd60e51b8152600401620001639190620005bd565b60405162461bcd60e51b81526004016200016390620005d2565b6001600160e01b0319811663f23a6e6160e01b14620003e15760405162461bcd60e51b815260040162000163906200062f565b50505050505050565b3b151590565b828054620003fe90620006eb565b90600052602060002090601f0160209004810192826200042257600085556200046d565b82601f106200043d57805160ff19168380011785556200046d565b828001600101855582156200046d579182015b828111156200046d57825182559160200191906001019062000450565b506200047b9291506200047f565b5090565b5b808211156200047b576000815560010162000480565b80516001600160a01b0381168114620002a657600080fd5b600080600060608486031215620004c3578283fd5b620004ce8462000496565b9250620004de6020850162000496565b9150620004ee6040850162000496565b90509250925092565b60006020828403121562000509578081fd5b81516001600160e01b03198116811462000521578182fd5b9392505050565b60008151808452815b818110156200054f5760208185018101518683018201520162000531565b81811115620005615782602083870101525b50601f01601f19169290920160200192915050565b6001600160a01b03868116825285166020820152604081018490526060810183905260a060808201819052600090620005b29083018462000528565b979650505050505050565b60006020825262000521602083018462000528565b60208082526034908201527f455243313135353a207472616e7366657220746f206e6f6e204552433131353560408201527f526563656976657220696d706c656d656e746572000000000000000000000000606082015260800190565b60208082526028908201527f455243313135353a204552433131353552656365697665722072656a656374656040820152676420746f6b656e7360c01b606082015260800190565b60208082526021908201527f455243313135353a206d696e7420746f20746865207a65726f206164647265736040820152607360f81b606082015260800190565b918252602082015260400190565b60008219821115620006e657634e487b7160e01b81526011600452602481fd5b500190565b6002810460018216806200070057607f821691505b602082108114156200072257634e487b7160e01b600052602260045260246000fd5b50919050565b60e01c90565b600060443d101562000740576200024c565b600481823e6308c379a062000756825162000728565b1462000762576200024c565b6040513d600319016004823e80513d6001600160401b0380831160248401831017156200079357505050506200024c565b82840192508251915080821115620007af57505050506200024c565b503d83016020828401011115620007c9575050506200024c565b601f01601f1916810160200160405291505090565b61178880620007ee6000396000f3fe608060405234801561001057600080fd5b50600436106100f45760003560e01c80634e1273f411610097578063de5f72fd11610066578063de5f72fd146101d2578063e3e55f08146101da578063e985e9c5146101e2578063f242432a146101f5576100f4565b80634e1273f41461018f5780635b2725ed146101af578063a22cb465146101b7578063d562e204146101ca576100f4565b806313dc989f116100d357806313dc989f146101625780632eb2c2d61461016a5780633e4bee381461017f57806341a494c514610187576100f4565b8062fdd58e146100f957806301ffc9a7146101225780630e89341c14610142575b600080fd5b61010c610107366004610f87565b610208565b6040516101199190611578565b60405180910390f35b61013561013036600461106e565b61025f565b604051610119919061122e565b6101556101503660046110ad565b6102a7565b6040516101199190611239565b61010c61033b565b61017d610178366004610e44565b610341565b005b61010c6105a7565b61010c6105ad565b6101a261019d366004610fb0565b6105e9565b60405161011991906111ed565b61010c610709565b61017d6101c5366004610f4d565b61070f565b61010c6107dd565b61017d6107e3565b61010c610818565b6101356101f0366004610e12565b61081e565b61017d610203366004610eea565b61084c565b60006001600160a01b0383166102395760405162461bcd60e51b8152600401610230906112e8565b60405180910390fd5b506000908152602081815260408083206001600160a01b03949094168352929052205490565b60006001600160e01b03198216636cdb3d1360e11b148061029057506001600160e01b031982166303a24d0760e21b145b8061029f575061029f826109e8565b90505b919050565b6060600280546102b69061160c565b80601f01602080910402602001604051908101604052809291908181526020018280546102e29061160c565b801561032f5780601f106103045761010080835404028352916020019161032f565b820191906000526020600020905b81548152906001019060200180831161031257829003601f168201915b50505050509050919050565b6103eb81565b81518351146103625760405162461bcd60e51b8152600401610230906114ef565b6001600160a01b0384166103885760405162461bcd60e51b81526004016102309061137c565b610390610a01565b6001600160a01b0316856001600160a01b031614806103b657506103b6856101f0610a01565b6103d25760405162461bcd60e51b8152600401610230906113c1565b60006103dc610a01565b90506103ec81878787878761059f565b60005b845181101561053957600085828151811061041a57634e487b7160e01b600052603260045260246000fd5b60200260200101519050600085838151811061044657634e487b7160e01b600052603260045260246000fd5b602090810291909101810151600084815280835260408082206001600160a01b038e1683529093529190912054909150818110156104965760405162461bcd60e51b815260040161023090611413565b6104a082826115f5565b60008085815260200190815260200160002060008c6001600160a01b03166001600160a01b03168152602001908152602001600020819055508160008085815260200190815260200160002060008b6001600160a01b03166001600160a01b03168152602001908152602001600020600082825461051e91906115dd565b925050819055505050508061053290611647565b90506103ef565b50846001600160a01b0316866001600160a01b0316826001600160a01b03167f4a39dc06d4c0dbc64b70af90fd698a233a518aa5d07e595d983b8c0526c8f7fb8787604051610589929190611200565b60405180910390a461059f818787878787610a05565b505050505050565b6103e881565b60038054600091826105be83611647565b91905055506105e133600354600160405180602001604052806000815250610b13565b506003545b90565b6060815183511461060c5760405162461bcd60e51b8152600401610230906114a6565b6000835167ffffffffffffffff81111561063657634e487b7160e01b600052604160045260246000fd5b60405190808252806020026020018201604052801561065f578160200160208202803683370190505b50905060005b8451811015610701576106c685828151811061069157634e487b7160e01b600052603260045260246000fd5b60200260200101518583815181106106b957634e487b7160e01b600052603260045260246000fd5b6020026020010151610208565b8282815181106106e657634e487b7160e01b600052603260045260246000fd5b60209081029190910101526106fa81611647565b9050610665565b509392505050565b6103ec81565b816001600160a01b0316610721610a01565b6001600160a01b031614156107485760405162461bcd60e51b81526004016102309061145d565b8060016000610755610a01565b6001600160a01b03908116825260208083019390935260409182016000908120918716808252919093529120805460ff191692151592909217909155610799610a01565b6001600160a01b03167f17307eab39ab6107e8899845ad3d59bd9653f200f220920489ca2b5937696c31836040516107d1919061122e565b60405180910390a35050565b6103ea81565b600380549060006107f383611647565b919050555061081633600354600260405180602001604052806000815250610b13565b565b6103e981565b6001600160a01b03918216600090815260016020908152604080832093909416825291909152205460ff1690565b6001600160a01b0384166108725760405162461bcd60e51b81526004016102309061137c565b61087a610a01565b6001600160a01b0316856001600160a01b031614806108a057506108a0856101f0610a01565b6108bc5760405162461bcd60e51b815260040161023090611333565b60006108c6610a01565b90506108e68187876108d788610bfa565b6108e088610bfa565b8761059f565b6000848152602081815260408083206001600160a01b038a168452909152902054838110156109275760405162461bcd60e51b815260040161023090611413565b61093184826115f5565b6000868152602081815260408083206001600160a01b038c8116855292528083209390935588168152908120805486929061096d9084906115dd565b92505081905550856001600160a01b0316876001600160a01b0316836001600160a01b03167fc3d58168c5ae7397731d063d5bbf3d657854427343f4c083240f7aacaa2d0f6288886040516109c3929190611581565b60405180910390a46109d9828888888888610c53565b50505050505050565b3b151590565b6001600160e01b031981166301ffc9a760e01b14919050565b3390565b610a17846001600160a01b03166109e2565b1561059f5760405163bc197c8160e01b81526001600160a01b0385169063bc197c8190610a50908990899088908890889060040161114a565b602060405180830381600087803b158015610a6a57600080fd5b505af1925050508015610a9a575060408051601f3d908101601f19168201909252610a9791810190611091565b60015b610ae357610aa6611694565b80610ab15750610acb565b8060405162461bcd60e51b81526004016102309190611239565b60405162461bcd60e51b81526004016102309061124c565b6001600160e01b0319811663bc197c8160e01b146109d95760405162461bcd60e51b8152600401610230906112a0565b6001600160a01b038416610b395760405162461bcd60e51b815260040161023090611537565b6000610b43610a01565b9050610b55816000876108d788610bfa565b6000848152602081815260408083206001600160a01b038916845290915281208054859290610b859084906115dd565b92505081905550846001600160a01b031660006001600160a01b0316826001600160a01b03167fc3d58168c5ae7397731d063d5bbf3d657854427343f4c083240f7aacaa2d0f628787604051610bdc929190611581565b60405180910390a4610bf381600087878787610c53565b5050505050565b60408051600180825281830190925260609160009190602080830190803683370190505090508281600081518110610c4257634e487b7160e01b600052603260045260246000fd5b602090810291909101015292915050565b610c65846001600160a01b03166109e2565b1561059f5760405163f23a6e6160e01b81526001600160a01b0385169063f23a6e6190610c9e90899089908890889088906004016111a8565b602060405180830381600087803b158015610cb857600080fd5b505af1925050508015610ce8575060408051601f3d908101601f19168201909252610ce591810190611091565b60015b610cf457610aa6611694565b6001600160e01b0319811663f23a6e6160e01b146109d95760405162461bcd60e51b8152600401610230906112a0565b80356001600160a01b03811681146102a257600080fd5b600082601f830112610d4b578081fd5b81356020610d60610d5b836115b9565b61158f565b8281528181019085830183850287018401881015610d7c578586fd5b855b85811015610d9a57813584529284019290840190600101610d7e565b5090979650505050505050565b600082601f830112610db7578081fd5b813567ffffffffffffffff811115610dd157610dd1611678565b610de4601f8201601f191660200161158f565b818152846020838601011115610df8578283fd5b816020850160208301379081016020019190915292915050565b60008060408385031215610e24578182fd5b610e2d83610d24565b9150610e3b60208401610d24565b90509250929050565b600080600080600060a08688031215610e5b578081fd5b610e6486610d24565b9450610e7260208701610d24565b9350604086013567ffffffffffffffff80821115610e8e578283fd5b610e9a89838a01610d3b565b94506060880135915080821115610eaf578283fd5b610ebb89838a01610d3b565b93506080880135915080821115610ed0578283fd5b50610edd88828901610da7565b9150509295509295909350565b600080600080600060a08688031215610f01578081fd5b610f0a86610d24565b9450610f1860208701610d24565b93506040860135925060608601359150608086013567ffffffffffffffff811115610f41578182fd5b610edd88828901610da7565b60008060408385031215610f5f578182fd5b610f6883610d24565b915060208301358015158114610f7c578182fd5b809150509250929050565b60008060408385031215610f99578182fd5b610fa283610d24565b946020939093013593505050565b60008060408385031215610fc2578182fd5b823567ffffffffffffffff80821115610fd9578384fd5b818501915085601f830112610fec578384fd5b81356020610ffc610d5b836115b9565b82815281810190858301838502870184018b1015611018578889fd5b8896505b848710156110415761102d81610d24565b83526001969096019591830191830161101c565b5096505086013592505080821115611057578283fd5b5061106485828601610d3b565b9150509250929050565b60006020828403121561107f578081fd5b813561108a81611739565b9392505050565b6000602082840312156110a2578081fd5b815161108a81611739565b6000602082840312156110be578081fd5b5035919050565b6000815180845260208085019450808401835b838110156110f4578151875295820195908201906001016110d8565b509495945050505050565b60008151808452815b8181101561112457602081850181015186830182015201611108565b818111156111355782602083870101525b50601f01601f19169290920160200192915050565b6001600160a01b0386811682528516602082015260a060408201819052600090611176908301866110c5565b828103606084015261118881866110c5565b9050828103608084015261119c81856110ff565b98975050505050505050565b6001600160a01b03868116825285166020820152604081018490526060810183905260a0608082018190526000906111e2908301846110ff565b979650505050505050565b60006020825261108a60208301846110c5565b60006040825261121360408301856110c5565b828103602084015261122581856110c5565b95945050505050565b901515815260200190565b60006020825261108a60208301846110ff565b60208082526034908201527f455243313135353a207472616e7366657220746f206e6f6e20455243313135356040820152732932b1b2b4bb32b91034b6b83632b6b2b73a32b960611b606082015260800190565b60208082526028908201527f455243313135353a204552433131353552656365697665722072656a656374656040820152676420746f6b656e7360c01b606082015260800190565b6020808252602b908201527f455243313135353a2062616c616e636520717565727920666f7220746865207a60408201526a65726f206164647265737360a81b606082015260800190565b60208082526029908201527f455243313135353a2063616c6c6572206973206e6f74206f776e6572206e6f7260408201526808185c1c1c9bdd995960ba1b606082015260800190565b60208082526025908201527f455243313135353a207472616e7366657220746f20746865207a65726f206164604082015264647265737360d81b606082015260800190565b60208082526032908201527f455243313135353a207472616e736665722063616c6c6572206973206e6f74206040820152711bdddb995c881b9bdc88185c1c1c9bdd995960721b606082015260800190565b6020808252602a908201527f455243313135353a20696e73756666696369656e742062616c616e636520666f60408201526939103a3930b739b332b960b11b606082015260800190565b60208082526029908201527f455243313135353a2073657474696e6720617070726f76616c20737461747573604082015268103337b91039b2b63360b91b606082015260800190565b60208082526029908201527f455243313135353a206163636f756e747320616e6420696473206c656e677468604082015268040dad2e6dac2e8c6d60bb1b606082015260800190565b60208082526028908201527f455243313135353a2069647320616e6420616d6f756e7473206c656e677468206040820152670dad2e6dac2e8c6d60c31b606082015260800190565b60208082526021908201527f455243313135353a206d696e7420746f20746865207a65726f206164647265736040820152607360f81b606082015260800190565b90815260200190565b918252602082015260400190565b60405181810167ffffffffffffffff811182821017156115b1576115b1611678565b604052919050565b600067ffffffffffffffff8211156115d3576115d3611678565b5060209081020190565b600082198211156115f0576115f0611662565b500190565b60008282101561160757611607611662565b500390565b60028104600182168061162057607f821691505b6020821081141561164157634e487b7160e01b600052602260045260246000fd5b50919050565b600060001982141561165b5761165b611662565b5060010190565b634e487b7160e01b600052601160045260246000fd5b634e487b7160e01b600052604160045260246000fd5b60e01c90565b600060443d10156116a4576105e6565b600481823e6308c379a06116b8825161168e565b146116c2576105e6565b6040513d600319016004823e80513d67ffffffffffffffff81602484011181841117156116f257505050506105e6565b8284019250825191508082111561170c57505050506105e6565b503d83016020828401011115611724575050506105e6565b601f01601f1916810160200160405291505090565b6001600160e01b03198116811461174f57600080fd5b5056fea2646970667358221220386cb32aafbd9750979fed21e6dabc4ae3aeabe3060b97e742acf88d5726236664736f6c6343000800003368747470733a2f2f6170692e626363672e6469676974616c2f6170692f626363672f7b69647d2e6a736f6e",
  "devdoc": {
    "kind": "dev",
    "methods": {
      "balanceOf(address,uint256)": {
        "details": "See {IERC1155-balanceOf}. Requirements: - `account` cannot be the zero address."
      },
      "balanceOfBatch(address[],uint256[])": {
        "details": "See {IERC1155-balanceOfBatch}. Requirements: - `accounts` and `ids` must have the same length."
      },
      "isApprovedForAll(address,address)": {
        "details": "See {IERC1155-isApprovedForAll}."
      },
      "safeBatchTransferFrom(address,address,uint256[],uint256[],bytes)": {
        "details": "See {IERC1155-safeBatchTransferFrom}."
      },
      "safeTransferFrom(address,address,uint256,uint256,bytes)": {
        "details": "See {IERC1155-safeTransferFrom}."
      },
      "setApprovalForAll(address,bool)": {
        "details": "See {IERC1155-setApprovalForAll}."
      },
      "supportsInterface(bytes4)": {
        "details": "See {IERC165-supportsInterface}."
      },
      "uri(uint256)": {
        "details": "See {IERC1155MetadataURI-uri}. This implementation returns the same URI for *all* token types. It relies on the token type ID substitution mechanism https://eips.ethereum.org/EIPS/eip-1155#metadata[defined in the EIP]. Clients calling this function must replace the `\\{id\\}` substring with the actual token type ID."
      }
    },
    "version": 1
  },
  "userdoc": {
    "kind": "user",
    "methods": {},
    "version": 1
  },
  "storageLayout": {
    "storage": [
      {
        "astId": 135,
        "contract": "src/Test/E1155B.sol:E1155B",
        "label": "_balances",
        "offset": 0,
        "slot": "0",
        "type": "t_mapping(t_uint256,t_mapping(t_address,t_uint256))"
      },
      {
        "astId": 141,
        "contract": "src/Test/E1155B.sol:E1155B",
        "label": "_operatorApprovals",
        "offset": 0,
        "slot": "1",
        "type": "t_mapping(t_address,t_mapping(t_address,t_bool))"
      },
      {
        "astId": 143,
        "contract": "src/Test/E1155B.sol:E1155B",
        "label": "_uri",
        "offset": 0,
        "slot": "2",
        "type": "t_string_storage"
      },
      {
        "astId": 6532,
        "contract": "src/Test/E1155B.sol:E1155B",
        "label": "tokenId",
        "offset": 0,
        "slot": "3",
        "type": "t_uint256"
      }
    ],
    "types": {
      "t_address": {
        "encoding": "inplace",
        "label": "address",
        "numberOfBytes": "20"
      },
      "t_bool": {
        "encoding": "inplace",
        "label": "bool",
        "numberOfBytes": "1"
      },
      "t_mapping(t_address,t_bool)": {
        "encoding": "mapping",
        "key": "t_address",
        "label": "mapping(address => bool)",
        "numberOfBytes": "32",
        "value": "t_bool"
      },
      "t_mapping(t_address,t_mapping(t_address,t_bool))": {
        "encoding": "mapping",
        "key": "t_address",
        "label": "mapping(address => mapping(address => bool))",
        "numberOfBytes": "32",
        "value": "t_mapping(t_address,t_bool)"
      },
      "t_mapping(t_address,t_uint256)": {
        "encoding": "mapping",
        "key": "t_address",
        "label": "mapping(address => uint256)",
        "numberOfBytes": "32",
        "value": "t_uint256"
      },
      "t_mapping(t_uint256,t_mapping(t_address,t_uint256))": {
        "encoding": "mapping",
        "key": "t_uint256",
        "label": "mapping(uint256 => mapping(address => uint256))",
        "numberOfBytes": "32",
        "value": "t_mapping(t_address,t_uint256)"
      },
      "t_string_storage": {
        "encoding": "bytes",
        "label": "string",
        "numberOfBytes": "32"
      },
      "t_uint256": {
        "encoding": "inplace",
        "label": "uint256",
        "numberOfBytes": "32"
      }
    }
  }
}