{
  "address": "0xDDdB737A56167172256C8C859686f78E71E6E72A",
  "abi": [
    {
      "inputs": [
        {
          "internalType": "address",
          "name": "deployer",
          "type": "address"
        },
        {
          "internalType": "address",
          "name": "beneficiary",
          "type": "address"
        },
        {
          "internalType": "address",
          "name": "lender",
          "type": "address"
        }
      ],
      "stateMutability": "nonpayable",
      "type": "constructor"
    },
    {
      "anonymous": false,
      "inputs": [
        {
          "indexed": true,
          "internalType": "address",
          "name": "account",
          "type": "address"
        },
        {
          "indexed": true,
          "internalType": "address",
          "name": "operator",
          "type": "address"
        },
        {
          "indexed": false,
          "internalType": "bool",
          "name": "approved",
          "type": "bool"
        }
      ],
      "name": "ApprovalForAll",
      "type": "event"
    },
    {
      "anonymous": false,
      "inputs": [
        {
          "indexed": true,
          "internalType": "address",
          "name": "operator",
          "type": "address"
        },
        {
          "indexed": true,
          "internalType": "address",
          "name": "from",
          "type": "address"
        },
        {
          "indexed": true,
          "internalType": "address",
          "name": "to",
          "type": "address"
        },
        {
          "indexed": false,
          "internalType": "uint256[]",
          "name": "ids",
          "type": "uint256[]"
        },
        {
          "indexed": false,
          "internalType": "uint256[]",
          "name": "values",
          "type": "uint256[]"
        }
      ],
      "name": "TransferBatch",
      "type": "event"
    },
    {
      "anonymous": false,
      "inputs": [
        {
          "indexed": true,
          "internalType": "address",
          "name": "operator",
          "type": "address"
        },
        {
          "indexed": true,
          "internalType": "address",
          "name": "from",
          "type": "address"
        },
        {
          "indexed": true,
          "internalType": "address",
          "name": "to",
          "type": "address"
        },
        {
          "indexed": false,
          "internalType": "uint256",
          "name": "id",
          "type": "uint256"
        },
        {
          "indexed": false,
          "internalType": "uint256",
          "name": "value",
          "type": "uint256"
        }
      ],
      "name": "TransferSingle",
      "type": "event"
    },
    {
      "anonymous": false,
      "inputs": [
        {
          "indexed": false,
          "internalType": "string",
          "name": "value",
          "type": "string"
        },
        {
          "indexed": true,
          "internalType": "uint256",
          "name": "id",
          "type": "uint256"
        }
      ],
      "name": "URI",
      "type": "event"
    },
    {
      "inputs": [],
      "name": "GOLD",
      "outputs": [
        {
          "internalType": "uint256",
          "name": "",
          "type": "uint256"
        }
      ],
      "stateMutability": "view",
      "type": "function"
    },
    {
      "inputs": [],
      "name": "SHIELD",
      "outputs": [
        {
          "internalType": "uint256",
          "name": "",
          "type": "uint256"
        }
      ],
      "stateMutability": "view",
      "type": "function"
    },
    {
      "inputs": [],
      "name": "SILVER",
      "outputs": [
        {
          "internalType": "uint256",
          "name": "",
          "type": "uint256"
        }
      ],
      "stateMutability": "view",
      "type": "function"
    },
    {
      "inputs": [],
      "name": "SWORD",
      "outputs": [
        {
          "internalType": "uint256",
          "name": "",
          "type": "uint256"
        }
      ],
      "stateMutability": "view",
      "type": "function"
    },
    {
      "inputs": [],
      "name": "THORS_HAMMER",
      "outputs": [
        {
          "internalType": "uint256",
          "name": "",
          "type": "uint256"
        }
      ],
      "stateMutability": "view",
      "type": "function"
    },
    {
      "inputs": [],
      "name": "award",
      "outputs": [
        {
          "internalType": "uint256",
          "name": "",
          "type": "uint256"
        }
      ],
      "stateMutability": "nonpayable",
      "type": "function"
    },
    {
      "inputs": [
        {
          "internalType": "address",
          "name": "account",
          "type": "address"
        },
        {
          "internalType": "uint256",
          "name": "id",
          "type": "uint256"
        }
      ],
      "name": "balanceOf",
      "outputs": [
        {
          "internalType": "uint256",
          "name": "",
          "type": "uint256"
        }
      ],
      "stateMutability": "view",
      "type": "function"
    },
    {
      "inputs": [
        {
          "internalType": "address[]",
          "name": "accounts",
          "type": "address[]"
        },
        {
          "internalType": "uint256[]",
          "name": "ids",
          "type": "uint256[]"
        }
      ],
      "name": "balanceOfBatch",
      "outputs": [
        {
          "internalType": "uint256[]",
          "name": "",
          "type": "uint256[]"
        }
      ],
      "stateMutability": "view",
      "type": "function"
    },
    {
      "inputs": [
        {
          "internalType": "uint256",
          "name": "_amount",
          "type": "uint256"
        }
      ],
      "name": "faucet",
      "outputs": [],
      "stateMutability": "nonpayable",
      "type": "function"
    },
    {
      "inputs": [
        {
          "internalType": "address",
          "name": "account",
          "type": "address"
        },
        {
          "internalType": "address",
          "name": "operator",
          "type": "address"
        }
      ],
      "name": "isApprovedForAll",
      "outputs": [
        {
          "internalType": "bool",
          "name": "",
          "type": "bool"
        }
      ],
      "stateMutability": "view",
      "type": "function"
    },
    {
      "inputs": [
        {
          "internalType": "address",
          "name": "from",
          "type": "address"
        },
        {
          "internalType": "address",
          "name": "to",
          "type": "address"
        },
        {
          "internalType": "uint256[]",
          "name": "ids",
          "type": "uint256[]"
        },
        {
          "internalType": "uint256[]",
          "name": "amounts",
          "type": "uint256[]"
        },
        {
          "internalType": "bytes",
          "name": "data",
          "type": "bytes"
        }
      ],
      "name": "safeBatchTransferFrom",
      "outputs": [],
      "stateMutability": "nonpayable",
      "type": "function"
    },
    {
      "inputs": [
        {
          "internalType": "address",
          "name": "from",
          "type": "address"
        },
        {
          "internalType": "address",
          "name": "to",
          "type": "address"
        },
        {
          "internalType": "uint256",
          "name": "id",
          "type": "uint256"
        },
        {
          "internalType": "uint256",
          "name": "amount",
          "type": "uint256"
        },
        {
          "internalType": "bytes",
          "name": "data",
          "type": "bytes"
        }
      ],
      "name": "safeTransferFrom",
      "outputs": [],
      "stateMutability": "nonpayable",
      "type": "function"
    },
    {
      "inputs": [
        {
          "internalType": "address",
          "name": "operator",
          "type": "address"
        },
        {
          "internalType": "bool",
          "name": "approved",
          "type": "bool"
        }
      ],
      "name": "setApprovalForAll",
      "outputs": [],
      "stateMutability": "nonpayable",
      "type": "function"
    },
    {
      "inputs": [
        {
          "internalType": "bytes4",
          "name": "interfaceId",
          "type": "bytes4"
        }
      ],
      "name": "supportsInterface",
      "outputs": [
        {
          "internalType": "bool",
          "name": "",
          "type": "bool"
        }
      ],
      "stateMutability": "view",
      "type": "function"
    },
    {
      "inputs": [
        {
          "internalType": "uint256",
          "name": "",
          "type": "uint256"
        }
      ],
      "name": "uri",
      "outputs": [
        {
          "internalType": "string",
          "name": "",
          "type": "string"
        }
      ],
      "stateMutability": "view",
      "type": "function"
    }
  ],
  "transactionHash": "0x4c247810d86111d9383d52bc8dc0b2de8625d923bc794875fb3e723e50aa9358",
  "args": [
    "0x4F8645e873Af2355afD7E971736D6056c1758aBF",
    "0x4F8645e873Af2355afD7E971736D6056c1758aBF",
    "0x4F8645e873Af2355afD7E971736D6056c1758aBF"
  ],
  "solcInputHash": "c0cea6219d6a01c103c9be8ede3ddaa8",
  "bytecode": "0x60806040523480156200001157600080fd5b5060405162001eaa38038062001eaa83398101604081905262000034916200055f565b6040518060600160405280602b815260200162001e7f602b9139620000598162000121565b5062000080836103e86001604051806020016040528060008152506200013a60201b60201c565b620000a6836103e9600a604051806020016040528060008152506200013a60201b60201c565b620000cc826103ea6014604051806020016040528060008152506200013a60201b60201c565b620000f2816103eb6001604051806020016040528060008152506200013a60201b60201c565b62000118816103ec6014604051806020016040528060008152506200013a60201b60201c565b505050620007e9565b8051620001369060029060208401906200049c565b5050565b6001600160a01b038416620001a05760405162461bcd60e51b815260206004820152602160248201527f455243313135353a206d696e7420746f20746865207a65726f206164647265736044820152607360f81b60648201526084015b60405180910390fd5b33620001c681600087620001b4886200025a565b620001bf886200025a565b5050505050565b6000848152602081815260408083206001600160a01b038916845290915281208054859290620001f890849062000688565b909155505060408051858152602081018590526001600160a01b0380881692600092918516917fc3d58168c5ae7397731d063d5bbf3d657854427343f4c083240f7aacaa2d0f62910160405180910390a4620001bf81600087878787620002b0565b6040805160018082528183019092526060916000919060208083019080368337019050509050828160008151811062000297576200029762000727565b602090810291909101015292915050565b505050505050565b620002cf846001600160a01b03166200049660201b62000ac51760201c565b15620002a85760405163f23a6e6160e01b81526001600160a01b0385169063f23a6e61906200030b90899089908890889088906004016200062c565b602060405180830381600087803b1580156200032657600080fd5b505af192505050801562000359575060408051601f3d908101601f191682019092526200035691810190620005a9565b60015b6200041a57620003686200073d565b806308c379a01415620003a95750620003806200075a565b806200038d5750620003ab565b8060405162461bcd60e51b815260040162000197919062000673565b505b60405162461bcd60e51b815260206004820152603460248201527f455243313135353a207472616e7366657220746f206e6f6e204552433131353560448201527f526563656976657220696d706c656d656e746572000000000000000000000000606482015260840162000197565b6001600160e01b0319811663f23a6e6160e01b146200048d5760405162461bcd60e51b815260206004820152602860248201527f455243313135353a204552433131353552656365697665722072656a656374656044820152676420746f6b656e7360c01b606482015260840162000197565b50505050505050565b3b151590565b828054620004aa90620006af565b90600052602060002090601f016020900481019282620004ce576000855562000519565b82601f10620004e957805160ff191683800117855562000519565b8280016001018555821562000519579182015b8281111562000519578251825591602001919060010190620004fc565b50620005279291506200052b565b5090565b5b808211156200052757600081556001016200052c565b80516001600160a01b03811681146200055a57600080fd5b919050565b6000806000606084860312156200057557600080fd5b620005808462000542565b9250620005906020850162000542565b9150620005a06040850162000542565b90509250925092565b600060208284031215620005bc57600080fd5b81516001600160e01b031981168114620005d557600080fd5b9392505050565b6000815180845260005b818110156200060457602081850181015186830182015201620005e6565b8181111562000617576000602083870101525b50601f01601f19169290920160200192915050565b6001600160a01b03868116825285166020820152604081018490526060810183905260a0608082018190526000906200066890830184620005dc565b979650505050505050565b602081526000620005d56020830184620005dc565b60008219821115620006aa57634e487b7160e01b600052601160045260246000fd5b500190565b600181811c90821680620006c457607f821691505b60208210811415620006e657634e487b7160e01b600052602260045260246000fd5b50919050565b601f8201601f191681016001600160401b03811182821017156200072057634e487b7160e01b600052604160045260246000fd5b6040525050565b634e487b7160e01b600052603260045260246000fd5b600060033d1115620007575760046000803e5060005160e01c5b90565b600060443d1015620007695790565b6040516003193d81016004833e81513d6001600160401b0380831160248401831017156200079957505050505090565b8285019150815181811115620007b25750505050505090565b843d8701016020828501011115620007cd5750505050505090565b620007de60208286010187620006ec565b509095945050505050565b61168680620007f96000396000f3fe608060405234801561001057600080fd5b50600436106100f45760003560e01c80634e1273f411610097578063d562e20411610066578063d562e204146101e0578063e3e55f08146101e9578063e985e9c5146101f2578063f242432a1461022e57600080fd5b80634e1273f41461019157806357915897146101b15780635b2725ed146101c4578063a22cb465146101cd57600080fd5b806313dc989f116100d357806313dc989f146101625780632eb2c2d61461016b5780633e4bee381461018057806341a494c51461018957600080fd5b8062fdd58e146100f957806301ffc9a71461011f5780630e89341c14610142575b600080fd5b61010c6101073660046110d1565b610241565b6040519081526020015b60405180910390f35b61013261012d3660046111cc565b6102d8565b6040519015158152602001610116565b61015561015036600461120d565b61032a565b6040516101169190611392565b61010c6103eb81565b61017e610179366004610f86565b6103be565b005b61010c6103e881565b61010c610669565b6101a461019f3660046110fb565b6106a4565b6040516101169190611351565b61017e6101bf36600461120d565b6107ce565b61010c6103ec81565b61017e6101db366004611095565b61083e565b61010c6103ea81565b61010c6103e981565b610132610200366004610f53565b6001600160a01b03918216600090815260016020908152604080832093909416825291909152205460ff1690565b61017e61023c366004611030565b610915565b60006001600160a01b0383166102b25760405162461bcd60e51b815260206004820152602b60248201527f455243313135353a2062616c616e636520717565727920666f7220746865207a60448201526a65726f206164647265737360a81b60648201526084015b60405180910390fd5b506000908152602081815260408083206001600160a01b03949094168352929052205490565b60006001600160e01b03198216636cdb3d1360e11b148061030957506001600160e01b031982166303a24d0760e21b145b8061032457506301ffc9a760e01b6001600160e01b03198316145b92915050565b606060028054610339906114cf565b80601f0160208091040260200160405190810160405280929190818152602001828054610365906114cf565b80156103b25780601f10610387576101008083540402835291602001916103b2565b820191906000526020600020905b81548152906001019060200180831161039557829003601f168201915b50505050509050919050565b81518351146104205760405162461bcd60e51b815260206004820152602860248201527f455243313135353a2069647320616e6420616d6f756e7473206c656e677468206044820152670dad2e6dac2e8c6d60c31b60648201526084016102a9565b6001600160a01b0384166104465760405162461bcd60e51b81526004016102a9906113ed565b6001600160a01b03851633148061046257506104628533610200565b6104c95760405162461bcd60e51b815260206004820152603260248201527f455243313135353a207472616e736665722063616c6c6572206973206e6f74206044820152711bdddb995c881b9bdc88185c1c1c9bdd995960721b60648201526084016102a9565b3360005b84518110156105fb5760008582815181106104ea576104ea611568565b60200260200101519050600085838151811061050857610508611568565b602090810291909101810151600084815280835260408082206001600160a01b038e1683529093529190912054909150818110156105585760405162461bcd60e51b81526004016102a990611432565b61056282826114b8565b60008085815260200190815260200160002060008c6001600160a01b03166001600160a01b03168152602001908152602001600020819055508160008085815260200190815260200160002060008b6001600160a01b03166001600160a01b0316815260200190815260200160002060008282546105e091906114a0565b92505081905550505050806105f490611537565b90506104cd565b50846001600160a01b0316866001600160a01b0316826001600160a01b03167f4a39dc06d4c0dbc64b70af90fd698a233a518aa5d07e595d983b8c0526c8f7fb878760405161064b929190611364565b60405180910390a4610661818787878787610acb565b505050505050565b600380546000918261067a83611537565b919050555061069d33600354600160405180602001604052806000815250610c36565b5060035490565b606081518351146107095760405162461bcd60e51b815260206004820152602960248201527f455243313135353a206163636f756e747320616e6420696473206c656e677468604482015268040dad2e6dac2e8c6d60bb1b60648201526084016102a9565b6000835167ffffffffffffffff8111156107255761072561157e565b60405190808252806020026020018201604052801561074e578160200160208202803683370190505b50905060005b84518110156107c65761079985828151811061077257610772611568565b602002602001015185838151811061078c5761078c611568565b6020026020010151610241565b8282815181106107ab576107ab611568565b60209081029190910101526107bf81611537565b9050610754565b509392505050565b600b81106108095760405162461bcd60e51b8152602060048201526008602482015267746f6f206d616e7960c01b60448201526064016102a9565b6003805490600061081983611537565b919050555061083b336003548360405180602001604052806000815250610c36565b50565b336001600160a01b03831614156108a95760405162461bcd60e51b815260206004820152602960248201527f455243313135353a2073657474696e6720617070726f76616c20737461747573604482015268103337b91039b2b63360b91b60648201526084016102a9565b3360008181526001602090815260408083206001600160a01b03871680855290835292819020805460ff191686151590811790915590519081529192917f17307eab39ab6107e8899845ad3d59bd9653f200f220920489ca2b5937696c31910160405180910390a35050565b6001600160a01b03841661093b5760405162461bcd60e51b81526004016102a9906113ed565b6001600160a01b03851633148061095757506109578533610200565b6109b55760405162461bcd60e51b815260206004820152602960248201527f455243313135353a2063616c6c6572206973206e6f74206f776e6572206e6f7260448201526808185c1c1c9bdd995960ba1b60648201526084016102a9565b336109d58187876109c588610d37565b6109ce88610d37565b5050505050565b6000848152602081815260408083206001600160a01b038a16845290915290205483811015610a165760405162461bcd60e51b81526004016102a990611432565b610a2084826114b8565b6000868152602081815260408083206001600160a01b038c81168552925280832093909355881681529081208054869290610a5c9084906114a0565b909155505060408051868152602081018690526001600160a01b03808916928a821692918616917fc3d58168c5ae7397731d063d5bbf3d657854427343f4c083240f7aacaa2d0f62910160405180910390a4610abc828888888888610d82565b50505050505050565b3b151590565b6001600160a01b0384163b156106615760405163bc197c8160e01b81526001600160a01b0385169063bc197c8190610b0f90899089908890889088906004016112ae565b602060405180830381600087803b158015610b2957600080fd5b505af1925050508015610b59575060408051601f3d908101601f19168201909252610b56918101906111f0565b60015b610c0657610b65611594565b806308c379a01415610b9f5750610b7a6115b0565b80610b855750610ba1565b8060405162461bcd60e51b81526004016102a99190611392565b505b60405162461bcd60e51b815260206004820152603460248201527f455243313135353a207472616e7366657220746f206e6f6e20455243313135356044820152732932b1b2b4bb32b91034b6b83632b6b2b73a32b960611b60648201526084016102a9565b6001600160e01b0319811663bc197c8160e01b14610abc5760405162461bcd60e51b81526004016102a9906113a5565b6001600160a01b038416610c965760405162461bcd60e51b815260206004820152602160248201527f455243313135353a206d696e7420746f20746865207a65726f206164647265736044820152607360f81b60648201526084016102a9565b33610ca7816000876109c588610d37565b6000848152602081815260408083206001600160a01b038916845290915281208054859290610cd79084906114a0565b909155505060408051858152602081018590526001600160a01b0380881692600092918516917fc3d58168c5ae7397731d063d5bbf3d657854427343f4c083240f7aacaa2d0f62910160405180910390a46109ce81600087878787610d82565b60408051600180825281830190925260609160009190602080830190803683370190505090508281600081518110610d7157610d71611568565b602090810291909101015292915050565b6001600160a01b0384163b156106615760405163f23a6e6160e01b81526001600160a01b0385169063f23a6e6190610dc6908990899088908890889060040161130c565b602060405180830381600087803b158015610de057600080fd5b505af1925050508015610e10575060408051601f3d908101601f19168201909252610e0d918101906111f0565b60015b610e1c57610b65611594565b6001600160e01b0319811663f23a6e6160e01b14610abc5760405162461bcd60e51b81526004016102a9906113a5565b80356001600160a01b0381168114610e6357600080fd5b919050565b600082601f830112610e7957600080fd5b81356020610e868261147c565b604051610e93828261150a565b8381528281019150858301600585901b87018401881015610eb357600080fd5b60005b85811015610ed257813584529284019290840190600101610eb6565b5090979650505050505050565b600082601f830112610ef057600080fd5b813567ffffffffffffffff811115610f0a57610f0a61157e565b604051610f21601f8301601f19166020018261150a565b818152846020838601011115610f3657600080fd5b816020850160208301376000918101602001919091529392505050565b60008060408385031215610f6657600080fd5b610f6f83610e4c565b9150610f7d60208401610e4c565b90509250929050565b600080600080600060a08688031215610f9e57600080fd5b610fa786610e4c565b9450610fb560208701610e4c565b9350604086013567ffffffffffffffff80821115610fd257600080fd5b610fde89838a01610e68565b94506060880135915080821115610ff457600080fd5b61100089838a01610e68565b9350608088013591508082111561101657600080fd5b5061102388828901610edf565b9150509295509295909350565b600080600080600060a0868803121561104857600080fd5b61105186610e4c565b945061105f60208701610e4c565b93506040860135925060608601359150608086013567ffffffffffffffff81111561108957600080fd5b61102388828901610edf565b600080604083850312156110a857600080fd5b6110b183610e4c565b9150602083013580151581146110c657600080fd5b809150509250929050565b600080604083850312156110e457600080fd5b6110ed83610e4c565b946020939093013593505050565b6000806040838503121561110e57600080fd5b823567ffffffffffffffff8082111561112657600080fd5b818501915085601f83011261113a57600080fd5b813560206111478261147c565b604051611154828261150a565b8381528281019150858301600585901b870184018b101561117457600080fd5b600096505b8487101561119e5761118a81610e4c565b835260019690960195918301918301611179565b50965050860135925050808211156111b557600080fd5b506111c285828601610e68565b9150509250929050565b6000602082840312156111de57600080fd5b81356111e98161163a565b9392505050565b60006020828403121561120257600080fd5b81516111e98161163a565b60006020828403121561121f57600080fd5b5035919050565b600081518084526020808501945080840160005b838110156112565781518752958201959082019060010161123a565b509495945050505050565b6000815180845260005b818110156112875760208185018101518683018201520161126b565b81811115611299576000602083870101525b50601f01601f19169290920160200192915050565b6001600160a01b0386811682528516602082015260a0604082018190526000906112da90830186611226565b82810360608401526112ec8186611226565b905082810360808401526113008185611261565b98975050505050505050565b6001600160a01b03868116825285166020820152604081018490526060810183905260a06080820181905260009061134690830184611261565b979650505050505050565b6020815260006111e96020830184611226565b6040815260006113776040830185611226565b82810360208401526113898185611226565b95945050505050565b6020815260006111e96020830184611261565b60208082526028908201527f455243313135353a204552433131353552656365697665722072656a656374656040820152676420746f6b656e7360c01b606082015260800190565b60208082526025908201527f455243313135353a207472616e7366657220746f20746865207a65726f206164604082015264647265737360d81b606082015260800190565b6020808252602a908201527f455243313135353a20696e73756666696369656e742062616c616e636520666f60408201526939103a3930b739b332b960b11b606082015260800190565b600067ffffffffffffffff8211156114965761149661157e565b5060051b60200190565b600082198211156114b3576114b3611552565b500190565b6000828210156114ca576114ca611552565b500390565b600181811c908216806114e357607f821691505b6020821081141561150457634e487b7160e01b600052602260045260246000fd5b50919050565b601f8201601f1916810167ffffffffffffffff811182821017156115305761153061157e565b6040525050565b600060001982141561154b5761154b611552565b5060010190565b634e487b7160e01b600052601160045260246000fd5b634e487b7160e01b600052603260045260246000fd5b634e487b7160e01b600052604160045260246000fd5b600060033d11156115ad5760046000803e5060005160e01c5b90565b600060443d10156115be5790565b6040516003193d81016004833e81513d67ffffffffffffffff81602484011181841117156115ee57505050505090565b82850191508151818111156116065750505050505090565b843d87010160208285010111156116205750505050505090565b61162f6020828601018761150a565b509095945050505050565b6001600160e01b03198116811461083b57600080fdfea2646970667358221220226eb4e7d7ba29e13bfb28fb62d3a1db987bc76d3a68523fa750efecbcc3f43d64736f6c6343000806003368747470733a2f2f6170692e626363672e6469676974616c2f6170692f626363672f7b69647d2e6a736f6e",
  "devdoc": {
    "kind": "dev",
    "methods": {
      "balanceOf(address,uint256)": {
        "details": "See {IERC1155-balanceOf}. Requirements: - `account` cannot be the zero address."
      },
      "balanceOfBatch(address[],uint256[])": {
        "details": "See {IERC1155-balanceOfBatch}. Requirements: - `accounts` and `ids` must have the same length."
      },
      "isApprovedForAll(address,address)": {
        "details": "See {IERC1155-isApprovedForAll}."
      },
      "safeBatchTransferFrom(address,address,uint256[],uint256[],bytes)": {
        "details": "See {IERC1155-safeBatchTransferFrom}."
      },
      "safeTransferFrom(address,address,uint256,uint256,bytes)": {
        "details": "See {IERC1155-safeTransferFrom}."
      },
      "setApprovalForAll(address,bool)": {
        "details": "See {IERC1155-setApprovalForAll}."
      },
      "supportsInterface(bytes4)": {
        "details": "See {IERC165-supportsInterface}."
      },
      "uri(uint256)": {
        "details": "See {IERC1155MetadataURI-uri}. This implementation returns the same URI for *all* token types. It relies on the token type ID substitution mechanism https://eips.ethereum.org/EIPS/eip-1155#metadata[defined in the EIP]. Clients calling this function must replace the `\\{id\\}` substring with the actual token type ID."
      }
    },
    "version": 1
  },
  "userdoc": {
    "kind": "user",
    "methods": {},
    "version": 1
  },
  "storageLayout": {
    "storage": [
      {
        "astId": 135,
        "contract": "src/Test/E1155B.sol:E1155B",
        "label": "_balances",
        "offset": 0,
        "slot": "0",
        "type": "t_mapping(t_uint256,t_mapping(t_address,t_uint256))"
      },
      {
        "astId": 141,
        "contract": "src/Test/E1155B.sol:E1155B",
        "label": "_operatorApprovals",
        "offset": 0,
        "slot": "1",
        "type": "t_mapping(t_address,t_mapping(t_address,t_bool))"
      },
      {
        "astId": 143,
        "contract": "src/Test/E1155B.sol:E1155B",
        "label": "_uri",
        "offset": 0,
        "slot": "2",
        "type": "t_string_storage"
      },
      {
        "astId": 6585,
        "contract": "src/Test/E1155B.sol:E1155B",
        "label": "tokenId",
        "offset": 0,
        "slot": "3",
        "type": "t_uint256"
      }
    ],
    "types": {
      "t_address": {
        "encoding": "inplace",
        "label": "address",
        "numberOfBytes": "20"
      },
      "t_bool": {
        "encoding": "inplace",
        "label": "bool",
        "numberOfBytes": "1"
      },
      "t_mapping(t_address,t_bool)": {
        "encoding": "mapping",
        "key": "t_address",
        "label": "mapping(address => bool)",
        "numberOfBytes": "32",
        "value": "t_bool"
      },
      "t_mapping(t_address,t_mapping(t_address,t_bool))": {
        "encoding": "mapping",
        "key": "t_address",
        "label": "mapping(address => mapping(address => bool))",
        "numberOfBytes": "32",
        "value": "t_mapping(t_address,t_bool)"
      },
      "t_mapping(t_address,t_uint256)": {
        "encoding": "mapping",
        "key": "t_address",
        "label": "mapping(address => uint256)",
        "numberOfBytes": "32",
        "value": "t_uint256"
      },
      "t_mapping(t_uint256,t_mapping(t_address,t_uint256))": {
        "encoding": "mapping",
        "key": "t_uint256",
        "label": "mapping(uint256 => mapping(address => uint256))",
        "numberOfBytes": "32",
        "value": "t_mapping(t_address,t_uint256)"
      },
      "t_string_storage": {
        "encoding": "bytes",
        "label": "string",
        "numberOfBytes": "32"
      },
      "t_uint256": {
        "encoding": "inplace",
        "label": "uint256",
        "numberOfBytes": "32"
      }
    }
  }
}