{
  "address": "0xa3EDa3483669460570bD602109D34362b9f1A515",
  "abi": [
    {
      "inputs": [
        {
          "internalType": "address",
          "name": "deployer",
          "type": "address"
        },
        {
          "internalType": "address",
          "name": "beneficiary",
          "type": "address"
        },
        {
          "internalType": "address",
          "name": "lender",
          "type": "address"
        }
      ],
      "stateMutability": "nonpayable",
      "type": "constructor"
    },
    {
      "anonymous": false,
      "inputs": [
        {
          "indexed": true,
          "internalType": "address",
          "name": "account",
          "type": "address"
        },
        {
          "indexed": true,
          "internalType": "address",
          "name": "operator",
          "type": "address"
        },
        {
          "indexed": false,
          "internalType": "bool",
          "name": "approved",
          "type": "bool"
        }
      ],
      "name": "ApprovalForAll",
      "type": "event"
    },
    {
      "anonymous": false,
      "inputs": [
        {
          "indexed": true,
          "internalType": "address",
          "name": "operator",
          "type": "address"
        },
        {
          "indexed": true,
          "internalType": "address",
          "name": "from",
          "type": "address"
        },
        {
          "indexed": true,
          "internalType": "address",
          "name": "to",
          "type": "address"
        },
        {
          "indexed": false,
          "internalType": "uint256[]",
          "name": "ids",
          "type": "uint256[]"
        },
        {
          "indexed": false,
          "internalType": "uint256[]",
          "name": "values",
          "type": "uint256[]"
        }
      ],
      "name": "TransferBatch",
      "type": "event"
    },
    {
      "anonymous": false,
      "inputs": [
        {
          "indexed": true,
          "internalType": "address",
          "name": "operator",
          "type": "address"
        },
        {
          "indexed": true,
          "internalType": "address",
          "name": "from",
          "type": "address"
        },
        {
          "indexed": true,
          "internalType": "address",
          "name": "to",
          "type": "address"
        },
        {
          "indexed": false,
          "internalType": "uint256",
          "name": "id",
          "type": "uint256"
        },
        {
          "indexed": false,
          "internalType": "uint256",
          "name": "value",
          "type": "uint256"
        }
      ],
      "name": "TransferSingle",
      "type": "event"
    },
    {
      "anonymous": false,
      "inputs": [
        {
          "indexed": false,
          "internalType": "string",
          "name": "value",
          "type": "string"
        },
        {
          "indexed": true,
          "internalType": "uint256",
          "name": "id",
          "type": "uint256"
        }
      ],
      "name": "URI",
      "type": "event"
    },
    {
      "inputs": [],
      "name": "GOLD",
      "outputs": [
        {
          "internalType": "uint256",
          "name": "",
          "type": "uint256"
        }
      ],
      "stateMutability": "view",
      "type": "function"
    },
    {
      "inputs": [],
      "name": "GUN",
      "outputs": [
        {
          "internalType": "uint256",
          "name": "",
          "type": "uint256"
        }
      ],
      "stateMutability": "view",
      "type": "function"
    },
    {
      "inputs": [],
      "name": "SHIELD",
      "outputs": [
        {
          "internalType": "uint256",
          "name": "",
          "type": "uint256"
        }
      ],
      "stateMutability": "view",
      "type": "function"
    },
    {
      "inputs": [],
      "name": "SILVER",
      "outputs": [
        {
          "internalType": "uint256",
          "name": "",
          "type": "uint256"
        }
      ],
      "stateMutability": "view",
      "type": "function"
    },
    {
      "inputs": [],
      "name": "SWORD",
      "outputs": [
        {
          "internalType": "uint256",
          "name": "",
          "type": "uint256"
        }
      ],
      "stateMutability": "view",
      "type": "function"
    },
    {
      "inputs": [],
      "name": "THORS_HAMMER",
      "outputs": [
        {
          "internalType": "uint256",
          "name": "",
          "type": "uint256"
        }
      ],
      "stateMutability": "view",
      "type": "function"
    },
    {
      "inputs": [],
      "name": "award",
      "outputs": [
        {
          "internalType": "uint256",
          "name": "",
          "type": "uint256"
        }
      ],
      "stateMutability": "nonpayable",
      "type": "function"
    },
    {
      "inputs": [
        {
          "internalType": "address",
          "name": "account",
          "type": "address"
        },
        {
          "internalType": "uint256",
          "name": "id",
          "type": "uint256"
        }
      ],
      "name": "balanceOf",
      "outputs": [
        {
          "internalType": "uint256",
          "name": "",
          "type": "uint256"
        }
      ],
      "stateMutability": "view",
      "type": "function"
    },
    {
      "inputs": [
        {
          "internalType": "address[]",
          "name": "accounts",
          "type": "address[]"
        },
        {
          "internalType": "uint256[]",
          "name": "ids",
          "type": "uint256[]"
        }
      ],
      "name": "balanceOfBatch",
      "outputs": [
        {
          "internalType": "uint256[]",
          "name": "",
          "type": "uint256[]"
        }
      ],
      "stateMutability": "view",
      "type": "function"
    },
    {
      "inputs": [
        {
          "internalType": "uint256",
          "name": "_amount",
          "type": "uint256"
        }
      ],
      "name": "faucet",
      "outputs": [],
      "stateMutability": "nonpayable",
      "type": "function"
    },
    {
      "inputs": [
        {
          "internalType": "address",
          "name": "account",
          "type": "address"
        },
        {
          "internalType": "address",
          "name": "operator",
          "type": "address"
        }
      ],
      "name": "isApprovedForAll",
      "outputs": [
        {
          "internalType": "bool",
          "name": "",
          "type": "bool"
        }
      ],
      "stateMutability": "view",
      "type": "function"
    },
    {
      "inputs": [
        {
          "internalType": "address",
          "name": "from",
          "type": "address"
        },
        {
          "internalType": "address",
          "name": "to",
          "type": "address"
        },
        {
          "internalType": "uint256[]",
          "name": "ids",
          "type": "uint256[]"
        },
        {
          "internalType": "uint256[]",
          "name": "amounts",
          "type": "uint256[]"
        },
        {
          "internalType": "bytes",
          "name": "data",
          "type": "bytes"
        }
      ],
      "name": "safeBatchTransferFrom",
      "outputs": [],
      "stateMutability": "nonpayable",
      "type": "function"
    },
    {
      "inputs": [
        {
          "internalType": "address",
          "name": "from",
          "type": "address"
        },
        {
          "internalType": "address",
          "name": "to",
          "type": "address"
        },
        {
          "internalType": "uint256",
          "name": "id",
          "type": "uint256"
        },
        {
          "internalType": "uint256",
          "name": "amount",
          "type": "uint256"
        },
        {
          "internalType": "bytes",
          "name": "data",
          "type": "bytes"
        }
      ],
      "name": "safeTransferFrom",
      "outputs": [],
      "stateMutability": "nonpayable",
      "type": "function"
    },
    {
      "inputs": [
        {
          "internalType": "address",
          "name": "operator",
          "type": "address"
        },
        {
          "internalType": "bool",
          "name": "approved",
          "type": "bool"
        }
      ],
      "name": "setApprovalForAll",
      "outputs": [],
      "stateMutability": "nonpayable",
      "type": "function"
    },
    {
      "inputs": [
        {
          "internalType": "bytes4",
          "name": "interfaceId",
          "type": "bytes4"
        }
      ],
      "name": "supportsInterface",
      "outputs": [
        {
          "internalType": "bool",
          "name": "",
          "type": "bool"
        }
      ],
      "stateMutability": "view",
      "type": "function"
    },
    {
      "inputs": [
        {
          "internalType": "uint256",
          "name": "",
          "type": "uint256"
        }
      ],
      "name": "uri",
      "outputs": [
        {
          "internalType": "string",
          "name": "",
          "type": "string"
        }
      ],
      "stateMutability": "view",
      "type": "function"
    }
  ],
  "transactionHash": "0xb1450643d84facb90fb7ab9a6da347dab8f3081cf021c03202f941aa1f4d2198",
  "args": [
    "0x4F8645e873Af2355afD7E971736D6056c1758aBF",
    "0x4F8645e873Af2355afD7E971736D6056c1758aBF",
    "0x4F8645e873Af2355afD7E971736D6056c1758aBF"
  ],
  "solcInputHash": "16c7011a524718cf967987a411f3fbd5",
  "bytecode": "0x60806040523480156200001157600080fd5b5060405162001ee438038062001ee4833981016040819052620000349162000585565b6040518060600160405280602b815260200162001eb9602b9139620000598162000147565b5062000080836103e86001604051806020016040528060008152506200016060201b60201c565b620000a6836103e9600a604051806020016040528060008152506200016060201b60201c565b620000cc826103ea6014604051806020016040528060008152506200016060201b60201c565b620000f2816103eb6001604051806020016040528060008152506200016060201b60201c565b62000118816103ec6014604051806020016040528060008152506200016060201b60201c565b6200013e816103ed601e604051806020016040528060008152506200016060201b60201c565b5050506200080f565b80516200015c906002906020840190620004c2565b5050565b6001600160a01b038416620001c65760405162461bcd60e51b815260206004820152602160248201527f455243313135353a206d696e7420746f20746865207a65726f206164647265736044820152607360f81b60648201526084015b60405180910390fd5b33620001ec81600087620001da8862000280565b620001e58862000280565b5050505050565b6000848152602081815260408083206001600160a01b0389168452909152812080548592906200021e908490620006ae565b909155505060408051858152602081018590526001600160a01b0380881692600092918516917fc3d58168c5ae7397731d063d5bbf3d657854427343f4c083240f7aacaa2d0f62910160405180910390a4620001e581600087878787620002d6565b60408051600180825281830190925260609160009190602080830190803683370190505090508281600081518110620002bd57620002bd6200074d565b602090810291909101015292915050565b505050505050565b620002f5846001600160a01b0316620004bc60201b62000ad91760201c565b15620002ce5760405163f23a6e6160e01b81526001600160a01b0385169063f23a6e619062000331908990899088908890889060040162000652565b602060405180830381600087803b1580156200034c57600080fd5b505af19250505080156200037f575060408051601f3d908101601f191682019092526200037c91810190620005cf565b60015b62000440576200038e62000763565b806308c379a01415620003cf5750620003a662000780565b80620003b35750620003d1565b8060405162461bcd60e51b8152600401620001bd919062000699565b505b60405162461bcd60e51b815260206004820152603460248201527f455243313135353a207472616e7366657220746f206e6f6e204552433131353560448201527f526563656976657220696d706c656d656e7465720000000000000000000000006064820152608401620001bd565b6001600160e01b0319811663f23a6e6160e01b14620004b35760405162461bcd60e51b815260206004820152602860248201527f455243313135353a204552433131353552656365697665722072656a656374656044820152676420746f6b656e7360c01b6064820152608401620001bd565b50505050505050565b3b151590565b828054620004d090620006d5565b90600052602060002090601f016020900481019282620004f457600085556200053f565b82601f106200050f57805160ff19168380011785556200053f565b828001600101855582156200053f579182015b828111156200053f57825182559160200191906001019062000522565b506200054d92915062000551565b5090565b5b808211156200054d576000815560010162000552565b80516001600160a01b03811681146200058057600080fd5b919050565b6000806000606084860312156200059b57600080fd5b620005a68462000568565b9250620005b66020850162000568565b9150620005c66040850162000568565b90509250925092565b600060208284031215620005e257600080fd5b81516001600160e01b031981168114620005fb57600080fd5b9392505050565b6000815180845260005b818110156200062a576020818501810151868301820152016200060c565b818111156200063d576000602083870101525b50601f01601f19169290920160200192915050565b6001600160a01b03868116825285166020820152604081018490526060810183905260a0608082018190526000906200068e9083018462000602565b979650505050505050565b602081526000620005fb602083018462000602565b60008219821115620006d057634e487b7160e01b600052601160045260246000fd5b500190565b600181811c90821680620006ea57607f821691505b602082108114156200070c57634e487b7160e01b600052602260045260246000fd5b50919050565b601f8201601f191681016001600160401b03811182821017156200074657634e487b7160e01b600052604160045260246000fd5b6040525050565b634e487b7160e01b600052603260045260246000fd5b600060033d11156200077d5760046000803e5060005160e01c5b90565b600060443d10156200078f5790565b6040516003193d81016004833e81513d6001600160401b038083116024840183101715620007bf57505050505090565b8285019150815181811115620007d85750505050505090565b843d8701016020828501011115620007f35750505050505090565b620008046020828601018762000712565b509095945050505050565b61169a806200081f6000396000f3fe608060405234801561001057600080fd5b50600436106100ff5760003560e01c80634e1273f411610097578063d562e20411610066578063d562e204146101f4578063e3e55f08146101fd578063e985e9c514610206578063f242432a1461024257600080fd5b80634e1273f4146101a557806357915897146101c55780635b2725ed146101d8578063a22cb465146101e157600080fd5b80632eb2c2d6116100d35780632eb2c2d6146101765780633e4bee381461018b57806341a494c514610194578063496b65081461019c57600080fd5b8062fdd58e1461010457806301ffc9a71461012a5780630e89341c1461014d57806313dc989f1461016d575b600080fd5b6101176101123660046110e5565b610255565b6040519081526020015b60405180910390f35b61013d6101383660046111e0565b6102ec565b6040519015158152602001610121565b61016061015b366004611221565b61033e565b60405161012191906113a6565b6101176103eb81565b610189610184366004610f9a565b6103d2565b005b6101176103e881565b61011761067d565b6101176103ed81565b6101b86101b336600461110f565b6106b8565b6040516101219190611365565b6101896101d3366004611221565b6107e2565b6101176103ec81565b6101896101ef3660046110a9565b610852565b6101176103ea81565b6101176103e981565b61013d610214366004610f67565b6001600160a01b03918216600090815260016020908152604080832093909416825291909152205460ff1690565b610189610250366004611044565b610929565b60006001600160a01b0383166102c65760405162461bcd60e51b815260206004820152602b60248201527f455243313135353a2062616c616e636520717565727920666f7220746865207a60448201526a65726f206164647265737360a81b60648201526084015b60405180910390fd5b506000908152602081815260408083206001600160a01b03949094168352929052205490565b60006001600160e01b03198216636cdb3d1360e11b148061031d57506001600160e01b031982166303a24d0760e21b145b8061033857506301ffc9a760e01b6001600160e01b03198316145b92915050565b60606002805461034d906114e3565b80601f0160208091040260200160405190810160405280929190818152602001828054610379906114e3565b80156103c65780601f1061039b576101008083540402835291602001916103c6565b820191906000526020600020905b8154815290600101906020018083116103a957829003601f168201915b50505050509050919050565b81518351146104345760405162461bcd60e51b815260206004820152602860248201527f455243313135353a2069647320616e6420616d6f756e7473206c656e677468206044820152670dad2e6dac2e8c6d60c31b60648201526084016102bd565b6001600160a01b03841661045a5760405162461bcd60e51b81526004016102bd90611401565b6001600160a01b03851633148061047657506104768533610214565b6104dd5760405162461bcd60e51b815260206004820152603260248201527f455243313135353a207472616e736665722063616c6c6572206973206e6f74206044820152711bdddb995c881b9bdc88185c1c1c9bdd995960721b60648201526084016102bd565b3360005b845181101561060f5760008582815181106104fe576104fe61157c565b60200260200101519050600085838151811061051c5761051c61157c565b602090810291909101810151600084815280835260408082206001600160a01b038e16835290935291909120549091508181101561056c5760405162461bcd60e51b81526004016102bd90611446565b61057682826114cc565b60008085815260200190815260200160002060008c6001600160a01b03166001600160a01b03168152602001908152602001600020819055508160008085815260200190815260200160002060008b6001600160a01b03166001600160a01b0316815260200190815260200160002060008282546105f491906114b4565b92505081905550505050806106089061154b565b90506104e1565b50846001600160a01b0316866001600160a01b0316826001600160a01b03167f4a39dc06d4c0dbc64b70af90fd698a233a518aa5d07e595d983b8c0526c8f7fb878760405161065f929190611378565b60405180910390a4610675818787878787610adf565b505050505050565b600380546000918261068e8361154b565b91905055506106b133600354600160405180602001604052806000815250610c4a565b5060035490565b6060815183511461071d5760405162461bcd60e51b815260206004820152602960248201527f455243313135353a206163636f756e747320616e6420696473206c656e677468604482015268040dad2e6dac2e8c6d60bb1b60648201526084016102bd565b6000835167ffffffffffffffff81111561073957610739611592565b604051908082528060200260200182016040528015610762578160200160208202803683370190505b50905060005b84518110156107da576107ad8582815181106107865761078661157c565b60200260200101518583815181106107a0576107a061157c565b6020026020010151610255565b8282815181106107bf576107bf61157c565b60209081029190910101526107d38161154b565b9050610768565b509392505050565b600b811061081d5760405162461bcd60e51b8152602060048201526008602482015267746f6f206d616e7960c01b60448201526064016102bd565b6003805490600061082d8361154b565b919050555061084f336003548360405180602001604052806000815250610c4a565b50565b336001600160a01b03831614156108bd5760405162461bcd60e51b815260206004820152602960248201527f455243313135353a2073657474696e6720617070726f76616c20737461747573604482015268103337b91039b2b63360b91b60648201526084016102bd565b3360008181526001602090815260408083206001600160a01b03871680855290835292819020805460ff191686151590811790915590519081529192917f17307eab39ab6107e8899845ad3d59bd9653f200f220920489ca2b5937696c31910160405180910390a35050565b6001600160a01b03841661094f5760405162461bcd60e51b81526004016102bd90611401565b6001600160a01b03851633148061096b575061096b8533610214565b6109c95760405162461bcd60e51b815260206004820152602960248201527f455243313135353a2063616c6c6572206973206e6f74206f776e6572206e6f7260448201526808185c1c1c9bdd995960ba1b60648201526084016102bd565b336109e98187876109d988610d4b565b6109e288610d4b565b5050505050565b6000848152602081815260408083206001600160a01b038a16845290915290205483811015610a2a5760405162461bcd60e51b81526004016102bd90611446565b610a3484826114cc565b6000868152602081815260408083206001600160a01b038c81168552925280832093909355881681529081208054869290610a709084906114b4565b909155505060408051868152602081018690526001600160a01b03808916928a821692918616917fc3d58168c5ae7397731d063d5bbf3d657854427343f4c083240f7aacaa2d0f62910160405180910390a4610ad0828888888888610d96565b50505050505050565b3b151590565b6001600160a01b0384163b156106755760405163bc197c8160e01b81526001600160a01b0385169063bc197c8190610b2390899089908890889088906004016112c2565b602060405180830381600087803b158015610b3d57600080fd5b505af1925050508015610b6d575060408051601f3d908101601f19168201909252610b6a91810190611204565b60015b610c1a57610b796115a8565b806308c379a01415610bb35750610b8e6115c4565b80610b995750610bb5565b8060405162461bcd60e51b81526004016102bd91906113a6565b505b60405162461bcd60e51b815260206004820152603460248201527f455243313135353a207472616e7366657220746f206e6f6e20455243313135356044820152732932b1b2b4bb32b91034b6b83632b6b2b73a32b960611b60648201526084016102bd565b6001600160e01b0319811663bc197c8160e01b14610ad05760405162461bcd60e51b81526004016102bd906113b9565b6001600160a01b038416610caa5760405162461bcd60e51b815260206004820152602160248201527f455243313135353a206d696e7420746f20746865207a65726f206164647265736044820152607360f81b60648201526084016102bd565b33610cbb816000876109d988610d4b565b6000848152602081815260408083206001600160a01b038916845290915281208054859290610ceb9084906114b4565b909155505060408051858152602081018590526001600160a01b0380881692600092918516917fc3d58168c5ae7397731d063d5bbf3d657854427343f4c083240f7aacaa2d0f62910160405180910390a46109e281600087878787610d96565b60408051600180825281830190925260609160009190602080830190803683370190505090508281600081518110610d8557610d8561157c565b602090810291909101015292915050565b6001600160a01b0384163b156106755760405163f23a6e6160e01b81526001600160a01b0385169063f23a6e6190610dda9089908990889088908890600401611320565b602060405180830381600087803b158015610df457600080fd5b505af1925050508015610e24575060408051601f3d908101601f19168201909252610e2191810190611204565b60015b610e3057610b796115a8565b6001600160e01b0319811663f23a6e6160e01b14610ad05760405162461bcd60e51b81526004016102bd906113b9565b80356001600160a01b0381168114610e7757600080fd5b919050565b600082601f830112610e8d57600080fd5b81356020610e9a82611490565b604051610ea7828261151e565b8381528281019150858301600585901b87018401881015610ec757600080fd5b60005b85811015610ee657813584529284019290840190600101610eca565b5090979650505050505050565b600082601f830112610f0457600080fd5b813567ffffffffffffffff811115610f1e57610f1e611592565b604051610f35601f8301601f19166020018261151e565b818152846020838601011115610f4a57600080fd5b816020850160208301376000918101602001919091529392505050565b60008060408385031215610f7a57600080fd5b610f8383610e60565b9150610f9160208401610e60565b90509250929050565b600080600080600060a08688031215610fb257600080fd5b610fbb86610e60565b9450610fc960208701610e60565b9350604086013567ffffffffffffffff80821115610fe657600080fd5b610ff289838a01610e7c565b9450606088013591508082111561100857600080fd5b61101489838a01610e7c565b9350608088013591508082111561102a57600080fd5b5061103788828901610ef3565b9150509295509295909350565b600080600080600060a0868803121561105c57600080fd5b61106586610e60565b945061107360208701610e60565b93506040860135925060608601359150608086013567ffffffffffffffff81111561109d57600080fd5b61103788828901610ef3565b600080604083850312156110bc57600080fd5b6110c583610e60565b9150602083013580151581146110da57600080fd5b809150509250929050565b600080604083850312156110f857600080fd5b61110183610e60565b946020939093013593505050565b6000806040838503121561112257600080fd5b823567ffffffffffffffff8082111561113a57600080fd5b818501915085601f83011261114e57600080fd5b8135602061115b82611490565b604051611168828261151e565b8381528281019150858301600585901b870184018b101561118857600080fd5b600096505b848710156111b25761119e81610e60565b83526001969096019591830191830161118d565b50965050860135925050808211156111c957600080fd5b506111d685828601610e7c565b9150509250929050565b6000602082840312156111f257600080fd5b81356111fd8161164e565b9392505050565b60006020828403121561121657600080fd5b81516111fd8161164e565b60006020828403121561123357600080fd5b5035919050565b600081518084526020808501945080840160005b8381101561126a5781518752958201959082019060010161124e565b509495945050505050565b6000815180845260005b8181101561129b5760208185018101518683018201520161127f565b818111156112ad576000602083870101525b50601f01601f19169290920160200192915050565b6001600160a01b0386811682528516602082015260a0604082018190526000906112ee9083018661123a565b8281036060840152611300818661123a565b905082810360808401526113148185611275565b98975050505050505050565b6001600160a01b03868116825285166020820152604081018490526060810183905260a06080820181905260009061135a90830184611275565b979650505050505050565b6020815260006111fd602083018461123a565b60408152600061138b604083018561123a565b828103602084015261139d818561123a565b95945050505050565b6020815260006111fd6020830184611275565b60208082526028908201527f455243313135353a204552433131353552656365697665722072656a656374656040820152676420746f6b656e7360c01b606082015260800190565b60208082526025908201527f455243313135353a207472616e7366657220746f20746865207a65726f206164604082015264647265737360d81b606082015260800190565b6020808252602a908201527f455243313135353a20696e73756666696369656e742062616c616e636520666f60408201526939103a3930b739b332b960b11b606082015260800190565b600067ffffffffffffffff8211156114aa576114aa611592565b5060051b60200190565b600082198211156114c7576114c7611566565b500190565b6000828210156114de576114de611566565b500390565b600181811c908216806114f757607f821691505b6020821081141561151857634e487b7160e01b600052602260045260246000fd5b50919050565b601f8201601f1916810167ffffffffffffffff8111828210171561154457611544611592565b6040525050565b600060001982141561155f5761155f611566565b5060010190565b634e487b7160e01b600052601160045260246000fd5b634e487b7160e01b600052603260045260246000fd5b634e487b7160e01b600052604160045260246000fd5b600060033d11156115c15760046000803e5060005160e01c5b90565b600060443d10156115d25790565b6040516003193d81016004833e81513d67ffffffffffffffff816024840111818411171561160257505050505090565b828501915081518181111561161a5750505050505090565b843d87010160208285010111156116345750505050505090565b6116436020828601018761151e565b509095945050505050565b6001600160e01b03198116811461084f57600080fdfea26469706673582212209d968119501d92be3cb644d22bb16cd168a7faf8127565fe30421949502074bb64736f6c6343000806003368747470733a2f2f6170692e626363672e6469676974616c2f6170692f626363672f7b69647d2e6a736f6e",
  "devdoc": {
    "kind": "dev",
    "methods": {
      "balanceOf(address,uint256)": {
        "details": "See {IERC1155-balanceOf}. Requirements: - `account` cannot be the zero address."
      },
      "balanceOfBatch(address[],uint256[])": {
        "details": "See {IERC1155-balanceOfBatch}. Requirements: - `accounts` and `ids` must have the same length."
      },
      "isApprovedForAll(address,address)": {
        "details": "See {IERC1155-isApprovedForAll}."
      },
      "safeBatchTransferFrom(address,address,uint256[],uint256[],bytes)": {
        "details": "See {IERC1155-safeBatchTransferFrom}."
      },
      "safeTransferFrom(address,address,uint256,uint256,bytes)": {
        "details": "See {IERC1155-safeTransferFrom}."
      },
      "setApprovalForAll(address,bool)": {
        "details": "See {IERC1155-setApprovalForAll}."
      },
      "supportsInterface(bytes4)": {
        "details": "See {IERC165-supportsInterface}."
      },
      "uri(uint256)": {
        "details": "See {IERC1155MetadataURI-uri}. This implementation returns the same URI for *all* token types. It relies on the token type ID substitution mechanism https://eips.ethereum.org/EIPS/eip-1155#metadata[defined in the EIP]. Clients calling this function must replace the `\\{id\\}` substring with the actual token type ID."
      }
    },
    "version": 1
  },
  "userdoc": {
    "kind": "user",
    "methods": {},
    "version": 1
  },
  "storageLayout": {
    "storage": [
      {
        "astId": 135,
        "contract": "src/Test/E1155.sol:E1155",
        "label": "_balances",
        "offset": 0,
        "slot": "0",
        "type": "t_mapping(t_uint256,t_mapping(t_address,t_uint256))"
      },
      {
        "astId": 141,
        "contract": "src/Test/E1155.sol:E1155",
        "label": "_operatorApprovals",
        "offset": 0,
        "slot": "1",
        "type": "t_mapping(t_address,t_mapping(t_address,t_bool))"
      },
      {
        "astId": 143,
        "contract": "src/Test/E1155.sol:E1155",
        "label": "_uri",
        "offset": 0,
        "slot": "2",
        "type": "t_string_storage"
      },
      {
        "astId": 6638,
        "contract": "src/Test/E1155.sol:E1155",
        "label": "tokenId",
        "offset": 0,
        "slot": "3",
        "type": "t_uint256"
      }
    ],
    "types": {
      "t_address": {
        "encoding": "inplace",
        "label": "address",
        "numberOfBytes": "20"
      },
      "t_bool": {
        "encoding": "inplace",
        "label": "bool",
        "numberOfBytes": "1"
      },
      "t_mapping(t_address,t_bool)": {
        "encoding": "mapping",
        "key": "t_address",
        "label": "mapping(address => bool)",
        "numberOfBytes": "32",
        "value": "t_bool"
      },
      "t_mapping(t_address,t_mapping(t_address,t_bool))": {
        "encoding": "mapping",
        "key": "t_address",
        "label": "mapping(address => mapping(address => bool))",
        "numberOfBytes": "32",
        "value": "t_mapping(t_address,t_bool)"
      },
      "t_mapping(t_address,t_uint256)": {
        "encoding": "mapping",
        "key": "t_address",
        "label": "mapping(address => uint256)",
        "numberOfBytes": "32",
        "value": "t_uint256"
      },
      "t_mapping(t_uint256,t_mapping(t_address,t_uint256))": {
        "encoding": "mapping",
        "key": "t_uint256",
        "label": "mapping(uint256 => mapping(address => uint256))",
        "numberOfBytes": "32",
        "value": "t_mapping(t_address,t_uint256)"
      },
      "t_string_storage": {
        "encoding": "bytes",
        "label": "string",
        "numberOfBytes": "32"
      },
      "t_uint256": {
        "encoding": "inplace",
        "label": "uint256",
        "numberOfBytes": "32"
      }
    }
  }
}