{
  "address": "0xe82B444826A9B95c9070C6Bf2cDF1aA6D362B803",
  "abi": [
    {
      "inputs": [],
      "stateMutability": "nonpayable",
      "type": "constructor"
    },
    {
      "anonymous": false,
      "inputs": [
        {
          "indexed": true,
          "internalType": "address",
          "name": "owner",
          "type": "address"
        },
        {
          "indexed": true,
          "internalType": "address",
          "name": "approved",
          "type": "address"
        },
        {
          "indexed": true,
          "internalType": "uint256",
          "name": "tokenId",
          "type": "uint256"
        }
      ],
      "name": "Approval",
      "type": "event"
    },
    {
      "anonymous": false,
      "inputs": [
        {
          "indexed": true,
          "internalType": "address",
          "name": "owner",
          "type": "address"
        },
        {
          "indexed": true,
          "internalType": "address",
          "name": "operator",
          "type": "address"
        },
        {
          "indexed": false,
          "internalType": "bool",
          "name": "approved",
          "type": "bool"
        }
      ],
      "name": "ApprovalForAll",
      "type": "event"
    },
    {
      "anonymous": false,
      "inputs": [
        {
          "indexed": true,
          "internalType": "address",
          "name": "previousOwner",
          "type": "address"
        },
        {
          "indexed": true,
          "internalType": "address",
          "name": "newOwner",
          "type": "address"
        }
      ],
      "name": "OwnershipTransferred",
      "type": "event"
    },
    {
      "anonymous": false,
      "inputs": [
        {
          "indexed": true,
          "internalType": "address",
          "name": "from",
          "type": "address"
        },
        {
          "indexed": true,
          "internalType": "address",
          "name": "to",
          "type": "address"
        },
        {
          "indexed": true,
          "internalType": "uint256",
          "name": "tokenId",
          "type": "uint256"
        }
      ],
      "name": "Transfer",
      "type": "event"
    },
    {
      "inputs": [
        {
          "internalType": "address",
          "name": "to",
          "type": "address"
        },
        {
          "internalType": "uint256",
          "name": "tokenId",
          "type": "uint256"
        }
      ],
      "name": "approve",
      "outputs": [],
      "stateMutability": "nonpayable",
      "type": "function"
    },
    {
      "inputs": [],
      "name": "award",
      "outputs": [
        {
          "internalType": "uint256",
          "name": "",
          "type": "uint256"
        }
      ],
      "stateMutability": "nonpayable",
      "type": "function"
    },
    {
      "inputs": [
        {
          "internalType": "address",
          "name": "owner",
          "type": "address"
        }
      ],
      "name": "balanceOf",
      "outputs": [
        {
          "internalType": "uint256",
          "name": "",
          "type": "uint256"
        }
      ],
      "stateMutability": "view",
      "type": "function"
    },
    {
      "inputs": [],
      "name": "faucet",
      "outputs": [],
      "stateMutability": "nonpayable",
      "type": "function"
    },
    {
      "inputs": [
        {
          "internalType": "uint256",
          "name": "tokenId",
          "type": "uint256"
        }
      ],
      "name": "getApproved",
      "outputs": [
        {
          "internalType": "address",
          "name": "",
          "type": "address"
        }
      ],
      "stateMutability": "view",
      "type": "function"
    },
    {
      "inputs": [
        {
          "internalType": "address",
          "name": "owner",
          "type": "address"
        },
        {
          "internalType": "address",
          "name": "operator",
          "type": "address"
        }
      ],
      "name": "isApprovedForAll",
      "outputs": [
        {
          "internalType": "bool",
          "name": "",
          "type": "bool"
        }
      ],
      "stateMutability": "view",
      "type": "function"
    },
    {
      "inputs": [],
      "name": "name",
      "outputs": [
        {
          "internalType": "string",
          "name": "",
          "type": "string"
        }
      ],
      "stateMutability": "view",
      "type": "function"
    },
    {
      "inputs": [],
      "name": "owner",
      "outputs": [
        {
          "internalType": "address",
          "name": "",
          "type": "address"
        }
      ],
      "stateMutability": "view",
      "type": "function"
    },
    {
      "inputs": [
        {
          "internalType": "uint256",
          "name": "tokenId",
          "type": "uint256"
        }
      ],
      "name": "ownerOf",
      "outputs": [
        {
          "internalType": "address",
          "name": "",
          "type": "address"
        }
      ],
      "stateMutability": "view",
      "type": "function"
    },
    {
      "inputs": [],
      "name": "renounceOwnership",
      "outputs": [],
      "stateMutability": "nonpayable",
      "type": "function"
    },
    {
      "inputs": [
        {
          "internalType": "address",
          "name": "from",
          "type": "address"
        },
        {
          "internalType": "address",
          "name": "to",
          "type": "address"
        },
        {
          "internalType": "uint256",
          "name": "tokenId",
          "type": "uint256"
        }
      ],
      "name": "safeTransferFrom",
      "outputs": [],
      "stateMutability": "nonpayable",
      "type": "function"
    },
    {
      "inputs": [
        {
          "internalType": "address",
          "name": "from",
          "type": "address"
        },
        {
          "internalType": "address",
          "name": "to",
          "type": "address"
        },
        {
          "internalType": "uint256",
          "name": "tokenId",
          "type": "uint256"
        },
        {
          "internalType": "bytes",
          "name": "_data",
          "type": "bytes"
        }
      ],
      "name": "safeTransferFrom",
      "outputs": [],
      "stateMutability": "nonpayable",
      "type": "function"
    },
    {
      "inputs": [
        {
          "internalType": "address",
          "name": "operator",
          "type": "address"
        },
        {
          "internalType": "bool",
          "name": "approved",
          "type": "bool"
        }
      ],
      "name": "setApprovalForAll",
      "outputs": [],
      "stateMutability": "nonpayable",
      "type": "function"
    },
    {
      "inputs": [
        {
          "internalType": "string",
          "name": "baseURI_",
          "type": "string"
        }
      ],
      "name": "setBaseURI",
      "outputs": [],
      "stateMutability": "nonpayable",
      "type": "function"
    },
    {
      "inputs": [
        {
          "internalType": "bytes4",
          "name": "interfaceId",
          "type": "bytes4"
        }
      ],
      "name": "supportsInterface",
      "outputs": [
        {
          "internalType": "bool",
          "name": "",
          "type": "bool"
        }
      ],
      "stateMutability": "view",
      "type": "function"
    },
    {
      "inputs": [],
      "name": "symbol",
      "outputs": [
        {
          "internalType": "string",
          "name": "",
          "type": "string"
        }
      ],
      "stateMutability": "view",
      "type": "function"
    },
    {
      "inputs": [
        {
          "internalType": "uint256",
          "name": "index",
          "type": "uint256"
        }
      ],
      "name": "tokenByIndex",
      "outputs": [
        {
          "internalType": "uint256",
          "name": "",
          "type": "uint256"
        }
      ],
      "stateMutability": "view",
      "type": "function"
    },
    {
      "inputs": [
        {
          "internalType": "address",
          "name": "owner",
          "type": "address"
        },
        {
          "internalType": "uint256",
          "name": "index",
          "type": "uint256"
        }
      ],
      "name": "tokenOfOwnerByIndex",
      "outputs": [
        {
          "internalType": "uint256",
          "name": "",
          "type": "uint256"
        }
      ],
      "stateMutability": "view",
      "type": "function"
    },
    {
      "inputs": [
        {
          "internalType": "uint256",
          "name": "tokenId",
          "type": "uint256"
        }
      ],
      "name": "tokenURI",
      "outputs": [
        {
          "internalType": "string",
          "name": "",
          "type": "string"
        }
      ],
      "stateMutability": "view",
      "type": "function"
    },
    {
      "inputs": [],
      "name": "totalSupply",
      "outputs": [
        {
          "internalType": "uint256",
          "name": "",
          "type": "uint256"
        }
      ],
      "stateMutability": "view",
      "type": "function"
    },
    {
      "inputs": [
        {
          "internalType": "address",
          "name": "from",
          "type": "address"
        },
        {
          "internalType": "address",
          "name": "to",
          "type": "address"
        },
        {
          "internalType": "uint256",
          "name": "tokenId",
          "type": "uint256"
        }
      ],
      "name": "transferFrom",
      "outputs": [],
      "stateMutability": "nonpayable",
      "type": "function"
    },
    {
      "inputs": [
        {
          "internalType": "address",
          "name": "newOwner",
          "type": "address"
        }
      ],
      "name": "transferOwnership",
      "outputs": [],
      "stateMutability": "nonpayable",
      "type": "function"
    }
  ],
  "transactionHash": "0x6239a63e4efbb571d9f06398793fce4d9225a9fbce6f687a909e35ece0f67126",
  "args": [],
  "solcInputHash": "16c7011a524718cf967987a411f3fbd5",
  "bytecode": "0x60806040526000600b553480156200001657600080fd5b50604051806040016040528060048152602001634537323160e01b815250604051806040016040528060048152602001634537323160e01b8152506000620000636200045160201b60201c565b600080546001600160a01b0319166001600160a01b0383169081178255604051929350917f8be0079c531659141344cd1fd0a4f28419497f9722a3daafe3b4186f6b6457e0908290a3508151620000c290600190602085019062000455565b508051620000d890600290602084019062000455565b50505060405180606001604052806023815260200162001fc2602391396001600052600c6020908152815162000132927fd421a5181c571bba3f01190c922c3b2a896fc1d84e86c9f17ac10e67ebef8b5c92019062000455565b5060405180606001604052806023815260200162002095602391396002600052600c602090815281516200018a927f5d6016397a73f5e079297ac5a36fef17b4d9c3831618e63ab105738020ddd72092019062000455565b506040518060600160405280602381526020016200202c602391396003600052600c60209081528151620001e2927fc0da782485e77ae272268ae0a3ff44c1552ecb60b3743924de17a815e0a3cfd792019062000455565b5060405180606001604052806023815260200162002072602391396004600052600c602090815281516200023a927f5b84bb9e0f5aa9cc45a8bb66468db5d4816d1e75ff86b5e1f1dd8d144dab809792019062000455565b5060405180606001604052806023815260200162002009602391396005600052600c6020908152815162000292927f2cd9ebf6ff19cdd7ffcc447d7c7d47b5991f5c7392a04512134e765802361fa692019062000455565b506040518060600160405280602381526020016200204f602391396006600052600c60209081528151620002ea927f980f427e00e74f6d338adfccc7468518c8c8ea00836d0dce98c5fe154e17bf2b92019062000455565b5060405180606001604052806023815260200162001f9f602391396007600052600c6020908152815162000342927fdae089abd7155aa13ce498edb0d7a7156b783d015031f10c9a3d4f5fcb51897192019062000455565b50604051806060016040528060238152602001620020b8602391396008600052600c602090815281516200039a927f5ff1be3842b54290a9d10674244dae5848d2371b5314790c54805c086586e1df92019062000455565b50604051806060016040528060238152602001620020db602391396009600052600c60209081528151620003f2927f2fb3c9afecd3f0d43923381d3e9f60168c039b98f0b7120382e81b682b7bc31692019062000455565b5060405180606001604052806024815260200162001fe560249139600a600052600c602090815281516200044a927f9e6c92d7be355807bd948171438a5e65aaf9e4c36f1405c1b9ca25d27c4ea3a092019062000455565b5062000538565b3390565b8280546200046390620004fb565b90600052602060002090601f016020900481019282620004875760008555620004d2565b82601f10620004a257805160ff1916838001178555620004d2565b82800160010185558215620004d2579182015b82811115620004d2578251825591602001919060010190620004b5565b50620004e0929150620004e4565b5090565b5b80821115620004e05760008155600101620004e5565b600181811c908216806200051057607f821691505b602082108114156200053257634e487b7160e01b600052602260045260246000fd5b50919050565b611a5780620005486000396000f3fe608060405234801561001057600080fd5b50600436106101425760003560e01c80636352211e116100b8578063a22cb4651161007c578063a22cb46514610284578063b88d4fde14610297578063c87b56dd146102aa578063de5f72fd146102bd578063e985e9c5146102c5578063f2fde38b1461030157600080fd5b80636352211e1461023d57806370a0823114610250578063715018a6146102635780638da5cb5b1461026b57806395d89b411461027c57600080fd5b806323b872dd1161010a57806323b872dd146101d65780632f745c59146101e957806341a494c5146101fc57806342842e0e146102045780634f6ccce71461021757806355f804b31461022a57600080fd5b806301ffc9a71461014757806306fdde031461016f578063081812fc14610184578063095ea7b3146101af57806318160ddd146101c4575b600080fd5b61015a6101553660046116f8565b610314565b60405190151581526020015b60405180910390f35b61017761033f565b604051610166919061181e565b61019761019236600461177b565b6103d1565b6040516001600160a01b039091168152602001610166565b6101c26101bd3660046116ce565b61046b565b005b6009545b604051908152602001610166565b6101c26101e43660046115da565b610581565b6101c86101f73660046116ce565b6105b2565b6101c8610648565b6101c26102123660046115da565b610671565b6101c861022536600461177b565b61068c565b6101c2610238366004611732565b61071f565b61019761024b36600461177b565b610760565b6101c861025e366004611585565b6107d7565b6101c261085e565b6000546001600160a01b0316610197565b6101776108d2565b6101c2610292366004611692565b6108e1565b6101c26102a5366004611616565b6109a6565b6101776102b836600461177b565b6109de565b6101c2610b17565b61015a6102d33660046115a7565b6001600160a01b03918216600090815260066020908152604080832093909416825291909152205460ff1690565b6101c261030f366004611585565b610b3a565b60006001600160e01b0319821663780e9d6360e01b1480610339575061033982610c24565b92915050565b60606001805461034e90611938565b80601f016020809104026020016040519081016040528092919081815260200182805461037a90611938565b80156103c75780601f1061039c576101008083540402835291602001916103c7565b820191906000526020600020905b8154815290600101906020018083116103aa57829003601f168201915b5050505050905090565b6000818152600360205260408120546001600160a01b031661044f5760405162461bcd60e51b815260206004820152602c60248201527f4552433732313a20617070726f76656420717565727920666f72206e6f6e657860448201526b34b9ba32b73a103a37b5b2b760a11b60648201526084015b60405180910390fd5b506000908152600560205260409020546001600160a01b031690565b600061047682610760565b9050806001600160a01b0316836001600160a01b031614156104e45760405162461bcd60e51b815260206004820152602160248201527f4552433732313a20617070726f76616c20746f2063757272656e74206f776e656044820152603960f91b6064820152608401610446565b336001600160a01b0382161480610500575061050081336102d3565b6105725760405162461bcd60e51b815260206004820152603860248201527f4552433732313a20617070726f76652063616c6c6572206973206e6f74206f7760448201527f6e6572206e6f7220617070726f76656420666f7220616c6c00000000000000006064820152608401610446565b61057c8383610c74565b505050565b61058b3382610ce2565b6105a75760405162461bcd60e51b8152600401610446906118b8565b61057c838383610dd9565b60006105bd836107d7565b821061061f5760405162461bcd60e51b815260206004820152602b60248201527f455243373231456e756d657261626c653a206f776e657220696e646578206f7560448201526a74206f6620626f756e647360a81b6064820152608401610446565b506001600160a01b03919091166000908152600760209081526040808320938352929052205490565b600b80546000918261065983611973565b919050555061066a33600b54610f84565b50600b5490565b61057c838383604051806020016040528060008152506109a6565b600061069760095490565b82106106fa5760405162461bcd60e51b815260206004820152602c60248201527f455243373231456e756d657261626c653a20676c6f62616c20696e646578206f60448201526b7574206f6620626f756e647360a01b6064820152608401610446565b6009828154811061070d5761070d6119dc565b90600052602060002001549050919050565b6000546001600160a01b031633146107495760405162461bcd60e51b815260040161044690611883565b805161075c90600d90602084019061145a565b5050565b6000818152600360205260408120546001600160a01b0316806103395760405162461bcd60e51b815260206004820152602960248201527f4552433732313a206f776e657220717565727920666f72206e6f6e657869737460448201526832b73a103a37b5b2b760b91b6064820152608401610446565b60006001600160a01b0382166108425760405162461bcd60e51b815260206004820152602a60248201527f4552433732313a2062616c616e636520717565727920666f7220746865207a65604482015269726f206164647265737360b01b6064820152608401610446565b506001600160a01b031660009081526004602052604090205490565b6000546001600160a01b031633146108885760405162461bcd60e51b815260040161044690611883565b600080546040516001600160a01b03909116907f8be0079c531659141344cd1fd0a4f28419497f9722a3daafe3b4186f6b6457e0908390a3600080546001600160a01b0319169055565b60606002805461034e90611938565b6001600160a01b03821633141561093a5760405162461bcd60e51b815260206004820152601960248201527f4552433732313a20617070726f766520746f2063616c6c6572000000000000006044820152606401610446565b3360008181526006602090815260408083206001600160a01b03871680855290835292819020805460ff191686151590811790915590519081529192917f17307eab39ab6107e8899845ad3d59bd9653f200f220920489ca2b5937696c31910160405180910390a35050565b6109b03383610ce2565b6109cc5760405162461bcd60e51b8152600401610446906118b8565b6109d8848484846110d2565b50505050565b6000818152600360205260409020546060906001600160a01b0316610a5d5760405162461bcd60e51b815260206004820152602f60248201527f4552433732314d657461646174613a2055524920717565727920666f72206e6f60448201526e3732bc34b9ba32b73a103a37b5b2b760891b6064820152608401610446565b6000600c81610a6d600a8661198e565b610a78906001611909565b81526020019081526020016000208054610a9190611938565b80601f0160208091040260200160405190810160405280929190818152602001828054610abd90611938565b8015610b0a5780601f10610adf57610100808354040283529160200191610b0a565b820191906000526020600020905b815481529060010190602001808311610aed57829003601f168201915b5093979650505050505050565b600b8054906000610b2783611973565b9190505550610b3833600b54610f84565b565b6000546001600160a01b03163314610b645760405162461bcd60e51b815260040161044690611883565b6001600160a01b038116610bc95760405162461bcd60e51b815260206004820152602660248201527f4f776e61626c653a206e6577206f776e657220697320746865207a65726f206160448201526564647265737360d01b6064820152608401610446565b600080546040516001600160a01b03808516939216917f8be0079c531659141344cd1fd0a4f28419497f9722a3daafe3b4186f6b6457e091a3600080546001600160a01b0319166001600160a01b0392909216919091179055565b60006001600160e01b031982166380ac58cd60e01b1480610c5557506001600160e01b03198216635b5e139f60e01b145b8061033957506301ffc9a760e01b6001600160e01b0319831614610339565b600081815260056020526040902080546001600160a01b0319166001600160a01b0384169081179091558190610ca982610760565b6001600160a01b03167f8c5be1e5ebec7d5bd14f71427d1e84f3dd0314c0f7b2291e5b200ac8c7c3b92560405160405180910390a45050565b6000818152600360205260408120546001600160a01b0316610d5b5760405162461bcd60e51b815260206004820152602c60248201527f4552433732313a206f70657261746f7220717565727920666f72206e6f6e657860448201526b34b9ba32b73a103a37b5b2b760a11b6064820152608401610446565b6000610d6683610760565b9050806001600160a01b0316846001600160a01b03161480610da15750836001600160a01b0316610d96846103d1565b6001600160a01b0316145b80610dd157506001600160a01b0380821660009081526006602090815260408083209388168352929052205460ff165b949350505050565b826001600160a01b0316610dec82610760565b6001600160a01b031614610e545760405162461bcd60e51b815260206004820152602960248201527f4552433732313a207472616e73666572206f6620746f6b656e2074686174206960448201526839903737ba1037bbb760b91b6064820152608401610446565b6001600160a01b038216610eb65760405162461bcd60e51b8152602060048201526024808201527f4552433732313a207472616e7366657220746f20746865207a65726f206164646044820152637265737360e01b6064820152608401610446565b610ec1838383611105565b610ecc600082610c74565b6001600160a01b0383166000908152600460205260408120805460019290610ef5908490611921565b90915550506001600160a01b0382166000908152600460205260408120805460019290610f23908490611909565b909155505060008181526003602052604080822080546001600160a01b0319166001600160a01b0386811691821790925591518493918716917fddf252ad1be2c89b69c2b068fc378daa952ba7f163c4a11628f55a4df523b3ef91a4505050565b6001600160a01b038216610fda5760405162461bcd60e51b815260206004820181905260248201527f4552433732313a206d696e7420746f20746865207a65726f20616464726573736044820152606401610446565b6000818152600360205260409020546001600160a01b03161561103f5760405162461bcd60e51b815260206004820152601c60248201527f4552433732313a20746f6b656e20616c7265616479206d696e746564000000006044820152606401610446565b61104b60008383611105565b6001600160a01b0382166000908152600460205260408120805460019290611074908490611909565b909155505060008181526003602052604080822080546001600160a01b0319166001600160a01b03861690811790915590518392907fddf252ad1be2c89b69c2b068fc378daa952ba7f163c4a11628f55a4df523b3ef908290a45050565b6110dd848484610dd9565b6110e9848484846111bd565b6109d85760405162461bcd60e51b815260040161044690611831565b6001600160a01b0383166111605761115b81600980546000838152600a60205260408120829055600182018355919091527f6e1540171b6c0c960b71a7020d9f60077f6af931a8bbf590da0223dacf75c7af0155565b611183565b816001600160a01b0316836001600160a01b0316146111835761118383826112ca565b6001600160a01b03821661119a5761057c81611367565b826001600160a01b0316826001600160a01b03161461057c5761057c8282611416565b60006001600160a01b0384163b156112bf57604051630a85bd0160e11b81526001600160a01b0385169063150b7a02906112019033908990889088906004016117e1565b602060405180830381600087803b15801561121b57600080fd5b505af192505050801561124b575060408051601f3d908101601f1916820190925261124891810190611715565b60015b6112a5573d808015611279576040519150601f19603f3d011682016040523d82523d6000602084013e61127e565b606091505b50805161129d5760405162461bcd60e51b815260040161044690611831565b805181602001fd5b6001600160e01b031916630a85bd0160e11b149050610dd1565b506001949350505050565b600060016112d7846107d7565b6112e19190611921565b600083815260086020526040902054909150808214611334576001600160a01b03841660009081526007602090815260408083208584528252808320548484528184208190558352600890915290208190555b5060009182526008602090815260408084208490556001600160a01b039094168352600781528383209183525290812055565b60095460009061137990600190611921565b6000838152600a6020526040812054600980549394509092849081106113a1576113a16119dc565b9060005260206000200154905080600983815481106113c2576113c26119dc565b6000918252602080832090910192909255828152600a909152604080822084905585825281205560098054806113fa576113fa6119c6565b6001900381819060005260206000200160009055905550505050565b6000611421836107d7565b6001600160a01b039093166000908152600760209081526040808320868452825280832085905593825260089052919091209190915550565b82805461146690611938565b90600052602060002090601f01602090048101928261148857600085556114ce565b82601f106114a157805160ff19168380011785556114ce565b828001600101855582156114ce579182015b828111156114ce5782518255916020019190600101906114b3565b506114da9291506114de565b5090565b5b808211156114da57600081556001016114df565b600067ffffffffffffffff8084111561150e5761150e6119f2565b604051601f8501601f19908116603f01168101908282118183101715611536576115366119f2565b8160405280935085815286868601111561154f57600080fd5b858560208301376000602087830101525050509392505050565b80356001600160a01b038116811461158057600080fd5b919050565b60006020828403121561159757600080fd5b6115a082611569565b9392505050565b600080604083850312156115ba57600080fd5b6115c383611569565b91506115d160208401611569565b90509250929050565b6000806000606084860312156115ef57600080fd5b6115f884611569565b925061160660208501611569565b9150604084013590509250925092565b6000806000806080858703121561162c57600080fd5b61163585611569565b935061164360208601611569565b925060408501359150606085013567ffffffffffffffff81111561166657600080fd5b8501601f8101871361167757600080fd5b611686878235602084016114f3565b91505092959194509250565b600080604083850312156116a557600080fd5b6116ae83611569565b9150602083013580151581146116c357600080fd5b809150509250929050565b600080604083850312156116e157600080fd5b6116ea83611569565b946020939093013593505050565b60006020828403121561170a57600080fd5b81356115a081611a08565b60006020828403121561172757600080fd5b81516115a081611a08565b60006020828403121561174457600080fd5b813567ffffffffffffffff81111561175b57600080fd5b8201601f8101841361176c57600080fd5b610dd1848235602084016114f3565b60006020828403121561178d57600080fd5b5035919050565b6000815180845260005b818110156117ba5760208185018101518683018201520161179e565b818111156117cc576000602083870101525b50601f01601f19169290920160200192915050565b6001600160a01b038581168252841660208201526040810183905260806060820181905260009061181490830184611794565b9695505050505050565b6020815260006115a06020830184611794565b60208082526032908201527f4552433732313a207472616e7366657220746f206e6f6e20455243373231526560408201527131b2b4bb32b91034b6b83632b6b2b73a32b960711b606082015260800190565b6020808252818101527f4f776e61626c653a2063616c6c6572206973206e6f7420746865206f776e6572604082015260600190565b60208082526031908201527f4552433732313a207472616e736665722063616c6c6572206973206e6f74206f6040820152701ddb995c881b9bdc88185c1c1c9bdd9959607a1b606082015260800190565b6000821982111561191c5761191c6119b0565b500190565b600082821015611933576119336119b0565b500390565b600181811c9082168061194c57607f821691505b6020821081141561196d57634e487b7160e01b600052602260045260246000fd5b50919050565b6000600019821415611987576119876119b0565b5060010190565b6000826119ab57634e487b7160e01b600052601260045260246000fd5b500690565b634e487b7160e01b600052601160045260246000fd5b634e487b7160e01b600052603160045260246000fd5b634e487b7160e01b600052603260045260246000fd5b634e487b7160e01b600052604160045260246000fd5b6001600160e01b031981168114611a1e57600080fd5b5056fea26469706673582212207351a9717077cf05f1f006618faaa41b291552f92c8bc7e2dc472f2e90106b6464736f6c6343000806003368747470733a2f2f6170692e626363672e6469676974616c2f6170692f626363672f3768747470733a2f2f6170692e626363672e6469676974616c2f6170692f626363672f3168747470733a2f2f6170692e626363672e6469676974616c2f6170692f626363672f313068747470733a2f2f6170692e626363672e6469676974616c2f6170692f626363672f3568747470733a2f2f6170692e626363672e6469676974616c2f6170692f626363672f3368747470733a2f2f6170692e626363672e6469676974616c2f6170692f626363672f3668747470733a2f2f6170692e626363672e6469676974616c2f6170692f626363672f3468747470733a2f2f6170692e626363672e6469676974616c2f6170692f626363672f3268747470733a2f2f6170692e626363672e6469676974616c2f6170692f626363672f3868747470733a2f2f6170692e626363672e6469676974616c2f6170692f626363672f39",
  "devdoc": {
    "kind": "dev",
    "methods": {
      "approve(address,uint256)": {
        "details": "See {IERC721-approve}."
      },
      "balanceOf(address)": {
        "details": "See {IERC721-balanceOf}."
      },
      "getApproved(uint256)": {
        "details": "See {IERC721-getApproved}."
      },
      "isApprovedForAll(address,address)": {
        "details": "See {IERC721-isApprovedForAll}."
      },
      "name()": {
        "details": "See {IERC721Metadata-name}."
      },
      "owner()": {
        "details": "Returns the address of the current owner."
      },
      "ownerOf(uint256)": {
        "details": "See {IERC721-ownerOf}."
      },
      "renounceOwnership()": {
        "details": "Leaves the contract without owner. It will not be possible to call `onlyOwner` functions anymore. Can only be called by the current owner. NOTE: Renouncing ownership will leave the contract without an owner, thereby removing any functionality that is only available to the owner."
      },
      "safeTransferFrom(address,address,uint256)": {
        "details": "See {IERC721-safeTransferFrom}."
      },
      "safeTransferFrom(address,address,uint256,bytes)": {
        "details": "See {IERC721-safeTransferFrom}."
      },
      "setApprovalForAll(address,bool)": {
        "details": "See {IERC721-setApprovalForAll}."
      },
      "supportsInterface(bytes4)": {
        "details": "See {IERC165-supportsInterface}."
      },
      "symbol()": {
        "details": "See {IERC721Metadata-symbol}."
      },
      "tokenByIndex(uint256)": {
        "details": "See {IERC721Enumerable-tokenByIndex}."
      },
      "tokenOfOwnerByIndex(address,uint256)": {
        "details": "See {IERC721Enumerable-tokenOfOwnerByIndex}."
      },
      "tokenURI(uint256)": {
        "details": "See {IERC721Metadata-tokenURI}."
      },
      "totalSupply()": {
        "details": "See {IERC721Enumerable-totalSupply}."
      },
      "transferFrom(address,address,uint256)": {
        "details": "See {IERC721-transferFrom}."
      },
      "transferOwnership(address)": {
        "details": "Transfers ownership of the contract to a new account (`newOwner`). Can only be called by the current owner."
      }
    },
    "version": 1
  },
  "userdoc": {
    "kind": "user",
    "methods": {},
    "version": 1
  },
  "storageLayout": {
    "storage": [
      {
        "astId": 7,
        "contract": "src/Test/E721.sol:E721",
        "label": "_owner",
        "offset": 0,
        "slot": "0",
        "type": "t_address"
      },
      {
        "astId": 2235,
        "contract": "src/Test/E721.sol:E721",
        "label": "_name",
        "offset": 0,
        "slot": "1",
        "type": "t_string_storage"
      },
      {
        "astId": 2237,
        "contract": "src/Test/E721.sol:E721",
        "label": "_symbol",
        "offset": 0,
        "slot": "2",
        "type": "t_string_storage"
      },
      {
        "astId": 2241,
        "contract": "src/Test/E721.sol:E721",
        "label": "_owners",
        "offset": 0,
        "slot": "3",
        "type": "t_mapping(t_uint256,t_address)"
      },
      {
        "astId": 2245,
        "contract": "src/Test/E721.sol:E721",
        "label": "_balances",
        "offset": 0,
        "slot": "4",
        "type": "t_mapping(t_address,t_uint256)"
      },
      {
        "astId": 2249,
        "contract": "src/Test/E721.sol:E721",
        "label": "_tokenApprovals",
        "offset": 0,
        "slot": "5",
        "type": "t_mapping(t_uint256,t_address)"
      },
      {
        "astId": 2255,
        "contract": "src/Test/E721.sol:E721",
        "label": "_operatorApprovals",
        "offset": 0,
        "slot": "6",
        "type": "t_mapping(t_address,t_mapping(t_address,t_bool))"
      },
      {
        "astId": 3178,
        "contract": "src/Test/E721.sol:E721",
        "label": "_ownedTokens",
        "offset": 0,
        "slot": "7",
        "type": "t_mapping(t_address,t_mapping(t_uint256,t_uint256))"
      },
      {
        "astId": 3182,
        "contract": "src/Test/E721.sol:E721",
        "label": "_ownedTokensIndex",
        "offset": 0,
        "slot": "8",
        "type": "t_mapping(t_uint256,t_uint256)"
      },
      {
        "astId": 3185,
        "contract": "src/Test/E721.sol:E721",
        "label": "_allTokens",
        "offset": 0,
        "slot": "9",
        "type": "t_array(t_uint256)dyn_storage"
      },
      {
        "astId": 3189,
        "contract": "src/Test/E721.sol:E721",
        "label": "_allTokensIndex",
        "offset": 0,
        "slot": "10",
        "type": "t_mapping(t_uint256,t_uint256)"
      },
      {
        "astId": 6890,
        "contract": "src/Test/E721.sol:E721",
        "label": "counter",
        "offset": 0,
        "slot": "11",
        "type": "t_uint256"
      },
      {
        "astId": 6897,
        "contract": "src/Test/E721.sol:E721",
        "label": "_tokenURIs",
        "offset": 0,
        "slot": "12",
        "type": "t_mapping(t_uint256,t_string_storage)"
      },
      {
        "astId": 6899,
        "contract": "src/Test/E721.sol:E721",
        "label": "_baseURIextended",
        "offset": 0,
        "slot": "13",
        "type": "t_string_storage"
      }
    ],
    "types": {
      "t_address": {
        "encoding": "inplace",
        "label": "address",
        "numberOfBytes": "20"
      },
      "t_array(t_uint256)dyn_storage": {
        "base": "t_uint256",
        "encoding": "dynamic_array",
        "label": "uint256[]",
        "numberOfBytes": "32"
      },
      "t_bool": {
        "encoding": "inplace",
        "label": "bool",
        "numberOfBytes": "1"
      },
      "t_mapping(t_address,t_bool)": {
        "encoding": "mapping",
        "key": "t_address",
        "label": "mapping(address => bool)",
        "numberOfBytes": "32",
        "value": "t_bool"
      },
      "t_mapping(t_address,t_mapping(t_address,t_bool))": {
        "encoding": "mapping",
        "key": "t_address",
        "label": "mapping(address => mapping(address => bool))",
        "numberOfBytes": "32",
        "value": "t_mapping(t_address,t_bool)"
      },
      "t_mapping(t_address,t_mapping(t_uint256,t_uint256))": {
        "encoding": "mapping",
        "key": "t_address",
        "label": "mapping(address => mapping(uint256 => uint256))",
        "numberOfBytes": "32",
        "value": "t_mapping(t_uint256,t_uint256)"
      },
      "t_mapping(t_address,t_uint256)": {
        "encoding": "mapping",
        "key": "t_address",
        "label": "mapping(address => uint256)",
        "numberOfBytes": "32",
        "value": "t_uint256"
      },
      "t_mapping(t_uint256,t_address)": {
        "encoding": "mapping",
        "key": "t_uint256",
        "label": "mapping(uint256 => address)",
        "numberOfBytes": "32",
        "value": "t_address"
      },
      "t_mapping(t_uint256,t_string_storage)": {
        "encoding": "mapping",
        "key": "t_uint256",
        "label": "mapping(uint256 => string)",
        "numberOfBytes": "32",
        "value": "t_string_storage"
      },
      "t_mapping(t_uint256,t_uint256)": {
        "encoding": "mapping",
        "key": "t_uint256",
        "label": "mapping(uint256 => uint256)",
        "numberOfBytes": "32",
        "value": "t_uint256"
      },
      "t_string_storage": {
        "encoding": "bytes",
        "label": "string",
        "numberOfBytes": "32"
      },
      "t_uint256": {
        "encoding": "inplace",
        "label": "uint256",
        "numberOfBytes": "32"
      }
    }
  }
}