{
  "address": "0x6F77E6D14034325e0D77051A47E51eade6ba5E44",
  "abi": [
    {
      "inputs": [],
      "stateMutability": "nonpayable",
      "type": "constructor"
    },
    {
      "anonymous": false,
      "inputs": [
        {
          "indexed": true,
          "internalType": "address",
          "name": "owner",
          "type": "address"
        },
        {
          "indexed": true,
          "internalType": "address",
          "name": "approved",
          "type": "address"
        },
        {
          "indexed": true,
          "internalType": "uint256",
          "name": "tokenId",
          "type": "uint256"
        }
      ],
      "name": "Approval",
      "type": "event"
    },
    {
      "anonymous": false,
      "inputs": [
        {
          "indexed": true,
          "internalType": "address",
          "name": "owner",
          "type": "address"
        },
        {
          "indexed": true,
          "internalType": "address",
          "name": "operator",
          "type": "address"
        },
        {
          "indexed": false,
          "internalType": "bool",
          "name": "approved",
          "type": "bool"
        }
      ],
      "name": "ApprovalForAll",
      "type": "event"
    },
    {
      "anonymous": false,
      "inputs": [
        {
          "indexed": true,
          "internalType": "address",
          "name": "previousOwner",
          "type": "address"
        },
        {
          "indexed": true,
          "internalType": "address",
          "name": "newOwner",
          "type": "address"
        }
      ],
      "name": "OwnershipTransferred",
      "type": "event"
    },
    {
      "anonymous": false,
      "inputs": [
        {
          "indexed": true,
          "internalType": "address",
          "name": "from",
          "type": "address"
        },
        {
          "indexed": true,
          "internalType": "address",
          "name": "to",
          "type": "address"
        },
        {
          "indexed": true,
          "internalType": "uint256",
          "name": "tokenId",
          "type": "uint256"
        }
      ],
      "name": "Transfer",
      "type": "event"
    },
    {
      "inputs": [
        {
          "internalType": "address",
          "name": "to",
          "type": "address"
        },
        {
          "internalType": "uint256",
          "name": "tokenId",
          "type": "uint256"
        }
      ],
      "name": "approve",
      "outputs": [],
      "stateMutability": "nonpayable",
      "type": "function"
    },
    {
      "inputs": [],
      "name": "award",
      "outputs": [
        {
          "internalType": "uint256",
          "name": "",
          "type": "uint256"
        }
      ],
      "stateMutability": "nonpayable",
      "type": "function"
    },
    {
      "inputs": [
        {
          "internalType": "address",
          "name": "owner",
          "type": "address"
        }
      ],
      "name": "balanceOf",
      "outputs": [
        {
          "internalType": "uint256",
          "name": "",
          "type": "uint256"
        }
      ],
      "stateMutability": "view",
      "type": "function"
    },
    {
      "inputs": [],
      "name": "faucet",
      "outputs": [],
      "stateMutability": "nonpayable",
      "type": "function"
    },
    {
      "inputs": [
        {
          "internalType": "uint256",
          "name": "tokenId",
          "type": "uint256"
        }
      ],
      "name": "getApproved",
      "outputs": [
        {
          "internalType": "address",
          "name": "",
          "type": "address"
        }
      ],
      "stateMutability": "view",
      "type": "function"
    },
    {
      "inputs": [
        {
          "internalType": "address",
          "name": "owner",
          "type": "address"
        },
        {
          "internalType": "address",
          "name": "operator",
          "type": "address"
        }
      ],
      "name": "isApprovedForAll",
      "outputs": [
        {
          "internalType": "bool",
          "name": "",
          "type": "bool"
        }
      ],
      "stateMutability": "view",
      "type": "function"
    },
    {
      "inputs": [],
      "name": "name",
      "outputs": [
        {
          "internalType": "string",
          "name": "",
          "type": "string"
        }
      ],
      "stateMutability": "view",
      "type": "function"
    },
    {
      "inputs": [],
      "name": "owner",
      "outputs": [
        {
          "internalType": "address",
          "name": "",
          "type": "address"
        }
      ],
      "stateMutability": "view",
      "type": "function"
    },
    {
      "inputs": [
        {
          "internalType": "uint256",
          "name": "tokenId",
          "type": "uint256"
        }
      ],
      "name": "ownerOf",
      "outputs": [
        {
          "internalType": "address",
          "name": "",
          "type": "address"
        }
      ],
      "stateMutability": "view",
      "type": "function"
    },
    {
      "inputs": [],
      "name": "renounceOwnership",
      "outputs": [],
      "stateMutability": "nonpayable",
      "type": "function"
    },
    {
      "inputs": [
        {
          "internalType": "address",
          "name": "from",
          "type": "address"
        },
        {
          "internalType": "address",
          "name": "to",
          "type": "address"
        },
        {
          "internalType": "uint256",
          "name": "tokenId",
          "type": "uint256"
        }
      ],
      "name": "safeTransferFrom",
      "outputs": [],
      "stateMutability": "nonpayable",
      "type": "function"
    },
    {
      "inputs": [
        {
          "internalType": "address",
          "name": "from",
          "type": "address"
        },
        {
          "internalType": "address",
          "name": "to",
          "type": "address"
        },
        {
          "internalType": "uint256",
          "name": "tokenId",
          "type": "uint256"
        },
        {
          "internalType": "bytes",
          "name": "_data",
          "type": "bytes"
        }
      ],
      "name": "safeTransferFrom",
      "outputs": [],
      "stateMutability": "nonpayable",
      "type": "function"
    },
    {
      "inputs": [
        {
          "internalType": "address",
          "name": "operator",
          "type": "address"
        },
        {
          "internalType": "bool",
          "name": "approved",
          "type": "bool"
        }
      ],
      "name": "setApprovalForAll",
      "outputs": [],
      "stateMutability": "nonpayable",
      "type": "function"
    },
    {
      "inputs": [
        {
          "internalType": "string",
          "name": "baseURI_",
          "type": "string"
        }
      ],
      "name": "setBaseURI",
      "outputs": [],
      "stateMutability": "nonpayable",
      "type": "function"
    },
    {
      "inputs": [
        {
          "internalType": "bytes4",
          "name": "interfaceId",
          "type": "bytes4"
        }
      ],
      "name": "supportsInterface",
      "outputs": [
        {
          "internalType": "bool",
          "name": "",
          "type": "bool"
        }
      ],
      "stateMutability": "view",
      "type": "function"
    },
    {
      "inputs": [],
      "name": "symbol",
      "outputs": [
        {
          "internalType": "string",
          "name": "",
          "type": "string"
        }
      ],
      "stateMutability": "view",
      "type": "function"
    },
    {
      "inputs": [
        {
          "internalType": "uint256",
          "name": "index",
          "type": "uint256"
        }
      ],
      "name": "tokenByIndex",
      "outputs": [
        {
          "internalType": "uint256",
          "name": "",
          "type": "uint256"
        }
      ],
      "stateMutability": "view",
      "type": "function"
    },
    {
      "inputs": [
        {
          "internalType": "address",
          "name": "owner",
          "type": "address"
        },
        {
          "internalType": "uint256",
          "name": "index",
          "type": "uint256"
        }
      ],
      "name": "tokenOfOwnerByIndex",
      "outputs": [
        {
          "internalType": "uint256",
          "name": "",
          "type": "uint256"
        }
      ],
      "stateMutability": "view",
      "type": "function"
    },
    {
      "inputs": [
        {
          "internalType": "uint256",
          "name": "tokenId",
          "type": "uint256"
        }
      ],
      "name": "tokenURI",
      "outputs": [
        {
          "internalType": "string",
          "name": "",
          "type": "string"
        }
      ],
      "stateMutability": "view",
      "type": "function"
    },
    {
      "inputs": [],
      "name": "totalSupply",
      "outputs": [
        {
          "internalType": "uint256",
          "name": "",
          "type": "uint256"
        }
      ],
      "stateMutability": "view",
      "type": "function"
    },
    {
      "inputs": [
        {
          "internalType": "address",
          "name": "from",
          "type": "address"
        },
        {
          "internalType": "address",
          "name": "to",
          "type": "address"
        },
        {
          "internalType": "uint256",
          "name": "tokenId",
          "type": "uint256"
        }
      ],
      "name": "transferFrom",
      "outputs": [],
      "stateMutability": "nonpayable",
      "type": "function"
    },
    {
      "inputs": [
        {
          "internalType": "address",
          "name": "newOwner",
          "type": "address"
        }
      ],
      "name": "transferOwnership",
      "outputs": [],
      "stateMutability": "nonpayable",
      "type": "function"
    }
  ],
  "transactionHash": "0xb354a4d4ea8478c8bcf307442b2497798b9507f84c7c1adfd48529d590dcc559",
  "args": [],
  "solcInputHash": "df8be8bb3db2b5e56d3e167cdedff2a9",
  "bytecode": "0x60806040526000600b553480156200001657600080fd5b50604051806040016040528060048152602001634537323160e01b815250604051806040016040528060048152602001634537323160e01b8152506000620000636200045160201b60201c565b600080546001600160a01b0319166001600160a01b0383169081178255604051929350917f8be0079c531659141344cd1fd0a4f28419497f9722a3daafe3b4186f6b6457e0908290a3508151620000c290600190602085019062000455565b508051620000d890600290602084019062000455565b505050604051806060016040528060238152602001620020a6602391396001600052600c6020908152815162000132927fd421a5181c571bba3f01190c922c3b2a896fc1d84e86c9f17ac10e67ebef8b5c92019062000455565b5060405180606001604052806023815260200162002179602391396002600052600c602090815281516200018a927f5d6016397a73f5e079297ac5a36fef17b4d9c3831618e63ab105738020ddd72092019062000455565b5060405180606001604052806023815260200162002110602391396003600052600c60209081528151620001e2927fc0da782485e77ae272268ae0a3ff44c1552ecb60b3743924de17a815e0a3cfd792019062000455565b5060405180606001604052806023815260200162002156602391396004600052600c602090815281516200023a927f5b84bb9e0f5aa9cc45a8bb66468db5d4816d1e75ff86b5e1f1dd8d144dab809792019062000455565b50604051806060016040528060238152602001620020ed602391396005600052600c6020908152815162000292927f2cd9ebf6ff19cdd7ffcc447d7c7d47b5991f5c7392a04512134e765802361fa692019062000455565b5060405180606001604052806023815260200162002133602391396006600052600c60209081528151620002ea927f980f427e00e74f6d338adfccc7468518c8c8ea00836d0dce98c5fe154e17bf2b92019062000455565b5060405180606001604052806023815260200162002083602391396007600052600c6020908152815162000342927fdae089abd7155aa13ce498edb0d7a7156b783d015031f10c9a3d4f5fcb51897192019062000455565b506040518060600160405280602381526020016200219c602391396008600052600c602090815281516200039a927f5ff1be3842b54290a9d10674244dae5848d2371b5314790c54805c086586e1df92019062000455565b50604051806060016040528060238152602001620021bf602391396009600052600c60209081528151620003f2927f2fb3c9afecd3f0d43923381d3e9f60168c039b98f0b7120382e81b682b7bc31692019062000455565b50604051806060016040528060248152602001620020c960249139600a600052600c602090815281516200044a927f9e6c92d7be355807bd948171438a5e65aaf9e4c36f1405c1b9ca25d27c4ea3a092019062000455565b5062000538565b3390565b8280546200046390620004fb565b90600052602060002090601f016020900481019282620004875760008555620004d2565b82601f10620004a257805160ff1916838001178555620004d2565b82800160010185558215620004d2579182015b82811115620004d2578251825591602001919060010190620004b5565b50620004e0929150620004e4565b5090565b5b80821115620004e05760008155600101620004e5565b6002810460018216806200051057607f821691505b602082108114156200053257634e487b7160e01b600052602260045260246000fd5b50919050565b611b3b80620005486000396000f3fe608060405234801561001057600080fd5b50600436106101425760003560e01c80636352211e116100b8578063a22cb4651161007c578063a22cb46514610274578063b88d4fde14610287578063c87b56dd1461029a578063de5f72fd146102ad578063e985e9c5146102b5578063f2fde38b146102c857610142565b80636352211e1461023657806370a0823114610249578063715018a61461025c5780638da5cb5b1461026457806395d89b411461026c57610142565b806323b872dd1161010a57806323b872dd146101cf5780632f745c59146101e257806341a494c5146101f557806342842e0e146101fd5780634f6ccce71461021057806355f804b31461022357610142565b806301ffc9a71461014757806306fdde0314610170578063081812fc14610185578063095ea7b3146101a557806318160ddd146101ba575b600080fd5b61015a6101553660046113e5565b6102db565b6040516101679190611517565b60405180910390f35b610178610308565b6040516101679190611522565b610198610193366004611463565b61039a565b60405161016791906114c6565b6101b86101b33660046113bc565b6103e6565b005b6101c261047e565b6040516101679190611a32565b6101b86101dd3660046112ce565b610484565b6101c26101f03660046113bc565b6104bc565b6101c261050e565b6101b861020b3660046112ce565b610537565b6101c261021e366004611463565b610552565b6101b861023136600461141d565b6105ad565b610198610244366004611463565b610603565b6101c261025736600461127b565b610638565b6101b861067c565b610198610705565b610178610714565b6101b8610282366004611382565b610723565b6101b8610295366004611309565b6107f1565b6101786102a8366004611463565b610830565b6101b86108f6565b61015a6102c336600461129c565b610919565b6101b86102d636600461127b565b610947565b60006001600160e01b0319821663780e9d6360e01b1480610300575061030082610a07565b90505b919050565b60606001805461031790611a6a565b80601f016020809104026020016040519081016040528092919081815260200182805461034390611a6a565b80156103905780601f1061036557610100808354040283529160200191610390565b820191906000526020600020905b81548152906001019060200180831161037357829003601f168201915b5050505050905090565b60006103a582610a47565b6103ca5760405162461bcd60e51b81526004016103c19061183b565b60405180910390fd5b506000908152600560205260409020546001600160a01b031690565b60006103f182610603565b9050806001600160a01b0316836001600160a01b031614156104255760405162461bcd60e51b81526004016103c190611954565b806001600160a01b0316610437610a64565b6001600160a01b031614806104535750610453816102c3610a64565b61046f5760405162461bcd60e51b81526004016103c190611716565b6104798383610a68565b505050565b60095490565b61049561048f610a64565b82610ad6565b6104b15760405162461bcd60e51b81526004016103c190611995565b610479838383610b5b565b60006104c783610638565b82106104e55760405162461bcd60e51b81526004016103c190611535565b506001600160a01b03919091166000908152600760209081526040808320938352929052205490565b600b80546000918261051f83611aa5565b919050555061053033600b54610c88565b50600b5490565b610479838383604051806020016040528060008152506107f1565b600061055c61047e565b821061057a5760405162461bcd60e51b81526004016103c1906119e6565b6009828154811061059b57634e487b7160e01b600052603260045260246000fd5b90600052602060002001549050919050565b6105b5610a64565b6001600160a01b03166105c6610705565b6001600160a01b0316146105ec5760405162461bcd60e51b81526004016103c190611887565b80516105ff90600d90602084019061115b565b5050565b6000818152600360205260408120546001600160a01b0316806103005760405162461bcd60e51b81526004016103c1906117bd565b60006001600160a01b0382166106605760405162461bcd60e51b81526004016103c190611773565b506001600160a01b031660009081526004602052604090205490565b610684610a64565b6001600160a01b0316610695610705565b6001600160a01b0316146106bb5760405162461bcd60e51b81526004016103c190611887565b600080546040516001600160a01b03909116907f8be0079c531659141344cd1fd0a4f28419497f9722a3daafe3b4186f6b6457e0908390a3600080546001600160a01b0319169055565b6000546001600160a01b031690565b60606002805461031790611a6a565b61072b610a64565b6001600160a01b0316826001600160a01b0316141561075c5760405162461bcd60e51b81526004016103c190611693565b8060066000610769610a64565b6001600160a01b03908116825260208083019390935260409182016000908120918716808252919093529120805460ff1916921515929092179091556107ad610a64565b6001600160a01b03167f17307eab39ab6107e8899845ad3d59bd9653f200f220920489ca2b5937696c31836040516107e59190611517565b60405180910390a35050565b6108026107fc610a64565b83610ad6565b61081e5760405162461bcd60e51b81526004016103c190611995565b61082a84848484610d67565b50505050565b606061083b82610a47565b6108575760405162461bcd60e51b81526004016103c190611905565b6000828152600c60205260408120805461087090611a6a565b80601f016020809104026020016040519081016040528092919081815260200182805461089c90611a6a565b80156108e95780601f106108be576101008083540402835291602001916108e9565b820191906000526020600020905b8154815290600101906020018083116108cc57829003601f168201915b5093979650505050505050565b600b805490600061090683611aa5565b919050555061091733600b54610c88565b565b6001600160a01b03918216600090815260066020908152604080832093909416825291909152205460ff1690565b61094f610a64565b6001600160a01b0316610960610705565b6001600160a01b0316146109865760405162461bcd60e51b81526004016103c190611887565b6001600160a01b0381166109ac5760405162461bcd60e51b81526004016103c1906115d2565b600080546040516001600160a01b03808516939216917f8be0079c531659141344cd1fd0a4f28419497f9722a3daafe3b4186f6b6457e091a3600080546001600160a01b0319166001600160a01b0392909216919091179055565b60006001600160e01b031982166380ac58cd60e01b1480610a3857506001600160e01b03198216635b5e139f60e01b145b80610300575061030082610d9a565b6000908152600360205260409020546001600160a01b0316151590565b3390565b600081815260056020526040902080546001600160a01b0319166001600160a01b0384169081179091558190610a9d82610603565b6001600160a01b03167f8c5be1e5ebec7d5bd14f71427d1e84f3dd0314c0f7b2291e5b200ac8c7c3b92560405160405180910390a45050565b6000610ae182610a47565b610afd5760405162461bcd60e51b81526004016103c1906116ca565b6000610b0883610603565b9050806001600160a01b0316846001600160a01b03161480610b435750836001600160a01b0316610b388461039a565b6001600160a01b0316145b80610b535750610b538185610919565b949350505050565b826001600160a01b0316610b6e82610603565b6001600160a01b031614610b945760405162461bcd60e51b81526004016103c1906118bc565b6001600160a01b038216610bba5760405162461bcd60e51b81526004016103c19061164f565b610bc5838383610db3565b610bd0600082610a68565b6001600160a01b0383166000908152600460205260408120805460019290610bf9908490611a53565b90915550506001600160a01b0382166000908152600460205260408120805460019290610c27908490611a3b565b909155505060008181526003602052604080822080546001600160a01b0319166001600160a01b0386811691821790925591518493918716917fddf252ad1be2c89b69c2b068fc378daa952ba7f163c4a11628f55a4df523b3ef91a4505050565b6001600160a01b038216610cae5760405162461bcd60e51b81526004016103c190611806565b610cb781610a47565b15610cd45760405162461bcd60e51b81526004016103c190611618565b610ce060008383610db3565b6001600160a01b0382166000908152600460205260408120805460019290610d09908490611a3b565b909155505060008181526003602052604080822080546001600160a01b0319166001600160a01b03861690811790915590518392907fddf252ad1be2c89b69c2b068fc378daa952ba7f163c4a11628f55a4df523b3ef908290a45050565b610d72848484610b5b565b610d7e84848484610e3c565b61082a5760405162461bcd60e51b81526004016103c190611580565b6001600160e01b031981166301ffc9a760e01b14919050565b610dbe838383610479565b6001600160a01b038316610dda57610dd581610f57565b610dfd565b816001600160a01b0316836001600160a01b031614610dfd57610dfd8382610f9b565b6001600160a01b038216610e1957610e1481611038565b610479565b826001600160a01b0316826001600160a01b031614610479576104798282611111565b6000610e50846001600160a01b0316611155565b15610f4c57836001600160a01b031663150b7a02610e6c610a64565b8786866040518563ffffffff1660e01b8152600401610e8e94939291906114da565b602060405180830381600087803b158015610ea857600080fd5b505af1925050508015610ed8575060408051601f3d908101601f19168201909252610ed591810190611401565b60015b610f32573d808015610f06576040519150601f19603f3d011682016040523d82523d6000602084013e610f0b565b606091505b508051610f2a5760405162461bcd60e51b81526004016103c190611580565b805181602001fd5b6001600160e01b031916630a85bd0160e11b149050610b53565b506001949350505050565b600980546000838152600a60205260408120829055600182018355919091527f6e1540171b6c0c960b71a7020d9f60077f6af931a8bbf590da0223dacf75c7af0155565b60006001610fa884610638565b610fb29190611a53565b600083815260086020526040902054909150808214611005576001600160a01b03841660009081526007602090815260408083208584528252808320548484528184208190558352600890915290208190555b5060009182526008602090815260408084208490556001600160a01b039094168352600781528383209183525290812055565b60095460009061104a90600190611a53565b6000838152600a60205260408120546009805493945090928490811061108057634e487b7160e01b600052603260045260246000fd5b9060005260206000200154905080600983815481106110af57634e487b7160e01b600052603260045260246000fd5b6000918252602080832090910192909255828152600a909152604080822084905585825281205560098054806110f557634e487b7160e01b600052603160045260246000fd5b6001900381819060005260206000200160009055905550505050565b600061111c83610638565b6001600160a01b039093166000908152600760209081526040808320868452825280832085905593825260089052919091209190915550565b3b151590565b82805461116790611a6a565b90600052602060002090601f01602090048101928261118957600085556111cf565b82601f106111a257805160ff19168380011785556111cf565b828001600101855582156111cf579182015b828111156111cf5782518255916020019190600101906111b4565b506111db9291506111df565b5090565b5b808211156111db57600081556001016111e0565b600067ffffffffffffffff8084111561120f5761120f611ad6565b604051601f8501601f19168101602001828111828210171561123357611233611ad6565b60405284815291508183850186101561124b57600080fd5b8484602083013760006020868301015250509392505050565b80356001600160a01b038116811461030357600080fd5b60006020828403121561128c578081fd5b61129582611264565b9392505050565b600080604083850312156112ae578081fd5b6112b783611264565b91506112c560208401611264565b90509250929050565b6000806000606084860312156112e2578081fd5b6112eb84611264565b92506112f960208501611264565b9150604084013590509250925092565b6000806000806080858703121561131e578081fd5b61132785611264565b935061133560208601611264565b925060408501359150606085013567ffffffffffffffff811115611357578182fd5b8501601f81018713611367578182fd5b611376878235602084016111f4565b91505092959194509250565b60008060408385031215611394578182fd5b61139d83611264565b9150602083013580151581146113b1578182fd5b809150509250929050565b600080604083850312156113ce578182fd5b6113d783611264565b946020939093013593505050565b6000602082840312156113f6578081fd5b813561129581611aec565b600060208284031215611412578081fd5b815161129581611aec565b60006020828403121561142e578081fd5b813567ffffffffffffffff811115611444578182fd5b8201601f81018413611454578182fd5b610b53848235602084016111f4565b600060208284031215611474578081fd5b5035919050565b60008151808452815b818110156114a057602081850181015186830182015201611484565b818111156114b15782602083870101525b50601f01601f19169290920160200192915050565b6001600160a01b0391909116815260200190565b6001600160a01b038581168252841660208201526040810183905260806060820181905260009061150d9083018461147b565b9695505050505050565b901515815260200190565b600060208252611295602083018461147b565b6020808252602b908201527f455243373231456e756d657261626c653a206f776e657220696e646578206f7560408201526a74206f6620626f756e647360a81b606082015260800190565b60208082526032908201527f4552433732313a207472616e7366657220746f206e6f6e20455243373231526560408201527131b2b4bb32b91034b6b83632b6b2b73a32b960711b606082015260800190565b60208082526026908201527f4f776e61626c653a206e6577206f776e657220697320746865207a65726f206160408201526564647265737360d01b606082015260800190565b6020808252601c908201527f4552433732313a20746f6b656e20616c7265616479206d696e74656400000000604082015260600190565b60208082526024908201527f4552433732313a207472616e7366657220746f20746865207a65726f206164646040820152637265737360e01b606082015260800190565b60208082526019908201527f4552433732313a20617070726f766520746f2063616c6c657200000000000000604082015260600190565b6020808252602c908201527f4552433732313a206f70657261746f7220717565727920666f72206e6f6e657860408201526b34b9ba32b73a103a37b5b2b760a11b606082015260800190565b60208082526038908201527f4552433732313a20617070726f76652063616c6c6572206973206e6f74206f7760408201527f6e6572206e6f7220617070726f76656420666f7220616c6c0000000000000000606082015260800190565b6020808252602a908201527f4552433732313a2062616c616e636520717565727920666f7220746865207a65604082015269726f206164647265737360b01b606082015260800190565b60208082526029908201527f4552433732313a206f776e657220717565727920666f72206e6f6e657869737460408201526832b73a103a37b5b2b760b91b606082015260800190565b6020808252818101527f4552433732313a206d696e7420746f20746865207a65726f2061646472657373604082015260600190565b6020808252602c908201527f4552433732313a20617070726f76656420717565727920666f72206e6f6e657860408201526b34b9ba32b73a103a37b5b2b760a11b606082015260800190565b6020808252818101527f4f776e61626c653a2063616c6c6572206973206e6f7420746865206f776e6572604082015260600190565b60208082526029908201527f4552433732313a207472616e73666572206f6620746f6b656e2074686174206960408201526839903737ba1037bbb760b91b606082015260800190565b6020808252602f908201527f4552433732314d657461646174613a2055524920717565727920666f72206e6f60408201526e3732bc34b9ba32b73a103a37b5b2b760891b606082015260800190565b60208082526021908201527f4552433732313a20617070726f76616c20746f2063757272656e74206f776e656040820152603960f91b606082015260800190565b60208082526031908201527f4552433732313a207472616e736665722063616c6c6572206973206e6f74206f6040820152701ddb995c881b9bdc88185c1c1c9bdd9959607a1b606082015260800190565b6020808252602c908201527f455243373231456e756d657261626c653a20676c6f62616c20696e646578206f60408201526b7574206f6620626f756e647360a01b606082015260800190565b90815260200190565b60008219821115611a4e57611a4e611ac0565b500190565b600082821015611a6557611a65611ac0565b500390565b600281046001821680611a7e57607f821691505b60208210811415611a9f57634e487b7160e01b600052602260045260246000fd5b50919050565b6000600019821415611ab957611ab9611ac0565b5060010190565b634e487b7160e01b600052601160045260246000fd5b634e487b7160e01b600052604160045260246000fd5b6001600160e01b031981168114611b0257600080fd5b5056fea264697066735822122027d5e5f151fdc56dabeb7d76efa7835924712c4f15e977023623fb6cb6a3932f64736f6c6343000800003368747470733a2f2f6170692e626363672e6469676974616c2f6170692f626363672f3768747470733a2f2f6170692e626363672e6469676974616c2f6170692f626363672f3168747470733a2f2f6170692e626363672e6469676974616c2f6170692f626363672f313068747470733a2f2f6170692e626363672e6469676974616c2f6170692f626363672f3568747470733a2f2f6170692e626363672e6469676974616c2f6170692f626363672f3368747470733a2f2f6170692e626363672e6469676974616c2f6170692f626363672f3668747470733a2f2f6170692e626363672e6469676974616c2f6170692f626363672f3468747470733a2f2f6170692e626363672e6469676974616c2f6170692f626363672f3268747470733a2f2f6170692e626363672e6469676974616c2f6170692f626363672f3868747470733a2f2f6170692e626363672e6469676974616c2f6170692f626363672f39",
  "devdoc": {
    "kind": "dev",
    "methods": {
      "approve(address,uint256)": {
        "details": "See {IERC721-approve}."
      },
      "balanceOf(address)": {
        "details": "See {IERC721-balanceOf}."
      },
      "getApproved(uint256)": {
        "details": "See {IERC721-getApproved}."
      },
      "isApprovedForAll(address,address)": {
        "details": "See {IERC721-isApprovedForAll}."
      },
      "name()": {
        "details": "See {IERC721Metadata-name}."
      },
      "owner()": {
        "details": "Returns the address of the current owner."
      },
      "ownerOf(uint256)": {
        "details": "See {IERC721-ownerOf}."
      },
      "renounceOwnership()": {
        "details": "Leaves the contract without owner. It will not be possible to call `onlyOwner` functions anymore. Can only be called by the current owner. NOTE: Renouncing ownership will leave the contract without an owner, thereby removing any functionality that is only available to the owner."
      },
      "safeTransferFrom(address,address,uint256)": {
        "details": "See {IERC721-safeTransferFrom}."
      },
      "safeTransferFrom(address,address,uint256,bytes)": {
        "details": "See {IERC721-safeTransferFrom}."
      },
      "setApprovalForAll(address,bool)": {
        "details": "See {IERC721-setApprovalForAll}."
      },
      "supportsInterface(bytes4)": {
        "details": "See {IERC165-supportsInterface}."
      },
      "symbol()": {
        "details": "See {IERC721Metadata-symbol}."
      },
      "tokenByIndex(uint256)": {
        "details": "See {IERC721Enumerable-tokenByIndex}."
      },
      "tokenOfOwnerByIndex(address,uint256)": {
        "details": "See {IERC721Enumerable-tokenOfOwnerByIndex}."
      },
      "tokenURI(uint256)": {
        "details": "See {IERC721Metadata-tokenURI}."
      },
      "totalSupply()": {
        "details": "See {IERC721Enumerable-totalSupply}."
      },
      "transferFrom(address,address,uint256)": {
        "details": "See {IERC721-transferFrom}."
      },
      "transferOwnership(address)": {
        "details": "Transfers ownership of the contract to a new account (`newOwner`). Can only be called by the current owner."
      }
    },
    "version": 1
  },
  "userdoc": {
    "kind": "user",
    "methods": {},
    "version": 1
  },
  "storageLayout": {
    "storage": [
      {
        "astId": 7,
        "contract": "src/Test/E721.sol:E721",
        "label": "_owner",
        "offset": 0,
        "slot": "0",
        "type": "t_address"
      },
      {
        "astId": 2150,
        "contract": "src/Test/E721.sol:E721",
        "label": "_name",
        "offset": 0,
        "slot": "1",
        "type": "t_string_storage"
      },
      {
        "astId": 2152,
        "contract": "src/Test/E721.sol:E721",
        "label": "_symbol",
        "offset": 0,
        "slot": "2",
        "type": "t_string_storage"
      },
      {
        "astId": 2156,
        "contract": "src/Test/E721.sol:E721",
        "label": "_owners",
        "offset": 0,
        "slot": "3",
        "type": "t_mapping(t_uint256,t_address)"
      },
      {
        "astId": 2160,
        "contract": "src/Test/E721.sol:E721",
        "label": "_balances",
        "offset": 0,
        "slot": "4",
        "type": "t_mapping(t_address,t_uint256)"
      },
      {
        "astId": 2164,
        "contract": "src/Test/E721.sol:E721",
        "label": "_tokenApprovals",
        "offset": 0,
        "slot": "5",
        "type": "t_mapping(t_uint256,t_address)"
      },
      {
        "astId": 2170,
        "contract": "src/Test/E721.sol:E721",
        "label": "_operatorApprovals",
        "offset": 0,
        "slot": "6",
        "type": "t_mapping(t_address,t_mapping(t_address,t_bool))"
      },
      {
        "astId": 3093,
        "contract": "src/Test/E721.sol:E721",
        "label": "_ownedTokens",
        "offset": 0,
        "slot": "7",
        "type": "t_mapping(t_address,t_mapping(t_uint256,t_uint256))"
      },
      {
        "astId": 3097,
        "contract": "src/Test/E721.sol:E721",
        "label": "_ownedTokensIndex",
        "offset": 0,
        "slot": "8",
        "type": "t_mapping(t_uint256,t_uint256)"
      },
      {
        "astId": 3100,
        "contract": "src/Test/E721.sol:E721",
        "label": "_allTokens",
        "offset": 0,
        "slot": "9",
        "type": "t_array(t_uint256)dyn_storage"
      },
      {
        "astId": 3104,
        "contract": "src/Test/E721.sol:E721",
        "label": "_allTokensIndex",
        "offset": 0,
        "slot": "10",
        "type": "t_mapping(t_uint256,t_uint256)"
      },
      {
        "astId": 6641,
        "contract": "src/Test/E721.sol:E721",
        "label": "counter",
        "offset": 0,
        "slot": "11",
        "type": "t_uint256"
      },
      {
        "astId": 6648,
        "contract": "src/Test/E721.sol:E721",
        "label": "_tokenURIs",
        "offset": 0,
        "slot": "12",
        "type": "t_mapping(t_uint256,t_string_storage)"
      },
      {
        "astId": 6650,
        "contract": "src/Test/E721.sol:E721",
        "label": "_baseURIextended",
        "offset": 0,
        "slot": "13",
        "type": "t_string_storage"
      }
    ],
    "types": {
      "t_address": {
        "encoding": "inplace",
        "label": "address",
        "numberOfBytes": "20"
      },
      "t_array(t_uint256)dyn_storage": {
        "base": "t_uint256",
        "encoding": "dynamic_array",
        "label": "uint256[]",
        "numberOfBytes": "32"
      },
      "t_bool": {
        "encoding": "inplace",
        "label": "bool",
        "numberOfBytes": "1"
      },
      "t_mapping(t_address,t_bool)": {
        "encoding": "mapping",
        "key": "t_address",
        "label": "mapping(address => bool)",
        "numberOfBytes": "32",
        "value": "t_bool"
      },
      "t_mapping(t_address,t_mapping(t_address,t_bool))": {
        "encoding": "mapping",
        "key": "t_address",
        "label": "mapping(address => mapping(address => bool))",
        "numberOfBytes": "32",
        "value": "t_mapping(t_address,t_bool)"
      },
      "t_mapping(t_address,t_mapping(t_uint256,t_uint256))": {
        "encoding": "mapping",
        "key": "t_address",
        "label": "mapping(address => mapping(uint256 => uint256))",
        "numberOfBytes": "32",
        "value": "t_mapping(t_uint256,t_uint256)"
      },
      "t_mapping(t_address,t_uint256)": {
        "encoding": "mapping",
        "key": "t_address",
        "label": "mapping(address => uint256)",
        "numberOfBytes": "32",
        "value": "t_uint256"
      },
      "t_mapping(t_uint256,t_address)": {
        "encoding": "mapping",
        "key": "t_uint256",
        "label": "mapping(uint256 => address)",
        "numberOfBytes": "32",
        "value": "t_address"
      },
      "t_mapping(t_uint256,t_string_storage)": {
        "encoding": "mapping",
        "key": "t_uint256",
        "label": "mapping(uint256 => string)",
        "numberOfBytes": "32",
        "value": "t_string_storage"
      },
      "t_mapping(t_uint256,t_uint256)": {
        "encoding": "mapping",
        "key": "t_uint256",
        "label": "mapping(uint256 => uint256)",
        "numberOfBytes": "32",
        "value": "t_uint256"
      },
      "t_string_storage": {
        "encoding": "bytes",
        "label": "string",
        "numberOfBytes": "32"
      },
      "t_uint256": {
        "encoding": "inplace",
        "label": "uint256",
        "numberOfBytes": "32"
      }
    }
  }
}