{
  "address": "0x88B07DFF0a31707B1E20E6d3E9C09F87d89b9b8E",
  "abi": [
    {
      "inputs": [
        {
          "internalType": "address",
          "name": "_resolver",
          "type": "address"
        },
        {
          "internalType": "address payable",
          "name": "_beneficiary",
          "type": "address"
        },
        {
          "internalType": "address",
          "name": "_admin",
          "type": "address"
        }
      ],
      "stateMutability": "nonpayable",
      "type": "constructor"
    },
    {
      "anonymous": false,
      "inputs": [
        {
          "indexed": true,
          "internalType": "uint256",
          "name": "lendingId",
          "type": "uint256"
        },
        {
          "indexed": false,
          "internalType": "uint32",
          "name": "claimedAt",
          "type": "uint32"
        }
      ],
      "name": "CollateralClaimed",
      "type": "event"
    },
    {
      "anonymous": false,
      "inputs": [
        {
          "indexed": true,
          "internalType": "uint256",
          "name": "lendingId",
          "type": "uint256"
        },
        {
          "indexed": false,
          "internalType": "uint32",
          "name": "stoppedAt",
          "type": "uint32"
        }
      ],
      "name": "LendingStopped",
      "type": "event"
    },
    {
      "anonymous": false,
      "inputs": [
        {
          "indexed": true,
          "internalType": "address",
          "name": "nftAddress",
          "type": "address"
        },
        {
          "indexed": true,
          "internalType": "uint256",
          "name": "tokenId",
          "type": "uint256"
        },
        {
          "indexed": false,
          "internalType": "uint8",
          "name": "lentAmount",
          "type": "uint8"
        },
        {
          "indexed": false,
          "internalType": "uint256",
          "name": "lendingId",
          "type": "uint256"
        },
        {
          "indexed": true,
          "internalType": "address",
          "name": "lenderAddress",
          "type": "address"
        },
        {
          "indexed": false,
          "internalType": "uint8",
          "name": "maxRentDuration",
          "type": "uint8"
        },
        {
          "indexed": false,
          "internalType": "bytes4",
          "name": "dailyRentPrice",
          "type": "bytes4"
        },
        {
          "indexed": false,
          "internalType": "bytes4",
          "name": "nftPrice",
          "type": "bytes4"
        },
        {
          "indexed": false,
          "internalType": "bool",
          "name": "isERC721",
          "type": "bool"
        },
        {
          "indexed": false,
          "internalType": "enum IResolver.PaymentToken",
          "name": "paymentToken",
          "type": "uint8"
        }
      ],
      "name": "Lent",
      "type": "event"
    },
    {
      "anonymous": false,
      "inputs": [
        {
          "indexed": false,
          "internalType": "uint256",
          "name": "lendingId",
          "type": "uint256"
        },
        {
          "indexed": true,
          "internalType": "address",
          "name": "renterAddress",
          "type": "address"
        },
        {
          "indexed": false,
          "internalType": "uint8",
          "name": "rentDuration",
          "type": "uint8"
        },
        {
          "indexed": false,
          "internalType": "uint32",
          "name": "rentedAt",
          "type": "uint32"
        }
      ],
      "name": "Rented",
      "type": "event"
    },
    {
      "anonymous": false,
      "inputs": [
        {
          "indexed": true,
          "internalType": "uint256",
          "name": "lendingId",
          "type": "uint256"
        },
        {
          "indexed": false,
          "internalType": "uint32",
          "name": "returnedAt",
          "type": "uint32"
        }
      ],
      "name": "Returned",
      "type": "event"
    },
    {
      "inputs": [
        {
          "internalType": "address[]",
          "name": "_nfts",
          "type": "address[]"
        },
        {
          "internalType": "uint256[]",
          "name": "_tokenIds",
          "type": "uint256[]"
        },
        {
          "internalType": "uint256[]",
          "name": "_lendAmounts",
          "type": "uint256[]"
        },
        {
          "internalType": "uint256[]",
          "name": "_lendingIds",
          "type": "uint256[]"
        }
      ],
      "name": "claimCollateral",
      "outputs": [],
      "stateMutability": "nonpayable",
      "type": "function"
    },
    {
      "inputs": [
        {
          "internalType": "address[]",
          "name": "_nfts",
          "type": "address[]"
        },
        {
          "internalType": "uint256[]",
          "name": "_tokenIds",
          "type": "uint256[]"
        },
        {
          "internalType": "uint256[]",
          "name": "_lendAmounts",
          "type": "uint256[]"
        },
        {
          "internalType": "uint8[]",
          "name": "_maxRentDurations",
          "type": "uint8[]"
        },
        {
          "internalType": "bytes4[]",
          "name": "_dailyRentPrices",
          "type": "bytes4[]"
        },
        {
          "internalType": "bytes4[]",
          "name": "_nftPrices",
          "type": "bytes4[]"
        },
        {
          "internalType": "enum IResolver.PaymentToken[]",
          "name": "_paymentTokens",
          "type": "uint8[]"
        }
      ],
      "name": "lend",
      "outputs": [],
      "stateMutability": "nonpayable",
      "type": "function"
    },
    {
      "inputs": [
        {
          "internalType": "address",
          "name": "",
          "type": "address"
        },
        {
          "internalType": "address",
          "name": "",
          "type": "address"
        },
        {
          "internalType": "uint256[]",
          "name": "",
          "type": "uint256[]"
        },
        {
          "internalType": "uint256[]",
          "name": "",
          "type": "uint256[]"
        },
        {
          "internalType": "bytes",
          "name": "",
          "type": "bytes"
        }
      ],
      "name": "onERC1155BatchReceived",
      "outputs": [
        {
          "internalType": "bytes4",
          "name": "",
          "type": "bytes4"
        }
      ],
      "stateMutability": "nonpayable",
      "type": "function"
    },
    {
      "inputs": [
        {
          "internalType": "address",
          "name": "",
          "type": "address"
        },
        {
          "internalType": "address",
          "name": "",
          "type": "address"
        },
        {
          "internalType": "uint256",
          "name": "",
          "type": "uint256"
        },
        {
          "internalType": "uint256",
          "name": "",
          "type": "uint256"
        },
        {
          "internalType": "bytes",
          "name": "",
          "type": "bytes"
        }
      ],
      "name": "onERC1155Received",
      "outputs": [
        {
          "internalType": "bytes4",
          "name": "",
          "type": "bytes4"
        }
      ],
      "stateMutability": "nonpayable",
      "type": "function"
    },
    {
      "inputs": [
        {
          "internalType": "address",
          "name": "",
          "type": "address"
        },
        {
          "internalType": "address",
          "name": "",
          "type": "address"
        },
        {
          "internalType": "uint256",
          "name": "",
          "type": "uint256"
        },
        {
          "internalType": "bytes",
          "name": "",
          "type": "bytes"
        }
      ],
      "name": "onERC721Received",
      "outputs": [
        {
          "internalType": "bytes4",
          "name": "",
          "type": "bytes4"
        }
      ],
      "stateMutability": "nonpayable",
      "type": "function"
    },
    {
      "inputs": [
        {
          "internalType": "address[]",
          "name": "_nfts",
          "type": "address[]"
        },
        {
          "internalType": "uint256[]",
          "name": "_tokenIds",
          "type": "uint256[]"
        },
        {
          "internalType": "uint256[]",
          "name": "_lendAmounts",
          "type": "uint256[]"
        },
        {
          "internalType": "uint256[]",
          "name": "_lendingIds",
          "type": "uint256[]"
        },
        {
          "internalType": "uint8[]",
          "name": "_rentDurations",
          "type": "uint8[]"
        }
      ],
      "name": "rent",
      "outputs": [],
      "stateMutability": "nonpayable",
      "type": "function"
    },
    {
      "inputs": [],
      "name": "rentFee",
      "outputs": [
        {
          "internalType": "uint256",
          "name": "",
          "type": "uint256"
        }
      ],
      "stateMutability": "view",
      "type": "function"
    },
    {
      "inputs": [
        {
          "internalType": "address[]",
          "name": "_nfts",
          "type": "address[]"
        },
        {
          "internalType": "uint256[]",
          "name": "_tokenIds",
          "type": "uint256[]"
        },
        {
          "internalType": "uint256[]",
          "name": "_lendAmounts",
          "type": "uint256[]"
        },
        {
          "internalType": "uint256[]",
          "name": "_lendingIds",
          "type": "uint256[]"
        }
      ],
      "name": "returnIt",
      "outputs": [],
      "stateMutability": "nonpayable",
      "type": "function"
    },
    {
      "inputs": [
        {
          "internalType": "address payable",
          "name": "_newBeneficiary",
          "type": "address"
        }
      ],
      "name": "setBeneficiary",
      "outputs": [],
      "stateMutability": "nonpayable",
      "type": "function"
    },
    {
      "inputs": [
        {
          "internalType": "bool",
          "name": "_paused",
          "type": "bool"
        }
      ],
      "name": "setPaused",
      "outputs": [],
      "stateMutability": "nonpayable",
      "type": "function"
    },
    {
      "inputs": [
        {
          "internalType": "uint256",
          "name": "_rentFee",
          "type": "uint256"
        }
      ],
      "name": "setRentFee",
      "outputs": [],
      "stateMutability": "nonpayable",
      "type": "function"
    },
    {
      "inputs": [
        {
          "internalType": "address[]",
          "name": "_nfts",
          "type": "address[]"
        },
        {
          "internalType": "uint256[]",
          "name": "_tokenIds",
          "type": "uint256[]"
        },
        {
          "internalType": "uint256[]",
          "name": "_lendAmounts",
          "type": "uint256[]"
        },
        {
          "internalType": "uint256[]",
          "name": "_lendingIds",
          "type": "uint256[]"
        }
      ],
      "name": "stopLending",
      "outputs": [],
      "stateMutability": "nonpayable",
      "type": "function"
    },
    {
      "inputs": [
        {
          "internalType": "bytes4",
          "name": "interfaceId",
          "type": "bytes4"
        }
      ],
      "name": "supportsInterface",
      "outputs": [
        {
          "internalType": "bool",
          "name": "",
          "type": "bool"
        }
      ],
      "stateMutability": "view",
      "type": "function"
    }
  ],
  "transactionHash": "0x1959791ffcc73168e382b541ceb0b69ee6a181f3d1e7a3bd8843a3d015fa5190",
  "args": [
    "0x44c6acBEC0a1AaEafF6E53506CBe459813224005",
    "0x00E296Be39f0614917db785601E99dA175A58e34",
    "0x4F8645e873Af2355afD7E971736D6056c1758aBF"
  ],
  "solcInputHash": "8eda3c721336c59abc487573358514c9",
  "bytecode": "0x608060405260016003556004805460ff191690556103e86005553480156200002657600080fd5b50604051620040653803806200406583398101604081905262000049916200010b565b6200005483620000ad565b6200005f82620000ad565b6200006a81620000ad565b600080546001600160a01b039485166001600160a01b03199182161790915560028054938516938216939093179092556001805491909316911617905562000175565b6001600160a01b038116620001085760405162461bcd60e51b815260206004820152601360248201527f52654e46543a3a7a65726f206164647265737300000000000000000000000000604482015260640160405180910390fd5b50565b6000806000606084860312156200012157600080fd5b83516200012e816200015f565b602085015190935062000141816200015f565b604085015190925062000154816200015f565b809150509250925092565b6001600160a01b03811681146200010857600080fd5b613ee080620001856000396000f3fe608060405234801561001057600080fd5b50600436106100cf5760003560e01c806376774ea31161008c578063bf2b23ea11610066578063bf2b23ea146101c6578063e50364b2146101dd578063f23a6e61146101f0578063f6ca0ca01461020f57600080fd5b806376774ea314610181578063ad68fc7c14610194578063bc197c81146101a757600080fd5b806301ffc9a7146100d457806304f87410146100fc578063150b7a021461011157806316c38b3c146101485780631c31f7101461015b578063268e87861461016e575b600080fd5b6100e76100e2366004613942565b610222565b60405190151581526020015b60405180910390f35b61010f61010a36600461372a565b610259565b005b61012f61011f3660046135b7565b630a85bd0160e11b949350505050565b6040516001600160e01b031990911681526020016100f3565b61010f610156366004613908565b6102a4565b61010f6101693660046134ed565b6102e1565b61010f61017c36600461368a565b61032d565b61010f61018f36600461395d565b610368565b61010f6101a236600461368a565b6103e8565b61012f6101b536600461350a565b63bc197c8160e01b95945050505050565b6101cf60055481565b6040519081526020016100f3565b61010f6101eb3660046137ee565b61041d565b61012f6101fe366004613622565b63f23a6e6160e01b95945050505050565b61010f61021d36600461368a565b61045e565b60006001600160e01b03198216630271189760e51b148061025357506301ffc9a760e01b6001600160e01b03198316145b92915050565b60045460ff16156102855760405162461bcd60e51b815260040161027c90613b3a565b60405180910390fd5b61029d6104936102988787878787610a1e565b610b42565b5050505050565b6001546001600160a01b031633146102ce5760405162461bcd60e51b815260040161027c90613b98565b6004805460ff1916911515919091179055565b6001546001600160a01b0316331461030b5760405162461bcd60e51b815260040161027c90613b98565b600280546001600160a01b0319166001600160a01b0392909216919091179055565b60045460ff16156103505760405162461bcd60e51b815260040161027c90613b3a565b610362610c6e61029886868686610eb1565b50505050565b6001546001600160a01b031633146103925760405162461bcd60e51b815260040161027c90613b98565b61271081106103e35760405162461bcd60e51b815260206004820152601960248201527f52654e46543a3a66656520657863656564732031303070637400000000000000604482015260640161027c565b600555565b60045460ff161561040b5760405162461bcd60e51b815260040161027c90613b3a565b610362610fc361029886868686610eb1565b60045460ff16156104405760405162461bcd60e51b815260040161027c90613b3a565b61045561126e6102988989898989898961174f565b50505050505050565b60045460ff16156104815760405162461bcd60e51b815260040161027c90613b3a565b61036261181d61029886868686610eb1565b80515b8160200151811015610a0f5760006006600084604001518560000151815181106104c2576104c2613e4c565b6020026020010151856060015185815181106104e0576104e0613e4c565b602002602001015186610100015186815181106104ff576104ff613e4c565b6020026020010151604051602001610519939291906139ce565b60408051601f198184030181529181528151602092830120835282820193909352908201600020825160c08101845281546001600160a01b038116825260ff600160a01b82048116948301949094526001600160e01b0319600160a81b820460e090811b821696840196909652600160c81b820490951b9094166060820152600160e81b8404831660808201529093506105e9929091849160a0840191600160f01b9091041660068111156105d0576105d0613e36565b60068111156105e1576105e1613e36565b905250611b6f565b6040805160608101825260018301546001600160a01b0381168252600160a01b810460ff166020830152600160a81b900463ffffffff169181019190915261063090611c1b565b6040805160c08101825282546001600160a01b038116825260ff600160a01b8204811660208401526001600160e01b0319600160a81b830460e090811b821695850195909552600160c81b830490941b9093166060830152600160e81b8104831660808301526106d792849160a0840191600160f01b9091041660068111156106bb576106bb613e36565b60068111156106cc576106cc613e36565b905250848433611cce565b8054600090600160f01b900460ff1660068111156106f7576106f7613e36565b905061070281611e39565b6000805460405163c6ee427f60e01b815260ff841660048201526001600160a01b039091169063c6ee427f9060240160206040518083038186803b15801561074957600080fd5b505afa15801561075d573d6000803e3d6000fd5b505050506040513d601f19601f8201168201806040525081019061078191906134d0565b90506000816001600160a01b031663313ce5676040518163ffffffff1660e01b815260040160206040518083038186803b1580156107be57600080fd5b505afa1580156107d2573d6000803e3d6000fd5b505050506040513d601f19601f820116820180604052508101906107f69190613976565b60ff169050600061080882600a613cfb565b855490915060009061082490600160a81b900460e01b83611e8c565b886101200151888151811061083b5761083b613e4c565b602002602001015160ff166108509190613da3565b865490915060009061086c90600160c81b900460e01b84611e8c565b87546108829190600160e81b900460ff16613da3565b9050600082116108a45760405162461bcd60e51b815260040161027c90613ad9565b600081116108c45760405162461bcd60e51b815260040161027c90613b61565b6108e533306108d38486613c7e565b6001600160a01b038916929190611f1b565b5050506001840180546001600160a01b0319163317905561012086015180518690811061091457610914613e4c565b602090810291909101015160018501805464ffffffffff60a01b1916600160a01b60ff9093169290920263ffffffff60a81b191691909117600160a81b4263ffffffff1602179055610100860151805133917f3140d73adcc923e4a0de3b1522aeec546a872bcdc06a3e25fe1209df30b954ec918890811061099857610998613e4c565b602002602001015188610120015188815181106109b7576109b7613e4c565b60209081029190910181015160018901546040805194855260ff90921692840192909252600160a81b90910463ffffffff169082015260600160405180910390a2505050508080610a0790613e05565b915050610496565b50610a1b813033611f86565b50565b610a266131c4565b604051806101600160405280600081526020016001815260200187815260200186815260200185815260200160006001600160401b03811115610a6b57610a6b613e62565b604051908082528060200260200182016040528015610a94578160200160208202803683370190505b5081526020016000604051908082528060200260200182016040528015610ac5578160200160208202803683370190505b5081526020016000604051908082528060200260200182016040528015610af6578160200160208202803683370190505b50815260208101859052604081018490526060016000604051908082528060200260200182016040528015610b35578160200160208202803683370190505b5090529695505050505050565b600081604001515111610b885760405162461bcd60e51b815260206004820152600e60248201526d52654e46543a3a6e6f206e66747360901b604482015260640161027c565b806040015151816020015114610c5d578060400151816020015181518110610bb257610bb2613e4c565b60200260200101516001600160a01b03168160400151826000015181518110610bdd57610bdd613e4c565b60200260200101516001600160a01b0316148015610c205750610c208160400151826020015181518110610c1357610c13613e4c565b602002602001015161214b565b15610c3d5760208101805190610c3582613e05565b905250610b88565b610c4a818363ffffffff16565b60208101805180835290610c3582613e05565b610c6a818363ffffffff16565b5050565b80515b8160200151811015610ea5576000600660008460400151856000015181518110610c9d57610c9d613e4c565b602002602001015185606001518581518110610cbb57610cbb613e4c565b60200260200101518661010001518681518110610cda57610cda613e4c565b6020026020010151604051602001610cf4939291906139ce565b60408051601f198184030181529181528151602092830120835282820193909352908201600020825160c08101845281546001600160a01b038116825260ff600160a01b82048116948301949094526001600160e01b0319600160a81b820460e090811b821696840196909652600160c81b820490951b9094166060820152600160e81b840483166080820152909350610dab929091849160a0840191600160f01b9091041660068111156105d0576105d0613e36565b6040805160608101825260018301546001600160a01b0381168252600160a01b810460ff166020830152600160a81b900463ffffffff1691810191909152610df49033426121cd565b6001810154600090610e1390600160a81b900463ffffffff1642613dc2565b9050610e1f828261227d565b8361010001518381518110610e3657610e36613e4c565b60200260200101517f289da9cb3ecd362ad5ae230d4daa346e68abbd8972cd9c01df54b7b1b97ab15b42604051610e79919063ffffffff91909116815260200190565b60405180910390a25060010180546001600160c81b031916905580610e9d81613e05565b915050610c71565b50610a1b813330611f86565b610eb96131c4565b604051806101600160405280600081526020016001815260200186815260200185815260200184815260200160006001600160401b03811115610efe57610efe613e62565b604051908082528060200260200182016040528015610f27578160200160208202803683370190505b5081526020016000604051908082528060200260200182016040528015610f58578160200160208202803683370190505b5081526020016000604051908082528060200260200182016040528015610f89578160200160208202803683370190505b5081526020808201949094526040805160008082528187018352828401919091528151908152948501905260600192909252509392505050565b80515b8160200151811015610a0f576000600660008460400151856000015181518110610ff257610ff2613e4c565b60200260200101518560600151858151811061101057611010613e4c565b6020026020010151866101000151868151811061102f5761102f613e4c565b6020026020010151604051602001611049939291906139ce565b60408051601f198184030181529181528151602092830120835282820193909352908201600020825160c08101845281546001600160a01b038116825260ff600160a01b82048116948301949094526001600160e01b0319600160a81b820460e090811b821696840196909652600160c81b820490951b9094166060820152600160e81b840483166080820152909350611100929091849160a0840191600160f01b9091041660068111156105d0576105d0613e36565b6040805160608101825260018301546001600160a01b0381168252600160a01b810460ff166020830152600160a81b900463ffffffff169181019190915261114790611c1b565b6040805160c08101825282546001600160a01b038116825260ff600160a01b8204811660208401526001600160e01b0319600160a81b830460e090811b821695850195909552600160c81b830490941b9093166060830152600160e81b8104831660808301526111ec92849160a0840191600160f01b9091041660068111156111d2576111d2613e36565b60068111156111e3576111e3613e36565b90525033612573565b826101000151828151811061120357611203613e4c565b60200260200101517f61bcecd87c002ae006d9d8c760291b4f3646fa6109590b4b3ea93084aae4bb6a42604051611246919063ffffffff91909116815260200190565b60405180910390a280546001600160f81b03191690558061126681613e05565b915050610fc6565b80515b8160200151811015610ea55761128782826125cc565b60006006600084604001518560000151815181106112a7576112a7613e4c565b6020026020010151856060015185815181106112c5576112c5613e4c565b60200260200101516003546040516020016112e2939291906139ce565b60408051601f198184030181529181528151602092830120835282820193909352908201600020825160c08101845281546001600160a01b038116825260ff600160a01b82048116948301949094526001600160e01b0319600160a81b820460e090811b821696840196909652600160c81b820490951b9094166060820152600160e81b8404831660808201529093506113b2929091849160a0840191600160f01b90910416600681111561139957611399613e36565b60068111156113aa576113aa613e36565b905250612788565b6040805160608101825260018301546001600160a01b0381168252600160a01b810460ff166020830152600160a81b900463ffffffff16918101919091526113f990611c1b565b60006114218460400151848151811061141457611414613e4c565b602002602001015161289b565b90506040518060c00160405280336001600160a01b031681526020018560a00151858151811061145357611453613e4c565b602002602001015160ff1681526020018560c00151858151811061147957611479613e4c565b60200260200101516001600160e01b03191681526020018560e0015185815181106114a6576114a6613e4c565b60200260200101516001600160e01b0319168152602001826114e557856080015185815181106114d8576114d8613e4c565b60200260200101516114e8565b60015b60ff168152602001856101400151858151811061150757611507613e4c565b6020026020010151600681111561152057611520613e36565b90528051835460208301516040840151606085015160808601516001600160a01b039095166001600160a81b031990941693909317600160a01b60ff938416021767ffffffffffffffff60a81b1916600160a81b60e092831c0263ffffffff60c81b191617600160c81b9390911c929092029190911760ff60e81b198116600160e81b9290931691909102918217855560a083015185929091839161ffff60e81b1990911660ff60f01b1990911617600160f01b8360068111156115e6576115e6613e36565b0217905550905050336001600160a01b03168460600151848151811061160e5761160e613e4c565b6020026020010151856040015186600001518151811061163057611630613e4c565b60200260200101516001600160a01b03167fc1b2f77226541f6b308379a3110d77af45464d9a161a6eb4b6cfdcd0fb2089c68461168a578760800151878151811061167d5761167d613e4c565b602002602001015161168d565b60015b6003548960a0015189815181106116a6576116a6613e4c565b60200260200101518a60c001518a815181106116c4576116c4613e4c565b60200260200101518b60e001518b815181106116e2576116e2613e4c565b6020026020010151898d61014001518d8151811061170257611702613e4c565b602002602001015160405161171d9796959493929190613bc2565b60405180910390a46003805490600061173583613e05565b91905055505050808061174790613e05565b915050611271565b6117576131c4565b604051806101600160405280600081526020016001815260200189815260200188815260200187815260200186815260200185815260200184815260200160006001600160401b038111156117ae576117ae613e62565b6040519080825280602002602001820160405280156117d7578160200160208202803683370190505b5081526020016000604051908082528060200260200182016040528015611808578160200160208202803683370190505b50815260200192909252509695505050505050565b80515b8160200151811015610c6a57600060066000846040015185600001518151811061184c5761184c613e4c565b60200260200101518560600151858151811061186a5761186a613e4c565b6020026020010151866101000151868151811061188957611889613e4c565b60200260200101516040516020016118a3939291906139ce565b60408051601f198184030181529181528151602092830120835282820193909352908201600020825160c08101845281546001600160a01b038116825260ff600160a01b82048116948301949094526001600160e01b0319600160a81b820460e090811b821696840196909652600160c81b820490951b9094166060820152600160e81b84048316608082015290935061195a929091849160a0840191600160f01b9091041660068111156105d0576105d0613e36565b6040805160608101825260018301546001600160a01b0381168252600160a01b810460ff166020830152600160a81b900463ffffffff16918101919091526119a1906128d1565b6040805160608101825260018301546001600160a01b0381168252600160a01b810460ff166020830152600160a81b900463ffffffff16918101919091526119e99042612957565b604080516101008101825282546001600160a01b03811692820192835260ff600160a01b8204811660608401526001600160e01b0319600160a81b830460e090811b82166080860152600160c81b8404811b90911660a0850152600160e81b8304821660c0850152611adc94869385939192859290850191600160f01b9004166006811115611a7a57611a7a613e36565b6006811115611a8b57611a8b613e36565b905250815260408051606081018252600193909301546001600160a01b0381168452600160a01b810460ff16602080860191909152600160a81b90910463ffffffff169184019190915201526129ad565b8261010001518281518110611af357611af3613e4c565b60200260200101517f8ac1440f996b8b13e31275705c447bd09a92005cf2ec131a8183afedc636f5a242604051611b36919063ffffffff91909116815260200190565b60405180910390a280546001600160f81b031916815560010180546001600160c81b031916905580611b6781613e05565b915050611820565b8051611b7a90612bee565b602081015160ff16611bc55760405162461bcd60e51b815260206004820152601460248201527352654e46543a3a6475726174696f6e207a65726f60601b604482015260640161027c565b60408101516001600160e01b031916611bf05760405162461bcd60e51b815260040161027c90613ad9565b60608101516001600160e01b031916610a1b5760405162461bcd60e51b815260040161027c90613b61565b8051611c2690612c3a565b602081015160ff1615611c765760405162461bcd60e51b815260206004820152601860248201527752654e46543a3a6475726174696f6e206e6f74207a65726f60401b604482015260640161027c565b604081015163ffffffff1615610a1b5760405162461bcd60e51b815260206004820152601960248201527f52654e46543a3a72656e746564206174206e6f74207a65726f00000000000000604482015260640161027c565b83516001600160a01b0382811691161415611d2b5760405162461bcd60e51b815260206004820152601860248201527f52654e46543a3a63616e742072656e74206f776e206e66740000000000000000604482015260640161027c565b60ff80168361012001518381518110611d4657611d46613e4c565b602002602001015160ff161115611d6f5760405162461bcd60e51b815260040161027c90613b10565b60008361012001518381518110611d8857611d88613e4c565b602002602001015160ff1611611db05760405162461bcd60e51b815260040161027c90613aa2565b836020015160ff168361012001518381518110611dcf57611dcf613e4c565b602002602001015160ff1611156103625760405162461bcd60e51b815260206004820152602860248201527f52654e46543a3a72656e74206475726174696f6e206578636565647320616c6c6044820152670deeecac840dac2f60c31b606482015260840161027c565b60008160ff1611610a1b5760405162461bcd60e51b815260206004820152601860248201527f52654e46543a3a746f6b656e2069732073656e74696e656c0000000000000000604482015260640161027c565b6000611e988383612c91565b60f083901c61ffff60e085901c166000611eb461271086613c96565b905061270f8361ffff161115611eca5761270f92505b61270f8261ffff161115611ede5761270f91505b6000611eee8661ffff8616613da3565b90506000611f008361ffff8616613da3565b90506000611f0e8284613c7e565b9998505050505050505050565b6040516001600160a01b03808516602483015283166044820152606481018290526103629085906323b872dd60e01b906084015b60408051601f198184030181529190526020810180516001600160e01b03166001600160e01b031990931692909217909152612d22565b611fa3836040015184600001518151811061141457611414613e4c565b15612060576040830151835181518110611fbf57611fbf613e4c565b60200260200101516001600160a01b03166323b872dd83838660600151876000015181518110611ff157611ff1613e4c565b60209081029190910101516040516001600160e01b031960e086901b1681526001600160a01b03938416600482015292909116602483015260448201526064015b600060405180830381600087803b15801561204c57600080fd5b505af1158015610455573d6000803e3d6000fd5b61207d8360400151846000015181518110610c1357610c13613e4c565b156120fe57604083015183518151811061209957612099613e4c565b60200260200101516001600160a01b0316632eb2c2d683836120c8876060015188600001518960200151612df4565b6120df886080015189600001518a60200151612df4565b6040518563ffffffff1660e01b81526004016120329493929190613a14565b60405162461bcd60e51b815260206004820152601d60248201527f52654e46543a3a756e737570706f7274656420746f6b656e2074797065000000604482015260640161027c565b505050565b6040516301ffc9a760e01b8152636cdb3d1360e11b60048201526000906001600160a01b038316906301ffc9a7906024015b60206040518083038186803b15801561219557600080fd5b505afa1580156121a9573d6000803e3d6000fd5b505050506040513d601f19601f820116820180604052508101906102539190613925565b816001600160a01b031683600001516001600160a01b0316146122265760405162461bcd60e51b81526020600482015260116024820152702932a7232a1d1d3737ba103932b73a32b960791b604482015260640161027c565b6122308382612ea9565b156121465760405162461bcd60e51b815260206004820152601760248201527f52654e46543a3a706173742072657475726e2064617465000000000000000000604482015260640161027c565b8154600090600160f01b900460ff16600681111561229d5761229d613e36565b90506122a881611e39565b6000805460405163c6ee427f60e01b815260ff841660048201526001600160a01b039091169063c6ee427f9060240160206040518083038186803b1580156122ef57600080fd5b505afa158015612303573d6000803e3d6000fd5b505050506040513d601f19601f8201168201806040525081019061232791906134d0565b90506000816001600160a01b031663313ce5676040518163ffffffff1660e01b815260040160206040518083038186803b15801561236457600080fd5b505afa158015612378573d6000803e3d6000fd5b505050506040513d601f19601f8201168201806040525081019061239c9190613976565b60ff16905060006123ae82600a613cfb565b86549091506000906123ca90600160c81b900460e01b83611e8c565b87546123e09190600160e81b900460ff16613da3565b87549091506000906123fc90600160a81b900460e01b84611e8c565b600189015490915060009061241b90600160a01b900460ff1683613da3565b905060006201518061242d848b613da3565b6124379190613c96565b90506000821161249c5760405162461bcd60e51b815260206004820152602a60248201527f52654e46543a3a746f74616c207061796d656e7420776f20636f6c6c61746572604482015269616c206973207a65726f60b01b606482015260840161027c565b600081116124ec5760405162461bcd60e51b815260206004820152601d60248201527f52654e46543a3a6c656e646572207061796d656e74206973207a65726f000000604482015260640161027c565b60006124f88284613dc2565b8b54909150600090612515908490600160f01b900460ff16612f37565b90506125218184613dc2565b925061252d8683613c7e565b8c54909250612549906001600160a01b038b811691168561301a565b60018c0154612565906001600160a01b038b811691168461301a565b505050505050505050505050565b806001600160a01b031682600001516001600160a01b031614610c6a5760405162461bcd60e51b81526020600482015260116024820152702932a7232a1d1d3737ba103632b73232b960791b604482015260640161027c565b6000826080015182815181106125e4576125e4613e4c565b6020026020010151116126395760405162461bcd60e51b815260206004820152601a60248201527f52654e46543a3a6c656e6420616d6f756e74206973207a65726f000000000000604482015260640161027c565b60ff80168260800151828151811061265357612653613e4c565b602002602001015111156126795760405162461bcd60e51b815260040161027c90613b10565b60008260a00151828151811061269157612691613e4c565b602002602001015160ff16116126b95760405162461bcd60e51b815260040161027c90613aa2565b60ff80168260a0015182815181106126d3576126d3613e4c565b602002602001015160ff1611156126fc5760405162461bcd60e51b815260040161027c90613b10565b60008260c00151828151811061271457612714613e4c565b602002602001015160e01c63ffffffff16116127425760405162461bcd60e51b815260040161027c90613ad9565b60008260e00151828151811061275a5761275a613e4c565b602002602001015160e01c63ffffffff1611610c6a5760405162461bcd60e51b815260040161027c90613b61565b805161279390612c3a565b602081015160ff16156127e35760405162461bcd60e51b815260206004820152601860248201527752654e46543a3a6475726174696f6e206e6f74207a65726f60401b604482015260640161027c565b60408101516001600160e01b0319161561283f5760405162461bcd60e51b815260206004820152601a60248201527f52654e46543a3a72656e74207072696365206e6f74207a65726f000000000000604482015260640161027c565b60608101516001600160e01b03191615610a1b5760405162461bcd60e51b815260206004820152601960248201527f52654e46543a3a6e6674207072696365206e6f74207a65726f00000000000000604482015260640161027c565b6040516301ffc9a760e01b81526380ac58cd60e01b60048201526000906001600160a01b038316906301ffc9a79060240161217d565b80516128dc90612bee565b602081015160ff166129005760405162461bcd60e51b815260040161027c90613aa2565b604081015163ffffffff16610a1b5760405162461bcd60e51b815260206004820152601860248201527f52654e46543a3a72656e746564206174206973207a65726f0000000000000000604482015260640161027c565b6129618282612ea9565b610c6a5760405162461bcd60e51b815260206004820152601d60248201527f52654e46543a3a72657475726e2064617465206e6f7420706173736564000000604482015260640161027c565b805160a0015160009060068111156129c7576129c7613e36565b90506129d281611e39565b6000805460405163c6ee427f60e01b815260ff841660048201526001600160a01b039091169063c6ee427f9060240160206040518083038186803b158015612a1957600080fd5b505afa158015612a2d573d6000803e3d6000fd5b505050506040513d601f19601f82011682018060405250810190612a5191906134d0565b90506000816001600160a01b031663313ce5676040518163ffffffff1660e01b815260040160206040518083038186803b158015612a8e57600080fd5b505afa158015612aa2573d6000803e3d6000fd5b505050506040513d601f19601f82011682018060405250810190612ac69190613976565b60ff1690506000612ad882600a613cfb565b90506000612aee86600001516060015183611e8c565b865160800151612b01919060ff16613da3565b90506000612b1787600001516040015184611e8c565b9050600087602001516020015160ff1682612b329190613da3565b90506000612b54828960ff166006811115612b4f57612b4f613e36565b612f37565b90506000612b628584613c7e565b905060008311612bc05760405162461bcd60e51b815260206004820152602360248201527f52654e46543a3a636f6c6c61746572616c20706c75732072656e74206973207a60448201526265726f60e81b606482015260840161027c565b895151612be290612bd18484613dc2565b6001600160a01b038b16919061301a565b50505050505050505050565b6001600160a01b038116610a1b5760405162461bcd60e51b815260206004820152601360248201527252654e46543a3a7a65726f206164647265737360681b604482015260640161027c565b6001600160a01b03811615610a1b5760405162461bcd60e51b815260206004820152601960248201527f52654e46543a3a6e6f742061207a65726f206164647265737300000000000000604482015260640161027c565b60e082901c612cd95760405162461bcd60e51b815260206004820152601460248201527352654e46543a3a696e76616c696420707269636560601b604482015260640161027c565b612710811015610c6a5760405162461bcd60e51b815260206004820152601460248201527352654e46543a3a696e76616c6964207363616c6560601b604482015260640161027c565b6000612d77826040518060400160405280602081526020017f5361666545524332303a206c6f772d6c6576656c2063616c6c206661696c6564815250856001600160a01b031661304a9092919063ffffffff16565b8051909150156121465780806020019051810190612d959190613925565b6121465760405162461bcd60e51b815260206004820152602a60248201527f5361666545524332303a204552433230206f7065726174696f6e20646964206e6044820152691bdd081cdd58d8d9595960b21b606482015260840161027c565b6060612e008383613dc2565b6001600160401b03811115612e1757612e17613e62565b604051908082528060200260200182016040528015612e40578160200160208202803683370190505b509050825b82811015612ea157848181518110612e5f57612e5f613e4c565b6020026020010151828583612e749190613dc2565b81518110612e8457612e84613e4c565b602090810291909101015280612e9981613e05565b915050612e45565b509392505050565b6000826040015163ffffffff168211612f045760405162461bcd60e51b815260206004820152601860248201527f52654e46543a3a6e6f77206265666f72652072656e7465640000000000000000604482015260640161027c565b62015180836020015160ff16612f1a9190613da3565b6040840151612f2f9063ffffffff1684613dc2565b119392505050565b600060055483612f479190613da3565b9050612f5561271082613c96565b90506000826006811115612f6b57612f6b613e36565b9050612f7681611e39565b6000805460405163c6ee427f60e01b815260ff841660048201526001600160a01b039091169063c6ee427f9060240160206040518083038186803b158015612fbd57600080fd5b505afa158015612fd1573d6000803e3d6000fd5b505050506040513d601f19601f82011682018060405250810190612ff591906134d0565b600254909150613012906001600160a01b0380841691168561301a565b505092915050565b6040516001600160a01b03831660248201526044810182905261214690849063a9059cbb60e01b90606401611f4f565b60606130598484600085613063565b90505b9392505050565b6060824710156130c45760405162461bcd60e51b815260206004820152602660248201527f416464726573733a20696e73756666696369656e742062616c616e636520666f6044820152651c8818d85b1b60d21b606482015260840161027c565b843b6131125760405162461bcd60e51b815260206004820152601d60248201527f416464726573733a2063616c6c20746f206e6f6e2d636f6e7472616374000000604482015260640161027c565b600080866001600160a01b0316858760405161312e91906139f8565b60006040518083038185875af1925050503d806000811461316b576040519150601f19603f3d011682016040523d82523d6000602084013e613170565b606091505b509150915061318082828661318b565b979650505050505050565b6060831561319a57508161305c565b8251156131aa5782518084602001fd5b8160405162461bcd60e51b815260040161027c9190613a6f565b60405180610160016040528060008152602001600081526020016060815260200160608152602001606081526020016060815260200160608152602001606081526020016060815260200160608152602001606081525090565b600082601f83011261322f57600080fd5b8135602061324461323f83613c5b565b613c2b565b80838252828201915082860187848660051b890101111561326457600080fd5b60005b8581101561328c57813561327a81613e78565b84529284019290840190600101613267565b5090979650505050505050565b600082601f8301126132aa57600080fd5b813560206132ba61323f83613c5b565b80838252828201915082860187848660051b89010111156132da57600080fd5b60005b8581101561328c576132ee82613444565b845292840192908401906001016132dd565b600082601f83011261331157600080fd5b8135602061332161323f83613c5b565b80838252828201915082860187848660051b890101111561334157600080fd5b6000805b8681101561336d5782356007811061335b578283fd5b85529385019391850191600101613345565b509198975050505050505050565b600082601f83011261338c57600080fd5b8135602061339c61323f83613c5b565b80838252828201915082860187848660051b89010111156133bc57600080fd5b60005b8581101561328c578135845292840192908401906001016133bf565b600082601f8301126133ec57600080fd5b813560206133fc61323f83613c5b565b80838252828201915082860187848660051b890101111561341c57600080fd5b60005b8581101561328c57813561343281613e9b565b8452928401929084019060010161341f565b80356001600160e01b03198116811461345c57600080fd5b919050565b600082601f83011261347257600080fd5b81356001600160401b0381111561348b5761348b613e62565b61349e601f8201601f1916602001613c2b565b8181528460208386010111156134b357600080fd5b816020850160208301376000918101602001919091529392505050565b6000602082840312156134e257600080fd5b815161305c81613e78565b6000602082840312156134ff57600080fd5b813561305c81613e78565b600080600080600060a0868803121561352257600080fd5b853561352d81613e78565b9450602086013561353d81613e78565b935060408601356001600160401b038082111561355957600080fd5b61356589838a0161337b565b9450606088013591508082111561357b57600080fd5b61358789838a0161337b565b9350608088013591508082111561359d57600080fd5b506135aa88828901613461565b9150509295509295909350565b600080600080608085870312156135cd57600080fd5b84356135d881613e78565b935060208501356135e881613e78565b92506040850135915060608501356001600160401b0381111561360a57600080fd5b61361687828801613461565b91505092959194509250565b600080600080600060a0868803121561363a57600080fd5b853561364581613e78565b9450602086013561365581613e78565b9350604086013592506060860135915060808601356001600160401b0381111561367e57600080fd5b6135aa88828901613461565b600080600080608085870312156136a057600080fd5b84356001600160401b03808211156136b757600080fd5b6136c38883890161321e565b955060208701359150808211156136d957600080fd5b6136e58883890161337b565b945060408701359150808211156136fb57600080fd5b6137078883890161337b565b9350606087013591508082111561371d57600080fd5b506136168782880161337b565b600080600080600060a0868803121561374257600080fd5b85356001600160401b038082111561375957600080fd5b61376589838a0161321e565b9650602088013591508082111561377b57600080fd5b61378789838a0161337b565b9550604088013591508082111561379d57600080fd5b6137a989838a0161337b565b945060608801359150808211156137bf57600080fd5b6137cb89838a0161337b565b935060808801359150808211156137e157600080fd5b506135aa888289016133db565b600080600080600080600060e0888a03121561380957600080fd5b87356001600160401b038082111561382057600080fd5b61382c8b838c0161321e565b985060208a013591508082111561384257600080fd5b61384e8b838c0161337b565b975060408a013591508082111561386457600080fd5b6138708b838c0161337b565b965060608a013591508082111561388657600080fd5b6138928b838c016133db565b955060808a01359150808211156138a857600080fd5b6138b48b838c01613299565b945060a08a01359150808211156138ca57600080fd5b6138d68b838c01613299565b935060c08a01359150808211156138ec57600080fd5b506138f98a828b01613300565b91505092959891949750929550565b60006020828403121561391a57600080fd5b813561305c81613e8d565b60006020828403121561393757600080fd5b815161305c81613e8d565b60006020828403121561395457600080fd5b61305c82613444565b60006020828403121561396f57600080fd5b5035919050565b60006020828403121561398857600080fd5b815161305c81613e9b565b600081518084526020808501945080840160005b838110156139c3578151875295820195908201906001016139a7565b509495945050505050565b60609390931b6bffffffffffffffffffffffff191683526014830191909152603482015260540190565b60008251613a0a818460208701613dd9565b9190910192915050565b6001600160a01b0385811682528416602082015260a060408201819052600090613a4090830185613993565b8281036060840152613a528185613993565b838103608090940193909352505060008152602001949350505050565b6020815260008251806020840152613a8e816040850160208701613dd9565b601f01601f19169190910160400192915050565b60208082526017908201527f52654e46543a3a6475726174696f6e206973207a65726f000000000000000000604082015260600190565b60208082526019908201527f52654e46543a3a72656e74207072696365206973207a65726f00000000000000604082015260600190565b60208082526010908201526f0a4ca9c8ca87474dcdee840ead2dce8760831b604082015260600190565b6020808252600d908201526c14995391950e8e9c185d5cd959609a1b604082015260600190565b60208082526018908201527f52654e46543a3a6e6674207072696365206973207a65726f0000000000000000604082015260600190565b60208082526010908201526f2932a7232a1d1d3737ba1030b236b4b760811b604082015260600190565b60ff888116825260208201889052861660408201526001600160e01b031985811660608301528416608082015282151560a082015260e0810160078310613c1957634e487b7160e01b600052602160045260246000fd5b8260c083015298975050505050505050565b604051601f8201601f191681016001600160401b0381118282101715613c5357613c53613e62565b604052919050565b60006001600160401b03821115613c7457613c74613e62565b5060051b60200190565b60008219821115613c9157613c91613e20565b500190565b600082613cb357634e487b7160e01b600052601260045260246000fd5b500490565b600181815b80851115613cf3578160001904821115613cd957613cd9613e20565b80851615613ce657918102915b93841c9390800290613cbd565b509250929050565b600061305c8383600082613d1157506001610253565b81613d1e57506000610253565b8160018114613d345760028114613d3e57613d5a565b6001915050610253565b60ff841115613d4f57613d4f613e20565b50506001821b610253565b5060208310610133831016604e8410600b8410161715613d7d575081810a610253565b613d878383613cb8565b8060001904821115613d9b57613d9b613e20565b029392505050565b6000816000190483118215151615613dbd57613dbd613e20565b500290565b600082821015613dd457613dd4613e20565b500390565b60005b83811015613df4578181015183820152602001613ddc565b838111156103625750506000910152565b6000600019821415613e1957613e19613e20565b5060010190565b634e487b7160e01b600052601160045260246000fd5b634e487b7160e01b600052602160045260246000fd5b634e487b7160e01b600052603260045260246000fd5b634e487b7160e01b600052604160045260246000fd5b6001600160a01b0381168114610a1b57600080fd5b8015158114610a1b57600080fd5b60ff81168114610a1b57600080fdfea264697066735822122060f03b3da37440545ad00411fc4136f9fc1a84089326ec6b832b15f8e05ce09964736f6c63430008060033",
  "devdoc": {
    "kind": "dev",
    "methods": {
      "claimCollateral(address[],uint256[],uint256[],uint256[])": {
        "details": "claim collateral on rentals that are past their due date"
      },
      "onERC721Received(address,address,uint256,bytes)": {
        "details": "See {IERC721Receiver-onERC721Received}. Always returns `IERC721Receiver.onERC721Received.selector`."
      },
      "supportsInterface(bytes4)": {
        "details": "See {IERC165-supportsInterface}."
      }
    },
    "version": 1
  },
  "userdoc": {
    "kind": "user",
    "methods": {},
    "version": 1
  },
  "storageLayout": {
    "storage": [
      {
        "astId": 4170,
        "contract": "src/ReNFT.sol:ReNFT",
        "label": "resolver",
        "offset": 0,
        "slot": "0",
        "type": "t_contract(IResolver)7484"
      },
      {
        "astId": 4172,
        "contract": "src/ReNFT.sol:ReNFT",
        "label": "admin",
        "offset": 0,
        "slot": "1",
        "type": "t_address"
      },
      {
        "astId": 4174,
        "contract": "src/ReNFT.sol:ReNFT",
        "label": "beneficiary",
        "offset": 0,
        "slot": "2",
        "type": "t_address_payable"
      },
      {
        "astId": 4177,
        "contract": "src/ReNFT.sol:ReNFT",
        "label": "lendingId",
        "offset": 0,
        "slot": "3",
        "type": "t_uint256"
      },
      {
        "astId": 4180,
        "contract": "src/ReNFT.sol:ReNFT",
        "label": "paused",
        "offset": 0,
        "slot": "4",
        "type": "t_bool"
      },
      {
        "astId": 4183,
        "contract": "src/ReNFT.sol:ReNFT",
        "label": "rentFee",
        "offset": 0,
        "slot": "5",
        "type": "t_uint256"
      },
      {
        "astId": 4219,
        "contract": "src/ReNFT.sol:ReNFT",
        "label": "lendingRenting",
        "offset": 0,
        "slot": "6",
        "type": "t_mapping(t_bytes32,t_struct(LendingRenting)4214_storage)"
      }
    ],
    "types": {
      "t_address": {
        "encoding": "inplace",
        "label": "address",
        "numberOfBytes": "20"
      },
      "t_address_payable": {
        "encoding": "inplace",
        "label": "address payable",
        "numberOfBytes": "20"
      },
      "t_bool": {
        "encoding": "inplace",
        "label": "bool",
        "numberOfBytes": "1"
      },
      "t_bytes32": {
        "encoding": "inplace",
        "label": "bytes32",
        "numberOfBytes": "32"
      },
      "t_bytes4": {
        "encoding": "inplace",
        "label": "bytes4",
        "numberOfBytes": "4"
      },
      "t_contract(IResolver)7484": {
        "encoding": "inplace",
        "label": "contract IResolver",
        "numberOfBytes": "20"
      },
      "t_enum(PaymentToken)7469": {
        "encoding": "inplace",
        "label": "enum IResolver.PaymentToken",
        "numberOfBytes": "1"
      },
      "t_mapping(t_bytes32,t_struct(LendingRenting)4214_storage)": {
        "encoding": "mapping",
        "key": "t_bytes32",
        "label": "mapping(bytes32 => struct ReNFT.LendingRenting)",
        "numberOfBytes": "32",
        "value": "t_struct(LendingRenting)4214_storage"
      },
      "t_struct(Lending)4200_storage": {
        "encoding": "inplace",
        "label": "struct ReNFT.Lending",
        "members": [
          {
            "astId": 4188,
            "contract": "src/ReNFT.sol:ReNFT",
            "label": "lenderAddress",
            "offset": 0,
            "slot": "0",
            "type": "t_address_payable"
          },
          {
            "astId": 4190,
            "contract": "src/ReNFT.sol:ReNFT",
            "label": "maxRentDuration",
            "offset": 20,
            "slot": "0",
            "type": "t_uint8"
          },
          {
            "astId": 4192,
            "contract": "src/ReNFT.sol:ReNFT",
            "label": "dailyRentPrice",
            "offset": 21,
            "slot": "0",
            "type": "t_bytes4"
          },
          {
            "astId": 4194,
            "contract": "src/ReNFT.sol:ReNFT",
            "label": "nftPrice",
            "offset": 25,
            "slot": "0",
            "type": "t_bytes4"
          },
          {
            "astId": 4196,
            "contract": "src/ReNFT.sol:ReNFT",
            "label": "lentAmount",
            "offset": 29,
            "slot": "0",
            "type": "t_uint8"
          },
          {
            "astId": 4199,
            "contract": "src/ReNFT.sol:ReNFT",
            "label": "paymentToken",
            "offset": 30,
            "slot": "0",
            "type": "t_enum(PaymentToken)7469"
          }
        ],
        "numberOfBytes": "32"
      },
      "t_struct(LendingRenting)4214_storage": {
        "encoding": "inplace",
        "label": "struct ReNFT.LendingRenting",
        "members": [
          {
            "astId": 4210,
            "contract": "src/ReNFT.sol:ReNFT",
            "label": "lending",
            "offset": 0,
            "slot": "0",
            "type": "t_struct(Lending)4200_storage"
          },
          {
            "astId": 4213,
            "contract": "src/ReNFT.sol:ReNFT",
            "label": "renting",
            "offset": 0,
            "slot": "1",
            "type": "t_struct(Renting)4207_storage"
          }
        ],
        "numberOfBytes": "64"
      },
      "t_struct(Renting)4207_storage": {
        "encoding": "inplace",
        "label": "struct ReNFT.Renting",
        "members": [
          {
            "astId": 4202,
            "contract": "src/ReNFT.sol:ReNFT",
            "label": "renterAddress",
            "offset": 0,
            "slot": "0",
            "type": "t_address_payable"
          },
          {
            "astId": 4204,
            "contract": "src/ReNFT.sol:ReNFT",
            "label": "rentDuration",
            "offset": 20,
            "slot": "0",
            "type": "t_uint8"
          },
          {
            "astId": 4206,
            "contract": "src/ReNFT.sol:ReNFT",
            "label": "rentedAt",
            "offset": 21,
            "slot": "0",
            "type": "t_uint32"
          }
        ],
        "numberOfBytes": "32"
      },
      "t_uint256": {
        "encoding": "inplace",
        "label": "uint256",
        "numberOfBytes": "32"
      },
      "t_uint32": {
        "encoding": "inplace",
        "label": "uint32",
        "numberOfBytes": "4"
      },
      "t_uint8": {
        "encoding": "inplace",
        "label": "uint8",
        "numberOfBytes": "1"
      }
    }
  }
}