{
  "address": "0xE8A037575F1676d7Ff965B555a3E79f6F329F6f6",
  "abi": [
    {
      "inputs": [
        {
          "internalType": "address",
          "name": "_resolver",
          "type": "address"
        },
        {
          "internalType": "address payable",
          "name": "_beneficiary",
          "type": "address"
        },
        {
          "internalType": "address",
          "name": "_admin",
          "type": "address"
        }
      ],
      "stateMutability": "nonpayable",
      "type": "constructor"
    },
    {
      "anonymous": false,
      "inputs": [
        {
          "indexed": true,
          "internalType": "uint256",
          "name": "lendingId",
          "type": "uint256"
        },
        {
          "indexed": false,
          "internalType": "uint32",
          "name": "claimedAt",
          "type": "uint32"
        }
      ],
      "name": "CollateralClaimed",
      "type": "event"
    },
    {
      "anonymous": false,
      "inputs": [
        {
          "indexed": true,
          "internalType": "uint256",
          "name": "lendingId",
          "type": "uint256"
        },
        {
          "indexed": false,
          "internalType": "uint32",
          "name": "stoppedAt",
          "type": "uint32"
        }
      ],
      "name": "LendingStopped",
      "type": "event"
    },
    {
      "anonymous": false,
      "inputs": [
        {
          "indexed": true,
          "internalType": "address",
          "name": "nftAddress",
          "type": "address"
        },
        {
          "indexed": true,
          "internalType": "uint256",
          "name": "tokenId",
          "type": "uint256"
        },
        {
          "indexed": false,
          "internalType": "uint8",
          "name": "lentAmount",
          "type": "uint8"
        },
        {
          "indexed": false,
          "internalType": "uint256",
          "name": "lendingId",
          "type": "uint256"
        },
        {
          "indexed": true,
          "internalType": "address",
          "name": "lenderAddress",
          "type": "address"
        },
        {
          "indexed": false,
          "internalType": "uint8",
          "name": "maxRentDuration",
          "type": "uint8"
        },
        {
          "indexed": false,
          "internalType": "bytes4",
          "name": "dailyRentPrice",
          "type": "bytes4"
        },
        {
          "indexed": false,
          "internalType": "bytes4",
          "name": "nftPrice",
          "type": "bytes4"
        },
        {
          "indexed": false,
          "internalType": "bool",
          "name": "isERC721",
          "type": "bool"
        },
        {
          "indexed": false,
          "internalType": "enum IResolver.PaymentToken",
          "name": "paymentToken",
          "type": "uint8"
        }
      ],
      "name": "Lent",
      "type": "event"
    },
    {
      "anonymous": false,
      "inputs": [
        {
          "indexed": false,
          "internalType": "uint256",
          "name": "lendingId",
          "type": "uint256"
        },
        {
          "indexed": true,
          "internalType": "address",
          "name": "renterAddress",
          "type": "address"
        },
        {
          "indexed": false,
          "internalType": "uint8",
          "name": "rentDuration",
          "type": "uint8"
        },
        {
          "indexed": false,
          "internalType": "uint32",
          "name": "rentedAt",
          "type": "uint32"
        }
      ],
      "name": "Rented",
      "type": "event"
    },
    {
      "anonymous": false,
      "inputs": [
        {
          "indexed": true,
          "internalType": "uint256",
          "name": "lendingId",
          "type": "uint256"
        },
        {
          "indexed": false,
          "internalType": "uint32",
          "name": "returnedAt",
          "type": "uint32"
        }
      ],
      "name": "Returned",
      "type": "event"
    },
    {
      "inputs": [
        {
          "internalType": "address[]",
          "name": "_nfts",
          "type": "address[]"
        },
        {
          "internalType": "uint256[]",
          "name": "_tokenIds",
          "type": "uint256[]"
        },
        {
          "internalType": "uint256[]",
          "name": "_lentAmounts",
          "type": "uint256[]"
        },
        {
          "internalType": "uint256[]",
          "name": "_lendingIds",
          "type": "uint256[]"
        }
      ],
      "name": "claimCollateral",
      "outputs": [],
      "stateMutability": "nonpayable",
      "type": "function"
    },
    {
      "inputs": [
        {
          "internalType": "address[]",
          "name": "_nfts",
          "type": "address[]"
        },
        {
          "internalType": "uint256[]",
          "name": "_tokenIds",
          "type": "uint256[]"
        },
        {
          "internalType": "uint256[]",
          "name": "_lendAmounts",
          "type": "uint256[]"
        },
        {
          "internalType": "uint8[]",
          "name": "_maxRentDurations",
          "type": "uint8[]"
        },
        {
          "internalType": "bytes4[]",
          "name": "_dailyRentPrices",
          "type": "bytes4[]"
        },
        {
          "internalType": "bytes4[]",
          "name": "_nftPrices",
          "type": "bytes4[]"
        },
        {
          "internalType": "enum IResolver.PaymentToken[]",
          "name": "_paymentTokens",
          "type": "uint8[]"
        }
      ],
      "name": "lend",
      "outputs": [],
      "stateMutability": "nonpayable",
      "type": "function"
    },
    {
      "inputs": [
        {
          "internalType": "address",
          "name": "",
          "type": "address"
        },
        {
          "internalType": "address",
          "name": "",
          "type": "address"
        },
        {
          "internalType": "uint256[]",
          "name": "",
          "type": "uint256[]"
        },
        {
          "internalType": "uint256[]",
          "name": "",
          "type": "uint256[]"
        },
        {
          "internalType": "bytes",
          "name": "",
          "type": "bytes"
        }
      ],
      "name": "onERC1155BatchReceived",
      "outputs": [
        {
          "internalType": "bytes4",
          "name": "",
          "type": "bytes4"
        }
      ],
      "stateMutability": "pure",
      "type": "function"
    },
    {
      "inputs": [
        {
          "internalType": "address",
          "name": "",
          "type": "address"
        },
        {
          "internalType": "address",
          "name": "",
          "type": "address"
        },
        {
          "internalType": "uint256",
          "name": "",
          "type": "uint256"
        },
        {
          "internalType": "uint256",
          "name": "",
          "type": "uint256"
        },
        {
          "internalType": "bytes",
          "name": "",
          "type": "bytes"
        }
      ],
      "name": "onERC1155Received",
      "outputs": [
        {
          "internalType": "bytes4",
          "name": "",
          "type": "bytes4"
        }
      ],
      "stateMutability": "pure",
      "type": "function"
    },
    {
      "inputs": [
        {
          "internalType": "address",
          "name": "",
          "type": "address"
        },
        {
          "internalType": "address",
          "name": "",
          "type": "address"
        },
        {
          "internalType": "uint256",
          "name": "",
          "type": "uint256"
        },
        {
          "internalType": "bytes",
          "name": "",
          "type": "bytes"
        }
      ],
      "name": "onERC721Received",
      "outputs": [
        {
          "internalType": "bytes4",
          "name": "",
          "type": "bytes4"
        }
      ],
      "stateMutability": "pure",
      "type": "function"
    },
    {
      "inputs": [
        {
          "internalType": "address[]",
          "name": "_nfts",
          "type": "address[]"
        },
        {
          "internalType": "uint256[]",
          "name": "_tokenIds",
          "type": "uint256[]"
        },
        {
          "internalType": "uint256[]",
          "name": "_lentAmounts",
          "type": "uint256[]"
        },
        {
          "internalType": "uint256[]",
          "name": "_lendingIds",
          "type": "uint256[]"
        },
        {
          "internalType": "uint8[]",
          "name": "_rentDurations",
          "type": "uint8[]"
        }
      ],
      "name": "rent",
      "outputs": [],
      "stateMutability": "nonpayable",
      "type": "function"
    },
    {
      "inputs": [],
      "name": "rentFee",
      "outputs": [
        {
          "internalType": "uint256",
          "name": "",
          "type": "uint256"
        }
      ],
      "stateMutability": "view",
      "type": "function"
    },
    {
      "inputs": [
        {
          "internalType": "address[]",
          "name": "_nfts",
          "type": "address[]"
        },
        {
          "internalType": "uint256[]",
          "name": "_tokenIds",
          "type": "uint256[]"
        },
        {
          "internalType": "uint256[]",
          "name": "_lentAmounts",
          "type": "uint256[]"
        },
        {
          "internalType": "uint256[]",
          "name": "_lendingIds",
          "type": "uint256[]"
        }
      ],
      "name": "returnIt",
      "outputs": [],
      "stateMutability": "nonpayable",
      "type": "function"
    },
    {
      "inputs": [
        {
          "internalType": "address payable",
          "name": "_newBeneficiary",
          "type": "address"
        }
      ],
      "name": "setBeneficiary",
      "outputs": [],
      "stateMutability": "nonpayable",
      "type": "function"
    },
    {
      "inputs": [
        {
          "internalType": "uint256",
          "name": "_rentFee",
          "type": "uint256"
        }
      ],
      "name": "setRentFee",
      "outputs": [],
      "stateMutability": "nonpayable",
      "type": "function"
    },
    {
      "inputs": [
        {
          "internalType": "address[]",
          "name": "_nfts",
          "type": "address[]"
        },
        {
          "internalType": "uint256[]",
          "name": "_tokenIds",
          "type": "uint256[]"
        },
        {
          "internalType": "uint256[]",
          "name": "_lentAmounts",
          "type": "uint256[]"
        },
        {
          "internalType": "uint256[]",
          "name": "_lendingIds",
          "type": "uint256[]"
        }
      ],
      "name": "stopLending",
      "outputs": [],
      "stateMutability": "nonpayable",
      "type": "function"
    },
    {
      "inputs": [
        {
          "internalType": "bytes4",
          "name": "interfaceId",
          "type": "bytes4"
        }
      ],
      "name": "supportsInterface",
      "outputs": [
        {
          "internalType": "bool",
          "name": "",
          "type": "bool"
        }
      ],
      "stateMutability": "pure",
      "type": "function"
    }
  ],
  "transactionHash": "0xe9959da7d0214451bcc3dbc5f69359c129c5508022d76f6d9fb6d03cfbf38b31",
  "args": [
    "0x8590B0DB724f6F294f1Cd3bACd26d62A6354184F",
    "0x00E296Be39f0614917db785601E99dA175A58e34",
    "0x4F8645e873Af2355afD7E971736D6056c1758aBF"
  ],
  "solcInputHash": "d010eaff0e8f7aab4651ac0cce442b3c",
  "bytecode": "0x608060405260016003556101f46004553480156200001c57600080fd5b5060405162004490380380620044908339810160408190526200003f9162000106565b6001600160a01b038316620000715760405162461bcd60e51b8152600401620000689062000159565b60405180910390fd5b6001600160a01b0382166200009a5760405162461bcd60e51b8152600401620000689062000159565b6001600160a01b038116620000c35760405162461bcd60e51b8152600401620000689062000159565b600080546001600160a01b039485166001600160a01b03199182161790915560028054938516938216939093179092556001805491909316911617905562000198565b6000806000606084860312156200011b578283fd5b835162000128816200017f565b60208501519093506200013b816200017f565b60408501519092506200014e816200017f565b809150509250925092565b6020808252600c908201526b7a65726f206164647265737360a01b604082015260600190565b6001600160a01b03811681146200019557600080fd5b50565b6142e880620001a86000396000f3fe608060405234801561001057600080fd5b50600436106100b45760003560e01c8063ad68fc7c11610071578063ad68fc7c14610150578063bc197c8114610163578063bf2b23ea14610176578063e50364b21461018b578063f23a6e611461019e578063f6ca0ca0146101b1576100b4565b806301ffc9a7146100b957806304f87410146100e2578063150b7a02146100f75780631c31f71014610117578063268e87861461012a57806376774ea31461013d575b600080fd5b6100cc6100c73660046136ca565b6101c4565b6040516100d99190613832565b60405180910390f35b6100f56100f03660046134cd565b6101fd565b005b61010a61010536600461333d565b61021c565b6040516100d9919061383d565b6100f5610125366004613267565b61022d565b6100f5610138366004613426565b610282565b6100f561014b3660046136e4565b61029a565b6100f561015e366004613426565b6102ea565b61010a610171366004613283565b6102fc565b61017e610310565b6040516100d99190613f7b565b6100f5610199366004613598565b610316565b61010a6101ac3660046133ad565b610334565b6100f56101bf366004613426565b610346565b60006001600160e01b03198216630a85bd0160e11b14806101f557506001600160e01b03198216630271189760e51b145b90505b919050565b6102156103586102108787878787610947565b610a79565b5050505050565b63785cf2dd60e11b95945050505050565b6001546001600160a01b031633146102605760405162461bcd60e51b815260040161025790613ef9565b60405180910390fd5b600280546001600160a01b0319166001600160a01b0392909216919091179055565b610294610baa61021086868686610e54565b50505050565b6001546001600160a01b031633146102c45760405162461bcd60e51b815260040161025790613ef9565b61271081106102e55760405162461bcd60e51b815260040161025790613d57565b600455565b610294610f7461021086868686610e54565b63bc197c8160e01b98975050505050505050565b60045481565b61032b6112a26102108989898989898961188c565b50505050505050565b63f23a6e6160e01b9695505050505050565b61029461196861021086868686610e54565b80515b816020015181101561093857600060056000846040015185600001518151811061039557634e487b7160e01b600052603260045260246000fd5b6020026020010151856060015185815181106103c157634e487b7160e01b600052603260045260246000fd5b6020026020010151866080015186815181106103ed57634e487b7160e01b600052603260045260246000fd5b6020026020010151876101000151878151811061041a57634e487b7160e01b600052603260045260246000fd5b60200260200101516040516020016104359493929190613752565b60408051601f198184030181529181528151602092830120835282820193909352908201600020825160c08101845281546001600160a01b038116825260ff600160a01b82048116948301949094526001600160e01b0319600160a81b820460e090811b821696840196909652600160c81b820490951b9094166060820152600160e81b840483166080820152909350610521929091849160a0840191600160f01b9091041660058111156104fa57634e487b7160e01b600052602160045260246000fd5b600581111561051957634e487b7160e01b600052602160045260246000fd5b905250611d3d565b6040805160608101825260018301546001600160a01b0381168252600160a01b810460ff166020830152600160a81b900463ffffffff169181019190915261056890611dde565b6040805160c08101825282546001600160a01b038116825260ff600160a01b8204811660208401526001600160e01b0319600160a81b830460e090811b821695850195909552600160c81b830490941b9093166060830152600160e81b81048316608083015261062b92849160a0840191600160f01b90910416600581111561060157634e487b7160e01b600052602160045260246000fd5b600581111561062057634e487b7160e01b600052602160045260246000fd5b905250848433611e53565b8054600090600160f01b900460ff16600581111561065957634e487b7160e01b600052602160045260246000fd5b6000805460405163c6ee427f60e01b815292935090916001600160a01b039091169063c6ee427f9061068f908590600401613fb4565b60206040518083038186803b1580156106a757600080fd5b505afa1580156106bb573d6000803e3d6000fd5b505050506040513d601f19601f820116820180604052508101906106df919061324b565b905060126106ec82611f25565b905060006106fb82600a6140f5565b855490915060009061071790600160a81b900460e01b83611fa1565b886101200151888151811061073c57634e487b7160e01b600052603260045260246000fd5b602002602001015160ff1661075191906141e5565b865490915060009061076d90600160c81b900460e01b84611fa1565b8960800151898151811061079157634e487b7160e01b600052603260045260246000fd5b60200260200101516107a391906141e5565b9050600082116107c55760405162461bcd60e51b815260040161025790613c07565b600081116107e55760405162461bcd60e51b815260040161025790613c5a565b60006107f18284614077565b90506108086001600160a01b038716333084612030565b5050506001850180546001600160a01b031916331790555061012086015180518690811061084657634e487b7160e01b600052603260045260246000fd5b602090810291909101015160018501805460ff60a01b1916600160a01b60ff909316929092029190911763ffffffff60a81b1916600160a81b4263ffffffff1602179055610100860151805133917f3140d73adcc923e4a0de3b1522aeec546a872bcdc06a3e25fe1209df30b954ec91889081106108d457634e487b7160e01b600052603260045260246000fd5b6020026020010151886101200151888151811061090157634e487b7160e01b600052603260045260246000fd5b60200260200101514260405161091993929190613f84565b60405180910390a250505050808061093090614247565b91505061035b565b50610944813033612088565b50565b61094f612f59565b604051806101600160405280600081526020016001815260200187815260200186815260200185815260200160006001600160401b038111156109a257634e487b7160e01b600052604160045260246000fd5b6040519080825280602002602001820160405280156109cb578160200160208202803683370190505b50815260200160006040519080825280602002602001820160405280156109fc578160200160208202803683370190505b5081526020016000604051908082528060200260200182016040528015610a2d578160200160208202803683370190505b50815260208101859052604081018490526060016000604051908082528060200260200182016040528015610a6c578160200160208202803683370190505b5090529695505050505050565b60028160400151511015610a9957610a94818363ffffffff16565b610ba6565b80604001515181602001511015610b99578060400151816020015181518110610ad257634e487b7160e01b600052603260045260246000fd5b60200260200101516001600160a01b03168160400151826000015181518110610b0b57634e487b7160e01b600052603260045260246000fd5b60200260200101516001600160a01b0316148015610b5c5750610b5c8160400151826020015181518110610b4f57634e487b7160e01b600052603260045260246000fd5b6020026020010151612235565b15610b795760208101805190610b7182614247565b905250610a99565b610b86818363ffffffff16565b60208101805180835290610b7182614247565b610ba6818363ffffffff16565b5050565b80515b8160200151811015610e48576000600560008460400151856000015181518110610be757634e487b7160e01b600052603260045260246000fd5b602002602001015185606001518581518110610c1357634e487b7160e01b600052603260045260246000fd5b602002602001015186608001518681518110610c3f57634e487b7160e01b600052603260045260246000fd5b60200260200101518761010001518781518110610c6c57634e487b7160e01b600052603260045260246000fd5b6020026020010151604051602001610c879493929190613752565b60408051601f198184030181529181528151602092830120835282820193909352908201600020825160c08101845281546001600160a01b038116825260ff600160a01b82048116948301949094526001600160e01b0319600160a81b820460e090811b821696840196909652600160c81b820490951b9094166060820152600160e81b840483166080820152909350610d4c929091849160a0840191600160f01b9091041660058111156104fa57634e487b7160e01b600052602160045260246000fd5b6040805160608101825260018301546001600160a01b0381168252600160a01b810460ff166020830152600160a81b900463ffffffff1691810191909152610d959033426122bb565b6001810154600090610db490600160a81b900463ffffffff1642614204565b9050610dc08282612317565b8361010001518381518110610de557634e487b7160e01b600052603260045260246000fd5b60200260200101517f289da9cb3ecd362ad5ae230d4daa346e68abbd8972cd9c01df54b7b1b97ab15b42604051610e1c9190613fa3565b60405180910390a25060010180546001600160c81b031916905580610e4081614247565b915050610bad565b50610944813330612088565b610e5c612f59565b604051806101600160405280600081526020016001815260200186815260200185815260200184815260200160006001600160401b03811115610eaf57634e487b7160e01b600052604160045260246000fd5b604051908082528060200260200182016040528015610ed8578160200160208202803683370190505b5081526020016000604051908082528060200260200182016040528015610f09578160200160208202803683370190505b5081526020016000604051908082528060200260200182016040528015610f3a578160200160208202803683370190505b5081526020808201949094526040805160008082528187018352828401919091528151908152948501905260600192909252509392505050565b80515b8160200151811015610938576000600560008460400151856000015181518110610fb157634e487b7160e01b600052603260045260246000fd5b602002602001015185606001518581518110610fdd57634e487b7160e01b600052603260045260246000fd5b60200260200101518660800151868151811061100957634e487b7160e01b600052603260045260246000fd5b6020026020010151876101000151878151811061103657634e487b7160e01b600052603260045260246000fd5b60200260200101516040516020016110519493929190613752565b60408051601f198184030181529181528151602092830120835282820193909352908201600020825160c08101845281546001600160a01b038116825260ff600160a01b82048116948301949094526001600160e01b0319600160a81b820460e090811b821696840196909652600160c81b820490951b9094166060820152600160e81b840483166080820152909350611116929091849160a0840191600160f01b9091041660058111156104fa57634e487b7160e01b600052602160045260246000fd5b6040805160608101825260018301546001600160a01b0381168252600160a01b810460ff166020830152600160a81b900463ffffffff169181019190915261115d90611dde565b6040805160c08101825282546001600160a01b038116825260ff600160a01b8204811660208401526001600160e01b0319600160a81b830460e090811b821695850195909552600160c81b830490941b9093166060830152600160e81b81048316608083015261121e92849160a0840191600160f01b9091041660058111156111f657634e487b7160e01b600052602160045260246000fd5b600581111561121557634e487b7160e01b600052602160045260246000fd5b90525033612562565b826101000151828151811061124357634e487b7160e01b600052603260045260246000fd5b60200260200101517f61bcecd87c002ae006d9d8c760291b4f3646fa6109590b4b3ea93084aae4bb6a4260405161127a9190613fa3565b60405180910390a280546001600160f81b03191690558061129a81614247565b915050610f77565b80515b8160200151811015610e48576112bb8282612597565b60006005600084604001518560000151815181106112e957634e487b7160e01b600052603260045260246000fd5b60200260200101518560600151858151811061131557634e487b7160e01b600052603260045260246000fd5b60200260200101518660800151868151811061134157634e487b7160e01b600052603260045260246000fd5b602002602001015160035460405160200161135f9493929190613752565b60408051601f198184030181529181528151602092830120835282820193909352908201600020825160c08101845281546001600160a01b038116825260ff600160a01b82048116948301949094526001600160e01b0319600160a81b820460e090811b821696840196909652600160c81b820490951b9094166060820152600160e81b84048316608082015290935061144b929091849160a0840191600160f01b90910416600581111561142457634e487b7160e01b600052602160045260246000fd5b600581111561144357634e487b7160e01b600052602160045260246000fd5b905250612726565b6040805160608101825260018301546001600160a01b0381168252600160a01b810460ff166020830152600160a81b900463ffffffff169181019190915261149290611dde565b6040518060c00160405280336001600160a01b031681526020018460a0015184815181106114d057634e487b7160e01b600052603260045260246000fd5b602002602001015160ff1681526020018460c00151848151811061150457634e487b7160e01b600052603260045260246000fd5b60200260200101516001600160e01b03191681526020018460e00151848151811061153f57634e487b7160e01b600052603260045260246000fd5b60200260200101516001600160e01b03191681526020018460800151848151811061157a57634e487b7160e01b600052603260045260246000fd5b602002602001015160ff16815260200184610140015184815181106115af57634e487b7160e01b600052603260045260246000fd5b602002602001015160058111156115d657634e487b7160e01b600052602160045260246000fd5b90528051825460208301516040840151606085015160808601516001600160a01b03199094166001600160a01b039095169490941760ff60a01b1916600160a01b60ff938416021763ffffffff60a81b1916600160a81b60e092831c021763ffffffff60c81b1916600160c81b9490911c939093029290921760ff60e81b1916600160e81b92909116919091021780835560a08201518391829060ff60f01b1916600160f01b83600581111561169c57634e487b7160e01b600052602160045260246000fd5b0217905550905050336001600160a01b0316836060015183815181106116d257634e487b7160e01b600052603260045260246000fd5b6020026020010151846040015185600001518151811061170257634e487b7160e01b600052603260045260246000fd5b60200260200101516001600160a01b03167fc1b2f77226541f6b308379a3110d77af45464d9a161a6eb4b6cfdcd0fb2089c68660800151868151811061175857634e487b7160e01b600052603260045260246000fd5b60200260200101516003548860a00151888151811061178757634e487b7160e01b600052603260045260246000fd5b60200260200101518960c0015189815181106117b357634e487b7160e01b600052603260045260246000fd5b60200260200101518a60e001518a815181106117df57634e487b7160e01b600052603260045260246000fd5b602002602001015161181b8c604001518c8151811061180e57634e487b7160e01b600052603260045260246000fd5b60200260200101516127cb565b8c61014001518c8151811061184057634e487b7160e01b600052603260045260246000fd5b602002602001015160405161185b9796959493929190613fc2565b60405180910390a46003805490600061187383614247565b919050555050808061188490614247565b9150506112a5565b611894612f59565b604051806101600160405280600081526020016001815260200189815260200188815260200187815260200186815260200185815260200184815260200160006001600160401b038111156118f957634e487b7160e01b600052604160045260246000fd5b604051908082528060200260200182016040528015611922578160200160208202803683370190505b5081526020016000604051908082528060200260200182016040528015611953578160200160208202803683370190505b50815260200192909252509695505050505050565b80515b8160200151811015610ba65760006005600084604001518560000151815181106119a557634e487b7160e01b600052603260045260246000fd5b6020026020010151856060015185815181106119d157634e487b7160e01b600052603260045260246000fd5b6020026020010151866080015186815181106119fd57634e487b7160e01b600052603260045260246000fd5b60200260200101518761010001518781518110611a2a57634e487b7160e01b600052603260045260246000fd5b6020026020010151604051602001611a459493929190613752565b60408051601f198184030181529181528151602092830120835282820193909352908201600020825160c08101845281546001600160a01b038116825260ff600160a01b82048116948301949094526001600160e01b0319600160a81b820460e090811b821696840196909652600160c81b820490951b9094166060820152600160e81b840483166080820152909350611b0a929091849160a0840191600160f01b9091041660058111156104fa57634e487b7160e01b600052602160045260246000fd5b6040805160608101825260018301546001600160a01b0381168252600160a01b810460ff166020830152600160a81b900463ffffffff1691810191909152611b5190612801565b6040805160608101825260018301546001600160a01b0381168252600160a01b810460ff166020830152600160a81b900463ffffffff1691810191909152611b999042612873565b604080516101008101825282546001600160a01b03811692820192835260ff600160a01b8204811660608401526001600160e01b0319600160a81b830460e090811b82166080860152600160c81b8404811b90911660a0850152600160e81b8304821660c0850152611ca894869385939192859290850191600160f01b9004166005811115611c3857634e487b7160e01b600052602160045260246000fd5b6005811115611c5757634e487b7160e01b600052602160045260246000fd5b905250815260408051606081018252600193909301546001600160a01b0381168452600160a01b810460ff16602080860191909152600160a81b90910463ffffffff16918401919091520152612899565b8261010001518281518110611ccd57634e487b7160e01b600052603260045260246000fd5b60200260200101517f8ac1440f996b8b13e31275705c447bd09a92005cf2ec131a8183afedc636f5a242604051611d049190613fa3565b60405180910390a280546001600160f81b031916815560010180546001600160c81b031916905580611d3581614247565b91505061196b565b80516001600160a01b0316611d645760405162461bcd60e51b815260040161025790613e30565b602081015160ff16611d885760405162461bcd60e51b815260040161025790613ce9565b60408101516001600160e01b031916611db35760405162461bcd60e51b815260040161025790613885565b60608101516001600160e01b0319166109445760405162461bcd60e51b815260040161025790613c5a565b80516001600160a01b031615611e065760405162461bcd60e51b8152600401610257906138e7565b602081015160ff1615611e2b5760405162461bcd60e51b815260040161025790613f1c565b604081015163ffffffff16156109445760405162461bcd60e51b8152600401610257906138bc565b83516001600160a01b0382811691161415611e805760405162461bcd60e51b815260040161025790613ece565b60008361012001518381518110611ea757634e487b7160e01b600052603260045260246000fd5b602002602001015160ff1611611ecf5760405162461bcd60e51b815260040161025790613a27565b836020015160ff168361012001518381518110611efc57634e487b7160e01b600052603260045260246000fd5b602002602001015160ff1611156102945760405162461bcd60e51b815260040161025790613d20565b6000816001600160a01b031663313ce5676040518163ffffffff1660e01b815260040160206040518083038186803b158015611f6057600080fd5b505afa158015611f74573d6000803e3d6000fd5b505050506040513d601f19601f82011682018060405250810190611f9891906136fc565b60ff1692915050565b6000611fad8383612a60565b60f083901c61ffff60e085901c166000611fc96127108661408f565b905061270f8361ffff161115611fdf5761270f92505b61270f8261ffff161115611ff35761270f91505b60006120038661ffff86166141e5565b905060006120158361ffff86166141e5565b905060006120238284614077565b9998505050505050505050565b610294846323b872dd60e01b858585604051602401612051939291906137f5565b60408051601f198184030181529190526020810180516001600160e01b03166001600160e01b031990931692909217909152612aa3565b6120b3836040015184600001518151811061180e57634e487b7160e01b600052603260045260246000fd5b1561217a5760408301518351815181106120dd57634e487b7160e01b600052603260045260246000fd5b60200260200101516001600160a01b03166323b872dd8383866060015187600001518151811061211d57634e487b7160e01b600052603260045260246000fd5b60200260200101516040518463ffffffff1660e01b8152600401612143939291906137f5565b600060405180830381600087803b15801561215d57600080fd5b505af1158015612171573d6000803e3d6000fd5b50505050612230565b6121a58360400151846000015181518110610b4f57634e487b7160e01b600052603260045260246000fd5b156122185760408301518351815181106121cf57634e487b7160e01b600052603260045260246000fd5b60200260200101516001600160a01b0316632eb2c2d683836121f087612b32565b6121f988612c19565b6040518563ffffffff1660e01b8152600401612143949392919061379d565b60405162461bcd60e51b815260040161025790613d9a565b505050565b6040516301ffc9a760e01b81526000906001600160a01b038316906301ffc9a79061226b90636cdb3d1360e11b9060040161383d565b60206040518083038186803b15801561228357600080fd5b505afa158015612297573d6000803e3d6000fd5b505050506040513d601f19601f820116820180604052508101906101f591906136aa565b816001600160a01b031683600001516001600160a01b0316146122f05760405162461bcd60e51b815260040161025790613e60565b6122fa8382612cfa565b156122305760405162461bcd60e51b81526004016102579061392b565b8154601290600090600160f01b900460ff16600581111561234857634e487b7160e01b600052602160045260246000fd5b6000805460405163c6ee427f60e01b815292935090916001600160a01b039091169063c6ee427f9061237e908590600401613fb4565b60206040518083038186803b15801561239657600080fd5b505afa1580156123aa573d6000803e3d6000fd5b505050506040513d601f19601f820116820180604052508101906123ce919061324b565b90506123d981611f25565b925060006123e884600a6140f5565b865490915060009061240490600160c81b900460e01b83611fa1565b875490915060009061242090600160a81b900460e01b84611fa1565b600189015490915060009061243f90600160a01b900460ff16836141e5565b9050600062015180612451848b6141e5565b61245b919061408f565b90506000821161247d5760405162461bcd60e51b815260040161025790613af2565b6000811161249d5760405162461bcd60e51b815260040161025790613ac2565b808210156124bd5760405162461bcd60e51b8152600401610257906139ab565b60006124c98284614204565b90508281106124ea5760405162461bcd60e51b815260040161025790613c85565b8a54600090612504908490600160f01b900460ff16612d35565b90506125108184614204565b925061251c8683614077565b8c54909250612538906001600160a01b038a8116911685612e22565b60018c0154612554906001600160a01b038a8116911684612e22565b505050505050505050505050565b806001600160a01b031682600001516001600160a01b031614610ba65760405162461bcd60e51b815260040161025790613a95565b6000826080015182815181106125bd57634e487b7160e01b600052603260045260246000fd5b6020026020010151116125e25760405162461bcd60e51b815260040161025790613cbc565b60ff80168260800151828151811061260a57634e487b7160e01b600052603260045260246000fd5b602002602001015111156126305760405162461bcd60e51b815260040161025790613958565b60008260a00151828151811061265657634e487b7160e01b600052603260045260246000fd5b602002602001015160ff161161267e5760405162461bcd60e51b8152600401610257906139f0565b60008260c0015182815181106126a457634e487b7160e01b600052603260045260246000fd5b602002602001015160e01c63ffffffff16116126d25760405162461bcd60e51b815260040161025790613885565b60008260e0015182815181106126f857634e487b7160e01b600052603260045260246000fd5b602002602001015160e01c63ffffffff1611610ba65760405162461bcd60e51b815260040161025790613c5a565b80516001600160a01b03161561274e5760405162461bcd60e51b815260040161025790613e30565b602081015160ff16156127735760405162461bcd60e51b815260040161025790613ce9565b60408101516001600160e01b0319161561279f5760405162461bcd60e51b815260040161025790613885565b60608101516001600160e01b031916156109445760405162461bcd60e51b815260040161025790613c5a565b6040516301ffc9a760e01b81526000906001600160a01b038316906301ffc9a79061226b906380ac58cd60e01b9060040161383d565b80516001600160a01b03166128285760405162461bcd60e51b815260040161025790613bd2565b602081015160ff1661284c5760405162461bcd60e51b815260040161025790613dca565b604081015163ffffffff166109445760405162461bcd60e51b815260040161025790613985565b61287d8282612cfa565b610ba65760405162461bcd60e51b815260040161025790613f53565b805160a0015160009060058111156128c157634e487b7160e01b600052602160045260246000fd5b6000805460405163c6ee427f60e01b815292935090916001600160a01b039091169063c6ee427f906128f7908590600401613fb4565b60206040518083038186803b15801561290f57600080fd5b505afa158015612923573d6000803e3d6000fd5b505050506040513d601f19601f82011682018060405250810190612947919061324b565b9050601261295482611f25565b9050600061296382600a6140f5565b9050600061297986600001516060015183611fa1565b9050600061298f87600001516040015184611fa1565b9050600087602001516020015160ff16826129aa91906141e5565b905060006129da828960ff1660058111156129d557634e487b7160e01b600052602160045260246000fd5b612d35565b905060006129e88584614077565b905060008311612a0a5760405162461bcd60e51b815260040161025790613b35565b612a148582614204565b8314612a325760405162461bcd60e51b815260040161025790613a5e565b895151612a5490612a438484614204565b6001600160a01b038b169190612e22565b50505050505050505050565b60e082901c612a815760405162461bcd60e51b815260040161025790613c33565b612710811015610ba65760405162461bcd60e51b815260040161025790613b65565b6000612af8826040518060400160405280602081526020017f5361666545524332303a206c6f772d6c6576656c2063616c6c206661696c6564815250856001600160a01b0316612e419092919063ffffffff16565b8051909150156122305780806020019051810190612b1691906136aa565b6122305760405162461bcd60e51b815260040161025790613e84565b60608160600151516001600160401b03811115612b5f57634e487b7160e01b600052604160045260246000fd5b604051908082528060200260200182016040528015612b88578160200160208202803683370190505b5082519091505b8260200151811015612c135782606001518181518110612bbf57634e487b7160e01b600052603260045260246000fd5b602002602001015182846000015183612bd89190614204565b81518110612bf657634e487b7160e01b600052603260045260246000fd5b602090810291909101015280612c0b81614247565b915050612b8f565b50919050565b60608160800151516001600160401b03811115612c4657634e487b7160e01b600052604160045260246000fd5b604051908082528060200260200182016040528015612c6f578160200160208202803683370190505b5082519091505b8260200151811015612c135782608001518181518110612ca657634e487b7160e01b600052603260045260246000fd5b602002602001015182846000015183612cbf9190614204565b81518110612cdd57634e487b7160e01b600052603260045260246000fd5b602090810291909101015280612cf281614247565b915050612c76565b6000826020015160ff1662015180612d1291906141c3565b62ffffff16836040015163ffffffff1683612d2d9190614204565b119392505050565b600060045483612d4591906141e5565b9050612d536127108261408f565b90506000826005811115612d7757634e487b7160e01b600052602160045260246000fd5b6000805460405163c6ee427f60e01b815292935090916001600160a01b039091169063c6ee427f90612dad908590600401613fb4565b60206040518083038186803b158015612dc557600080fd5b505afa158015612dd9573d6000803e3d6000fd5b505050506040513d601f19601f82011682018060405250810190612dfd919061324b565b600254909150612e1a906001600160a01b03808416911685612e22565b505092915050565b6122308363a9059cbb60e01b8484604051602401612051929190613819565b6060612e508484600085612e5a565b90505b9392505050565b606082471015612e7c5760405162461bcd60e51b815260040161025790613b8c565b612e8585612f1a565b612ea15760405162461bcd60e51b815260040161025790613df9565b600080866001600160a01b03168587604051612ebd9190613781565b60006040518083038185875af1925050503d8060008114612efa576040519150601f19603f3d011682016040523d82523d6000602084013e612eff565b606091505b5091509150612f0f828286612f20565b979650505050505050565b3b151590565b60608315612f2f575081612e53565b825115612f3f5782518084602001fd5b8160405162461bcd60e51b81526004016102579190613852565b60405180610160016040528060008152602001600081526020016060815260200160608152602001606081526020016060815260200160608152602001606081526020016060815260200160608152602001606081525090565b600082601f830112612fc3578081fd5b81356020612fd8612fd383614054565b61402b565b8281528181019085830183850287018401881015612ff4578586fd5b855b8581101561301b5781356130098161428e565b84529284019290840190600101612ff6565b5090979650505050505050565b600082601f830112613038578081fd5b81356020613048612fd383614054565b8281528181019085830183850287018401881015613064578586fd5b855b8581101561301b57613077826131f4565b84529284019290840190600101613066565b600082601f830112613099578081fd5b813560206130a9612fd383614054565b82815281810190858301838502870184018810156130c5578586fd5b855b8581101561301b578135600681106130dd578788fd5b845292840192908401906001016130c7565b60008083601f840112613100578182fd5b5081356001600160401b03811115613116578182fd5b602083019150836020808302850101111561313057600080fd5b9250929050565b600082601f830112613147578081fd5b81356020613157612fd383614054565b8281528181019085830183850287018401881015613173578586fd5b855b8581101561301b57813584529284019290840190600101613175565b600082601f8301126131a1578081fd5b813560206131b1612fd383614054565b82815281810190858301838502870184018810156131cd578586fd5b855b8581101561301b5781356131e2816142a3565b845292840192908401906001016131cf565b80356001600160e01b0319811681146101f857600080fd5b60008083601f84011261321d578182fd5b5081356001600160401b03811115613233578182fd5b60208301915083602082850101111561313057600080fd5b60006020828403121561325c578081fd5b8151612e538161428e565b600060208284031215613278578081fd5b8135612e538161428e565b60008060008060008060008060a0898b03121561329e578384fd5b88356132a98161428e565b975060208901356132b98161428e565b965060408901356001600160401b03808211156132d4578586fd5b6132e08c838d016130ef565b909850965060608b01359150808211156132f8578586fd5b6133048c838d016130ef565b909650945060808b013591508082111561331c578384fd5b506133298b828c0161320c565b999c989b5096995094979396929594505050565b600080600080600060808688031215613354578283fd5b853561335f8161428e565b9450602086013561336f8161428e565b93506040860135925060608601356001600160401b03811115613390578182fd5b61339c8882890161320c565b969995985093965092949392505050565b60008060008060008060a087890312156133c5578384fd5b86356133d08161428e565b955060208701356133e08161428e565b9450604087013593506060870135925060808701356001600160401b03811115613408578283fd5b61341489828a0161320c565b979a9699509497509295939492505050565b6000806000806080858703121561343b578182fd5b84356001600160401b0380821115613451578384fd5b61345d88838901612fb3565b95506020870135915080821115613472578384fd5b61347e88838901613137565b94506040870135915080821115613493578384fd5b61349f88838901613137565b935060608701359150808211156134b4578283fd5b506134c187828801613137565b91505092959194509250565b600080600080600060a086880312156134e4578283fd5b85356001600160401b03808211156134fa578485fd5b61350689838a01612fb3565b9650602088013591508082111561351b578485fd5b61352789838a01613137565b9550604088013591508082111561353c578485fd5b61354889838a01613137565b9450606088013591508082111561355d578283fd5b61356989838a01613137565b9350608088013591508082111561357e578283fd5b5061358b88828901613191565b9150509295509295909350565b600080600080600080600060e0888a0312156135b2578081fd5b87356001600160401b03808211156135c8578283fd5b6135d48b838c01612fb3565b985060208a01359150808211156135e9578283fd5b6135f58b838c01613137565b975060408a013591508082111561360a578283fd5b6136168b838c01613137565b965060608a013591508082111561362b578283fd5b6136378b838c01613191565b955060808a013591508082111561364c578283fd5b6136588b838c01613028565b945060a08a013591508082111561366d578283fd5b6136798b838c01613028565b935060c08a013591508082111561368e578283fd5b5061369b8a828b01613089565b91505092959891949750929550565b6000602082840312156136bb578081fd5b81518015158114612e53578182fd5b6000602082840312156136db578081fd5b612e53826131f4565b6000602082840312156136f5578081fd5b5035919050565b60006020828403121561370d578081fd5b8151612e53816142a3565b6000815180845260208085019450808401835b838110156137475781518752958201959082019060010161372b565b509495945050505050565b60609490941b6bffffffffffffffffffffffff1916845260148401929092526034830152605482015260740190565b6000825161379381846020870161421b565b9190910192915050565b6001600160a01b0385811682528416602082015260a0604082018190526000906137c990830185613718565b82810360608401526137db8185613718565b838103608090940193909352508152602001949350505050565b6001600160a01b039384168152919092166020820152604081019190915260600190565b6001600160a01b03929092168252602082015260400190565b901515815260200190565b6001600160e01b031991909116815260200190565b600060208252825180602084015261387181604085016020870161421b565b601f01601f19169190910160400192915050565b60208082526018908201527f6461696c792072656e74207072696365206973207a65726f0000000000000000604082015260600190565b6020808252601190820152707761732072656e746564206265666f726560781b604082015260600190565b60208082526024908201527f72656e7465722061646472657373206973206e6f742061207a65726f206164646040820152637265737360e01b606082015260800190565b602080825260139082015272697320706173742072657475726e206461746560681b604082015260600190565b6020808252601390820152720c6c2dcdcdee840caf0c6cacac840ead2dce87606b1b604082015260600190565b6020808252600c908201526b1b995d995c881c995b9d195960a21b604082015260600190565b60208082526025908201527f6c656e64657220726563656976696e67206d6f7265207468616e2072656e74656040820152641c881c1b5d60da1b606082015260800190565b6020808252601d908201527f6d757374206265206174206c65617374206f6e6520646179206c656e64000000604082015260600190565b6020808252601e908201527f73686f756c642072656e7420666f72206174206c656173742061206461790000604082015260600190565b6020808252601b908201527f6d617852656e745061796d656e7420697320696e636f72726563740000000000604082015260600190565b6020808252601390820152721bdb9b1e481b195b99195c88185b1b1bddd959606a1b604082015260600190565b6020808252601690820152756c656e646572207061796d656e74206973207a65726f60501b604082015260600190565b60208082526023908201527f746f74616c207061796d656e7420776f20636f6c6c61746572616c206973207a60408201526265726f60e81b606082015260800190565b6020808252601690820152756d617852656e745061796d656e74206973207a65726f60501b604082015260600190565b6020808252600d908201526c696e76616c6964207363616c6560981b604082015260600190565b60208082526026908201527f416464726573733a20696e73756666696369656e742062616c616e636520666f6040820152651c8818d85b1b60d21b606082015260800190565b6020808252818101527f72656e74657220616464726573732069732061207a65726f2061646472657373604082015260600190565b60208082526012908201527172656e74207072696365206973207a65726f60701b604082015260600190565b6020808252600d908201526c696e76616c696420707269636560981b604082015260600190565b6020808252601190820152706e6674207072696365206973207a65726f60781b604082015260600190565b6020808252601b908201527f756e646572666c6f77206973737565732070726576656e74696f6e0000000000604082015260600190565b6020808252601390820152721a5b9d985b1a59081b195b9908185b5bdd5b9d606a1b604082015260600190565b60208082526019908201527f6d61782072656e74206475726174696f6e206973207a65726f00000000000000604082015260600190565b6020808252601a908201527f6d61782072656e74206475726174696f6e206578636565646564000000000000604082015260600190565b60208082526023908201527f63616e6e6f742062652074616b696e67203130302070637420666565206d61646040820152621b185960ea1b606082015260800190565b602080825260169082015275756e737570706f7274656420746f6b656e207479706560501b604082015260600190565b60208082526015908201527472656e74206475726174696f6e206973207a65726f60581b604082015260600190565b6020808252601d908201527f416464726573733a2063616c6c20746f206e6f6e2d636f6e7472616374000000604082015260600190565b6020808252601690820152756c656e646572206973207a65726f206164647265737360501b604082015260600190565b6020808252600a90820152693737ba103932b73a32b960b11b604082015260600190565b6020808252602a908201527f5361666545524332303a204552433230206f7065726174696f6e20646964206e6040820152691bdd081cdd58d8d9595960b21b606082015260800190565b60208082526011908201527018d85b9d081c995b9d081bdddb881b999d607a1b604082015260600190565b6020808252600990820152683737ba1030b236b4b760b91b604082015260600190565b60208082526019908201527f72656e74206475726174696f6e206973206e6f74207a65726f00000000000000604082015260600190565b6020808252600e908201526d18d85b9d0818db185a5b481e595d60921b604082015260600190565b90815260200190565b92835260ff91909116602083015263ffffffff16604082015260600190565b63ffffffff91909116815260200190565b60ff91909116815260200190565b60ff888116825260208201889052861660408201526001600160e01b031985811660608301528416608082015282151560a082015260e081016006831061401957634e487b7160e01b600052602160045260246000fd5b8260c083015298975050505050505050565b6040518181016001600160401b038111828210171561404c5761404c614278565b604052919050565b60006001600160401b0382111561406d5761406d614278565b5060209081020190565b6000821982111561408a5761408a614262565b500190565b6000826140aa57634e487b7160e01b81526012600452602481fd5b500490565b80825b60018086116140c157506140ec565b8187048211156140d3576140d3614262565b808616156140e057918102915b9490941c9380026140b2565b94509492505050565b6000612e53600019848460008261410e57506001612e53565b8161411b57506000612e53565b8160018114614131576002811461413b57614168565b6001915050612e53565b60ff84111561414c5761414c614262565b6001841b91508482111561416257614162614262565b50612e53565b5060208310610133831016604e8410600b841016171561419b575081810a8381111561419657614196614262565b612e53565b6141a884848460016140af565b8086048211156141ba576141ba614262565b02949350505050565b600062ffffff808316818516818304811182151516156141ba576141ba614262565b60008160001904831182151516156141ff576141ff614262565b500290565b60008282101561421657614216614262565b500390565b60005b8381101561423657818101518382015260200161421e565b838111156102945750506000910152565b600060001982141561425b5761425b614262565b5060010190565b634e487b7160e01b600052601160045260246000fd5b634e487b7160e01b600052604160045260246000fd5b6001600160a01b038116811461094457600080fd5b60ff8116811461094457600080fdfea2646970667358221220837fb207164f35ba48388e56c9afa3adb91aea99b0f20c3f528c8317f8921ade64736f6c63430008000033",
  "devdoc": {
    "kind": "dev",
    "methods": {
      "claimCollateral(address[],uint256[],uint256[],uint256[])": {
        "details": "claim collateral on rentals that are past their due date"
      },
      "supportsInterface(bytes4)": {
        "details": "Returns true if this contract implements the interface defined by `interfaceId`. See the corresponding https://eips.ethereum.org/EIPS/eip-165#how-interfaces-are-identified[EIP section] to learn more about how these ids are created. This function call must use less than 30 000 gas."
      }
    },
    "version": 1
  },
  "userdoc": {
    "kind": "user",
    "methods": {},
    "version": 1
  },
  "storageLayout": {
    "storage": [
      {
        "astId": 4077,
        "contract": "src/ReNFT.sol:ReNFT",
        "label": "resolver",
        "offset": 0,
        "slot": "0",
        "type": "t_contract(IResolver)7286"
      },
      {
        "astId": 4079,
        "contract": "src/ReNFT.sol:ReNFT",
        "label": "admin",
        "offset": 0,
        "slot": "1",
        "type": "t_address"
      },
      {
        "astId": 4081,
        "contract": "src/ReNFT.sol:ReNFT",
        "label": "beneficiary",
        "offset": 0,
        "slot": "2",
        "type": "t_address_payable"
      },
      {
        "astId": 4084,
        "contract": "src/ReNFT.sol:ReNFT",
        "label": "lendingId",
        "offset": 0,
        "slot": "3",
        "type": "t_uint256"
      },
      {
        "astId": 4087,
        "contract": "src/ReNFT.sol:ReNFT",
        "label": "rentFee",
        "offset": 0,
        "slot": "4",
        "type": "t_uint256"
      },
      {
        "astId": 4131,
        "contract": "src/ReNFT.sol:ReNFT",
        "label": "lendingRenting",
        "offset": 0,
        "slot": "5",
        "type": "t_mapping(t_bytes32,t_struct(LendingRenting)4126_storage)"
      }
    ],
    "types": {
      "t_address": {
        "encoding": "inplace",
        "label": "address",
        "numberOfBytes": "20"
      },
      "t_address_payable": {
        "encoding": "inplace",
        "label": "address payable",
        "numberOfBytes": "20"
      },
      "t_bytes32": {
        "encoding": "inplace",
        "label": "bytes32",
        "numberOfBytes": "32"
      },
      "t_bytes4": {
        "encoding": "inplace",
        "label": "bytes4",
        "numberOfBytes": "4"
      },
      "t_contract(IResolver)7286": {
        "encoding": "inplace",
        "label": "contract IResolver",
        "numberOfBytes": "20"
      },
      "t_enum(PaymentToken)7269": {
        "encoding": "inplace",
        "label": "enum IResolver.PaymentToken",
        "numberOfBytes": "1"
      },
      "t_mapping(t_bytes32,t_struct(LendingRenting)4126_storage)": {
        "encoding": "mapping",
        "key": "t_bytes32",
        "label": "mapping(bytes32 => struct ReNFT.LendingRenting)",
        "numberOfBytes": "32",
        "value": "t_struct(LendingRenting)4126_storage"
      },
      "t_struct(Lending)4112_storage": {
        "encoding": "inplace",
        "label": "struct ReNFT.Lending",
        "members": [
          {
            "astId": 4100,
            "contract": "src/ReNFT.sol:ReNFT",
            "label": "lenderAddress",
            "offset": 0,
            "slot": "0",
            "type": "t_address_payable"
          },
          {
            "astId": 4102,
            "contract": "src/ReNFT.sol:ReNFT",
            "label": "maxRentDuration",
            "offset": 20,
            "slot": "0",
            "type": "t_uint8"
          },
          {
            "astId": 4104,
            "contract": "src/ReNFT.sol:ReNFT",
            "label": "dailyRentPrice",
            "offset": 21,
            "slot": "0",
            "type": "t_bytes4"
          },
          {
            "astId": 4106,
            "contract": "src/ReNFT.sol:ReNFT",
            "label": "nftPrice",
            "offset": 25,
            "slot": "0",
            "type": "t_bytes4"
          },
          {
            "astId": 4108,
            "contract": "src/ReNFT.sol:ReNFT",
            "label": "lentAmount",
            "offset": 29,
            "slot": "0",
            "type": "t_uint8"
          },
          {
            "astId": 4111,
            "contract": "src/ReNFT.sol:ReNFT",
            "label": "paymentToken",
            "offset": 30,
            "slot": "0",
            "type": "t_enum(PaymentToken)7269"
          }
        ],
        "numberOfBytes": "32"
      },
      "t_struct(LendingRenting)4126_storage": {
        "encoding": "inplace",
        "label": "struct ReNFT.LendingRenting",
        "members": [
          {
            "astId": 4122,
            "contract": "src/ReNFT.sol:ReNFT",
            "label": "lending",
            "offset": 0,
            "slot": "0",
            "type": "t_struct(Lending)4112_storage"
          },
          {
            "astId": 4125,
            "contract": "src/ReNFT.sol:ReNFT",
            "label": "renting",
            "offset": 0,
            "slot": "1",
            "type": "t_struct(Renting)4119_storage"
          }
        ],
        "numberOfBytes": "64"
      },
      "t_struct(Renting)4119_storage": {
        "encoding": "inplace",
        "label": "struct ReNFT.Renting",
        "members": [
          {
            "astId": 4114,
            "contract": "src/ReNFT.sol:ReNFT",
            "label": "renterAddress",
            "offset": 0,
            "slot": "0",
            "type": "t_address_payable"
          },
          {
            "astId": 4116,
            "contract": "src/ReNFT.sol:ReNFT",
            "label": "rentDuration",
            "offset": 20,
            "slot": "0",
            "type": "t_uint8"
          },
          {
            "astId": 4118,
            "contract": "src/ReNFT.sol:ReNFT",
            "label": "rentedAt",
            "offset": 21,
            "slot": "0",
            "type": "t_uint32"
          }
        ],
        "numberOfBytes": "32"
      },
      "t_uint256": {
        "encoding": "inplace",
        "label": "uint256",
        "numberOfBytes": "32"
      },
      "t_uint32": {
        "encoding": "inplace",
        "label": "uint32",
        "numberOfBytes": "4"
      },
      "t_uint8": {
        "encoding": "inplace",
        "label": "uint8",
        "numberOfBytes": "1"
      }
    }
  }
}