{
  "address": "0x691F209D42f33A1B482c395776F43966bB6d9989",
  "abi": [
    {
      "inputs": [
        {
          "internalType": "address",
          "name": "_resolver",
          "type": "address"
        },
        {
          "internalType": "address payable",
          "name": "_beneficiary",
          "type": "address"
        },
        {
          "internalType": "address",
          "name": "_admin",
          "type": "address"
        }
      ],
      "stateMutability": "nonpayable",
      "type": "constructor"
    },
    {
      "anonymous": false,
      "inputs": [
        {
          "indexed": true,
          "internalType": "uint256",
          "name": "lendingId",
          "type": "uint256"
        },
        {
          "indexed": false,
          "internalType": "uint32",
          "name": "claimedAt",
          "type": "uint32"
        }
      ],
      "name": "CollateralClaimed",
      "type": "event"
    },
    {
      "anonymous": false,
      "inputs": [
        {
          "indexed": true,
          "internalType": "uint256",
          "name": "lendingId",
          "type": "uint256"
        },
        {
          "indexed": false,
          "internalType": "uint32",
          "name": "stoppedAt",
          "type": "uint32"
        }
      ],
      "name": "LendingStopped",
      "type": "event"
    },
    {
      "anonymous": false,
      "inputs": [
        {
          "indexed": true,
          "internalType": "address",
          "name": "nftAddress",
          "type": "address"
        },
        {
          "indexed": true,
          "internalType": "uint256",
          "name": "tokenId",
          "type": "uint256"
        },
        {
          "indexed": false,
          "internalType": "uint8",
          "name": "lentAmount",
          "type": "uint8"
        },
        {
          "indexed": false,
          "internalType": "uint256",
          "name": "lendingId",
          "type": "uint256"
        },
        {
          "indexed": true,
          "internalType": "address",
          "name": "lenderAddress",
          "type": "address"
        },
        {
          "indexed": false,
          "internalType": "uint8",
          "name": "maxRentDuration",
          "type": "uint8"
        },
        {
          "indexed": false,
          "internalType": "bytes4",
          "name": "dailyRentPrice",
          "type": "bytes4"
        },
        {
          "indexed": false,
          "internalType": "bytes4",
          "name": "nftPrice",
          "type": "bytes4"
        },
        {
          "indexed": false,
          "internalType": "bool",
          "name": "isERC721",
          "type": "bool"
        },
        {
          "indexed": false,
          "internalType": "enum IResolver.PaymentToken",
          "name": "paymentToken",
          "type": "uint8"
        }
      ],
      "name": "Lent",
      "type": "event"
    },
    {
      "anonymous": false,
      "inputs": [
        {
          "indexed": false,
          "internalType": "uint256",
          "name": "lendingId",
          "type": "uint256"
        },
        {
          "indexed": true,
          "internalType": "address",
          "name": "renterAddress",
          "type": "address"
        },
        {
          "indexed": false,
          "internalType": "uint8",
          "name": "rentDuration",
          "type": "uint8"
        },
        {
          "indexed": false,
          "internalType": "uint32",
          "name": "rentedAt",
          "type": "uint32"
        }
      ],
      "name": "Rented",
      "type": "event"
    },
    {
      "anonymous": false,
      "inputs": [
        {
          "indexed": true,
          "internalType": "uint256",
          "name": "lendingId",
          "type": "uint256"
        },
        {
          "indexed": false,
          "internalType": "uint32",
          "name": "returnedAt",
          "type": "uint32"
        }
      ],
      "name": "Returned",
      "type": "event"
    },
    {
      "inputs": [
        {
          "internalType": "address[]",
          "name": "_nfts",
          "type": "address[]"
        },
        {
          "internalType": "uint256[]",
          "name": "_tokenIds",
          "type": "uint256[]"
        },
        {
          "internalType": "uint256[]",
          "name": "_lendAmounts",
          "type": "uint256[]"
        },
        {
          "internalType": "uint256[]",
          "name": "_lendingIds",
          "type": "uint256[]"
        }
      ],
      "name": "claimCollateral",
      "outputs": [],
      "stateMutability": "nonpayable",
      "type": "function"
    },
    {
      "inputs": [
        {
          "internalType": "address[]",
          "name": "_nfts",
          "type": "address[]"
        },
        {
          "internalType": "uint256[]",
          "name": "_tokenIds",
          "type": "uint256[]"
        },
        {
          "internalType": "uint256[]",
          "name": "_lendAmounts",
          "type": "uint256[]"
        },
        {
          "internalType": "uint8[]",
          "name": "_maxRentDurations",
          "type": "uint8[]"
        },
        {
          "internalType": "bytes4[]",
          "name": "_dailyRentPrices",
          "type": "bytes4[]"
        },
        {
          "internalType": "bytes4[]",
          "name": "_nftPrices",
          "type": "bytes4[]"
        },
        {
          "internalType": "enum IResolver.PaymentToken[]",
          "name": "_paymentTokens",
          "type": "uint8[]"
        }
      ],
      "name": "lend",
      "outputs": [],
      "stateMutability": "nonpayable",
      "type": "function"
    },
    {
      "inputs": [
        {
          "internalType": "address",
          "name": "",
          "type": "address"
        },
        {
          "internalType": "address",
          "name": "",
          "type": "address"
        },
        {
          "internalType": "uint256[]",
          "name": "",
          "type": "uint256[]"
        },
        {
          "internalType": "uint256[]",
          "name": "",
          "type": "uint256[]"
        },
        {
          "internalType": "bytes",
          "name": "",
          "type": "bytes"
        }
      ],
      "name": "onERC1155BatchReceived",
      "outputs": [
        {
          "internalType": "bytes4",
          "name": "",
          "type": "bytes4"
        }
      ],
      "stateMutability": "pure",
      "type": "function"
    },
    {
      "inputs": [
        {
          "internalType": "address",
          "name": "",
          "type": "address"
        },
        {
          "internalType": "address",
          "name": "",
          "type": "address"
        },
        {
          "internalType": "uint256",
          "name": "",
          "type": "uint256"
        },
        {
          "internalType": "uint256",
          "name": "",
          "type": "uint256"
        },
        {
          "internalType": "bytes",
          "name": "",
          "type": "bytes"
        }
      ],
      "name": "onERC1155Received",
      "outputs": [
        {
          "internalType": "bytes4",
          "name": "",
          "type": "bytes4"
        }
      ],
      "stateMutability": "pure",
      "type": "function"
    },
    {
      "inputs": [
        {
          "internalType": "address",
          "name": "",
          "type": "address"
        },
        {
          "internalType": "address",
          "name": "",
          "type": "address"
        },
        {
          "internalType": "uint256",
          "name": "",
          "type": "uint256"
        },
        {
          "internalType": "bytes",
          "name": "",
          "type": "bytes"
        }
      ],
      "name": "onERC721Received",
      "outputs": [
        {
          "internalType": "bytes4",
          "name": "",
          "type": "bytes4"
        }
      ],
      "stateMutability": "pure",
      "type": "function"
    },
    {
      "inputs": [
        {
          "internalType": "address[]",
          "name": "_nfts",
          "type": "address[]"
        },
        {
          "internalType": "uint256[]",
          "name": "_tokenIds",
          "type": "uint256[]"
        },
        {
          "internalType": "uint256[]",
          "name": "_lendAmounts",
          "type": "uint256[]"
        },
        {
          "internalType": "uint256[]",
          "name": "_lendingIds",
          "type": "uint256[]"
        },
        {
          "internalType": "uint8[]",
          "name": "_rentDurations",
          "type": "uint8[]"
        }
      ],
      "name": "rent",
      "outputs": [],
      "stateMutability": "nonpayable",
      "type": "function"
    },
    {
      "inputs": [],
      "name": "rentFee",
      "outputs": [
        {
          "internalType": "uint256",
          "name": "",
          "type": "uint256"
        }
      ],
      "stateMutability": "view",
      "type": "function"
    },
    {
      "inputs": [
        {
          "internalType": "address[]",
          "name": "_nfts",
          "type": "address[]"
        },
        {
          "internalType": "uint256[]",
          "name": "_tokenIds",
          "type": "uint256[]"
        },
        {
          "internalType": "uint256[]",
          "name": "_lendAmounts",
          "type": "uint256[]"
        },
        {
          "internalType": "uint256[]",
          "name": "_lendingIds",
          "type": "uint256[]"
        }
      ],
      "name": "returnIt",
      "outputs": [],
      "stateMutability": "nonpayable",
      "type": "function"
    },
    {
      "inputs": [
        {
          "internalType": "address payable",
          "name": "_newBeneficiary",
          "type": "address"
        }
      ],
      "name": "setBeneficiary",
      "outputs": [],
      "stateMutability": "nonpayable",
      "type": "function"
    },
    {
      "inputs": [
        {
          "internalType": "uint256",
          "name": "_rentFee",
          "type": "uint256"
        }
      ],
      "name": "setRentFee",
      "outputs": [],
      "stateMutability": "nonpayable",
      "type": "function"
    },
    {
      "inputs": [
        {
          "internalType": "address[]",
          "name": "_nfts",
          "type": "address[]"
        },
        {
          "internalType": "uint256[]",
          "name": "_tokenIds",
          "type": "uint256[]"
        },
        {
          "internalType": "uint256[]",
          "name": "_lendAmounts",
          "type": "uint256[]"
        },
        {
          "internalType": "uint256[]",
          "name": "_lendingIds",
          "type": "uint256[]"
        }
      ],
      "name": "stopLending",
      "outputs": [],
      "stateMutability": "nonpayable",
      "type": "function"
    },
    {
      "inputs": [
        {
          "internalType": "bytes4",
          "name": "interfaceId",
          "type": "bytes4"
        }
      ],
      "name": "supportsInterface",
      "outputs": [
        {
          "internalType": "bool",
          "name": "",
          "type": "bool"
        }
      ],
      "stateMutability": "pure",
      "type": "function"
    }
  ],
  "transactionHash": "0xe713142ccc5888a55880a5b896b9b647a7fde40c251ac424b0196c51a64b1f6e",
  "args": [
    "0x63F36c8Ca26a67DefB62b0eC2e411d235D0222fF",
    "0x00E296Be39f0614917db785601E99dA175A58e34",
    "0x4F8645e873Af2355afD7E971736D6056c1758aBF"
  ],
  "solcInputHash": "df8be8bb3db2b5e56d3e167cdedff2a9",
  "bytecode": "0x608060405260016003556103e86004553480156200001c57600080fd5b5060405162004463380380620044638339810160408190526200003f91620000d8565b6200004a83620000a3565b6200005582620000a3565b6200006081620000a3565b600080546001600160a01b039485166001600160a01b03199182161790915560028054938516938216939093179092556001805491909316911617905562000178565b6001600160a01b038116620000d55760405162461bcd60e51b8152600401620000cc906200012b565b60405180910390fd5b50565b600080600060608486031215620000ed578283fd5b8351620000fa8162000162565b60208501519093506200010d8162000162565b6040850151909250620001208162000162565b809150509250925092565b60208082526016908201527f616464722069732061207a65726f206164647265737300000000000000000000604082015260600190565b6001600160a01b0381168114620000d557600080fd5b6142db80620001886000396000f3fe608060405234801561001057600080fd5b50600436106100b45760003560e01c8063ad68fc7c11610071578063ad68fc7c14610150578063bc197c8114610163578063bf2b23ea14610176578063e50364b21461018b578063f23a6e611461019e578063f6ca0ca0146101b1576100b4565b806301ffc9a7146100b957806304f87410146100e2578063150b7a02146100f75780631c31f71014610117578063268e87861461012a57806376774ea31461013d575b600080fd5b6100cc6100c73660046136a3565b6101c4565b6040516100d99190613806565b60405180910390f35b6100f56100f03660046134a6565b6101fd565b005b61010a610105366004613316565b61021c565b6040516100d99190613811565b6100f5610125366004613240565b61022d565b6100f56101383660046133ff565b610282565b6100f561014b3660046136bd565b61029a565b6100f561015e3660046133ff565b6102ea565b61010a61017136600461325c565b6102fc565b61017e610310565b6040516100d99190613f6e565b6100f5610199366004613571565b610316565b61010a6101ac366004613386565b610334565b6100f56101bf3660046133ff565b610346565b60006001600160e01b03198216630a85bd0160e11b14806101f557506001600160e01b03198216630271189760e51b145b90505b919050565b6102156103586102108787878787610965565b610a97565b5050505050565b63785cf2dd60e11b95945050505050565b6001546001600160a01b031633146102605760405162461bcd60e51b815260040161025790613eec565b60405180910390fd5b600280546001600160a01b0319166001600160a01b0392909216919091179055565b610294610bed61021086868686610e6a565b50505050565b6001546001600160a01b031633146102c45760405162461bcd60e51b815260040161025790613eec565b61271081106102e55760405162461bcd60e51b815260040161025790613cdc565b600455565b610294610f8a61021086868686610e6a565b63bc197c8160e01b98975050505050505050565b60045481565b61032b61128b61021089898989898989611868565b50505050505050565b63f23a6e6160e01b9695505050505050565b61029461194461021086868686610e6a565b80515b816020015181101561095657600060056000846040015185600001518151811061039557634e487b7160e01b600052603260045260246000fd5b6020026020010151856060015185815181106103c157634e487b7160e01b600052603260045260246000fd5b602002602001015186610100015186815181106103ee57634e487b7160e01b600052603260045260246000fd5b60200260200101516040516020016104089392919061372b565b60408051601f198184030181529181528151602092830120835282820193909352908201600020825160c08101845281546001600160a01b038116825260ff600160a01b82048116948301949094526001600160e01b0319600160a81b820460e090811b821696840196909652600160c81b820490951b9094166060820152600160e81b8404831660808201529093506104f4929091849160a0840191600160f01b9091041660068111156104cd57634e487b7160e01b600052602160045260246000fd5b60068111156104ec57634e487b7160e01b600052602160045260246000fd5b905250611cec565b6040805160608101825260018301546001600160a01b0381168252600160a01b810460ff166020830152600160a81b900463ffffffff169181019190915261053b90611d71565b6040805160c08101825282546001600160a01b038116825260ff600160a01b8204811660208401526001600160e01b0319600160a81b830460e090811b821695850195909552600160c81b830490941b9093166060830152600160e81b8104831660808301526105fe92849160a0840191600160f01b9091041660068111156105d457634e487b7160e01b600052602160045260246000fd5b60068111156105f357634e487b7160e01b600052602160045260246000fd5b905250848433611dc9565b8054600090600160f01b900460ff16600681111561062c57634e487b7160e01b600052602160045260246000fd5b6000805460405163c6ee427f60e01b815292935090916001600160a01b039091169063c6ee427f90610662908590600401613fa7565b60206040518083038186803b15801561067a57600080fd5b505afa15801561068e573d6000803e3d6000fd5b505050506040513d601f19601f820116820180604052508101906106b29190613224565b90506000816001600160a01b031663313ce5676040518163ffffffff1660e01b815260040160206040518083038186803b1580156106ef57600080fd5b505afa158015610703573d6000803e3d6000fd5b505050506040513d601f19601f8201168201806040525081019061072791906136d5565b60ff169050600061073982600a6140e8565b855490915060009061075590600160a81b900460e01b83611eed565b886101200151888151811061077a57634e487b7160e01b600052603260045260246000fd5b602002602001015160ff1661078f91906141d8565b86549091506000906107ab90600160c81b900460e01b84611eed565b87546107c19190600160e81b900460ff166141d8565b9050600082116107e35760405162461bcd60e51b815260040161025790613b8c565b600081116108035760405162461bcd60e51b815260040161025790613bdf565b600061080f828461406a565b90506108266001600160a01b038716333084611f7c565b5050506001850180546001600160a01b031916331790555061012086015180518690811061086457634e487b7160e01b600052603260045260246000fd5b602090810291909101015160018501805460ff60a01b1916600160a01b60ff909316929092029190911763ffffffff60a81b1916600160a81b4263ffffffff1602179055610100860151805133917f3140d73adcc923e4a0de3b1522aeec546a872bcdc06a3e25fe1209df30b954ec91889081106108f257634e487b7160e01b600052603260045260246000fd5b6020026020010151886101200151888151811061091f57634e487b7160e01b600052603260045260246000fd5b60200260200101514260405161093793929190613f77565b60405180910390a250505050808061094e9061423a565b91505061035b565b50610962813033611fd4565b50565b61096d612f32565b604051806101600160405280600081526020016001815260200187815260200186815260200185815260200160006001600160401b038111156109c057634e487b7160e01b600052604160045260246000fd5b6040519080825280602002602001820160405280156109e9578160200160208202803683370190505b5081526020016000604051908082528060200260200182016040528015610a1a578160200160208202803683370190505b5081526020016000604051908082528060200260200182016040528015610a4b578160200160208202803683370190505b50815260208101859052604081018490526060016000604051908082528060200260200182016040528015610a8a578160200160208202803683370190505b5090529695505050505050565b600081604001515111610abc5760405162461bcd60e51b815260040161025790613a25565b60028160400151511015610adc57610ad7818363ffffffff16565b610be9565b80604001515181602001511015610bdc578060400151816020015181518110610b1557634e487b7160e01b600052603260045260246000fd5b60200260200101516001600160a01b03168160400151826000015181518110610b4e57634e487b7160e01b600052603260045260246000fd5b60200260200101516001600160a01b0316148015610b9f5750610b9f8160400151826020015181518110610b9257634e487b7160e01b600052603260045260246000fd5b602002602001015161219d565b15610bbc5760208101805190610bb48261423a565b905250610adc565b610bc9818363ffffffff16565b60208101805180835290610bb48261423a565b610be9818363ffffffff16565b5050565b80515b8160200151811015610e5e576000600560008460400151856000015181518110610c2a57634e487b7160e01b600052603260045260246000fd5b602002602001015185606001518581518110610c5657634e487b7160e01b600052603260045260246000fd5b60200260200101518661010001518681518110610c8357634e487b7160e01b600052603260045260246000fd5b6020026020010151604051602001610c9d9392919061372b565b60408051601f198184030181529181528151602092830120835282820193909352908201600020825160c08101845281546001600160a01b038116825260ff600160a01b82048116948301949094526001600160e01b0319600160a81b820460e090811b821696840196909652600160c81b820490951b9094166060820152600160e81b840483166080820152909350610d62929091849160a0840191600160f01b9091041660068111156104cd57634e487b7160e01b600052602160045260246000fd5b6040805160608101825260018301546001600160a01b0381168252600160a01b810460ff166020830152600160a81b900463ffffffff1691810191909152610dab903342612223565b6001810154600090610dca90600160a81b900463ffffffff16426141f7565b9050610dd6828261227f565b8361010001518381518110610dfb57634e487b7160e01b600052603260045260246000fd5b60200260200101517f289da9cb3ecd362ad5ae230d4daa346e68abbd8972cd9c01df54b7b1b97ab15b42604051610e329190613f96565b60405180910390a25060010180546001600160c81b031916905580610e568161423a565b915050610bf0565b50610962813330611fd4565b610e72612f32565b604051806101600160405280600081526020016001815260200186815260200185815260200184815260200160006001600160401b03811115610ec557634e487b7160e01b600052604160045260246000fd5b604051908082528060200260200182016040528015610eee578160200160208202803683370190505b5081526020016000604051908082528060200260200182016040528015610f1f578160200160208202803683370190505b5081526020016000604051908082528060200260200182016040528015610f50578160200160208202803683370190505b5081526020808201949094526040805160008082528187018352828401919091528151908152948501905260600192909252509392505050565b80515b8160200151811015610956576000600560008460400151856000015181518110610fc757634e487b7160e01b600052603260045260246000fd5b602002602001015185606001518581518110610ff357634e487b7160e01b600052603260045260246000fd5b6020026020010151866101000151868151811061102057634e487b7160e01b600052603260045260246000fd5b602002602001015160405160200161103a9392919061372b565b60408051601f198184030181529181528151602092830120835282820193909352908201600020825160c08101845281546001600160a01b038116825260ff600160a01b82048116948301949094526001600160e01b0319600160a81b820460e090811b821696840196909652600160c81b820490951b9094166060820152600160e81b8404831660808201529093506110ff929091849160a0840191600160f01b9091041660068111156104cd57634e487b7160e01b600052602160045260246000fd5b6040805160608101825260018301546001600160a01b0381168252600160a01b810460ff166020830152600160a81b900463ffffffff169181019190915261114690611d71565b6040805160c08101825282546001600160a01b038116825260ff600160a01b8204811660208401526001600160e01b0319600160a81b830460e090811b821695850195909552600160c81b830490941b9093166060830152600160e81b81048316608083015261120792849160a0840191600160f01b9091041660068111156111df57634e487b7160e01b600052602160045260246000fd5b60068111156111fe57634e487b7160e01b600052602160045260246000fd5b90525033612534565b826101000151828151811061122c57634e487b7160e01b600052603260045260246000fd5b60200260200101517f61bcecd87c002ae006d9d8c760291b4f3646fa6109590b4b3ea93084aae4bb6a426040516112639190613f96565b60405180910390a280546001600160f81b0319169055806112838161423a565b915050610f8d565b80515b8160200151811015610e5e576112a48282612569565b60006005600084604001518560000151815181106112d257634e487b7160e01b600052603260045260246000fd5b6020026020010151856060015185815181106112fe57634e487b7160e01b600052603260045260246000fd5b602002602001015160035460405160200161131b9392919061372b565b60408051601f198184030181529181528151602092830120835282820193909352908201600020825160c08101845281546001600160a01b038116825260ff600160a01b82048116948301949094526001600160e01b0319600160a81b820460e090811b821696840196909652600160c81b820490951b9094166060820152600160e81b840483166080820152909350611407929091849160a0840191600160f01b9091041660068111156113e057634e487b7160e01b600052602160045260246000fd5b60068111156113ff57634e487b7160e01b600052602160045260246000fd5b905250612749565b6040805160608101825260018301546001600160a01b0381168252600160a01b810460ff166020830152600160a81b900463ffffffff169181019190915261144e90611d71565b60006114848460400151848151811061147757634e487b7160e01b600052603260045260246000fd5b60200260200101516127d1565b90506040518060c00160405280336001600160a01b031681526020018560a0015185815181106114c457634e487b7160e01b600052603260045260246000fd5b602002602001015160ff1681526020018560c0015185815181106114f857634e487b7160e01b600052603260045260246000fd5b60200260200101516001600160e01b03191681526020018560e00151858151811061153357634e487b7160e01b600052603260045260246000fd5b60200260200101516001600160e01b031916815260200182611580578560800151858151811061157357634e487b7160e01b600052603260045260246000fd5b6020026020010151611583565b60015b60ff16815260200185610140015185815181106115b057634e487b7160e01b600052603260045260246000fd5b602002602001015160068111156115d757634e487b7160e01b600052602160045260246000fd5b90528051835460208301516040840151606085015160808601516001600160a01b03199094166001600160a01b039095169490941760ff60a01b1916600160a01b60ff938416021763ffffffff60a81b1916600160a81b60e092831c021763ffffffff60c81b1916600160c81b9490911c939093029290921760ff60e81b1916600160e81b92909116919091021780845560a08201518491829060ff60f01b1916600160f01b83600681111561169d57634e487b7160e01b600052602160045260246000fd5b0217905550905050336001600160a01b0316846060015184815181106116d357634e487b7160e01b600052603260045260246000fd5b6020026020010151856040015186600001518151811061170357634e487b7160e01b600052603260045260246000fd5b60200260200101516001600160a01b03167fc1b2f77226541f6b308379a3110d77af45464d9a161a6eb4b6cfdcd0fb2089c68461176b578760800151878151811061175e57634e487b7160e01b600052603260045260246000fd5b602002602001015161176e565b60015b6003548960a00151898151811061179557634e487b7160e01b600052603260045260246000fd5b60200260200101518a60c001518a815181106117c157634e487b7160e01b600052603260045260246000fd5b60200260200101518b60e001518b815181106117ed57634e487b7160e01b600052603260045260246000fd5b6020026020010151898d61014001518d8151811061181b57634e487b7160e01b600052603260045260246000fd5b60200260200101516040516118369796959493929190613fb5565b60405180910390a46003805490600061184e8361423a565b9190505550505080806118609061423a565b91505061128e565b611870612f32565b604051806101600160405280600081526020016001815260200189815260200188815260200187815260200186815260200185815260200184815260200160006001600160401b038111156118d557634e487b7160e01b600052604160045260246000fd5b6040519080825280602002602001820160405280156118fe578160200160208202803683370190505b508152602001600060405190808252806020026020018201604052801561192f578160200160208202803683370190505b50815260200192909252509695505050505050565b80515b8160200151811015610be957600060056000846040015185600001518151811061198157634e487b7160e01b600052603260045260246000fd5b6020026020010151856060015185815181106119ad57634e487b7160e01b600052603260045260246000fd5b602002602001015186610100015186815181106119da57634e487b7160e01b600052603260045260246000fd5b60200260200101516040516020016119f49392919061372b565b60408051601f198184030181529181528151602092830120835282820193909352908201600020825160c08101845281546001600160a01b038116825260ff600160a01b82048116948301949094526001600160e01b0319600160a81b820460e090811b821696840196909652600160c81b820490951b9094166060820152600160e81b840483166080820152909350611ab9929091849160a0840191600160f01b9091041660068111156104cd57634e487b7160e01b600052602160045260246000fd5b6040805160608101825260018301546001600160a01b0381168252600160a01b810460ff166020830152600160a81b900463ffffffff1691810191909152611b0090612807565b6040805160608101825260018301546001600160a01b0381168252600160a01b810460ff166020830152600160a81b900463ffffffff1691810191909152611b48904261285d565b604080516101008101825282546001600160a01b03811692820192835260ff600160a01b8204811660608401526001600160e01b0319600160a81b830460e090811b82166080860152600160c81b8404811b90911660a0850152600160e81b8304821660c0850152611c5794869385939192859290850191600160f01b9004166006811115611be757634e487b7160e01b600052602160045260246000fd5b6006811115611c0657634e487b7160e01b600052602160045260246000fd5b905250815260408051606081018252600193909301546001600160a01b0381168452600160a01b810460ff16602080860191909152600160a81b90910463ffffffff16918401919091520152612883565b8261010001518281518110611c7c57634e487b7160e01b600052603260045260246000fd5b60200260200101517f8ac1440f996b8b13e31275705c447bd09a92005cf2ec131a8183afedc636f5a242604051611cb39190613f96565b60405180910390a280546001600160f81b031916815560010180546001600160c81b031916905580611ce48161423a565b915050611947565b8051611cf790612ab5565b602081015160ff16611d1b5760405162461bcd60e51b815260040161025790613c6e565b60408101516001600160e01b031916611d465760405162461bcd60e51b815260040161025790613859565b60608101516001600160e01b0319166109625760405162461bcd60e51b815260040161025790613bdf565b8051611d7c90612adb565b602081015160ff1615611da15760405162461bcd60e51b815260040161025790613f0f565b604081015163ffffffff16156109625760405162461bcd60e51b815260040161025790613890565b83516001600160a01b0382811691161415611df65760405162461bcd60e51b815260040161025790613ec1565b60ff80168361012001518381518110611e1f57634e487b7160e01b600052603260045260246000fd5b602002602001015160ff161115611e485760405162461bcd60e51b8152600401610257906138e8565b60008361012001518381518110611e6f57634e487b7160e01b600052603260045260246000fd5b602002602001015160ff1611611e975760405162461bcd60e51b8152600401610257906139b7565b836020015160ff168361012001518381518110611ec457634e487b7160e01b600052603260045260246000fd5b602002602001015160ff1611156102945760405162461bcd60e51b815260040161025790613ca5565b6000611ef98383612b02565b60f083901c61ffff60e085901c166000611f1561271086614082565b905061270f8361ffff161115611f2b5761270f92505b61270f8261ffff161115611f3f5761270f91505b6000611f4f8661ffff86166141d8565b90506000611f618361ffff86166141d8565b90506000611f6f828461406a565b9998505050505050505050565b610294846323b872dd60e01b858585604051602401611f9d939291906137c9565b60408051601f198184030181529190526020810180516001600160e01b03166001600160e01b031990931692909217909152612b45565b611fff836040015184600001518151811061147757634e487b7160e01b600052603260045260246000fd5b156120c657604083015183518151811061202957634e487b7160e01b600052603260045260246000fd5b60200260200101516001600160a01b03166323b872dd8383866060015187600001518151811061206957634e487b7160e01b600052603260045260246000fd5b60200260200101516040518463ffffffff1660e01b815260040161208f939291906137c9565b600060405180830381600087803b1580156120a957600080fd5b505af11580156120bd573d6000803e3d6000fd5b50505050612198565b6120f18360400151846000015181518110610b9257634e487b7160e01b600052603260045260246000fd5b1561218057604083015183518151811061211b57634e487b7160e01b600052603260045260246000fd5b60200260200101516001600160a01b0316632eb2c2d6838361214a876060015188600001518960200151612bd4565b612161886080015189600001518a60200151612bd4565b6040518563ffffffff1660e01b815260040161208f9493929190613771565b60405162461bcd60e51b815260040161025790613d1f565b505050565b6040516301ffc9a760e01b81526000906001600160a01b038316906301ffc9a7906121d390636cdb3d1360e11b90600401613811565b60206040518083038186803b1580156121eb57600080fd5b505afa1580156121ff573d6000803e3d6000fd5b505050506040513d601f19601f820116820180604052508101906101f59190613683565b816001600160a01b031683600001516001600160a01b0316146122585760405162461bcd60e51b815260040161025790613e53565b6122628382612cab565b156121985760405162461bcd60e51b8152600401610257906138bb565b8154600090600160f01b900460ff1660068111156122ad57634e487b7160e01b600052602160045260246000fd5b6000805460405163c6ee427f60e01b815292935090916001600160a01b039091169063c6ee427f906122e3908590600401613fa7565b60206040518083038186803b1580156122fb57600080fd5b505afa15801561230f573d6000803e3d6000fd5b505050506040513d601f19601f820116820180604052508101906123339190613224565b90506000816001600160a01b031663313ce5676040518163ffffffff1660e01b815260040160206040518083038186803b15801561237057600080fd5b505afa158015612384573d6000803e3d6000fd5b505050506040513d601f19601f820116820180604052508101906123a891906136d5565b60ff16905060006123ba82600a6140e8565b86549091506000906123d690600160c81b900460e01b83611eed565b87549091506000906123f290600160a81b900460e01b84611eed565b600189015490915060009061241190600160a01b900460ff16836141d8565b9050600062015180612423848b6141d8565b61242d9190614082565b90506000821161244f5760405162461bcd60e51b815260040161025790613aac565b6000811161246f5760405162461bcd60e51b815260040161025790613a7c565b8082101561248f5760405162461bcd60e51b81526004016102579061393b565b600061249b82846141f7565b90508281106124bc5760405162461bcd60e51b815260040161025790613c0a565b8a546000906124d6908490600160f01b900460ff16612d0e565b90506124e281846141f7565b92506124ee868361406a565b8c5490925061250a906001600160a01b038b8116911685612dfb565b60018c0154612526906001600160a01b038b8116911684612dfb565b505050505050505050505050565b806001600160a01b031682600001516001600160a01b031614610be95760405162461bcd60e51b815260040161025790613a4f565b60008260800151828151811061258f57634e487b7160e01b600052603260045260246000fd5b6020026020010151116125b45760405162461bcd60e51b815260040161025790613c41565b60ff8016826080015182815181106125dc57634e487b7160e01b600052603260045260246000fd5b602002602001015111156126025760405162461bcd60e51b8152600401610257906138e8565b60ff80168260a00151828151811061262a57634e487b7160e01b600052603260045260246000fd5b602002602001015160ff1611156126535760405162461bcd60e51b8152600401610257906138e8565b60008260a00151828151811061267957634e487b7160e01b600052603260045260246000fd5b602002602001015160ff16116126a15760405162461bcd60e51b815260040161025790613980565b60008260c0015182815181106126c757634e487b7160e01b600052603260045260246000fd5b602002602001015160e01c63ffffffff16116126f55760405162461bcd60e51b815260040161025790613859565b60008260e00151828151811061271b57634e487b7160e01b600052603260045260246000fd5b602002602001015160e01c63ffffffff1611610be95760405162461bcd60e51b815260040161025790613bdf565b805161275490612adb565b602081015160ff16156127795760405162461bcd60e51b815260040161025790613c6e565b60408101516001600160e01b031916156127a55760405162461bcd60e51b815260040161025790613859565b60608101516001600160e01b031916156109625760405162461bcd60e51b815260040161025790613bdf565b6040516301ffc9a760e01b81526000906001600160a01b038316906301ffc9a7906121d3906380ac58cd60e01b90600401613811565b805161281290612ab5565b602081015160ff166128365760405162461bcd60e51b815260040161025790613db6565b604081015163ffffffff166109625760405162461bcd60e51b815260040161025790613915565b6128678282612cab565b610be95760405162461bcd60e51b815260040161025790613f46565b805160a0015160009060068111156128ab57634e487b7160e01b600052602160045260246000fd5b6000805460405163c6ee427f60e01b815292935090916001600160a01b039091169063c6ee427f906128e1908590600401613fa7565b60206040518083038186803b1580156128f957600080fd5b505afa15801561290d573d6000803e3d6000fd5b505050506040513d601f19601f820116820180604052508101906129319190613224565b90506000816001600160a01b031663313ce5676040518163ffffffff1660e01b815260040160206040518083038186803b15801561296e57600080fd5b505afa158015612982573d6000803e3d6000fd5b505050506040513d601f19601f820116820180604052508101906129a691906136d5565b60ff16905060006129b882600a6140e8565b905060006129ce86600001516060015183611eed565b905060006129e487600001516040015184611eed565b9050600087602001516020015160ff16826129ff91906141d8565b90506000612a2f828960ff166006811115612a2a57634e487b7160e01b600052602160045260246000fd5b612d0e565b90506000612a3d858461406a565b905060008311612a5f5760405162461bcd60e51b815260040161025790613aef565b612a6985826141f7565b8314612a875760405162461bcd60e51b8152600401610257906139ee565b895151612aa990612a9884846141f7565b6001600160a01b038b169190612dfb565b50505050505050505050565b6001600160a01b0381166109625760405162461bcd60e51b815260040161025790613d4f565b6001600160a01b038116156109625760405162461bcd60e51b815260040161025790613e1c565b60e082901c612b235760405162461bcd60e51b815260040161025790613bb8565b612710811015610be95760405162461bcd60e51b815260040161025790613b1f565b6000612b9a826040518060400160405280602081526020017f5361666545524332303a206c6f772d6c6576656c2063616c6c206661696c6564815250856001600160a01b0316612e1a9092919063ffffffff16565b8051909150156121985780806020019051810190612bb89190613683565b6121985760405162461bcd60e51b815260040161025790613e77565b606083516001600160401b03811115612bfd57634e487b7160e01b600052604160045260246000fd5b604051908082528060200260200182016040528015612c26578160200160208202803683370190505b509050825b82811015612ca357848181518110612c5357634e487b7160e01b600052603260045260246000fd5b6020026020010151828583612c6891906141f7565b81518110612c8657634e487b7160e01b600052603260045260246000fd5b602090810291909101015280612c9b8161423a565b915050612c2b565b509392505050565b6000826040015163ffffffff168211612cd65760405162461bcd60e51b815260040161025790613d7f565b6020830151612ceb9060ff16620151806141b6565b62ffffff16836040015163ffffffff1683612d0691906141f7565b119392505050565b600060045483612d1e91906141d8565b9050612d2c61271082614082565b90506000826006811115612d5057634e487b7160e01b600052602160045260246000fd5b6000805460405163c6ee427f60e01b815292935090916001600160a01b039091169063c6ee427f90612d86908590600401613fa7565b60206040518083038186803b158015612d9e57600080fd5b505afa158015612db2573d6000803e3d6000fd5b505050506040513d601f19601f82011682018060405250810190612dd69190613224565b600254909150612df3906001600160a01b03808416911685612dfb565b505092915050565b6121988363a9059cbb60e01b8484604051602401611f9d9291906137ed565b6060612e298484600085612e33565b90505b9392505050565b606082471015612e555760405162461bcd60e51b815260040161025790613b46565b612e5e85612ef3565b612e7a5760405162461bcd60e51b815260040161025790613de5565b600080866001600160a01b03168587604051612e969190613755565b60006040518083038185875af1925050503d8060008114612ed3576040519150601f19603f3d011682016040523d82523d6000602084013e612ed8565b606091505b5091509150612ee8828286612ef9565b979650505050505050565b3b151590565b60608315612f08575081612e2c565b825115612f185782518084602001fd5b8160405162461bcd60e51b81526004016102579190613826565b60405180610160016040528060008152602001600081526020016060815260200160608152602001606081526020016060815260200160608152602001606081526020016060815260200160608152602001606081525090565b600082601f830112612f9c578081fd5b81356020612fb1612fac83614047565b61401e565b8281528181019085830183850287018401881015612fcd578586fd5b855b85811015612ff4578135612fe281614281565b84529284019290840190600101612fcf565b5090979650505050505050565b600082601f830112613011578081fd5b81356020613021612fac83614047565b828152818101908583018385028701840188101561303d578586fd5b855b85811015612ff457613050826131cd565b8452928401929084019060010161303f565b600082601f830112613072578081fd5b81356020613082612fac83614047565b828152818101908583018385028701840188101561309e578586fd5b855b85811015612ff4578135600781106130b6578788fd5b845292840192908401906001016130a0565b60008083601f8401126130d9578182fd5b5081356001600160401b038111156130ef578182fd5b602083019150836020808302850101111561310957600080fd5b9250929050565b600082601f830112613120578081fd5b81356020613130612fac83614047565b828152818101908583018385028701840188101561314c578586fd5b855b85811015612ff45781358452928401929084019060010161314e565b600082601f83011261317a578081fd5b8135602061318a612fac83614047565b82815281810190858301838502870184018810156131a6578586fd5b855b85811015612ff45781356131bb81614296565b845292840192908401906001016131a8565b80356001600160e01b0319811681146101f857600080fd5b60008083601f8401126131f6578182fd5b5081356001600160401b0381111561320c578182fd5b60208301915083602082850101111561310957600080fd5b600060208284031215613235578081fd5b8151612e2c81614281565b600060208284031215613251578081fd5b8135612e2c81614281565b60008060008060008060008060a0898b031215613277578384fd5b883561328281614281565b9750602089013561329281614281565b965060408901356001600160401b03808211156132ad578586fd5b6132b98c838d016130c8565b909850965060608b01359150808211156132d1578586fd5b6132dd8c838d016130c8565b909650945060808b01359150808211156132f5578384fd5b506133028b828c016131e5565b999c989b5096995094979396929594505050565b60008060008060006080868803121561332d578283fd5b853561333881614281565b9450602086013561334881614281565b93506040860135925060608601356001600160401b03811115613369578182fd5b613375888289016131e5565b969995985093965092949392505050565b60008060008060008060a0878903121561339e578384fd5b86356133a981614281565b955060208701356133b981614281565b9450604087013593506060870135925060808701356001600160401b038111156133e1578283fd5b6133ed89828a016131e5565b979a9699509497509295939492505050565b60008060008060808587031215613414578182fd5b84356001600160401b038082111561342a578384fd5b61343688838901612f8c565b9550602087013591508082111561344b578384fd5b61345788838901613110565b9450604087013591508082111561346c578384fd5b61347888838901613110565b9350606087013591508082111561348d578283fd5b5061349a87828801613110565b91505092959194509250565b600080600080600060a086880312156134bd578283fd5b85356001600160401b03808211156134d3578485fd5b6134df89838a01612f8c565b965060208801359150808211156134f4578485fd5b61350089838a01613110565b95506040880135915080821115613515578485fd5b61352189838a01613110565b94506060880135915080821115613536578283fd5b61354289838a01613110565b93506080880135915080821115613557578283fd5b506135648882890161316a565b9150509295509295909350565b600080600080600080600060e0888a03121561358b578081fd5b87356001600160401b03808211156135a1578283fd5b6135ad8b838c01612f8c565b985060208a01359150808211156135c2578283fd5b6135ce8b838c01613110565b975060408a01359150808211156135e3578283fd5b6135ef8b838c01613110565b965060608a0135915080821115613604578283fd5b6136108b838c0161316a565b955060808a0135915080821115613625578283fd5b6136318b838c01613001565b945060a08a0135915080821115613646578283fd5b6136528b838c01613001565b935060c08a0135915080821115613667578283fd5b506136748a828b01613062565b91505092959891949750929550565b600060208284031215613694578081fd5b81518015158114612e2c578182fd5b6000602082840312156136b4578081fd5b612e2c826131cd565b6000602082840312156136ce578081fd5b5035919050565b6000602082840312156136e6578081fd5b8151612e2c81614296565b6000815180845260208085019450808401835b8381101561372057815187529582019590820190600101613704565b509495945050505050565b60609390931b6bffffffffffffffffffffffff191683526014830191909152603482015260540190565b6000825161376781846020870161420e565b9190910192915050565b6001600160a01b0385811682528416602082015260a06040820181905260009061379d908301856136f1565b82810360608401526137af81856136f1565b838103608090940193909352508152602001949350505050565b6001600160a01b039384168152919092166020820152604081019190915260600190565b6001600160a01b03929092168252602082015260400190565b901515815260200190565b6001600160e01b031991909116815260200190565b600060208252825180602084015261384581604085016020870161420e565b601f01601f19169190910160400192915050565b60208082526018908201527f6461696c792072656e74207072696365206973207a65726f0000000000000000604082015260600190565b6020808252601190820152707761732072656e746564206265666f726560781b604082015260600190565b602080825260139082015272697320706173742072657475726e206461746560681b604082015260600190565b6020808252601390820152720c6c2dcdcdee840caf0c6cacac840ead2dce87606b1b604082015260600190565b6020808252600c908201526b1b995d995c881c995b9d195960a21b604082015260600190565b60208082526025908201527f6c656e64657220726563656976696e67206d6f7265207468616e2072656e74656040820152641c881c1b5d60da1b606082015260800190565b6020808252601d908201527f6d757374206265206174206c65617374206f6e6520646179206c656e64000000604082015260600190565b6020808252601e908201527f73686f756c642072656e7420666f72206174206c656173742061206461790000604082015260600190565b6020808252601b908201527f6d617852656e745061796d656e7420697320696e636f72726563740000000000604082015260600190565b60208082526010908201526f34b73b30b634b21037333a39903632b760811b604082015260600190565b6020808252601390820152721bdb9b1e481b195b99195c88185b1b1bddd959606a1b604082015260600190565b6020808252601690820152756c656e646572207061796d656e74206973207a65726f60501b604082015260600190565b60208082526023908201527f746f74616c207061796d656e7420776f20636f6c6c61746572616c206973207a60408201526265726f60e81b606082015260800190565b6020808252601690820152756d617852656e745061796d656e74206973207a65726f60501b604082015260600190565b6020808252600d908201526c696e76616c6964207363616c6560981b604082015260600190565b60208082526026908201527f416464726573733a20696e73756666696369656e742062616c616e636520666f6040820152651c8818d85b1b60d21b606082015260800190565b60208082526012908201527172656e74207072696365206973207a65726f60701b604082015260600190565b6020808252600d908201526c696e76616c696420707269636560981b604082015260600190565b6020808252601190820152706e6674207072696365206973207a65726f60781b604082015260600190565b6020808252601b908201527f756e646572666c6f77206973737565732070726576656e74696f6e0000000000604082015260600190565b6020808252601390820152721a5b9d985b1a59081b195b9908185b5bdd5b9d606a1b604082015260600190565b60208082526019908201527f6d61782072656e74206475726174696f6e206973207a65726f00000000000000604082015260600190565b6020808252601a908201527f6d61782072656e74206475726174696f6e206578636565646564000000000000604082015260600190565b60208082526023908201527f63616e6e6f742062652074616b696e67203130302070637420666565206d61646040820152621b185960ea1b606082015260800190565b602080825260169082015275756e737570706f7274656420746f6b656e207479706560501b604082015260600190565b602080825260169082015275616464722069732061207a65726f206164647265737360501b604082015260600190565b6020808252601a908201527f5f6e6f7720206c74205f72656e74696e672e72656e7465644174000000000000604082015260600190565b60208082526015908201527472656e74206475726174696f6e206973207a65726f60581b604082015260600190565b6020808252601d908201527f416464726573733a2063616c6c20746f206e6f6e2d636f6e7472616374000000604082015260600190565b6020808252601a908201527f61646472206973206e6f742061207a65726f2061646472657373000000000000604082015260600190565b6020808252600a90820152693737ba103932b73a32b960b11b604082015260600190565b6020808252602a908201527f5361666545524332303a204552433230206f7065726174696f6e20646964206e6040820152691bdd081cdd58d8d9595960b21b606082015260800190565b60208082526011908201527018d85b9d081c995b9d081bdddb881b999d607a1b604082015260600190565b6020808252600990820152683737ba1030b236b4b760b91b604082015260600190565b60208082526019908201527f72656e74206475726174696f6e206973206e6f74207a65726f00000000000000604082015260600190565b6020808252600e908201526d18d85b9d0818db185a5b481e595d60921b604082015260600190565b90815260200190565b92835260ff91909116602083015263ffffffff16604082015260600190565b63ffffffff91909116815260200190565b60ff91909116815260200190565b60ff888116825260208201889052861660408201526001600160e01b031985811660608301528416608082015282151560a082015260e081016007831061400c57634e487b7160e01b600052602160045260246000fd5b8260c083015298975050505050505050565b6040518181016001600160401b038111828210171561403f5761403f61426b565b604052919050565b60006001600160401b038211156140605761406061426b565b5060209081020190565b6000821982111561407d5761407d614255565b500190565b60008261409d57634e487b7160e01b81526012600452602481fd5b500490565b80825b60018086116140b457506140df565b8187048211156140c6576140c6614255565b808616156140d357918102915b9490941c9380026140a5565b94509492505050565b6000612e2c600019848460008261410157506001612e2c565b8161410e57506000612e2c565b8160018114614124576002811461412e5761415b565b6001915050612e2c565b60ff84111561413f5761413f614255565b6001841b91508482111561415557614155614255565b50612e2c565b5060208310610133831016604e8410600b841016171561418e575081810a8381111561418957614189614255565b612e2c565b61419b84848460016140a2565b8086048211156141ad576141ad614255565b02949350505050565b600062ffffff808316818516818304811182151516156141ad576141ad614255565b60008160001904831182151516156141f2576141f2614255565b500290565b60008282101561420957614209614255565b500390565b60005b83811015614229578181015183820152602001614211565b838111156102945750506000910152565b600060001982141561424e5761424e614255565b5060010190565b634e487b7160e01b600052601160045260246000fd5b634e487b7160e01b600052604160045260246000fd5b6001600160a01b038116811461096257600080fd5b60ff8116811461096257600080fdfea26469706673582212202c2dc07031e70c9c5b92cc691f3cc2e8189545c106fcfcababae4123841a90ec64736f6c63430008000033",
  "devdoc": {
    "kind": "dev",
    "methods": {
      "claimCollateral(address[],uint256[],uint256[],uint256[])": {
        "details": "claim collateral on rentals that are past their due date"
      },
      "supportsInterface(bytes4)": {
        "details": "Returns true if this contract implements the interface defined by `interfaceId`. See the corresponding https://eips.ethereum.org/EIPS/eip-165#how-interfaces-are-identified[EIP section] to learn more about how these ids are created. This function call must use less than 30 000 gas."
      }
    },
    "version": 1
  },
  "userdoc": {
    "kind": "user",
    "methods": {},
    "version": 1
  },
  "storageLayout": {
    "storage": [
      {
        "astId": 4049,
        "contract": "src/ReNFT.sol:ReNFT",
        "label": "resolver",
        "offset": 0,
        "slot": "0",
        "type": "t_contract(IResolver)7346"
      },
      {
        "astId": 4051,
        "contract": "src/ReNFT.sol:ReNFT",
        "label": "admin",
        "offset": 0,
        "slot": "1",
        "type": "t_address"
      },
      {
        "astId": 4053,
        "contract": "src/ReNFT.sol:ReNFT",
        "label": "beneficiary",
        "offset": 0,
        "slot": "2",
        "type": "t_address_payable"
      },
      {
        "astId": 4056,
        "contract": "src/ReNFT.sol:ReNFT",
        "label": "lendingId",
        "offset": 0,
        "slot": "3",
        "type": "t_uint256"
      },
      {
        "astId": 4059,
        "contract": "src/ReNFT.sol:ReNFT",
        "label": "rentFee",
        "offset": 0,
        "slot": "4",
        "type": "t_uint256"
      },
      {
        "astId": 4092,
        "contract": "src/ReNFT.sol:ReNFT",
        "label": "lendingRenting",
        "offset": 0,
        "slot": "5",
        "type": "t_mapping(t_bytes32,t_struct(LendingRenting)4087_storage)"
      }
    ],
    "types": {
      "t_address": {
        "encoding": "inplace",
        "label": "address",
        "numberOfBytes": "20"
      },
      "t_address_payable": {
        "encoding": "inplace",
        "label": "address payable",
        "numberOfBytes": "20"
      },
      "t_bytes32": {
        "encoding": "inplace",
        "label": "bytes32",
        "numberOfBytes": "32"
      },
      "t_bytes4": {
        "encoding": "inplace",
        "label": "bytes4",
        "numberOfBytes": "4"
      },
      "t_contract(IResolver)7346": {
        "encoding": "inplace",
        "label": "contract IResolver",
        "numberOfBytes": "20"
      },
      "t_enum(PaymentToken)7329": {
        "encoding": "inplace",
        "label": "enum IResolver.PaymentToken",
        "numberOfBytes": "1"
      },
      "t_mapping(t_bytes32,t_struct(LendingRenting)4087_storage)": {
        "encoding": "mapping",
        "key": "t_bytes32",
        "label": "mapping(bytes32 => struct ReNFT.LendingRenting)",
        "numberOfBytes": "32",
        "value": "t_struct(LendingRenting)4087_storage"
      },
      "t_struct(Lending)4073_storage": {
        "encoding": "inplace",
        "label": "struct ReNFT.Lending",
        "members": [
          {
            "astId": 4061,
            "contract": "src/ReNFT.sol:ReNFT",
            "label": "lenderAddress",
            "offset": 0,
            "slot": "0",
            "type": "t_address_payable"
          },
          {
            "astId": 4063,
            "contract": "src/ReNFT.sol:ReNFT",
            "label": "maxRentDuration",
            "offset": 20,
            "slot": "0",
            "type": "t_uint8"
          },
          {
            "astId": 4065,
            "contract": "src/ReNFT.sol:ReNFT",
            "label": "dailyRentPrice",
            "offset": 21,
            "slot": "0",
            "type": "t_bytes4"
          },
          {
            "astId": 4067,
            "contract": "src/ReNFT.sol:ReNFT",
            "label": "nftPrice",
            "offset": 25,
            "slot": "0",
            "type": "t_bytes4"
          },
          {
            "astId": 4069,
            "contract": "src/ReNFT.sol:ReNFT",
            "label": "lentAmount",
            "offset": 29,
            "slot": "0",
            "type": "t_uint8"
          },
          {
            "astId": 4072,
            "contract": "src/ReNFT.sol:ReNFT",
            "label": "paymentToken",
            "offset": 30,
            "slot": "0",
            "type": "t_enum(PaymentToken)7329"
          }
        ],
        "numberOfBytes": "32"
      },
      "t_struct(LendingRenting)4087_storage": {
        "encoding": "inplace",
        "label": "struct ReNFT.LendingRenting",
        "members": [
          {
            "astId": 4083,
            "contract": "src/ReNFT.sol:ReNFT",
            "label": "lending",
            "offset": 0,
            "slot": "0",
            "type": "t_struct(Lending)4073_storage"
          },
          {
            "astId": 4086,
            "contract": "src/ReNFT.sol:ReNFT",
            "label": "renting",
            "offset": 0,
            "slot": "1",
            "type": "t_struct(Renting)4080_storage"
          }
        ],
        "numberOfBytes": "64"
      },
      "t_struct(Renting)4080_storage": {
        "encoding": "inplace",
        "label": "struct ReNFT.Renting",
        "members": [
          {
            "astId": 4075,
            "contract": "src/ReNFT.sol:ReNFT",
            "label": "renterAddress",
            "offset": 0,
            "slot": "0",
            "type": "t_address_payable"
          },
          {
            "astId": 4077,
            "contract": "src/ReNFT.sol:ReNFT",
            "label": "rentDuration",
            "offset": 20,
            "slot": "0",
            "type": "t_uint8"
          },
          {
            "astId": 4079,
            "contract": "src/ReNFT.sol:ReNFT",
            "label": "rentedAt",
            "offset": 21,
            "slot": "0",
            "type": "t_uint32"
          }
        ],
        "numberOfBytes": "32"
      },
      "t_uint256": {
        "encoding": "inplace",
        "label": "uint256",
        "numberOfBytes": "32"
      },
      "t_uint32": {
        "encoding": "inplace",
        "label": "uint32",
        "numberOfBytes": "4"
      },
      "t_uint8": {
        "encoding": "inplace",
        "label": "uint8",
        "numberOfBytes": "1"
      }
    }
  }
}