{
  "address": "0xc8deB21463e20226E083D0ef36Df0966ADE5490F",
  "abi": [
    {
      "inputs": [
        {
          "internalType": "address",
          "name": "_resolver",
          "type": "address"
        },
        {
          "internalType": "address payable",
          "name": "_beneficiary",
          "type": "address"
        },
        {
          "internalType": "address",
          "name": "_admin",
          "type": "address"
        }
      ],
      "stateMutability": "nonpayable",
      "type": "constructor"
    },
    {
      "anonymous": false,
      "inputs": [
        {
          "indexed": true,
          "internalType": "uint256",
          "name": "lendingId",
          "type": "uint256"
        },
        {
          "indexed": false,
          "internalType": "uint32",
          "name": "claimedAt",
          "type": "uint32"
        }
      ],
      "name": "CollateralClaimed",
      "type": "event"
    },
    {
      "anonymous": false,
      "inputs": [
        {
          "indexed": true,
          "internalType": "uint256",
          "name": "lendingId",
          "type": "uint256"
        },
        {
          "indexed": false,
          "internalType": "uint32",
          "name": "stoppedAt",
          "type": "uint32"
        }
      ],
      "name": "LendingStopped",
      "type": "event"
    },
    {
      "anonymous": false,
      "inputs": [
        {
          "indexed": true,
          "internalType": "address",
          "name": "nftAddress",
          "type": "address"
        },
        {
          "indexed": true,
          "internalType": "uint256",
          "name": "tokenId",
          "type": "uint256"
        },
        {
          "indexed": false,
          "internalType": "uint8",
          "name": "lentAmount",
          "type": "uint8"
        },
        {
          "indexed": false,
          "internalType": "uint256",
          "name": "lendingId",
          "type": "uint256"
        },
        {
          "indexed": true,
          "internalType": "address",
          "name": "lenderAddress",
          "type": "address"
        },
        {
          "indexed": false,
          "internalType": "uint8",
          "name": "maxRentDuration",
          "type": "uint8"
        },
        {
          "indexed": false,
          "internalType": "bytes4",
          "name": "dailyRentPrice",
          "type": "bytes4"
        },
        {
          "indexed": false,
          "internalType": "bytes4",
          "name": "nftPrice",
          "type": "bytes4"
        },
        {
          "indexed": false,
          "internalType": "bool",
          "name": "isERC721",
          "type": "bool"
        },
        {
          "indexed": false,
          "internalType": "enum IResolver.PaymentToken",
          "name": "paymentToken",
          "type": "uint8"
        }
      ],
      "name": "Lent",
      "type": "event"
    },
    {
      "anonymous": false,
      "inputs": [
        {
          "indexed": false,
          "internalType": "uint256",
          "name": "lendingId",
          "type": "uint256"
        },
        {
          "indexed": true,
          "internalType": "address",
          "name": "renterAddress",
          "type": "address"
        },
        {
          "indexed": false,
          "internalType": "uint8",
          "name": "rentDuration",
          "type": "uint8"
        },
        {
          "indexed": false,
          "internalType": "uint32",
          "name": "rentedAt",
          "type": "uint32"
        }
      ],
      "name": "Rented",
      "type": "event"
    },
    {
      "anonymous": false,
      "inputs": [
        {
          "indexed": true,
          "internalType": "uint256",
          "name": "lendingId",
          "type": "uint256"
        },
        {
          "indexed": false,
          "internalType": "uint32",
          "name": "returnedAt",
          "type": "uint32"
        }
      ],
      "name": "Returned",
      "type": "event"
    },
    {
      "inputs": [
        {
          "internalType": "address[]",
          "name": "_nfts",
          "type": "address[]"
        },
        {
          "internalType": "uint256[]",
          "name": "_tokenIds",
          "type": "uint256[]"
        },
        {
          "internalType": "uint256[]",
          "name": "_lendingIds",
          "type": "uint256[]"
        }
      ],
      "name": "claimCollateral",
      "outputs": [],
      "stateMutability": "nonpayable",
      "type": "function"
    },
    {
      "inputs": [
        {
          "internalType": "address[]",
          "name": "_nfts",
          "type": "address[]"
        },
        {
          "internalType": "uint256[]",
          "name": "_tokenIds",
          "type": "uint256[]"
        },
        {
          "internalType": "uint256[]",
          "name": "_lendAmounts",
          "type": "uint256[]"
        },
        {
          "internalType": "uint8[]",
          "name": "_maxRentDurations",
          "type": "uint8[]"
        },
        {
          "internalType": "bytes4[]",
          "name": "_dailyRentPrices",
          "type": "bytes4[]"
        },
        {
          "internalType": "bytes4[]",
          "name": "_nftPrices",
          "type": "bytes4[]"
        },
        {
          "internalType": "enum IResolver.PaymentToken[]",
          "name": "_paymentTokens",
          "type": "uint8[]"
        }
      ],
      "name": "lend",
      "outputs": [],
      "stateMutability": "nonpayable",
      "type": "function"
    },
    {
      "inputs": [
        {
          "internalType": "address",
          "name": "",
          "type": "address"
        },
        {
          "internalType": "address",
          "name": "",
          "type": "address"
        },
        {
          "internalType": "uint256[]",
          "name": "",
          "type": "uint256[]"
        },
        {
          "internalType": "uint256[]",
          "name": "",
          "type": "uint256[]"
        },
        {
          "internalType": "bytes",
          "name": "",
          "type": "bytes"
        }
      ],
      "name": "onERC1155BatchReceived",
      "outputs": [
        {
          "internalType": "bytes4",
          "name": "",
          "type": "bytes4"
        }
      ],
      "stateMutability": "nonpayable",
      "type": "function"
    },
    {
      "inputs": [
        {
          "internalType": "address",
          "name": "",
          "type": "address"
        },
        {
          "internalType": "address",
          "name": "",
          "type": "address"
        },
        {
          "internalType": "uint256",
          "name": "",
          "type": "uint256"
        },
        {
          "internalType": "uint256",
          "name": "",
          "type": "uint256"
        },
        {
          "internalType": "bytes",
          "name": "",
          "type": "bytes"
        }
      ],
      "name": "onERC1155Received",
      "outputs": [
        {
          "internalType": "bytes4",
          "name": "",
          "type": "bytes4"
        }
      ],
      "stateMutability": "nonpayable",
      "type": "function"
    },
    {
      "inputs": [
        {
          "internalType": "address",
          "name": "",
          "type": "address"
        },
        {
          "internalType": "address",
          "name": "",
          "type": "address"
        },
        {
          "internalType": "uint256",
          "name": "",
          "type": "uint256"
        },
        {
          "internalType": "bytes",
          "name": "",
          "type": "bytes"
        }
      ],
      "name": "onERC721Received",
      "outputs": [
        {
          "internalType": "bytes4",
          "name": "",
          "type": "bytes4"
        }
      ],
      "stateMutability": "nonpayable",
      "type": "function"
    },
    {
      "inputs": [
        {
          "internalType": "address[]",
          "name": "_nfts",
          "type": "address[]"
        },
        {
          "internalType": "uint256[]",
          "name": "_tokenIds",
          "type": "uint256[]"
        },
        {
          "internalType": "uint256[]",
          "name": "_lendingIds",
          "type": "uint256[]"
        },
        {
          "internalType": "uint8[]",
          "name": "_rentDurations",
          "type": "uint8[]"
        }
      ],
      "name": "rent",
      "outputs": [],
      "stateMutability": "nonpayable",
      "type": "function"
    },
    {
      "inputs": [],
      "name": "rentFee",
      "outputs": [
        {
          "internalType": "uint256",
          "name": "",
          "type": "uint256"
        }
      ],
      "stateMutability": "view",
      "type": "function"
    },
    {
      "inputs": [
        {
          "internalType": "address[]",
          "name": "_nfts",
          "type": "address[]"
        },
        {
          "internalType": "uint256[]",
          "name": "_tokenIds",
          "type": "uint256[]"
        },
        {
          "internalType": "uint256[]",
          "name": "_lendingIds",
          "type": "uint256[]"
        }
      ],
      "name": "returnIt",
      "outputs": [],
      "stateMutability": "nonpayable",
      "type": "function"
    },
    {
      "inputs": [
        {
          "internalType": "address payable",
          "name": "_newBeneficiary",
          "type": "address"
        }
      ],
      "name": "setBeneficiary",
      "outputs": [],
      "stateMutability": "nonpayable",
      "type": "function"
    },
    {
      "inputs": [
        {
          "internalType": "bool",
          "name": "_paused",
          "type": "bool"
        }
      ],
      "name": "setPaused",
      "outputs": [],
      "stateMutability": "nonpayable",
      "type": "function"
    },
    {
      "inputs": [
        {
          "internalType": "uint256",
          "name": "_rentFee",
          "type": "uint256"
        }
      ],
      "name": "setRentFee",
      "outputs": [],
      "stateMutability": "nonpayable",
      "type": "function"
    },
    {
      "inputs": [
        {
          "internalType": "address[]",
          "name": "_nfts",
          "type": "address[]"
        },
        {
          "internalType": "uint256[]",
          "name": "_tokenIds",
          "type": "uint256[]"
        },
        {
          "internalType": "uint256[]",
          "name": "_lendingIds",
          "type": "uint256[]"
        }
      ],
      "name": "stopLending",
      "outputs": [],
      "stateMutability": "nonpayable",
      "type": "function"
    },
    {
      "inputs": [
        {
          "internalType": "bytes4",
          "name": "interfaceId",
          "type": "bytes4"
        }
      ],
      "name": "supportsInterface",
      "outputs": [
        {
          "internalType": "bool",
          "name": "",
          "type": "bool"
        }
      ],
      "stateMutability": "view",
      "type": "function"
    }
  ],
  "transactionHash": "0xc817bd903f7e8349217a10a095009284a5d75792eea4016cc322bc099f843cb7",
  "args": [
    "0x4eE5e691A09885009694e599E786476F976aE805",
    "0x00E296Be39f0614917db785601E99dA175A58e34",
    "0x4F8645e873Af2355afD7E971736D6056c1758aBF"
  ],
  "solcInputHash": "16c7011a524718cf967987a411f3fbd5",
  "bytecode": "0x608060405260016003556004805460ff191690556103e86005553480156200002657600080fd5b50604051620042843803806200428483398101604081905262000049916200010b565b6200005483620000ad565b6200005f82620000ad565b6200006a81620000ad565b600080546001600160a01b039485166001600160a01b03199182161790915560028054938516938216939093179092556001805491909316911617905562000175565b6001600160a01b038116620001085760405162461bcd60e51b815260206004820152601360248201527f52654e46543a3a7a65726f206164647265737300000000000000000000000000604482015260640160405180910390fd5b50565b6000806000606084860312156200012157600080fd5b83516200012e816200015f565b602085015190935062000141816200015f565b604085015190925062000154816200015f565b809150509250925092565b6001600160a01b03811681146200010857600080fd5b6140ff80620001856000396000f3fe608060405234801561001057600080fd5b50600436106100cf5760003560e01c80635de07ca31161008c578063bf2b23ea11610066578063bf2b23ea146101c6578063e50364b2146101dd578063f23a6e61146101f0578063fb1585191461020f57600080fd5b80635de07ca31461018157806376774ea314610194578063bc197c81146101a757600080fd5b806301ffc9a7146100d4578063098130df146100fc578063150b7a021461011157806316c38b3c146101485780631c31f7101461015b57806359fe66e41461016e575b600080fd5b6100e76100e2366004613b61565b610222565b60405190151581526020015b60405180910390f35b61010f61010a3660046138e6565b610259565b005b61012f61011f366004613813565b630a85bd0160e11b949350505050565b6040516001600160e01b031990911681526020016100f3565b61010f610156366004613b27565b6102a0565b61010f610169366004613749565b6102dd565b61010f61017c3660046138e6565b610329565b61010f61018f36600461396d565b61035d565b61010f6101a2366004613b7c565b610398565b61012f6101b5366004613766565b63bc197c8160e01b95945050505050565b6101cf60055481565b6040519081526020016100f3565b61010f6101eb366004613a0d565b610418565b61012f6101fe36600461387e565b63f23a6e6160e01b95945050505050565b61010f61021d3660046138e6565b610459565b60006001600160e01b03198216630271189760e51b148061025357506301ffc9a760e01b6001600160e01b03198316145b92915050565b60045460ff16156102855760405162461bcd60e51b815260040161027c90613d59565b60405180910390fd5b61029b61048d61029685858561081c565b610958565b505050565b6001546001600160a01b031633146102ca5760405162461bcd60e51b815260040161027c90613db7565b6004805460ff1916911515919091179055565b6001546001600160a01b031633146103075760405162461bcd60e51b815260040161027c90613db7565b600280546001600160a01b0319166001600160a01b0392909216919091179055565b60045460ff161561034c5760405162461bcd60e51b815260040161027c90613d59565b61029b610a8061029685858561081c565b60045460ff16156103805760405162461bcd60e51b815260040161027c90613d59565b610392610dd2610296868686866113c3565b50505050565b6001546001600160a01b031633146103c25760405162461bcd60e51b815260040161027c90613db7565b61271081106104135760405162461bcd60e51b815260206004820152601960248201527f52654e46543a3a66656520657863656564732031303070637400000000000000604482015260640161027c565b600555565b60045460ff161561043b5760405162461bcd60e51b815260040161027c90613d59565b61045061151161029689898989898989611a2e565b50505050505050565b60045460ff161561047c5760405162461bcd60e51b815260040161027c90613d59565b61029b611afc61029685858561081c565b805160208201516000916104a091613fe1565b6001600160401b038111156104b7576104b7614081565b6040519080825280602002602001820160405280156104e0578160200160208202803683370190505b5082519091505b82602001518110156107e05760006006600085604001518660000151815181106105135761051361406b565b6020026020010151866060015185815181106105315761053161406b565b602002602001015187610100015186815181106105505761055061406b565b602002602001015160405160200161056a93929190613bed565b60408051601f198184030181529181528151602092830120835282820193909352908201600020825160c08101845281546001600160a01b038116825260ff600160a01b82048116948301949094526001600160e01b0319600160a81b820460e090811b821696840196909652600160c81b820490951b9094166060820152600160e81b84048316608082015290935061063a929091849160a0840191600160f01b90910416600681111561062157610621614055565b600681111561063257610632614055565b905250611de2565b6040805160608101825260018301546001600160a01b0381168252600160a01b810460ff166020830152600160a81b900463ffffffff169181019190915261068190611e8e565b6040805160c08101825282546001600160a01b038116825260ff600160a01b8204811660208401526001600160e01b0319600160a81b830460e090811b821695850195909552600160c81b830490941b9093166060830152600160e81b81048316608083015261072692849160a0840191600160f01b90910416600681111561070c5761070c614055565b600681111561071d5761071d614055565b90525033611f41565b80548451600160e81b90910460ff169084906107429085613fe1565b815181106107525761075261406b565b60200260200101818152505083610100015182815181106107755761077561406b565b60200260200101517f61bcecd87c002ae006d9d8c760291b4f3646fa6109590b4b3ea93084aae4bb6a426040516107b8919063ffffffff91909116815260200190565b60405180910390a280546001600160f81b0319169055806107d881614024565b9150506104e7565b506108188230336108008660600151876000015188602001516000611f9a565b8651602088015161081391889181611f9a565b612059565b5050565b610824613420565b604051806101600160405280600081526020016001815260200185815260200184815260200160006001600160401b0381111561086357610863614081565b60405190808252806020026020018201604052801561088c578160200160208202803683370190505b50815260200160006040519080825280602002602001820160405280156108bd578160200160208202803683370190505b50815260200160006040519080825280602002602001820160405280156108ee578160200160208202803683370190505b508152602001600060405190808252806020026020018201604052801561091f578160200160208202803683370190505b50815260208082019490945260408051600080825281870183528284019190915281519081529485019052606001929092525092915050565b60008160400151511161099e5760405162461bcd60e51b815260206004820152600e60248201526d52654e46543a3a6e6f206e66747360901b604482015260640161027c565b806040015151816020015114610a735780604001518160200151815181106109c8576109c861406b565b60200260200101516001600160a01b031681604001518260000151815181106109f3576109f361406b565b60200260200101516001600160a01b0316148015610a365750610a368160400151826020015181518110610a2957610a2961406b565b60200260200101516121fd565b15610a535760208101805190610a4b82614024565b90525061099e565b610a60818363ffffffff16565b60208101805180835290610a4b82614024565b610818818363ffffffff16565b80515b8160200151811015610818576000600660008460400151856000015181518110610aaf57610aaf61406b565b602002602001015185606001518581518110610acd57610acd61406b565b60200260200101518661010001518681518110610aec57610aec61406b565b6020026020010151604051602001610b0693929190613bed565b60408051601f198184030181529181528151602092830120835282820193909352908201600020825160c08101845281546001600160a01b038116825260ff600160a01b82048116948301949094526001600160e01b0319600160a81b820460e090811b821696840196909652600160c81b820490951b9094166060820152600160e81b840483166080820152909350610bbd929091849160a0840191600160f01b90910416600681111561062157610621614055565b6040805160608101825260018301546001600160a01b0381168252600160a01b810460ff166020830152600160a81b900463ffffffff1691810191909152610c049061227f565b6040805160608101825260018301546001600160a01b0381168252600160a01b810460ff166020830152600160a81b900463ffffffff1691810191909152610c4c9042612305565b604080516101008101825282546001600160a01b03811692820192835260ff600160a01b8204811660608401526001600160e01b0319600160a81b830460e090811b82166080860152600160c81b8404811b90911660a0850152600160e81b8304821660c0850152610d3f94869385939192859290850191600160f01b9004166006811115610cdd57610cdd614055565b6006811115610cee57610cee614055565b905250815260408051606081018252600193909301546001600160a01b0381168452600160a01b810460ff16602080860191909152600160a81b90910463ffffffff1691840191909152015261235b565b8261010001518281518110610d5657610d5661406b565b60200260200101517f8ac1440f996b8b13e31275705c447bd09a92005cf2ec131a8183afedc636f5a242604051610d99919063ffffffff91909116815260200190565b60405180910390a280546001600160f81b031916815560010180546001600160c81b031916905580610dca81614024565b915050610a83565b80516020820151600091610de591613fe1565b6001600160401b03811115610dfc57610dfc614081565b604051908082528060200260200182016040528015610e25578160200160208202803683370190505b5082519091505b82602001518110156107e0576000600660008560400151866000015181518110610e5857610e5861406b565b602002602001015186606001518581518110610e7657610e7661406b565b60200260200101518761010001518681518110610e9557610e9561406b565b6020026020010151604051602001610eaf93929190613bed565b60408051601f198184030181529181528151602092830120835282820193909352908201600020825160c08101845281546001600160a01b038116825260ff600160a01b82048116948301949094526001600160e01b0319600160a81b820460e090811b821696840196909652600160c81b820490951b9094166060820152600160e81b840483166080820152909350610f66929091849160a0840191600160f01b90910416600681111561062157610621614055565b6040805160608101825260018301546001600160a01b0381168252600160a01b810460ff166020830152600160a81b900463ffffffff1691810191909152610fad90611e8e565b6040805160c08101825282546001600160a01b038116825260ff600160a01b8204811660208401526001600160e01b0319600160a81b830460e090811b821695850195909552600160c81b830490941b9093166060830152600160e81b81048316608083015261105492849160a0840191600160f01b90910416600681111561103857611038614055565b600681111561104957611049614055565b90525085843361259c565b8054600090600160f01b900460ff16600681111561107457611074614055565b905061107f81612707565b6000805460405163c6ee427f60e01b815260ff841660048201526001600160a01b039091169063c6ee427f9060240160206040518083038186803b1580156110c657600080fd5b505afa1580156110da573d6000803e3d6000fd5b505050506040513d601f19601f820116820180604052508101906110fe919061372c565b90506000816001600160a01b031663313ce5676040518163ffffffff1660e01b815260040160206040518083038186803b15801561113b57600080fd5b505afa15801561114f573d6000803e3d6000fd5b505050506040513d601f19601f820116820180604052508101906111739190613b95565b60ff169050600061118582600a613f1a565b85549091506000906111a190600160a81b900460e01b8361275a565b89610120015188815181106111b8576111b861406b565b602002602001015160ff166111cd9190613fc2565b86549091506000906111e990600160c81b900460e01b8461275a565b87546111ff9190600160e81b900460ff16613fc2565b9050600082116112215760405162461bcd60e51b815260040161027c90613cf8565b600081116112415760405162461bcd60e51b815260040161027c90613d80565b61126233306112508486613e9d565b6001600160a01b0389169291906127e9565b505084548851600160e81b90910460ff16915087906112819088613fe1565b815181106112915761129161406b565b60209081029190910101526001840180546001600160a01b031916331790556101208701518051869081106112c8576112c861406b565b602090810291909101015160018501805464ffffffffff60a01b1916600160a01b60ff9093169290920263ffffffff60a81b191691909117600160a81b4263ffffffff1602179055610100870151805133917f3140d73adcc923e4a0de3b1522aeec546a872bcdc06a3e25fe1209df30b954ec918890811061134c5761134c61406b565b6020026020010151896101200151888151811061136b5761136b61406b565b60209081029190910181015160018901546040805194855260ff90921692840192909252600160a81b90910463ffffffff169082015260600160405180910390a25050505080806113bb90614024565b915050610e2c565b6113cb613420565b604051806101600160405280600081526020016001815260200186815260200185815260200160006001600160401b0381111561140a5761140a614081565b604051908082528060200260200182016040528015611433578160200160208202803683370190505b5081526020016000604051908082528060200260200182016040528015611464578160200160208202803683370190505b5081526020016000604051908082528060200260200182016040528015611495578160200160208202803683370190505b50815260200160006040519080825280602002602001820160405280156114c6578160200160208202803683370190505b50815260208101859052604081018490526060016000604051908082528060200260200182016040528015611505578160200160208202803683370190505b50905295945050505050565b80515b81602001518110156119f25761152a8282612854565b600060066000846040015185600001518151811061154a5761154a61406b565b6020026020010151856060015185815181106115685761156861406b565b602002602001015160035460405160200161158593929190613bed565b60408051601f198184030181529181528151602092830120835282820193909352908201600020825160c08101845281546001600160a01b038116825260ff600160a01b82048116948301949094526001600160e01b0319600160a81b820460e090811b821696840196909652600160c81b820490951b9094166060820152600160e81b840483166080820152909350611655929091849160a0840191600160f01b90910416600681111561163c5761163c614055565b600681111561164d5761164d614055565b905250612a10565b6040805160608101825260018301546001600160a01b0381168252600160a01b810460ff166020830152600160a81b900463ffffffff169181019190915261169c90611e8e565b60006116c4846040015184815181106116b7576116b761406b565b6020026020010151612b23565b90506040518060c00160405280336001600160a01b031681526020018560a0015185815181106116f6576116f661406b565b602002602001015160ff1681526020018560c00151858151811061171c5761171c61406b565b60200260200101516001600160e01b03191681526020018560e0015185815181106117495761174961406b565b60200260200101516001600160e01b031916815260200182611788578560800151858151811061177b5761177b61406b565b602002602001015161178b565b60015b60ff16815260200185610140015185815181106117aa576117aa61406b565b602002602001015160068111156117c3576117c3614055565b90528051835460208301516040840151606085015160808601516001600160a01b039095166001600160a81b031990941693909317600160a01b60ff938416021767ffffffffffffffff60a81b1916600160a81b60e092831c0263ffffffff60c81b191617600160c81b9390911c929092029190911760ff60e81b198116600160e81b9290931691909102918217855560a083015185929091839161ffff60e81b1990911660ff60f01b1990911617600160f01b83600681111561188957611889614055565b0217905550905050336001600160a01b0316846060015184815181106118b1576118b161406b565b602002602001015185604001518660000151815181106118d3576118d361406b565b60200260200101516001600160a01b03167fc1b2f77226541f6b308379a3110d77af45464d9a161a6eb4b6cfdcd0fb2089c68461192d57876080015187815181106119205761192061406b565b6020026020010151611930565b60015b6003548960a0015189815181106119495761194961406b565b60200260200101518a60c001518a815181106119675761196761406b565b60200260200101518b60e001518b815181106119855761198561406b565b6020026020010151898d61014001518d815181106119a5576119a561406b565b60200260200101516040516119c09796959493929190613de1565b60405180910390a4600380549060006119d883614024565b9190505550505080806119ea90614024565b915050611514565b50611a2b813330611a128560600151866000015187602001516000611f9a565b6108138660800151876000015188602001516000611f9a565b50565b611a36613420565b604051806101600160405280600081526020016001815260200189815260200188815260200187815260200186815260200185815260200184815260200160006001600160401b03811115611a8d57611a8d614081565b604051908082528060200260200182016040528015611ab6578160200160208202803683370190505b5081526020016000604051908082528060200260200182016040528015611ae7578160200160208202803683370190505b50815260200192909252509695505050505050565b80516020820151600091611b0f91613fe1565b6001600160401b03811115611b2657611b26614081565b604051908082528060200260200182016040528015611b4f578160200160208202803683370190505b5082519091505b8260200151811015611dc2576000600660008560400151866000015181518110611b8257611b8261406b565b602002602001015186606001518581518110611ba057611ba061406b565b60200260200101518761010001518681518110611bbf57611bbf61406b565b6020026020010151604051602001611bd993929190613bed565b60408051601f198184030181529181528151602092830120835282820193909352908201600020825160c08101845281546001600160a01b038116825260ff600160a01b82048116948301949094526001600160e01b0319600160a81b820460e090811b821696840196909652600160c81b820490951b9094166060820152600160e81b840483166080820152909350611c90929091849160a0840191600160f01b90910416600681111561062157610621614055565b6040805160608101825260018301546001600160a01b0381168252600160a01b810460ff166020830152600160a81b900463ffffffff1691810191909152611cd9903342612b59565b6001810154600090611cf890600160a81b900463ffffffff1642613fe1565b9050611d048282612c09565b81548551600160e81b90910460ff16908590611d209086613fe1565b81518110611d3057611d3061406b565b6020026020010181815250508461010001518381518110611d5357611d5361406b565b60200260200101517f289da9cb3ecd362ad5ae230d4daa346e68abbd8972cd9c01df54b7b1b97ab15b42604051611d96919063ffffffff91909116815260200190565b60405180910390a25060010180546001600160c81b031916905580611dba81614024565b915050611b56565b506108188233306108008660600151876000015188602001516000611f9a565b8051611ded90612eff565b602081015160ff16611e385760405162461bcd60e51b815260206004820152601460248201527352654e46543a3a6475726174696f6e207a65726f60601b604482015260640161027c565b60408101516001600160e01b031916611e635760405162461bcd60e51b815260040161027c90613cf8565b60608101516001600160e01b031916611a2b5760405162461bcd60e51b815260040161027c90613d80565b8051611e9990612f4b565b602081015160ff1615611ee95760405162461bcd60e51b815260206004820152601860248201527752654e46543a3a6475726174696f6e206e6f74207a65726f60401b604482015260640161027c565b604081015163ffffffff1615611a2b5760405162461bcd60e51b815260206004820152601960248201527f52654e46543a3a72656e746564206174206e6f74207a65726f00000000000000604482015260640161027c565b806001600160a01b031682600001516001600160a01b0316146108185760405162461bcd60e51b81526020600482015260116024820152702932a7232a1d1d3737ba103632b73232b960791b604482015260640161027c565b6060611fa68484613fe1565b6001600160401b03811115611fbd57611fbd614081565b604051908082528060200260200182016040528015611fe6578160200160208202803683370190505b509050835b838110156120505785611ffe8483613fe1565b8151811061200e5761200e61406b565b60200260200101518286836120239190613fe1565b815181106120335761203361406b565b60209081029190910101528061204881614024565b915050611feb565b50949350505050565b61207685604001518660000151815181106116b7576116b761406b565b1561213c5760408501518551815181106120925761209261406b565b60200260200101516001600160a01b03166323b872dd858588606001518960000151815181106120c4576120c461406b565b60209081029190910101516040516001600160e01b031960e086901b1681526001600160a01b03938416600482015292909116602483015260448201526064015b600060405180830381600087803b15801561211f57600080fd5b505af1158015612133573d6000803e3d6000fd5b505050506121f6565b6121598560400151866000015181518110610a2957610a2961406b565b156121ae5760408501518551815181106121755761217561406b565b60200260200101516001600160a01b0316632eb2c2d6858585856040518563ffffffff1660e01b81526004016121059493929190613c33565b60405162461bcd60e51b815260206004820152601d60248201527f52654e46543a3a756e737570706f7274656420746f6b656e2074797065000000604482015260640161027c565b5050505050565b6040516301ffc9a760e01b8152636cdb3d1360e11b60048201526000906001600160a01b038316906301ffc9a7906024015b60206040518083038186803b15801561224757600080fd5b505afa15801561225b573d6000803e3d6000fd5b505050506040513d601f19601f820116820180604052508101906102539190613b44565b805161228a90612eff565b602081015160ff166122ae5760405162461bcd60e51b815260040161027c90613cc1565b604081015163ffffffff16611a2b5760405162461bcd60e51b815260206004820152601860248201527f52654e46543a3a72656e746564206174206973207a65726f0000000000000000604482015260640161027c565b61230f8282612fa2565b6108185760405162461bcd60e51b815260206004820152601d60248201527f52654e46543a3a72657475726e2064617465206e6f7420706173736564000000604482015260640161027c565b805160a00151600090600681111561237557612375614055565b905061238081612707565b6000805460405163c6ee427f60e01b815260ff841660048201526001600160a01b039091169063c6ee427f9060240160206040518083038186803b1580156123c757600080fd5b505afa1580156123db573d6000803e3d6000fd5b505050506040513d601f19601f820116820180604052508101906123ff919061372c565b90506000816001600160a01b031663313ce5676040518163ffffffff1660e01b815260040160206040518083038186803b15801561243c57600080fd5b505afa158015612450573d6000803e3d6000fd5b505050506040513d601f19601f820116820180604052508101906124749190613b95565b60ff169050600061248682600a613f1a565b9050600061249c8660000151606001518361275a565b8651608001516124af919060ff16613fc2565b905060006124c58760000151604001518461275a565b9050600087602001516020015160ff16826124e09190613fc2565b90506000612502828960ff1660068111156124fd576124fd614055565b613030565b905060006125108584613e9d565b90506000831161256e5760405162461bcd60e51b815260206004820152602360248201527f52654e46543a3a636f6c6c61746572616c20706c75732072656e74206973207a60448201526265726f60e81b606482015260840161027c565b8951516125909061257f8484613fe1565b6001600160a01b038b169190613113565b50505050505050505050565b83516001600160a01b03828116911614156125f95760405162461bcd60e51b815260206004820152601860248201527f52654e46543a3a63616e742072656e74206f776e206e66740000000000000000604482015260640161027c565b60ff801683610120015183815181106126145761261461406b565b602002602001015160ff16111561263d5760405162461bcd60e51b815260040161027c90613d2f565b600083610120015183815181106126565761265661406b565b602002602001015160ff161161267e5760405162461bcd60e51b815260040161027c90613cc1565b836020015160ff16836101200151838151811061269d5761269d61406b565b602002602001015160ff1611156103925760405162461bcd60e51b815260206004820152602860248201527f52654e46543a3a72656e74206475726174696f6e206578636565647320616c6c6044820152670deeecac840dac2f60c31b606482015260840161027c565b60008160ff1611611a2b5760405162461bcd60e51b815260206004820152601860248201527f52654e46543a3a746f6b656e2069732073656e74696e656c0000000000000000604482015260640161027c565b60006127668383613143565b60f083901c61ffff60e085901c16600061278261271086613eb5565b905061270f8361ffff1611156127985761270f92505b61270f8261ffff1611156127ac5761270f91505b60006127bc8661ffff8616613fc2565b905060006127ce8361ffff8616613fc2565b905060006127dc8284613e9d565b9998505050505050505050565b6040516001600160a01b03808516602483015283166044820152606481018290526103929085906323b872dd60e01b906084015b60408051601f198184030181529190526020810180516001600160e01b03166001600160e01b0319909316929092179091526131d4565b60008260800151828151811061286c5761286c61406b565b6020026020010151116128c15760405162461bcd60e51b815260206004820152601a60248201527f52654e46543a3a6c656e6420616d6f756e74206973207a65726f000000000000604482015260640161027c565b60ff8016826080015182815181106128db576128db61406b565b602002602001015111156129015760405162461bcd60e51b815260040161027c90613d2f565b60008260a0015182815181106129195761291961406b565b602002602001015160ff16116129415760405162461bcd60e51b815260040161027c90613cc1565b60ff80168260a00151828151811061295b5761295b61406b565b602002602001015160ff1611156129845760405162461bcd60e51b815260040161027c90613d2f565b60008260c00151828151811061299c5761299c61406b565b602002602001015160e01c63ffffffff16116129ca5760405162461bcd60e51b815260040161027c90613cf8565b60008260e0015182815181106129e2576129e261406b565b602002602001015160e01c63ffffffff16116108185760405162461bcd60e51b815260040161027c90613d80565b8051612a1b90612f4b565b602081015160ff1615612a6b5760405162461bcd60e51b815260206004820152601860248201527752654e46543a3a6475726174696f6e206e6f74207a65726f60401b604482015260640161027c565b60408101516001600160e01b03191615612ac75760405162461bcd60e51b815260206004820152601a60248201527f52654e46543a3a72656e74207072696365206e6f74207a65726f000000000000604482015260640161027c565b60608101516001600160e01b03191615611a2b5760405162461bcd60e51b815260206004820152601960248201527f52654e46543a3a6e6674207072696365206e6f74207a65726f00000000000000604482015260640161027c565b6040516301ffc9a760e01b81526380ac58cd60e01b60048201526000906001600160a01b038316906301ffc9a79060240161222f565b816001600160a01b031683600001516001600160a01b031614612bb25760405162461bcd60e51b81526020600482015260116024820152702932a7232a1d1d3737ba103932b73a32b960791b604482015260640161027c565b612bbc8382612fa2565b1561029b5760405162461bcd60e51b815260206004820152601760248201527f52654e46543a3a706173742072657475726e2064617465000000000000000000604482015260640161027c565b8154600090600160f01b900460ff166006811115612c2957612c29614055565b9050612c3481612707565b6000805460405163c6ee427f60e01b815260ff841660048201526001600160a01b039091169063c6ee427f9060240160206040518083038186803b158015612c7b57600080fd5b505afa158015612c8f573d6000803e3d6000fd5b505050506040513d601f19601f82011682018060405250810190612cb3919061372c565b90506000816001600160a01b031663313ce5676040518163ffffffff1660e01b815260040160206040518083038186803b158015612cf057600080fd5b505afa158015612d04573d6000803e3d6000fd5b505050506040513d601f19601f82011682018060405250810190612d289190613b95565b60ff1690506000612d3a82600a613f1a565b8654909150600090612d5690600160c81b900460e01b8361275a565b8754612d6c9190600160e81b900460ff16613fc2565b8754909150600090612d8890600160a81b900460e01b8461275a565b6001890154909150600090612da790600160a01b900460ff1683613fc2565b9050600062015180612db9848b613fc2565b612dc39190613eb5565b905060008211612e285760405162461bcd60e51b815260206004820152602a60248201527f52654e46543a3a746f74616c207061796d656e7420776f20636f6c6c61746572604482015269616c206973207a65726f60b01b606482015260840161027c565b60008111612e785760405162461bcd60e51b815260206004820152601d60248201527f52654e46543a3a6c656e646572207061796d656e74206973207a65726f000000604482015260640161027c565b6000612e848284613fe1565b8b54909150600090612ea1908490600160f01b900460ff16613030565b9050612ead8184613fe1565b9250612eb98683613e9d565b8c54909250612ed5906001600160a01b038b8116911685613113565b60018c0154612ef1906001600160a01b038b8116911684613113565b505050505050505050505050565b6001600160a01b038116611a2b5760405162461bcd60e51b815260206004820152601360248201527252654e46543a3a7a65726f206164647265737360681b604482015260640161027c565b6001600160a01b03811615611a2b5760405162461bcd60e51b815260206004820152601960248201527f52654e46543a3a6e6f742061207a65726f206164647265737300000000000000604482015260640161027c565b6000826040015163ffffffff168211612ffd5760405162461bcd60e51b815260206004820152601860248201527f52654e46543a3a6e6f77206265666f72652072656e7465640000000000000000604482015260640161027c565b62015180836020015160ff166130139190613fc2565b60408401516130289063ffffffff1684613fe1565b119392505050565b6000600554836130409190613fc2565b905061304e61271082613eb5565b9050600082600681111561306457613064614055565b905061306f81612707565b6000805460405163c6ee427f60e01b815260ff841660048201526001600160a01b039091169063c6ee427f9060240160206040518083038186803b1580156130b657600080fd5b505afa1580156130ca573d6000803e3d6000fd5b505050506040513d601f19601f820116820180604052508101906130ee919061372c565b60025490915061310b906001600160a01b03808416911685613113565b505092915050565b6040516001600160a01b03831660248201526044810182905261029b90849063a9059cbb60e01b9060640161281d565b60e082901c61318b5760405162461bcd60e51b815260206004820152601460248201527352654e46543a3a696e76616c696420707269636560601b604482015260640161027c565b6127108110156108185760405162461bcd60e51b815260206004820152601460248201527352654e46543a3a696e76616c6964207363616c6560601b604482015260640161027c565b6000613229826040518060400160405280602081526020017f5361666545524332303a206c6f772d6c6576656c2063616c6c206661696c6564815250856001600160a01b03166132a69092919063ffffffff16565b80519091501561029b57808060200190518101906132479190613b44565b61029b5760405162461bcd60e51b815260206004820152602a60248201527f5361666545524332303a204552433230206f7065726174696f6e20646964206e6044820152691bdd081cdd58d8d9595960b21b606482015260840161027c565b60606132b584846000856132bf565b90505b9392505050565b6060824710156133205760405162461bcd60e51b815260206004820152602660248201527f416464726573733a20696e73756666696369656e742062616c616e636520666f6044820152651c8818d85b1b60d21b606482015260840161027c565b843b61336e5760405162461bcd60e51b815260206004820152601d60248201527f416464726573733a2063616c6c20746f206e6f6e2d636f6e7472616374000000604482015260640161027c565b600080866001600160a01b0316858760405161338a9190613c17565b60006040518083038185875af1925050503d80600081146133c7576040519150601f19603f3d011682016040523d82523d6000602084013e6133cc565b606091505b50915091506133dc8282866133e7565b979650505050505050565b606083156133f65750816132b8565b8251156134065782518084602001fd5b8160405162461bcd60e51b815260040161027c9190613c8e565b60405180610160016040528060008152602001600081526020016060815260200160608152602001606081526020016060815260200160608152602001606081526020016060815260200160608152602001606081525090565b600082601f83011261348b57600080fd5b813560206134a061349b83613e7a565b613e4a565b80838252828201915082860187848660051b89010111156134c057600080fd5b60005b858110156134e85781356134d681614097565b845292840192908401906001016134c3565b5090979650505050505050565b600082601f83011261350657600080fd5b8135602061351661349b83613e7a565b80838252828201915082860187848660051b890101111561353657600080fd5b60005b858110156134e85761354a826136a0565b84529284019290840190600101613539565b600082601f83011261356d57600080fd5b8135602061357d61349b83613e7a565b80838252828201915082860187848660051b890101111561359d57600080fd5b6000805b868110156135c9578235600781106135b7578283fd5b855293850193918501916001016135a1565b509198975050505050505050565b600082601f8301126135e857600080fd5b813560206135f861349b83613e7a565b80838252828201915082860187848660051b890101111561361857600080fd5b60005b858110156134e85781358452928401929084019060010161361b565b600082601f83011261364857600080fd5b8135602061365861349b83613e7a565b80838252828201915082860187848660051b890101111561367857600080fd5b60005b858110156134e857813561368e816140ba565b8452928401929084019060010161367b565b80356001600160e01b0319811681146136b857600080fd5b919050565b600082601f8301126136ce57600080fd5b81356001600160401b038111156136e7576136e7614081565b6136fa601f8201601f1916602001613e4a565b81815284602083860101111561370f57600080fd5b816020850160208301376000918101602001919091529392505050565b60006020828403121561373e57600080fd5b81516132b881614097565b60006020828403121561375b57600080fd5b81356132b881614097565b600080600080600060a0868803121561377e57600080fd5b853561378981614097565b9450602086013561379981614097565b935060408601356001600160401b03808211156137b557600080fd5b6137c189838a016135d7565b945060608801359150808211156137d757600080fd5b6137e389838a016135d7565b935060808801359150808211156137f957600080fd5b50613806888289016136bd565b9150509295509295909350565b6000806000806080858703121561382957600080fd5b843561383481614097565b9350602085013561384481614097565b92506040850135915060608501356001600160401b0381111561386657600080fd5b613872878288016136bd565b91505092959194509250565b600080600080600060a0868803121561389657600080fd5b85356138a181614097565b945060208601356138b181614097565b9350604086013592506060860135915060808601356001600160401b038111156138da57600080fd5b613806888289016136bd565b6000806000606084860312156138fb57600080fd5b83356001600160401b038082111561391257600080fd5b61391e8783880161347a565b9450602086013591508082111561393457600080fd5b613940878388016135d7565b9350604086013591508082111561395657600080fd5b50613963868287016135d7565b9150509250925092565b6000806000806080858703121561398357600080fd5b84356001600160401b038082111561399a57600080fd5b6139a68883890161347a565b955060208701359150808211156139bc57600080fd5b6139c8888389016135d7565b945060408701359150808211156139de57600080fd5b6139ea888389016135d7565b93506060870135915080821115613a0057600080fd5b5061387287828801613637565b600080600080600080600060e0888a031215613a2857600080fd5b87356001600160401b0380821115613a3f57600080fd5b613a4b8b838c0161347a565b985060208a0135915080821115613a6157600080fd5b613a6d8b838c016135d7565b975060408a0135915080821115613a8357600080fd5b613a8f8b838c016135d7565b965060608a0135915080821115613aa557600080fd5b613ab18b838c01613637565b955060808a0135915080821115613ac757600080fd5b613ad38b838c016134f5565b945060a08a0135915080821115613ae957600080fd5b613af58b838c016134f5565b935060c08a0135915080821115613b0b57600080fd5b50613b188a828b0161355c565b91505092959891949750929550565b600060208284031215613b3957600080fd5b81356132b8816140ac565b600060208284031215613b5657600080fd5b81516132b8816140ac565b600060208284031215613b7357600080fd5b6132b8826136a0565b600060208284031215613b8e57600080fd5b5035919050565b600060208284031215613ba757600080fd5b81516132b8816140ba565b600081518084526020808501945080840160005b83811015613be257815187529582019590820190600101613bc6565b509495945050505050565b60609390931b6bffffffffffffffffffffffff191683526014830191909152603482015260540190565b60008251613c29818460208701613ff8565b9190910192915050565b6001600160a01b0385811682528416602082015260a060408201819052600090613c5f90830185613bb2565b8281036060840152613c718185613bb2565b838103608090940193909352505060008152602001949350505050565b6020815260008251806020840152613cad816040850160208701613ff8565b601f01601f19169190910160400192915050565b60208082526017908201527f52654e46543a3a6475726174696f6e206973207a65726f000000000000000000604082015260600190565b60208082526019908201527f52654e46543a3a72656e74207072696365206973207a65726f00000000000000604082015260600190565b60208082526010908201526f0a4ca9c8ca87474dcdee840ead2dce8760831b604082015260600190565b6020808252600d908201526c14995391950e8e9c185d5cd959609a1b604082015260600190565b60208082526018908201527f52654e46543a3a6e6674207072696365206973207a65726f0000000000000000604082015260600190565b60208082526010908201526f2932a7232a1d1d3737ba1030b236b4b760811b604082015260600190565b60ff888116825260208201889052861660408201526001600160e01b031985811660608301528416608082015282151560a082015260e0810160078310613e3857634e487b7160e01b600052602160045260246000fd5b8260c083015298975050505050505050565b604051601f8201601f191681016001600160401b0381118282101715613e7257613e72614081565b604052919050565b60006001600160401b03821115613e9357613e93614081565b5060051b60200190565b60008219821115613eb057613eb061403f565b500190565b600082613ed257634e487b7160e01b600052601260045260246000fd5b500490565b600181815b80851115613f12578160001904821115613ef857613ef861403f565b80851615613f0557918102915b93841c9390800290613edc565b509250929050565b60006132b88383600082613f3057506001610253565b81613f3d57506000610253565b8160018114613f535760028114613f5d57613f79565b6001915050610253565b60ff841115613f6e57613f6e61403f565b50506001821b610253565b5060208310610133831016604e8410600b8410161715613f9c575081810a610253565b613fa68383613ed7565b8060001904821115613fba57613fba61403f565b029392505050565b6000816000190483118215151615613fdc57613fdc61403f565b500290565b600082821015613ff357613ff361403f565b500390565b60005b83811015614013578181015183820152602001613ffb565b838111156103925750506000910152565b60006000198214156140385761403861403f565b5060010190565b634e487b7160e01b600052601160045260246000fd5b634e487b7160e01b600052602160045260246000fd5b634e487b7160e01b600052603260045260246000fd5b634e487b7160e01b600052604160045260246000fd5b6001600160a01b0381168114611a2b57600080fd5b8015158114611a2b57600080fd5b60ff81168114611a2b57600080fdfea264697066735822122034658529f443d899f0ce5625fe85588e0ad02efd7430ced74a5d401aaceacfa164736f6c63430008060033",
  "devdoc": {
    "kind": "dev",
    "methods": {
      "claimCollateral(address[],uint256[],uint256[])": {
        "details": "claim collateral on rentals that are past their due date"
      },
      "onERC721Received(address,address,uint256,bytes)": {
        "details": "See {IERC721Receiver-onERC721Received}. Always returns `IERC721Receiver.onERC721Received.selector`."
      },
      "supportsInterface(bytes4)": {
        "details": "See {IERC165-supportsInterface}."
      }
    },
    "version": 1
  },
  "userdoc": {
    "kind": "user",
    "methods": {},
    "version": 1
  },
  "storageLayout": {
    "storage": [
      {
        "astId": 4170,
        "contract": "src/ReNFT.sol:ReNFT",
        "label": "resolver",
        "offset": 0,
        "slot": "0",
        "type": "t_contract(IResolver)7614"
      },
      {
        "astId": 4172,
        "contract": "src/ReNFT.sol:ReNFT",
        "label": "admin",
        "offset": 0,
        "slot": "1",
        "type": "t_address"
      },
      {
        "astId": 4174,
        "contract": "src/ReNFT.sol:ReNFT",
        "label": "beneficiary",
        "offset": 0,
        "slot": "2",
        "type": "t_address_payable"
      },
      {
        "astId": 4177,
        "contract": "src/ReNFT.sol:ReNFT",
        "label": "lendingId",
        "offset": 0,
        "slot": "3",
        "type": "t_uint256"
      },
      {
        "astId": 4180,
        "contract": "src/ReNFT.sol:ReNFT",
        "label": "paused",
        "offset": 0,
        "slot": "4",
        "type": "t_bool"
      },
      {
        "astId": 4183,
        "contract": "src/ReNFT.sol:ReNFT",
        "label": "rentFee",
        "offset": 0,
        "slot": "5",
        "type": "t_uint256"
      },
      {
        "astId": 4219,
        "contract": "src/ReNFT.sol:ReNFT",
        "label": "lendingRenting",
        "offset": 0,
        "slot": "6",
        "type": "t_mapping(t_bytes32,t_struct(LendingRenting)4214_storage)"
      }
    ],
    "types": {
      "t_address": {
        "encoding": "inplace",
        "label": "address",
        "numberOfBytes": "20"
      },
      "t_address_payable": {
        "encoding": "inplace",
        "label": "address payable",
        "numberOfBytes": "20"
      },
      "t_bool": {
        "encoding": "inplace",
        "label": "bool",
        "numberOfBytes": "1"
      },
      "t_bytes32": {
        "encoding": "inplace",
        "label": "bytes32",
        "numberOfBytes": "32"
      },
      "t_bytes4": {
        "encoding": "inplace",
        "label": "bytes4",
        "numberOfBytes": "4"
      },
      "t_contract(IResolver)7614": {
        "encoding": "inplace",
        "label": "contract IResolver",
        "numberOfBytes": "20"
      },
      "t_enum(PaymentToken)7599": {
        "encoding": "inplace",
        "label": "enum IResolver.PaymentToken",
        "numberOfBytes": "1"
      },
      "t_mapping(t_bytes32,t_struct(LendingRenting)4214_storage)": {
        "encoding": "mapping",
        "key": "t_bytes32",
        "label": "mapping(bytes32 => struct ReNFT.LendingRenting)",
        "numberOfBytes": "32",
        "value": "t_struct(LendingRenting)4214_storage"
      },
      "t_struct(Lending)4200_storage": {
        "encoding": "inplace",
        "label": "struct ReNFT.Lending",
        "members": [
          {
            "astId": 4188,
            "contract": "src/ReNFT.sol:ReNFT",
            "label": "lenderAddress",
            "offset": 0,
            "slot": "0",
            "type": "t_address_payable"
          },
          {
            "astId": 4190,
            "contract": "src/ReNFT.sol:ReNFT",
            "label": "maxRentDuration",
            "offset": 20,
            "slot": "0",
            "type": "t_uint8"
          },
          {
            "astId": 4192,
            "contract": "src/ReNFT.sol:ReNFT",
            "label": "dailyRentPrice",
            "offset": 21,
            "slot": "0",
            "type": "t_bytes4"
          },
          {
            "astId": 4194,
            "contract": "src/ReNFT.sol:ReNFT",
            "label": "nftPrice",
            "offset": 25,
            "slot": "0",
            "type": "t_bytes4"
          },
          {
            "astId": 4196,
            "contract": "src/ReNFT.sol:ReNFT",
            "label": "lentAmount",
            "offset": 29,
            "slot": "0",
            "type": "t_uint8"
          },
          {
            "astId": 4199,
            "contract": "src/ReNFT.sol:ReNFT",
            "label": "paymentToken",
            "offset": 30,
            "slot": "0",
            "type": "t_enum(PaymentToken)7599"
          }
        ],
        "numberOfBytes": "32"
      },
      "t_struct(LendingRenting)4214_storage": {
        "encoding": "inplace",
        "label": "struct ReNFT.LendingRenting",
        "members": [
          {
            "astId": 4210,
            "contract": "src/ReNFT.sol:ReNFT",
            "label": "lending",
            "offset": 0,
            "slot": "0",
            "type": "t_struct(Lending)4200_storage"
          },
          {
            "astId": 4213,
            "contract": "src/ReNFT.sol:ReNFT",
            "label": "renting",
            "offset": 0,
            "slot": "1",
            "type": "t_struct(Renting)4207_storage"
          }
        ],
        "numberOfBytes": "64"
      },
      "t_struct(Renting)4207_storage": {
        "encoding": "inplace",
        "label": "struct ReNFT.Renting",
        "members": [
          {
            "astId": 4202,
            "contract": "src/ReNFT.sol:ReNFT",
            "label": "renterAddress",
            "offset": 0,
            "slot": "0",
            "type": "t_address_payable"
          },
          {
            "astId": 4204,
            "contract": "src/ReNFT.sol:ReNFT",
            "label": "rentDuration",
            "offset": 20,
            "slot": "0",
            "type": "t_uint8"
          },
          {
            "astId": 4206,
            "contract": "src/ReNFT.sol:ReNFT",
            "label": "rentedAt",
            "offset": 21,
            "slot": "0",
            "type": "t_uint32"
          }
        ],
        "numberOfBytes": "32"
      },
      "t_uint256": {
        "encoding": "inplace",
        "label": "uint256",
        "numberOfBytes": "32"
      },
      "t_uint32": {
        "encoding": "inplace",
        "label": "uint32",
        "numberOfBytes": "4"
      },
      "t_uint8": {
        "encoding": "inplace",
        "label": "uint8",
        "numberOfBytes": "1"
      }
    }
  }
}