{
  "address": "0xB0fA5aCEf7Aa85F7338a255B010cfDCc6abb19A7",
  "abi": [
    {
      "inputs": [
        {
          "internalType": "address",
          "name": "_admin",
          "type": "address"
        }
      ],
      "stateMutability": "nonpayable",
      "type": "constructor"
    },
    {
      "inputs": [
        {
          "internalType": "uint8",
          "name": "_pt",
          "type": "uint8"
        }
      ],
      "name": "getPaymentToken",
      "outputs": [
        {
          "internalType": "address",
          "name": "",
          "type": "address"
        }
      ],
      "stateMutability": "view",
      "type": "function"
    },
    {
      "inputs": [
        {
          "internalType": "uint8",
          "name": "_pt",
          "type": "uint8"
        },
        {
          "internalType": "address",
          "name": "_v",
          "type": "address"
        }
      ],
      "name": "setPaymentToken",
      "outputs": [],
      "stateMutability": "nonpayable",
      "type": "function"
    }
  ],
  "transactionHash": "0x8bcbc43ee23d3a120c1f2d1217f775bdc7ad96fc492738ed89d025151541a517",
  "args": [
    "0x4F8645e873Af2355afD7E971736D6056c1758aBF"
  ],
  "solcInputHash": "83cc30e9192a43402c9328dfcc027bb0",
  "bytecode": "0x608060405234801561001057600080fd5b506040516102f03803806102f083398101604081905261002f91610054565b600080546001600160a01b0319166001600160a01b0392909216919091179055610082565b600060208284031215610065578081fd5b81516001600160a01b038116811461007b578182fd5b9392505050565b61025f806100916000396000f3fe608060405234801561001057600080fd5b50600436106100365760003560e01c8063321c6aea1461003b578063c6ee427f14610050575b600080fd5b61004e61004936600461018c565b610079565b005b61006361005e36600461016b565b610138565b60405161007091906101cd565b60405180910390f35b60ff82166100a25760405162461bcd60e51b815260040161009990610218565b60405180910390fd5b60ff82166000908152600160205260409020546001600160a01b0316156100db5760405162461bcd60e51b8152600401610099906101e1565b6000546001600160a01b031633146101055760405162461bcd60e51b815260040161009990610218565b60ff91909116600090815260016020526040902080546001600160a01b0319166001600160a01b03909216919091179055565b60ff81166000908152600160205260409020546001600160a01b03165b919050565b803560ff8116811461015557600080fd5b60006020828403121561017c578081fd5b6101858261015a565b9392505050565b6000806040838503121561019e578081fd5b6101a78361015a565b915060208301356001600160a01b03811681146101c2578182fd5b809150509250929050565b6001600160a01b0391909116815260200190565b60208082526018908201527f63616e6e6f742072657365742074686520616464726573730000000000000000604082015260600190565b60208082526000908201526040019056fea2646970667358221220220f7262c44286fe991eb7e8166c85b13dfe92ccd5c45ab76c70686e84e8284564736f6c63430008000033",
  "devdoc": {
    "kind": "dev",
    "methods": {
      "getPaymentToken(uint8)": {
        "details": "util function to avoid guessing getter name if addresses was public"
      },
      "setPaymentToken(uint8,address)": {
        "details": "Gives us the ability to set new payment tokens down the line"
      }
    },
    "version": 1
  },
  "userdoc": {
    "kind": "user",
    "methods": {},
    "version": 1
  },
  "storageLayout": {
    "storage": [
      {
        "astId": 6310,
        "contract": "src/Resolver.sol:Resolver",
        "label": "admin",
        "offset": 0,
        "slot": "0",
        "type": "t_address"
      },
      {
        "astId": 6314,
        "contract": "src/Resolver.sol:Resolver",
        "label": "addresses",
        "offset": 0,
        "slot": "1",
        "type": "t_mapping(t_uint8,t_address)"
      }
    ],
    "types": {
      "t_address": {
        "encoding": "inplace",
        "label": "address",
        "numberOfBytes": "20"
      },
      "t_mapping(t_uint8,t_address)": {
        "encoding": "mapping",
        "key": "t_uint8",
        "label": "mapping(uint8 => address)",
        "numberOfBytes": "32",
        "value": "t_address"
      },
      "t_uint8": {
        "encoding": "inplace",
        "label": "uint8",
        "numberOfBytes": "1"
      }
    }
  }
}