{
  "address": "0x4eE5e691A09885009694e599E786476F976aE805",
  "abi": [
    {
      "inputs": [
        {
          "internalType": "address",
          "name": "_admin",
          "type": "address"
        }
      ],
      "stateMutability": "nonpayable",
      "type": "constructor"
    },
    {
      "inputs": [
        {
          "internalType": "uint8",
          "name": "_pt",
          "type": "uint8"
        }
      ],
      "name": "getPaymentToken",
      "outputs": [
        {
          "internalType": "address",
          "name": "",
          "type": "address"
        }
      ],
      "stateMutability": "view",
      "type": "function"
    },
    {
      "inputs": [
        {
          "internalType": "uint8",
          "name": "_pt",
          "type": "uint8"
        },
        {
          "internalType": "address",
          "name": "_v",
          "type": "address"
        }
      ],
      "name": "setPaymentToken",
      "outputs": [],
      "stateMutability": "nonpayable",
      "type": "function"
    }
  ],
  "transactionHash": "0x1e3f96ddd8d0d3c7a189bed7f27bb540837cc2bb47b12b9afdd40baac37b6b78",
  "args": [
    "0x4F8645e873Af2355afD7E971736D6056c1758aBF"
  ],
  "solcInputHash": "16c7011a524718cf967987a411f3fbd5",
  "bytecode": "0x608060405234801561001057600080fd5b5060405161031b38038061031b83398101604081905261002f91610054565b600080546001600160a01b0319166001600160a01b0392909216919091179055610084565b60006020828403121561006657600080fd5b81516001600160a01b038116811461007d57600080fd5b9392505050565b610288806100936000396000f3fe608060405234801561001057600080fd5b50600436106100365760003560e01c8063321c6aea1461003b578063c6ee427f14610050575b600080fd5b61004e61004936600461020f565b610098565b005b61007c61005e3660046101ed565b60ff166000908152600160205260409020546001600160a01b031690565b6040516001600160a01b03909116815260200160405180910390f35b60ff82166100ed5760405162461bcd60e51b815260206004820152601860248201527f52654e46543a3a63616e74207365742073656e74696e656c000000000000000060448201526064015b60405180910390fd5b60ff82166000908152600160205260409020546001600160a01b0316156101565760405162461bcd60e51b815260206004820152601f60248201527f52654e46543a3a63616e6e6f742072657365742074686520616464726573730060448201526064016100e4565b6000546001600160a01b031633146101a45760405162461bcd60e51b81526020600482015260116024820152702932a7232a1d1d37b7363c9030b236b4b760791b60448201526064016100e4565b60ff91909116600090815260016020526040902080546001600160a01b0319166001600160a01b03909216919091179055565b803560ff811681146101e857600080fd5b919050565b6000602082840312156101ff57600080fd5b610208826101d7565b9392505050565b6000806040838503121561022257600080fd5b61022b836101d7565b915060208301356001600160a01b038116811461024757600080fd5b80915050925092905056fea2646970667358221220adc5e6f7600e9eb9801ee5d09d61ab440e7352b921703e859ec1895d31b694ca64736f6c63430008060033",
  "devdoc": {
    "kind": "dev",
    "methods": {},
    "version": 1
  },
  "userdoc": {
    "kind": "user",
    "methods": {},
    "version": 1
  },
  "storageLayout": {
    "storage": [
      {
        "astId": 6515,
        "contract": "src/Resolver.sol:Resolver",
        "label": "admin",
        "offset": 0,
        "slot": "0",
        "type": "t_address"
      },
      {
        "astId": 6519,
        "contract": "src/Resolver.sol:Resolver",
        "label": "addresses",
        "offset": 0,
        "slot": "1",
        "type": "t_mapping(t_uint8,t_address)"
      }
    ],
    "types": {
      "t_address": {
        "encoding": "inplace",
        "label": "address",
        "numberOfBytes": "20"
      },
      "t_mapping(t_uint8,t_address)": {
        "encoding": "mapping",
        "key": "t_uint8",
        "label": "mapping(uint8 => address)",
        "numberOfBytes": "32",
        "value": "t_address"
      },
      "t_uint8": {
        "encoding": "inplace",
        "label": "uint8",
        "numberOfBytes": "1"
      }
    }
  }
}