{
  "address": "0xbf475983f159CAdDF32647D24cBC65Eb757Af938",
  "abi": [
    {
      "inputs": [
        {
          "internalType": "address payable",
          "name": "bigBoi",
          "type": "address"
        }
      ],
      "stateMutability": "nonpayable",
      "type": "constructor"
    },
    {
      "anonymous": false,
      "inputs": [
        {
          "indexed": true,
          "internalType": "address",
          "name": "owner",
          "type": "address"
        },
        {
          "indexed": true,
          "internalType": "address",
          "name": "spender",
          "type": "address"
        },
        {
          "indexed": false,
          "internalType": "uint256",
          "name": "value",
          "type": "uint256"
        }
      ],
      "name": "Approval",
      "type": "event"
    },
    {
      "anonymous": false,
      "inputs": [
        {
          "indexed": true,
          "internalType": "address",
          "name": "from",
          "type": "address"
        },
        {
          "indexed": true,
          "internalType": "address",
          "name": "to",
          "type": "address"
        },
        {
          "indexed": false,
          "internalType": "uint256",
          "name": "value",
          "type": "uint256"
        }
      ],
      "name": "Transfer",
      "type": "event"
    },
    {
      "inputs": [
        {
          "internalType": "address",
          "name": "owner",
          "type": "address"
        },
        {
          "internalType": "address",
          "name": "spender",
          "type": "address"
        }
      ],
      "name": "allowance",
      "outputs": [
        {
          "internalType": "uint256",
          "name": "",
          "type": "uint256"
        }
      ],
      "stateMutability": "view",
      "type": "function"
    },
    {
      "inputs": [
        {
          "internalType": "address",
          "name": "spender",
          "type": "address"
        },
        {
          "internalType": "uint256",
          "name": "amount",
          "type": "uint256"
        }
      ],
      "name": "approve",
      "outputs": [
        {
          "internalType": "bool",
          "name": "",
          "type": "bool"
        }
      ],
      "stateMutability": "nonpayable",
      "type": "function"
    },
    {
      "inputs": [
        {
          "internalType": "address",
          "name": "account",
          "type": "address"
        }
      ],
      "name": "balanceOf",
      "outputs": [
        {
          "internalType": "uint256",
          "name": "",
          "type": "uint256"
        }
      ],
      "stateMutability": "view",
      "type": "function"
    },
    {
      "inputs": [],
      "name": "decimals",
      "outputs": [
        {
          "internalType": "uint8",
          "name": "",
          "type": "uint8"
        }
      ],
      "stateMutability": "view",
      "type": "function"
    },
    {
      "inputs": [
        {
          "internalType": "address",
          "name": "spender",
          "type": "address"
        },
        {
          "internalType": "uint256",
          "name": "subtractedValue",
          "type": "uint256"
        }
      ],
      "name": "decreaseAllowance",
      "outputs": [
        {
          "internalType": "bool",
          "name": "",
          "type": "bool"
        }
      ],
      "stateMutability": "nonpayable",
      "type": "function"
    },
    {
      "inputs": [],
      "name": "faucet",
      "outputs": [],
      "stateMutability": "nonpayable",
      "type": "function"
    },
    {
      "inputs": [
        {
          "internalType": "address",
          "name": "spender",
          "type": "address"
        },
        {
          "internalType": "uint256",
          "name": "addedValue",
          "type": "uint256"
        }
      ],
      "name": "increaseAllowance",
      "outputs": [
        {
          "internalType": "bool",
          "name": "",
          "type": "bool"
        }
      ],
      "stateMutability": "nonpayable",
      "type": "function"
    },
    {
      "inputs": [],
      "name": "name",
      "outputs": [
        {
          "internalType": "string",
          "name": "",
          "type": "string"
        }
      ],
      "stateMutability": "view",
      "type": "function"
    },
    {
      "inputs": [],
      "name": "symbol",
      "outputs": [
        {
          "internalType": "string",
          "name": "",
          "type": "string"
        }
      ],
      "stateMutability": "view",
      "type": "function"
    },
    {
      "inputs": [],
      "name": "totalSupply",
      "outputs": [
        {
          "internalType": "uint256",
          "name": "",
          "type": "uint256"
        }
      ],
      "stateMutability": "view",
      "type": "function"
    },
    {
      "inputs": [
        {
          "internalType": "address",
          "name": "recipient",
          "type": "address"
        },
        {
          "internalType": "uint256",
          "name": "amount",
          "type": "uint256"
        }
      ],
      "name": "transfer",
      "outputs": [
        {
          "internalType": "bool",
          "name": "",
          "type": "bool"
        }
      ],
      "stateMutability": "nonpayable",
      "type": "function"
    },
    {
      "inputs": [
        {
          "internalType": "address",
          "name": "sender",
          "type": "address"
        },
        {
          "internalType": "address",
          "name": "recipient",
          "type": "address"
        },
        {
          "internalType": "uint256",
          "name": "amount",
          "type": "uint256"
        }
      ],
      "name": "transferFrom",
      "outputs": [
        {
          "internalType": "bool",
          "name": "",
          "type": "bool"
        }
      ],
      "stateMutability": "nonpayable",
      "type": "function"
    }
  ],
  "transactionHash": "0x572ad1e3227aacfafb2811c650e309e100144218a645ae6bfb7f4a7b51486c3a",
  "args": [
    "0x4F8645e873Af2355afD7E971736D6056c1758aBF"
  ],
  "solcInputHash": "83cc30e9192a43402c9328dfcc027bb0",
  "bytecode": "0x60806040523480156200001157600080fd5b5060405162000f5b38038062000f5b833981016040819052620000349162000232565b6040805180820182526004808252635553444360e01b60208084018281528551808701909652928552840152815191929162000073916003916200018c565b508051620000899060049060208401906200018c565b505050620000ac816d314dc6448d9338c15b0a00000000620000b360201b60201c565b5062000304565b6001600160a01b038216620000e55760405162461bcd60e51b8152600401620000dc9062000262565b60405180910390fd5b620000f36000838362000187565b8060026000828254620001079190620002a2565b90915550506001600160a01b0382166000908152602081905260408120805483929062000136908490620002a2565b90915550506040516001600160a01b038316906000907fddf252ad1be2c89b69c2b068fc378daa952ba7f163c4a11628f55a4df523b3ef906200017b90859062000299565b60405180910390a35050565b505050565b8280546200019a90620002c7565b90600052602060002090601f016020900481019282620001be576000855562000209565b82601f10620001d957805160ff191683800117855562000209565b8280016001018555821562000209579182015b8281111562000209578251825591602001919060010190620001ec565b50620002179291506200021b565b5090565b5b808211156200021757600081556001016200021c565b60006020828403121562000244578081fd5b81516001600160a01b03811681146200025b578182fd5b9392505050565b6020808252601f908201527f45524332303a206d696e7420746f20746865207a65726f206164647265737300604082015260600190565b90815260200190565b60008219821115620002c257634e487b7160e01b81526011600452602481fd5b500190565b600281046001821680620002dc57607f821691505b60208210811415620002fe57634e487b7160e01b600052602260045260246000fd5b50919050565b610c4780620003146000396000f3fe608060405234801561001057600080fd5b50600436106100b45760003560e01c806370a082311161007157806370a082311461014757806395d89b411461015a578063a457c2d714610162578063a9059cbb14610175578063dd62ed3e14610188578063de5f72fd1461019b576100b4565b806306fdde03146100b9578063095ea7b3146100d757806318160ddd146100f757806323b872dd1461010c578063313ce5671461011f5780633950935114610134575b600080fd5b6100c16101a5565b6040516100ce91906107d9565b60405180910390f35b6100ea6100e53660046107a5565b610237565b6040516100ce91906107ce565b6100ff610254565b6040516100ce9190610a44565b6100ea61011a36600461076a565b61025a565b6101276102fc565b6040516100ce9190610a4d565b6100ea6101423660046107a5565b610301565b6100ff61015536600461071e565b610350565b6100c161036f565b6100ea6101703660046107a5565b61037e565b6100ea6101833660046107a5565b6103f9565b6100ff610196366004610738565b61040d565b6101a3610438565b005b6060600380546101b490610bc0565b80601f01602080910402602001604051908101604052809291908181526020018280546101e090610bc0565b801561022d5780601f106102025761010080835404028352916020019161022d565b820191906000526020600020905b81548152906001019060200180831161021057829003601f168201915b5050505050905090565b600061024b610244610462565b8484610466565b50600192915050565b60025490565b600061026784848461051a565b6001600160a01b038416600090815260016020526040812081610288610462565b6001600160a01b03166001600160a01b03168152602001908152602001600020549050828110156102d45760405162461bcd60e51b81526004016102cb906108f7565b60405180910390fd5b6102ef856102e0610462565b6102ea8685610ba9565b610466565b60019150505b9392505050565b600690565b600061024b61030e610462565b84846001600061031c610462565b6001600160a01b03908116825260208083019390935260409182016000908120918b16815292529020546102ea9190610a5b565b6001600160a01b0381166000908152602081905260409020545b919050565b6060600480546101b490610bc0565b6000806001600061038d610462565b6001600160a01b03908116825260208083019390935260409182016000908120918816815292529020549050828110156103d95760405162461bcd60e51b81526004016102cb906109c8565b6103ef6103e4610462565b856102ea8685610ba9565b5060019392505050565b600061024b610406610462565b848461051a565b6001600160a01b03918216600090815260016020908152604080832093909416825291909152205490565b610460336104446102fc565b61044f90600a610ab9565b61045b906103e8610b8a565b610642565b565b3390565b6001600160a01b03831661048c5760405162461bcd60e51b81526004016102cb90610984565b6001600160a01b0382166104b25760405162461bcd60e51b81526004016102cb9061086f565b6001600160a01b0380841660008181526001602090815260408083209487168084529490915290819020849055517f8c5be1e5ebec7d5bd14f71427d1e84f3dd0314c0f7b2291e5b200ac8c7c3b9259061050d908590610a44565b60405180910390a3505050565b6001600160a01b0383166105405760405162461bcd60e51b81526004016102cb9061093f565b6001600160a01b0382166105665760405162461bcd60e51b81526004016102cb9061082c565b610571838383610702565b6001600160a01b038316600090815260208190526040902054818110156105aa5760405162461bcd60e51b81526004016102cb906108b1565b6105b48282610ba9565b6001600160a01b0380861660009081526020819052604080822093909355908516815290812080548492906105ea908490610a5b565b92505081905550826001600160a01b0316846001600160a01b03167fddf252ad1be2c89b69c2b068fc378daa952ba7f163c4a11628f55a4df523b3ef846040516106349190610a44565b60405180910390a350505050565b6001600160a01b0382166106685760405162461bcd60e51b81526004016102cb90610a0d565b61067460008383610702565b80600260008282546106869190610a5b565b90915550506001600160a01b038216600090815260208190526040812080548392906106b3908490610a5b565b90915550506040516001600160a01b038316906000907fddf252ad1be2c89b69c2b068fc378daa952ba7f163c4a11628f55a4df523b3ef906106f6908590610a44565b60405180910390a35050565b505050565b80356001600160a01b038116811461036a57600080fd5b60006020828403121561072f578081fd5b6102f582610707565b6000806040838503121561074a578081fd5b61075383610707565b915061076160208401610707565b90509250929050565b60008060006060848603121561077e578081fd5b61078784610707565b925061079560208501610707565b9150604084013590509250925092565b600080604083850312156107b7578182fd5b6107c083610707565b946020939093013593505050565b901515815260200190565b6000602080835283518082850152825b81811015610805578581018301518582016040015282016107e9565b818111156108165783604083870101525b50601f01601f1916929092016040019392505050565b60208082526023908201527f45524332303a207472616e7366657220746f20746865207a65726f206164647260408201526265737360e81b606082015260800190565b60208082526022908201527f45524332303a20617070726f766520746f20746865207a65726f206164647265604082015261737360f01b606082015260800190565b60208082526026908201527f45524332303a207472616e7366657220616d6f756e7420657863656564732062604082015265616c616e636560d01b606082015260800190565b60208082526028908201527f45524332303a207472616e7366657220616d6f756e74206578636565647320616040820152676c6c6f77616e636560c01b606082015260800190565b60208082526025908201527f45524332303a207472616e736665722066726f6d20746865207a65726f206164604082015264647265737360d81b606082015260800190565b60208082526024908201527f45524332303a20617070726f76652066726f6d20746865207a65726f206164646040820152637265737360e01b606082015260800190565b60208082526025908201527f45524332303a2064656372656173656420616c6c6f77616e63652062656c6f77604082015264207a65726f60d81b606082015260800190565b6020808252601f908201527f45524332303a206d696e7420746f20746865207a65726f206164647265737300604082015260600190565b90815260200190565b60ff91909116815260200190565b60008219821115610a6e57610a6e610bfb565b500190565b80825b6001808611610a855750610ab0565b818704821115610a9757610a97610bfb565b80861615610aa457918102915b9490941c938002610a76565b94509492505050565b60006102f560001960ff851684600082610ad5575060016102f5565b81610ae2575060006102f5565b8160018114610af85760028114610b0257610b2f565b60019150506102f5565b60ff841115610b1357610b13610bfb565b6001841b915084821115610b2957610b29610bfb565b506102f5565b5060208310610133831016604e8410600b8410161715610b62575081810a83811115610b5d57610b5d610bfb565b6102f5565b610b6f8484846001610a73565b808604821115610b8157610b81610bfb565b02949350505050565b6000816000190483118215151615610ba457610ba4610bfb565b500290565b600082821015610bbb57610bbb610bfb565b500390565b600281046001821680610bd457607f821691505b60208210811415610bf557634e487b7160e01b600052602260045260246000fd5b50919050565b634e487b7160e01b600052601160045260246000fdfea2646970667358221220a4b0438f5603c4a66a19574273c15d6b092ff0457813ff49921ea50f951d43fa64736f6c63430008000033",
  "devdoc": {
    "kind": "dev",
    "methods": {
      "allowance(address,address)": {
        "details": "See {IERC20-allowance}."
      },
      "approve(address,uint256)": {
        "details": "See {IERC20-approve}. Requirements: - `spender` cannot be the zero address."
      },
      "balanceOf(address)": {
        "details": "See {IERC20-balanceOf}."
      },
      "decimals()": {
        "details": "Returns the number of decimals used to get its user representation. For example, if `decimals` equals `2`, a balance of `505` tokens should be displayed to a user as `5,05` (`505 / 10 ** 2`). Tokens usually opt for a value of 18, imitating the relationship between Ether and Wei. This is the value {ERC20} uses, unless this function is overloaded; NOTE: This information is only used for _display_ purposes: it in no way affects any of the arithmetic of the contract, including {IERC20-balanceOf} and {IERC20-transfer}."
      },
      "decreaseAllowance(address,uint256)": {
        "details": "Atomically decreases the allowance granted to `spender` by the caller. This is an alternative to {approve} that can be used as a mitigation for problems described in {IERC20-approve}. Emits an {Approval} event indicating the updated allowance. Requirements: - `spender` cannot be the zero address. - `spender` must have allowance for the caller of at least `subtractedValue`."
      },
      "increaseAllowance(address,uint256)": {
        "details": "Atomically increases the allowance granted to `spender` by the caller. This is an alternative to {approve} that can be used as a mitigation for problems described in {IERC20-approve}. Emits an {Approval} event indicating the updated allowance. Requirements: - `spender` cannot be the zero address."
      },
      "name()": {
        "details": "Returns the name of the token."
      },
      "symbol()": {
        "details": "Returns the symbol of the token, usually a shorter version of the name."
      },
      "totalSupply()": {
        "details": "See {IERC20-totalSupply}."
      },
      "transfer(address,uint256)": {
        "details": "See {IERC20-transfer}. Requirements: - `recipient` cannot be the zero address. - the caller must have a balance of at least `amount`."
      },
      "transferFrom(address,address,uint256)": {
        "details": "See {IERC20-transferFrom}. Emits an {Approval} event indicating the updated allowance. This is not required by the EIP. See the note at the beginning of {ERC20}. Requirements: - `sender` and `recipient` cannot be the zero address. - `sender` must have a balance of at least `amount`. - the caller must have allowance for ``sender``'s tokens of at least `amount`."
      }
    },
    "version": 1
  },
  "userdoc": {
    "kind": "user",
    "methods": {},
    "version": 1
  },
  "storageLayout": {
    "storage": [
      {
        "astId": 1333,
        "contract": "src/Test/USDC.sol:USDC",
        "label": "_balances",
        "offset": 0,
        "slot": "0",
        "type": "t_mapping(t_address,t_uint256)"
      },
      {
        "astId": 1339,
        "contract": "src/Test/USDC.sol:USDC",
        "label": "_allowances",
        "offset": 0,
        "slot": "1",
        "type": "t_mapping(t_address,t_mapping(t_address,t_uint256))"
      },
      {
        "astId": 1341,
        "contract": "src/Test/USDC.sol:USDC",
        "label": "_totalSupply",
        "offset": 0,
        "slot": "2",
        "type": "t_uint256"
      },
      {
        "astId": 1343,
        "contract": "src/Test/USDC.sol:USDC",
        "label": "_name",
        "offset": 0,
        "slot": "3",
        "type": "t_string_storage"
      },
      {
        "astId": 1345,
        "contract": "src/Test/USDC.sol:USDC",
        "label": "_symbol",
        "offset": 0,
        "slot": "4",
        "type": "t_string_storage"
      }
    ],
    "types": {
      "t_address": {
        "encoding": "inplace",
        "label": "address",
        "numberOfBytes": "20"
      },
      "t_mapping(t_address,t_mapping(t_address,t_uint256))": {
        "encoding": "mapping",
        "key": "t_address",
        "label": "mapping(address => mapping(address => uint256))",
        "numberOfBytes": "32",
        "value": "t_mapping(t_address,t_uint256)"
      },
      "t_mapping(t_address,t_uint256)": {
        "encoding": "mapping",
        "key": "t_address",
        "label": "mapping(address => uint256)",
        "numberOfBytes": "32",
        "value": "t_uint256"
      },
      "t_string_storage": {
        "encoding": "bytes",
        "label": "string",
        "numberOfBytes": "32"
      },
      "t_uint256": {
        "encoding": "inplace",
        "label": "uint256",
        "numberOfBytes": "32"
      }
    }
  }
}