{
  "address": "0xC97A38Bce90cF481AabFbF36964874eB6f9F2B0e",
  "abi": [
    {
      "inputs": [],
      "stateMutability": "nonpayable",
      "type": "constructor"
    },
    {
      "anonymous": false,
      "inputs": [
        {
          "indexed": true,
          "internalType": "address",
          "name": "owner",
          "type": "address"
        },
        {
          "indexed": true,
          "internalType": "address",
          "name": "approved",
          "type": "address"
        },
        {
          "indexed": true,
          "internalType": "uint256",
          "name": "tokenId",
          "type": "uint256"
        }
      ],
      "name": "Approval",
      "type": "event"
    },
    {
      "anonymous": false,
      "inputs": [
        {
          "indexed": true,
          "internalType": "address",
          "name": "owner",
          "type": "address"
        },
        {
          "indexed": true,
          "internalType": "address",
          "name": "operator",
          "type": "address"
        },
        {
          "indexed": false,
          "internalType": "bool",
          "name": "approved",
          "type": "bool"
        }
      ],
      "name": "ApprovalForAll",
      "type": "event"
    },
    {
      "anonymous": false,
      "inputs": [
        {
          "indexed": true,
          "internalType": "address",
          "name": "owner",
          "type": "address"
        },
        {
          "indexed": true,
          "internalType": "uint256",
          "name": "tokenId",
          "type": "uint256"
        },
        {
          "indexed": false,
          "internalType": "string",
          "name": "tokenURI",
          "type": "string"
        }
      ],
      "name": "NewFace",
      "type": "event"
    },
    {
      "anonymous": false,
      "inputs": [
        {
          "indexed": true,
          "internalType": "address",
          "name": "from",
          "type": "address"
        },
        {
          "indexed": true,
          "internalType": "address",
          "name": "to",
          "type": "address"
        },
        {
          "indexed": true,
          "internalType": "uint256",
          "name": "tokenId",
          "type": "uint256"
        }
      ],
      "name": "Transfer",
      "type": "event"
    },
    {
      "inputs": [
        {
          "internalType": "address",
          "name": "to",
          "type": "address"
        },
        {
          "internalType": "uint256",
          "name": "tokenId",
          "type": "uint256"
        }
      ],
      "name": "approve",
      "outputs": [],
      "stateMutability": "nonpayable",
      "type": "function"
    },
    {
      "inputs": [],
      "name": "award",
      "outputs": [
        {
          "internalType": "uint256",
          "name": "",
          "type": "uint256"
        }
      ],
      "stateMutability": "nonpayable",
      "type": "function"
    },
    {
      "inputs": [
        {
          "internalType": "address",
          "name": "owner",
          "type": "address"
        }
      ],
      "name": "balanceOf",
      "outputs": [
        {
          "internalType": "uint256",
          "name": "",
          "type": "uint256"
        }
      ],
      "stateMutability": "view",
      "type": "function"
    },
    {
      "inputs": [],
      "name": "baseURI",
      "outputs": [
        {
          "internalType": "string",
          "name": "",
          "type": "string"
        }
      ],
      "stateMutability": "view",
      "type": "function"
    },
    {
      "inputs": [
        {
          "internalType": "uint256",
          "name": "tokenId",
          "type": "uint256"
        }
      ],
      "name": "getApproved",
      "outputs": [
        {
          "internalType": "address",
          "name": "",
          "type": "address"
        }
      ],
      "stateMutability": "view",
      "type": "function"
    },
    {
      "inputs": [
        {
          "internalType": "address",
          "name": "owner",
          "type": "address"
        },
        {
          "internalType": "address",
          "name": "operator",
          "type": "address"
        }
      ],
      "name": "isApprovedForAll",
      "outputs": [
        {
          "internalType": "bool",
          "name": "",
          "type": "bool"
        }
      ],
      "stateMutability": "view",
      "type": "function"
    },
    {
      "inputs": [],
      "name": "name",
      "outputs": [
        {
          "internalType": "string",
          "name": "",
          "type": "string"
        }
      ],
      "stateMutability": "view",
      "type": "function"
    },
    {
      "inputs": [
        {
          "internalType": "uint256",
          "name": "tokenId",
          "type": "uint256"
        }
      ],
      "name": "ownerOf",
      "outputs": [
        {
          "internalType": "address",
          "name": "",
          "type": "address"
        }
      ],
      "stateMutability": "view",
      "type": "function"
    },
    {
      "inputs": [
        {
          "internalType": "address",
          "name": "from",
          "type": "address"
        },
        {
          "internalType": "address",
          "name": "to",
          "type": "address"
        },
        {
          "internalType": "uint256",
          "name": "tokenId",
          "type": "uint256"
        }
      ],
      "name": "safeTransferFrom",
      "outputs": [],
      "stateMutability": "nonpayable",
      "type": "function"
    },
    {
      "inputs": [
        {
          "internalType": "address",
          "name": "from",
          "type": "address"
        },
        {
          "internalType": "address",
          "name": "to",
          "type": "address"
        },
        {
          "internalType": "uint256",
          "name": "tokenId",
          "type": "uint256"
        },
        {
          "internalType": "bytes",
          "name": "_data",
          "type": "bytes"
        }
      ],
      "name": "safeTransferFrom",
      "outputs": [],
      "stateMutability": "nonpayable",
      "type": "function"
    },
    {
      "inputs": [
        {
          "internalType": "address",
          "name": "operator",
          "type": "address"
        },
        {
          "internalType": "bool",
          "name": "approved",
          "type": "bool"
        }
      ],
      "name": "setApprovalForAll",
      "outputs": [],
      "stateMutability": "nonpayable",
      "type": "function"
    },
    {
      "inputs": [
        {
          "internalType": "bytes4",
          "name": "interfaceId",
          "type": "bytes4"
        }
      ],
      "name": "supportsInterface",
      "outputs": [
        {
          "internalType": "bool",
          "name": "",
          "type": "bool"
        }
      ],
      "stateMutability": "view",
      "type": "function"
    },
    {
      "inputs": [],
      "name": "symbol",
      "outputs": [
        {
          "internalType": "string",
          "name": "",
          "type": "string"
        }
      ],
      "stateMutability": "view",
      "type": "function"
    },
    {
      "inputs": [
        {
          "internalType": "uint256",
          "name": "index",
          "type": "uint256"
        }
      ],
      "name": "tokenByIndex",
      "outputs": [
        {
          "internalType": "uint256",
          "name": "",
          "type": "uint256"
        }
      ],
      "stateMutability": "view",
      "type": "function"
    },
    {
      "inputs": [
        {
          "internalType": "address",
          "name": "owner",
          "type": "address"
        },
        {
          "internalType": "uint256",
          "name": "index",
          "type": "uint256"
        }
      ],
      "name": "tokenOfOwnerByIndex",
      "outputs": [
        {
          "internalType": "uint256",
          "name": "",
          "type": "uint256"
        }
      ],
      "stateMutability": "view",
      "type": "function"
    },
    {
      "inputs": [
        {
          "internalType": "uint256",
          "name": "tokenId",
          "type": "uint256"
        }
      ],
      "name": "tokenURI",
      "outputs": [
        {
          "internalType": "string",
          "name": "",
          "type": "string"
        }
      ],
      "stateMutability": "view",
      "type": "function"
    },
    {
      "inputs": [],
      "name": "totalSupply",
      "outputs": [
        {
          "internalType": "uint256",
          "name": "",
          "type": "uint256"
        }
      ],
      "stateMutability": "view",
      "type": "function"
    },
    {
      "inputs": [
        {
          "internalType": "address",
          "name": "from",
          "type": "address"
        },
        {
          "internalType": "address",
          "name": "to",
          "type": "address"
        },
        {
          "internalType": "uint256",
          "name": "tokenId",
          "type": "uint256"
        }
      ],
      "name": "transferFrom",
      "outputs": [],
      "stateMutability": "nonpayable",
      "type": "function"
    }
  ],
  "transactionHash": "0x0bb8656e2591917069c4fd74ab757419647f28e805c9a887641d15996b621d50",
  "args": [],
  "solcInputHash": "1f5e1ad626c9bad5c0c78c8e17fc4986",
  "bytecode": "0x61022060405260256101c0818152608091829190620023136101e0398152602001604051806060016040528060258152602001620022386025913981526020016040518060600160405280602581526020016200225d60259139815260200160405180606001604052806025815260200162002282602591398152602001604051806060016040528060258152602001620022ca6025913981526020016040518060400160405280601b81526020017f68747470733a2f2f726f70652e6c6f6c2f6170692f524d552f3531000000000081525081526020016040518060400160405280601b81526020017f68747470733a2f2f726f70652e6c6f6c2f6170692f524d552f353200000000008152508152602001604051806060016040528060238152602001620022a7602391398152602001604051806060016040528060248152602001620022ef602491398152602001604051806060016040528060238152602001620022156023913990526200017c90600b90600a620002c4565b503480156200018a57600080fd5b50604080518082018252600781526647414e4641434560c81b6020808301919091528251808401909352600283526123a360f11b9083015290620001d56301ffc9a760e01b6200023f565b8151620001ea90600690602085019062000328565b5080516200020090600790602084019062000328565b50620002136380ac58cd60e01b6200023f565b62000225635b5e139f60e01b6200023f565b6200023763780e9d6360e01b6200023f565b50506200043c565b6001600160e01b031980821614156200029f576040805162461bcd60e51b815260206004820152601c60248201527f4552433136353a20696e76616c696420696e7465726661636520696400000000604482015290519081900360640190fd5b6001600160e01b0319166000908152602081905260409020805460ff19166001179055565b82805482825590600052602060002090810192821562000316579160200282015b828111156200031657825180516200030591849160209091019062000328565b5091602001919060010190620002e5565b5062000324929150620003b9565b5090565b828054600181600116156101000203166002900490600052602060002090601f016020900481019282620003605760008555620003ab565b82601f106200037b57805160ff1916838001178555620003ab565b82800160010185558215620003ab579182015b82811115620003ab5782518255916020019190600101906200038e565b5062000324929150620003da565b8082111562000324576000620003d08282620003f1565b50600101620003b9565b5b80821115620003245760008155600101620003db565b50805460018160011615610100020316600290046000825580601f1062000419575062000439565b601f016020900490600052602060002090810190620004399190620003da565b50565b611dc9806200044c6000396000f3fe608060405234801561001057600080fd5b50600436106101165760003560e01c80634f6ccce7116100a257806395d89b411161007157806395d89b411461035c578063a22cb46514610364578063b88d4fde14610392578063c87b56dd14610458578063e985e9c51461047557610116565b80634f6ccce7146102f45780636352211e146103115780636c0360eb1461032e57806370a082311461033657610116565b806318160ddd116100e957806318160ddd1461023a57806323b872dd146102545780632f745c591461028a57806341a494c5146102b657806342842e0e146102be57610116565b806301ffc9a71461011b57806306fdde0314610156578063081812fc146101d3578063095ea7b31461020c575b600080fd5b6101426004803603602081101561013157600080fd5b50356001600160e01b0319166104a3565b604080519115158252519081900360200190f35b61015e6104c6565b6040805160208082528351818301528351919283929083019185019080838360005b83811015610198578181015183820152602001610180565b50505050905090810190601f1680156101c55780820380516001836020036101000a031916815260200191505b509250505060405180910390f35b6101f0600480360360208110156101e957600080fd5b503561055c565b604080516001600160a01b039092168252519081900360200190f35b6102386004803603604081101561022257600080fd5b506001600160a01b0381351690602001356105be565b005b610242610699565b60408051918252519081900360200190f35b6102386004803603606081101561026a57600080fd5b506001600160a01b038135811691602081013590911690604001356106aa565b610242600480360360408110156102a057600080fd5b506001600160a01b038135169060200135610701565b61024261072c565b610238600480360360608110156102d457600080fd5b506001600160a01b038135811691602081013590911690604001356108d0565b6102426004803603602081101561030a57600080fd5b50356108eb565b6101f06004803603602081101561032757600080fd5b5035610901565b61015e610929565b6102426004803603602081101561034c57600080fd5b50356001600160a01b031661098a565b61015e6109f2565b6102386004803603604081101561037a57600080fd5b506001600160a01b0381351690602001351515610a53565b610238600480360360808110156103a857600080fd5b6001600160a01b038235811692602081013590911691604082013591908101906080810160608201356401000000008111156103e357600080fd5b8201836020820111156103f557600080fd5b8035906020019184600183028401116401000000008311171561041757600080fd5b91908080601f016020809104026020016040519081016040528093929190818152602001838380828437600092019190915250929550610b58945050505050565b61015e6004803603602081101561046e57600080fd5b5035610bb6565b6101426004803603604081101561048b57600080fd5b506001600160a01b0381358116916020013516610e5b565b6001600160e01b0319811660009081526020819052604090205460ff165b919050565b60068054604080516020601f60026000196101006001881615020190951694909404938401819004810282018101909252828152606093909290918301828280156105525780601f1061052757610100808354040283529160200191610552565b820191906000526020600020905b81548152906001019060200180831161053557829003601f168201915b5050505050905090565b600061056782610e89565b6105a25760405162461bcd60e51b815260040180806020018281038252602c815260200180611c92602c913960400191505060405180910390fd5b506000908152600460205260409020546001600160a01b031690565b60006105c982610901565b9050806001600160a01b0316836001600160a01b0316141561061c5760405162461bcd60e51b8152600401808060200182810382526021815260200180611d426021913960400191505060405180910390fd5b806001600160a01b031661062e610e96565b6001600160a01b0316148061064f575061064f8161064a610e96565b610e5b565b61068a5760405162461bcd60e51b8152600401808060200182810382526038815260200180611be56038913960400191505060405180910390fd5b6106948383610e9a565b505050565b60006106a56002610f08565b905090565b6106bb6106b5610e96565b82610f13565b6106f65760405162461bcd60e51b8152600401808060200182810382526031815260200180611d636031913960400191505060405180910390fd5b610694838383610fb7565b6001600160a01b03821660009081526001602052604081206107239083611103565b90505b92915050565b600a80546001019081905560009061074590339061110f565b6107f5600a54600b6001600a54038154811061075d57fe5b600091825260209182902001805460408051601f60026000196101006001871615020190941693909304928301859004850281018501909152818152928301828280156107eb5780601f106107c0576101008083540402835291602001916107eb565b820191906000526020600020905b8154815290600101906020018083116107ce57829003601f168201915b505050505061123d565b600a54336001600160a01b03167fe946aa7f1f02aed1d087cbb92828ad4da10b38583ba0ad581a850cb92ed75f2b600b6001600a54038154811061083557fe5b60009182526020918290206040805184815292909101805460026001821615610100026000190190911604938301849052928291820190849080156108bb5780601f10610890576101008083540402835291602001916108bb565b820191906000526020600020905b81548152906001019060200180831161089e57829003601f168201915b50509250505060405180910390a350600a5490565b61069483838360405180602001604052806000815250610b58565b6000806108f96002846112a0565b509392505050565b600061072682604051806060016040528060298152602001611c4760299139600291906112bc565b60098054604080516020601f60026000196101006001881615020190951694909404938401819004810282018101909252828152606093909290918301828280156105525780601f1061052757610100808354040283529160200191610552565b60006001600160a01b0382166109d15760405162461bcd60e51b815260040180806020018281038252602a815260200180611c1d602a913960400191505060405180910390fd5b6001600160a01b038216600090815260016020526040902061072690610f08565b60078054604080516020601f60026000196101006001881615020190951694909404938401819004810282018101909252828152606093909290918301828280156105525780601f1061052757610100808354040283529160200191610552565b610a5b610e96565b6001600160a01b0316826001600160a01b03161415610ac1576040805162461bcd60e51b815260206004820152601960248201527f4552433732313a20617070726f766520746f2063616c6c657200000000000000604482015290519081900360640190fd5b8060056000610ace610e96565b6001600160a01b03908116825260208083019390935260409182016000908120918716808252919093529120805460ff191692151592909217909155610b12610e96565b6001600160a01b03167f17307eab39ab6107e8899845ad3d59bd9653f200f220920489ca2b5937696c318360405180821515815260200191505060405180910390a35050565b610b69610b63610e96565b83610f13565b610ba45760405162461bcd60e51b8152600401808060200182810382526031815260200180611d636031913960400191505060405180910390fd5b610bb0848484846112d3565b50505050565b6060610bc182610e89565b610bfc5760405162461bcd60e51b815260040180806020018281038252602f815260200180611d13602f913960400191505060405180910390fd5b60008281526008602090815260408083208054825160026001831615610100026000190190921691909104601f810185900485028201850190935282815292909190830182828015610c8f5780601f10610c6457610100808354040283529160200191610c8f565b820191906000526020600020905b815481529060010190602001808311610c7257829003601f168201915b505060095493945050505060026000196101006001841615020190911604610cb85790506104c1565b805115610d89576009816040516020018083805460018160011615610100020316600290048015610d205780601f10610cfe576101008083540402835291820191610d20565b820191906000526020600020905b815481529060010190602001808311610d0c575b5050825160208401908083835b60208310610d4c5780518252601f199092019160209182019101610d2d565b6001836020036101000a038019825116818451168082178552505050505050905001925050506040516020818303038152906040529150506104c1565b6009610d9484611325565b6040516020018083805460018160011615610100020316600290048015610df25780601f10610dd0576101008083540402835291820191610df2565b820191906000526020600020905b815481529060010190602001808311610dde575b5050825160208401908083835b60208310610e1e5780518252601f199092019160209182019101610dff565b6001836020036101000a03801982511681845116808217855250505050505090500192505050604051602081830303815290604052915050919050565b6001600160a01b03918216600090815260056020908152604080832093909416825291909152205460ff1690565b6000610726600283611400565b3390565b600081815260046020526040902080546001600160a01b0319166001600160a01b0384169081179091558190610ecf82610901565b6001600160a01b03167f8c5be1e5ebec7d5bd14f71427d1e84f3dd0314c0f7b2291e5b200ac8c7c3b92560405160405180910390a45050565b60006107268261140c565b6000610f1e82610e89565b610f595760405162461bcd60e51b815260040180806020018281038252602c815260200180611bb9602c913960400191505060405180910390fd5b6000610f6483610901565b9050806001600160a01b0316846001600160a01b03161480610f9f5750836001600160a01b0316610f948461055c565b6001600160a01b0316145b80610faf5750610faf8185610e5b565b949350505050565b826001600160a01b0316610fca82610901565b6001600160a01b03161461100f5760405162461bcd60e51b8152600401808060200182810382526029815260200180611cea6029913960400191505060405180910390fd5b6001600160a01b0382166110545760405162461bcd60e51b8152600401808060200182810382526024815260200180611b956024913960400191505060405180910390fd5b61105f838383610694565b61106a600082610e9a565b6001600160a01b038316600090815260016020526040902061108c9082611410565b506001600160a01b03821660009081526001602052604090206110af908261141c565b506110bc60028284611428565b5080826001600160a01b0316846001600160a01b03167fddf252ad1be2c89b69c2b068fc378daa952ba7f163c4a11628f55a4df523b3ef60405160405180910390a4505050565b6000610723838361143e565b6001600160a01b03821661116a576040805162461bcd60e51b815260206004820181905260248201527f4552433732313a206d696e7420746f20746865207a65726f2061646472657373604482015290519081900360640190fd5b61117381610e89565b156111c5576040805162461bcd60e51b815260206004820152601c60248201527f4552433732313a20746f6b656e20616c7265616479206d696e74656400000000604482015290519081900360640190fd5b6111d160008383610694565b6001600160a01b03821660009081526001602052604090206111f3908261141c565b5061120060028284611428565b5060405181906001600160a01b038416906000907fddf252ad1be2c89b69c2b068fc378daa952ba7f163c4a11628f55a4df523b3ef908290a45050565b61124682610e89565b6112815760405162461bcd60e51b815260040180806020018281038252602c815260200180611cbe602c913960400191505060405180910390fd5b6000828152600860209081526040909120825161069492840190611a9f565b60008080806112af86866114a2565b9097909650945050505050565b60006112c984848461151d565b90505b9392505050565b6112de848484610fb7565b6112ea848484846115e7565b610bb05760405162461bcd60e51b8152600401808060200182810382526032815260200180611b636032913960400191505060405180910390fd5b60608161134a57506040805180820190915260018152600360fc1b60208201526104c1565b8160005b811561136257600101600a8204915061134e565b60008167ffffffffffffffff8111801561137b57600080fd5b506040519080825280601f01601f1916602001820160405280156113a6576020820181803683370190505b50859350905060001982015b83156113f757600a840660300160f81b828280600190039350815181106113d557fe5b60200101906001600160f81b031916908160001a905350600a840493506113b2565b50949350505050565b6000610723838361174f565b5490565b60006107238383611767565b6000610723838361182d565b60006112c984846001600160a01b038516611877565b815460009082106114805760405162461bcd60e51b8152600401808060200182810382526022815260200180611b416022913960400191505060405180910390fd5b82600001828154811061148f57fe5b9060005260206000200154905092915050565b8154600090819083106114e65760405162461bcd60e51b8152600401808060200182810382526022815260200180611c706022913960400191505060405180910390fd5b60008460000184815481106114f757fe5b906000526020600020906002020190508060000154816001015492509250509250929050565b600082815260018401602052604081205482816115b85760405162461bcd60e51b81526004018080602001828103825283818151815260200191508051906020019080838360005b8381101561157d578181015183820152602001611565565b50505050905090810190601f1680156115aa5780820380516001836020036101000a031916815260200191505b509250505060405180910390fd5b508460000160018203815481106115cb57fe5b9060005260206000209060020201600101549150509392505050565b60006115fb846001600160a01b031661190e565b61160757506001610faf565b6000611715630a85bd0160e11b61161c610e96565b88878760405160240180856001600160a01b03168152602001846001600160a01b0316815260200183815260200180602001828103825283818151815260200191508051906020019080838360005b8381101561168357818101518382015260200161166b565b50505050905090810190601f1680156116b05780820380516001836020036101000a031916815260200191505b5095505050505050604051602081830303815290604052906001600160e01b0319166020820180516001600160e01b038381831617835250505050604051806060016040528060328152602001611b63603291396001600160a01b0388169190611914565b9050600081806020019051602081101561172e57600080fd5b50516001600160e01b031916630a85bd0160e11b1492505050949350505050565b60009081526001919091016020526040902054151590565b60008181526001830160205260408120548015611823578354600019808301919081019060009087908390811061179a57fe5b90600052602060002001549050808760000184815481106117b757fe5b6000918252602080832090910192909255828152600189810190925260409020908401905586548790806117e757fe5b60019003818190600052602060002001600090559055866001016000878152602001908152602001600020600090556001945050505050610726565b6000915050610726565b6000611839838361174f565b61186f57508154600181810184556000848152602080822090930184905584548482528286019093526040902091909155610726565b506000610726565b6000828152600184016020526040812054806118dc5750506040805180820182528381526020808201848152865460018181018955600089815284812095516002909302909501918255915190820155865486845281880190925292909120556112cc565b828560000160018303815481106118ef57fe5b90600052602060002090600202016001018190555060009150506112cc565b3b151590565b60606112c98484600085856119288561190e565b611979576040805162461bcd60e51b815260206004820152601d60248201527f416464726573733a2063616c6c20746f206e6f6e2d636f6e7472616374000000604482015290519081900360640190fd5b600080866001600160a01b031685876040518082805190602001908083835b602083106119b75780518252601f199092019160209182019101611998565b6001836020036101000a03801982511681845116808217855250505050505090500191505060006040518083038185875af1925050503d8060008114611a19576040519150601f19603f3d011682016040523d82523d6000602084013e611a1e565b606091505b5091509150611a2e828286611a39565b979650505050505050565b60608315611a485750816112cc565b825115611a585782518084602001fd5b60405162461bcd60e51b815260206004820181815284516024840152845185939192839260440191908501908083836000831561157d578181015183820152602001611565565b828054600181600116156101000203166002900490600052602060002090601f016020900481019282611ad55760008555611b1b565b82601f10611aee57805160ff1916838001178555611b1b565b82800160010185558215611b1b579182015b82811115611b1b578251825591602001919060010190611b00565b50611b27929150611b2b565b5090565b5b80821115611b275760008155600101611b2c56fe456e756d657261626c655365743a20696e646578206f7574206f6620626f756e64734552433732313a207472616e7366657220746f206e6f6e20455243373231526563656976657220696d706c656d656e7465724552433732313a207472616e7366657220746f20746865207a65726f20616464726573734552433732313a206f70657261746f7220717565727920666f72206e6f6e6578697374656e7420746f6b656e4552433732313a20617070726f76652063616c6c6572206973206e6f74206f776e6572206e6f7220617070726f76656420666f7220616c6c4552433732313a2062616c616e636520717565727920666f7220746865207a65726f20616464726573734552433732313a206f776e657220717565727920666f72206e6f6e6578697374656e7420746f6b656e456e756d657261626c654d61703a20696e646578206f7574206f6620626f756e64734552433732313a20617070726f76656420717565727920666f72206e6f6e6578697374656e7420746f6b656e4552433732314d657461646174613a2055524920736574206f66206e6f6e6578697374656e7420746f6b656e4552433732313a207472616e73666572206f6620746f6b656e2074686174206973206e6f74206f776e4552433732314d657461646174613a2055524920717565727920666f72206e6f6e6578697374656e7420746f6b656e4552433732313a20617070726f76616c20746f2063757272656e74206f776e65724552433732313a207472616e736665722063616c6c6572206973206e6f74206f776e6572206e6f7220617070726f766564a2646970667358221220026ad015425b0e2f3c8569550afbc4246282654543cd8fe69542418485c4bac764736f6c6343000706003368747470733a2f2f6170692e626363672e6469676974616c2f6170692f626363672f3168747470733a2f2f6e66742e736572766963652e636f6d6574682e696f2f3330303030313568747470733a2f2f6e66742e736572766963652e636f6d6574682e696f2f3630303033323768747470733a2f2f6e66742e736572766963652e636f6d6574682e696f2f3630303033323868747470733a2f2f6170692e626363672e6469676974616c2f6170692f626363672f3968747470733a2f2f6e66742e736572766963652e636f6d6574682e696f2f3630303033323968747470733a2f2f6170692e626363672e6469676974616c2f6170692f626363672f313168747470733a2f2f6e66742e736572766963652e636f6d6574682e696f2f33303030303133",
  "devdoc": {
    "kind": "dev",
    "methods": {
      "approve(address,uint256)": {
        "details": "See {IERC721-approve}."
      },
      "balanceOf(address)": {
        "details": "See {IERC721-balanceOf}."
      },
      "baseURI()": {
        "details": "Returns the base URI set via {_setBaseURI}. This will be automatically added as a prefix in {tokenURI} to each token's URI, or to the token ID if no specific URI is set for that token ID."
      },
      "getApproved(uint256)": {
        "details": "See {IERC721-getApproved}."
      },
      "isApprovedForAll(address,address)": {
        "details": "See {IERC721-isApprovedForAll}."
      },
      "name()": {
        "details": "See {IERC721Metadata-name}."
      },
      "ownerOf(uint256)": {
        "details": "See {IERC721-ownerOf}."
      },
      "safeTransferFrom(address,address,uint256)": {
        "details": "See {IERC721-safeTransferFrom}."
      },
      "safeTransferFrom(address,address,uint256,bytes)": {
        "details": "See {IERC721-safeTransferFrom}."
      },
      "setApprovalForAll(address,bool)": {
        "details": "See {IERC721-setApprovalForAll}."
      },
      "supportsInterface(bytes4)": {
        "details": "See {IERC165-supportsInterface}. Time complexity O(1), guaranteed to always use less than 30 000 gas."
      },
      "symbol()": {
        "details": "See {IERC721Metadata-symbol}."
      },
      "tokenByIndex(uint256)": {
        "details": "See {IERC721Enumerable-tokenByIndex}."
      },
      "tokenOfOwnerByIndex(address,uint256)": {
        "details": "See {IERC721Enumerable-tokenOfOwnerByIndex}."
      },
      "tokenURI(uint256)": {
        "details": "See {IERC721Metadata-tokenURI}."
      },
      "totalSupply()": {
        "details": "See {IERC721Enumerable-totalSupply}."
      },
      "transferFrom(address,address,uint256)": {
        "details": "See {IERC721-transferFrom}."
      }
    },
    "version": 1
  },
  "userdoc": {
    "kind": "user",
    "methods": {},
    "version": 1
  },
  "storageLayout": {
    "storage": [
      {
        "astId": 145,
        "contract": "src/Test/MyERC721.sol:MyERC721",
        "label": "_supportedInterfaces",
        "offset": 0,
        "slot": "0",
        "type": "t_mapping(t_bytes4,t_bool)"
      },
      {
        "astId": 2435,
        "contract": "src/Test/MyERC721.sol:MyERC721",
        "label": "_holderTokens",
        "offset": 0,
        "slot": "1",
        "type": "t_mapping(t_address,t_struct(UintSet)4623_storage)"
      },
      {
        "astId": 2437,
        "contract": "src/Test/MyERC721.sol:MyERC721",
        "label": "_tokenOwners",
        "offset": 0,
        "slot": "2",
        "type": "t_struct(UintToAddressMap)4063_storage"
      },
      {
        "astId": 2441,
        "contract": "src/Test/MyERC721.sol:MyERC721",
        "label": "_tokenApprovals",
        "offset": 0,
        "slot": "4",
        "type": "t_mapping(t_uint256,t_address)"
      },
      {
        "astId": 2447,
        "contract": "src/Test/MyERC721.sol:MyERC721",
        "label": "_operatorApprovals",
        "offset": 0,
        "slot": "5",
        "type": "t_mapping(t_address,t_mapping(t_address,t_bool))"
      },
      {
        "astId": 2449,
        "contract": "src/Test/MyERC721.sol:MyERC721",
        "label": "_name",
        "offset": 0,
        "slot": "6",
        "type": "t_string_storage"
      },
      {
        "astId": 2451,
        "contract": "src/Test/MyERC721.sol:MyERC721",
        "label": "_symbol",
        "offset": 0,
        "slot": "7",
        "type": "t_string_storage"
      },
      {
        "astId": 2455,
        "contract": "src/Test/MyERC721.sol:MyERC721",
        "label": "_tokenURIs",
        "offset": 0,
        "slot": "8",
        "type": "t_mapping(t_uint256,t_string_storage)"
      },
      {
        "astId": 2457,
        "contract": "src/Test/MyERC721.sol:MyERC721",
        "label": "_baseURI",
        "offset": 0,
        "slot": "9",
        "type": "t_string_storage"
      },
      {
        "astId": 14848,
        "contract": "src/Test/MyERC721.sol:MyERC721",
        "label": "tokenId",
        "offset": 0,
        "slot": "10",
        "type": "t_uint256"
      },
      {
        "astId": 14862,
        "contract": "src/Test/MyERC721.sol:MyERC721",
        "label": "tokenUris",
        "offset": 0,
        "slot": "11",
        "type": "t_array(t_string_storage)dyn_storage"
      }
    ],
    "types": {
      "t_address": {
        "encoding": "inplace",
        "label": "address",
        "numberOfBytes": "20"
      },
      "t_array(t_bytes32)dyn_storage": {
        "base": "t_bytes32",
        "encoding": "dynamic_array",
        "label": "bytes32[]",
        "numberOfBytes": "32"
      },
      "t_array(t_string_storage)dyn_storage": {
        "base": "t_string_storage",
        "encoding": "dynamic_array",
        "label": "string[]",
        "numberOfBytes": "32"
      },
      "t_array(t_struct(MapEntry)3791_storage)dyn_storage": {
        "base": "t_struct(MapEntry)3791_storage",
        "encoding": "dynamic_array",
        "label": "struct EnumerableMap.MapEntry[]",
        "numberOfBytes": "32"
      },
      "t_bool": {
        "encoding": "inplace",
        "label": "bool",
        "numberOfBytes": "1"
      },
      "t_bytes32": {
        "encoding": "inplace",
        "label": "bytes32",
        "numberOfBytes": "32"
      },
      "t_bytes4": {
        "encoding": "inplace",
        "label": "bytes4",
        "numberOfBytes": "4"
      },
      "t_mapping(t_address,t_bool)": {
        "encoding": "mapping",
        "key": "t_address",
        "label": "mapping(address => bool)",
        "numberOfBytes": "32",
        "value": "t_bool"
      },
      "t_mapping(t_address,t_mapping(t_address,t_bool))": {
        "encoding": "mapping",
        "key": "t_address",
        "label": "mapping(address => mapping(address => bool))",
        "numberOfBytes": "32",
        "value": "t_mapping(t_address,t_bool)"
      },
      "t_mapping(t_address,t_struct(UintSet)4623_storage)": {
        "encoding": "mapping",
        "key": "t_address",
        "label": "mapping(address => struct EnumerableSet.UintSet)",
        "numberOfBytes": "32",
        "value": "t_struct(UintSet)4623_storage"
      },
      "t_mapping(t_bytes32,t_uint256)": {
        "encoding": "mapping",
        "key": "t_bytes32",
        "label": "mapping(bytes32 => uint256)",
        "numberOfBytes": "32",
        "value": "t_uint256"
      },
      "t_mapping(t_bytes4,t_bool)": {
        "encoding": "mapping",
        "key": "t_bytes4",
        "label": "mapping(bytes4 => bool)",
        "numberOfBytes": "32",
        "value": "t_bool"
      },
      "t_mapping(t_uint256,t_address)": {
        "encoding": "mapping",
        "key": "t_uint256",
        "label": "mapping(uint256 => address)",
        "numberOfBytes": "32",
        "value": "t_address"
      },
      "t_mapping(t_uint256,t_string_storage)": {
        "encoding": "mapping",
        "key": "t_uint256",
        "label": "mapping(uint256 => string)",
        "numberOfBytes": "32",
        "value": "t_string_storage"
      },
      "t_string_storage": {
        "encoding": "bytes",
        "label": "string",
        "numberOfBytes": "32"
      },
      "t_struct(Map)3799_storage": {
        "encoding": "inplace",
        "label": "struct EnumerableMap.Map",
        "members": [
          {
            "astId": 3794,
            "contract": "src/Test/MyERC721.sol:MyERC721",
            "label": "_entries",
            "offset": 0,
            "slot": "0",
            "type": "t_array(t_struct(MapEntry)3791_storage)dyn_storage"
          },
          {
            "astId": 3798,
            "contract": "src/Test/MyERC721.sol:MyERC721",
            "label": "_indexes",
            "offset": 0,
            "slot": "1",
            "type": "t_mapping(t_bytes32,t_uint256)"
          }
        ],
        "numberOfBytes": "64"
      },
      "t_struct(MapEntry)3791_storage": {
        "encoding": "inplace",
        "label": "struct EnumerableMap.MapEntry",
        "members": [
          {
            "astId": 3788,
            "contract": "src/Test/MyERC721.sol:MyERC721",
            "label": "_key",
            "offset": 0,
            "slot": "0",
            "type": "t_bytes32"
          },
          {
            "astId": 3790,
            "contract": "src/Test/MyERC721.sol:MyERC721",
            "label": "_value",
            "offset": 0,
            "slot": "1",
            "type": "t_bytes32"
          }
        ],
        "numberOfBytes": "64"
      },
      "t_struct(Set)4249_storage": {
        "encoding": "inplace",
        "label": "struct EnumerableSet.Set",
        "members": [
          {
            "astId": 4244,
            "contract": "src/Test/MyERC721.sol:MyERC721",
            "label": "_values",
            "offset": 0,
            "slot": "0",
            "type": "t_array(t_bytes32)dyn_storage"
          },
          {
            "astId": 4248,
            "contract": "src/Test/MyERC721.sol:MyERC721",
            "label": "_indexes",
            "offset": 0,
            "slot": "1",
            "type": "t_mapping(t_bytes32,t_uint256)"
          }
        ],
        "numberOfBytes": "64"
      },
      "t_struct(UintSet)4623_storage": {
        "encoding": "inplace",
        "label": "struct EnumerableSet.UintSet",
        "members": [
          {
            "astId": 4622,
            "contract": "src/Test/MyERC721.sol:MyERC721",
            "label": "_inner",
            "offset": 0,
            "slot": "0",
            "type": "t_struct(Set)4249_storage"
          }
        ],
        "numberOfBytes": "64"
      },
      "t_struct(UintToAddressMap)4063_storage": {
        "encoding": "inplace",
        "label": "struct EnumerableMap.UintToAddressMap",
        "members": [
          {
            "astId": 4062,
            "contract": "src/Test/MyERC721.sol:MyERC721",
            "label": "_inner",
            "offset": 0,
            "slot": "0",
            "type": "t_struct(Map)3799_storage"
          }
        ],
        "numberOfBytes": "64"
      },
      "t_uint256": {
        "encoding": "inplace",
        "label": "uint256",
        "numberOfBytes": "32"
      }
    }
  }
}