{
  "address": "0x5FC8d32690cc91D4c39d9d3abcBD16989F875707",
  "abi": [
    {
      "inputs": [
        {
          "internalType": "contract Resolver",
          "name": "_resolver",
          "type": "address"
        },
        {
          "internalType": "address payable",
          "name": "_beneficiary",
          "type": "address"
        }
      ],
      "stateMutability": "nonpayable",
      "type": "constructor"
    },
    {
      "anonymous": false,
      "inputs": [
        {
          "indexed": true,
          "internalType": "address",
          "name": "nftAddress",
          "type": "address"
        },
        {
          "indexed": true,
          "internalType": "uint256",
          "name": "tokenId",
          "type": "uint256"
        },
        {
          "indexed": true,
          "internalType": "uint256",
          "name": "lendingId",
          "type": "uint256"
        },
        {
          "indexed": false,
          "internalType": "uint32",
          "name": "claimedAt",
          "type": "uint32"
        }
      ],
      "name": "CollateralClaimed",
      "type": "event"
    },
    {
      "anonymous": false,
      "inputs": [
        {
          "indexed": true,
          "internalType": "address",
          "name": "nftAddress",
          "type": "address"
        },
        {
          "indexed": true,
          "internalType": "uint256",
          "name": "tokenId",
          "type": "uint256"
        },
        {
          "indexed": true,
          "internalType": "uint256",
          "name": "lendingId",
          "type": "uint256"
        },
        {
          "indexed": false,
          "internalType": "uint32",
          "name": "stoppedAt",
          "type": "uint32"
        }
      ],
      "name": "LendingStopped",
      "type": "event"
    },
    {
      "anonymous": false,
      "inputs": [
        {
          "indexed": true,
          "internalType": "address",
          "name": "nftAddress",
          "type": "address"
        },
        {
          "indexed": true,
          "internalType": "uint256",
          "name": "tokenId",
          "type": "uint256"
        },
        {
          "indexed": false,
          "internalType": "uint256",
          "name": "lendingId",
          "type": "uint256"
        },
        {
          "indexed": true,
          "internalType": "address",
          "name": "lenderAddress",
          "type": "address"
        },
        {
          "indexed": false,
          "internalType": "uint16",
          "name": "maxRentDuration",
          "type": "uint16"
        },
        {
          "indexed": false,
          "internalType": "bytes4",
          "name": "dailyRentPrice",
          "type": "bytes4"
        },
        {
          "indexed": false,
          "internalType": "bytes4",
          "name": "nftPrice",
          "type": "bytes4"
        },
        {
          "indexed": false,
          "internalType": "enum Resolver.PaymentToken",
          "name": "paymentToken",
          "type": "uint8"
        }
      ],
      "name": "Lent",
      "type": "event"
    },
    {
      "anonymous": false,
      "inputs": [
        {
          "indexed": true,
          "internalType": "address",
          "name": "previousOwner",
          "type": "address"
        },
        {
          "indexed": true,
          "internalType": "address",
          "name": "newOwner",
          "type": "address"
        }
      ],
      "name": "OwnershipTransferred",
      "type": "event"
    },
    {
      "anonymous": false,
      "inputs": [
        {
          "indexed": true,
          "internalType": "address",
          "name": "nftAddress",
          "type": "address"
        },
        {
          "indexed": true,
          "internalType": "uint256",
          "name": "tokenId",
          "type": "uint256"
        },
        {
          "indexed": false,
          "internalType": "uint256",
          "name": "lendingId",
          "type": "uint256"
        },
        {
          "indexed": true,
          "internalType": "address",
          "name": "renterAddress",
          "type": "address"
        },
        {
          "indexed": false,
          "internalType": "uint16",
          "name": "rentDuration",
          "type": "uint16"
        },
        {
          "indexed": false,
          "internalType": "uint32",
          "name": "rentedAt",
          "type": "uint32"
        }
      ],
      "name": "Rented",
      "type": "event"
    },
    {
      "anonymous": false,
      "inputs": [
        {
          "indexed": true,
          "internalType": "address",
          "name": "nftAddress",
          "type": "address"
        },
        {
          "indexed": true,
          "internalType": "uint256",
          "name": "tokenId",
          "type": "uint256"
        },
        {
          "indexed": true,
          "internalType": "uint256",
          "name": "lendingId",
          "type": "uint256"
        },
        {
          "indexed": false,
          "internalType": "address",
          "name": "renterAddress",
          "type": "address"
        },
        {
          "indexed": false,
          "internalType": "uint32",
          "name": "returnedAt",
          "type": "uint32"
        }
      ],
      "name": "Returned",
      "type": "event"
    },
    {
      "inputs": [
        {
          "internalType": "address[]",
          "name": "_nft",
          "type": "address[]"
        },
        {
          "internalType": "uint256[]",
          "name": "_tokenId",
          "type": "uint256[]"
        },
        {
          "internalType": "uint256[]",
          "name": "_id",
          "type": "uint256[]"
        }
      ],
      "name": "claimCollateral",
      "outputs": [],
      "stateMutability": "nonpayable",
      "type": "function"
    },
    {
      "inputs": [
        {
          "internalType": "address[]",
          "name": "_nft",
          "type": "address[]"
        },
        {
          "internalType": "uint256[]",
          "name": "_tokenId",
          "type": "uint256[]"
        },
        {
          "internalType": "uint16[]",
          "name": "_maxRentDuration",
          "type": "uint16[]"
        },
        {
          "internalType": "bytes4[]",
          "name": "_dailyRentPrice",
          "type": "bytes4[]"
        },
        {
          "internalType": "bytes4[]",
          "name": "_nftPrice",
          "type": "bytes4[]"
        },
        {
          "internalType": "enum Resolver.PaymentToken[]",
          "name": "_paymentToken",
          "type": "uint8[]"
        }
      ],
      "name": "lend",
      "outputs": [],
      "stateMutability": "nonpayable",
      "type": "function"
    },
    {
      "inputs": [
        {
          "internalType": "address",
          "name": "",
          "type": "address"
        },
        {
          "internalType": "address",
          "name": "",
          "type": "address"
        },
        {
          "internalType": "uint256[]",
          "name": "",
          "type": "uint256[]"
        },
        {
          "internalType": "uint256[]",
          "name": "",
          "type": "uint256[]"
        },
        {
          "internalType": "bytes",
          "name": "",
          "type": "bytes"
        }
      ],
      "name": "onERC1155BatchReceived",
      "outputs": [
        {
          "internalType": "bytes4",
          "name": "",
          "type": "bytes4"
        }
      ],
      "stateMutability": "pure",
      "type": "function"
    },
    {
      "inputs": [
        {
          "internalType": "address",
          "name": "",
          "type": "address"
        },
        {
          "internalType": "address",
          "name": "",
          "type": "address"
        },
        {
          "internalType": "uint256",
          "name": "",
          "type": "uint256"
        },
        {
          "internalType": "uint256",
          "name": "",
          "type": "uint256"
        },
        {
          "internalType": "bytes",
          "name": "",
          "type": "bytes"
        }
      ],
      "name": "onERC1155Received",
      "outputs": [
        {
          "internalType": "bytes4",
          "name": "",
          "type": "bytes4"
        }
      ],
      "stateMutability": "pure",
      "type": "function"
    },
    {
      "inputs": [
        {
          "internalType": "address",
          "name": "",
          "type": "address"
        },
        {
          "internalType": "address",
          "name": "",
          "type": "address"
        },
        {
          "internalType": "uint256",
          "name": "",
          "type": "uint256"
        },
        {
          "internalType": "bytes",
          "name": "",
          "type": "bytes"
        }
      ],
      "name": "onERC721Received",
      "outputs": [
        {
          "internalType": "bytes4",
          "name": "",
          "type": "bytes4"
        }
      ],
      "stateMutability": "nonpayable",
      "type": "function"
    },
    {
      "inputs": [],
      "name": "owner",
      "outputs": [
        {
          "internalType": "address",
          "name": "",
          "type": "address"
        }
      ],
      "stateMutability": "view",
      "type": "function"
    },
    {
      "inputs": [],
      "name": "renounceOwnership",
      "outputs": [],
      "stateMutability": "nonpayable",
      "type": "function"
    },
    {
      "inputs": [
        {
          "internalType": "address[]",
          "name": "_nft",
          "type": "address[]"
        },
        {
          "internalType": "uint256[]",
          "name": "_tokenId",
          "type": "uint256[]"
        },
        {
          "internalType": "uint256[]",
          "name": "_id",
          "type": "uint256[]"
        },
        {
          "internalType": "uint16[]",
          "name": "_rentDuration",
          "type": "uint16[]"
        }
      ],
      "name": "rent",
      "outputs": [],
      "stateMutability": "payable",
      "type": "function"
    },
    {
      "inputs": [],
      "name": "rentFee",
      "outputs": [
        {
          "internalType": "uint256",
          "name": "",
          "type": "uint256"
        }
      ],
      "stateMutability": "view",
      "type": "function"
    },
    {
      "inputs": [
        {
          "internalType": "address[]",
          "name": "_nft",
          "type": "address[]"
        },
        {
          "internalType": "uint256[]",
          "name": "_tokenId",
          "type": "uint256[]"
        },
        {
          "internalType": "uint256[]",
          "name": "_id",
          "type": "uint256[]"
        }
      ],
      "name": "returnIt",
      "outputs": [],
      "stateMutability": "nonpayable",
      "type": "function"
    },
    {
      "inputs": [
        {
          "internalType": "address payable",
          "name": "_newBeneficiary",
          "type": "address"
        }
      ],
      "name": "setBeneficiary",
      "outputs": [],
      "stateMutability": "nonpayable",
      "type": "function"
    },
    {
      "inputs": [
        {
          "internalType": "uint256",
          "name": "_rentFee",
          "type": "uint256"
        }
      ],
      "name": "setRentFee",
      "outputs": [],
      "stateMutability": "nonpayable",
      "type": "function"
    },
    {
      "inputs": [
        {
          "internalType": "address[]",
          "name": "_nft",
          "type": "address[]"
        },
        {
          "internalType": "uint256[]",
          "name": "_tokenId",
          "type": "uint256[]"
        },
        {
          "internalType": "uint256[]",
          "name": "_id",
          "type": "uint256[]"
        }
      ],
      "name": "stopLending",
      "outputs": [],
      "stateMutability": "nonpayable",
      "type": "function"
    },
    {
      "inputs": [
        {
          "internalType": "bytes4",
          "name": "interfaceId",
          "type": "bytes4"
        }
      ],
      "name": "supportsInterface",
      "outputs": [
        {
          "internalType": "bool",
          "name": "",
          "type": "bool"
        }
      ],
      "stateMutability": "view",
      "type": "function"
    },
    {
      "inputs": [
        {
          "internalType": "address",
          "name": "newOwner",
          "type": "address"
        }
      ],
      "name": "transferOwnership",
      "outputs": [],
      "stateMutability": "nonpayable",
      "type": "function"
    }
  ],
  "transactionHash": "0x08869053ad4b7a740641e179b460d38aa13084edd54f35f01b2cb84679305946",
  "args": [
    "0xCf7Ed3AccA5a467e9e704C703E8D87F634fB0Fc9",
    "0x70997970C51812dc3A010C7d01b50e0d17dc79C8"
  ],
  "solcInputHash": "dc05c8f50b3bdf07ecaa911298a93419",
  "bytecode": "0x608060405260016003556101f46004553480156200001c57600080fd5b5060405162003c5a38038062003c5a833981810160405260408110156200004257600080fd5b508051602090910151600160009081556200005c62000100565b600180546001600160a01b0319166001600160a01b038316908117909155604051919250906000907f8be0079c531659141344cd1fd0a4f28419497f9722a3daafe3b4186f6b6457e0908290a350620000bc6301ffc9a760e01b62000104565b620000ce630271189760e51b62000104565b600580546001600160a01b039384166001600160a01b0319918216179091556006805492909316911617905562000189565b3390565b6001600160e01b0319808216141562000164576040805162461bcd60e51b815260206004820152601c60248201527f4552433136353a20696e76616c696420696e7465726661636520696400000000604482015290519081900360640190fd5b6001600160e01b0319166000908152600260205260409020805460ff19166001179055565b613ac180620001996000396000f3fe6080604052600436106100e85760003560e01c806376774ea31161008a578063dc6b1f9111610059578063dc6b1f9114610abf578063f23a6e6114610ce6578063f2fde38b14610d86578063fb15851914610db9576100e8565b806376774ea3146109095780638da5cb5b14610933578063bc197c8114610964578063bf2b23ea14610a98576100e8565b80631c31f710116100c65780631c31f710146103d7578063486b378b1461040a57806359fe66e414610742578063715018a6146108f4576100e8565b806301ffc9a7146100ed578063098130df14610135578063150b7a02146102e9575b600080fd5b3480156100f957600080fd5b506101216004803603602081101561011057600080fd5b50356001600160e01b031916610f6b565b604080519115158252519081900360200190f35b34801561014157600080fd5b506102e76004803603606081101561015857600080fd5b810190602081018135600160201b81111561017257600080fd5b82018360208201111561018457600080fd5b803590602001918460208302840111600160201b831117156101a557600080fd5b9190808060200260200160405190810160405280939291908181526020018383602002808284376000920191909152509295949360208101935035915050600160201b8111156101f457600080fd5b82018360208201111561020657600080fd5b803590602001918460208302840111600160201b8311171561022757600080fd5b9190808060200260200160405190810160405280939291908181526020018383602002808284376000920191909152509295949360208101935035915050600160201b81111561027657600080fd5b82018360208201111561028857600080fd5b803590602001918460208302840111600160201b831117156102a957600080fd5b919080806020026020016040519081016040528093929190818152602001838360200280828437600092019190915250929550610f8a945050505050565b005b3480156102f557600080fd5b506103ba6004803603608081101561030c57600080fd5b6001600160a01b03823581169260208101359091169160408201359190810190608081016060820135600160201b81111561034657600080fd5b82018360208201111561035857600080fd5b803590602001918460018302840111600160201b8311171561037957600080fd5b91908080601f01602080910402602001604051908101604052809392919081815260200183838082843760009201919091525092955061119c945050505050565b604080516001600160e01b03199092168252519081900360200190f35b3480156103e357600080fd5b506102e7600480360360208110156103fa57600080fd5b50356001600160a01b03166111ac565b34801561041657600080fd5b506102e7600480360360c081101561042d57600080fd5b810190602081018135600160201b81111561044757600080fd5b82018360208201111561045957600080fd5b803590602001918460208302840111600160201b8311171561047a57600080fd5b9190808060200260200160405190810160405280939291908181526020018383602002808284376000920191909152509295949360208101935035915050600160201b8111156104c957600080fd5b8201836020820111156104db57600080fd5b803590602001918460208302840111600160201b831117156104fc57600080fd5b9190808060200260200160405190810160405280939291908181526020018383602002808284376000920191909152509295949360208101935035915050600160201b81111561054b57600080fd5b82018360208201111561055d57600080fd5b803590602001918460208302840111600160201b8311171561057e57600080fd5b9190808060200260200160405190810160405280939291908181526020018383602002808284376000920191909152509295949360208101935035915050600160201b8111156105cd57600080fd5b8201836020820111156105df57600080fd5b803590602001918460208302840111600160201b8311171561060057600080fd5b9190808060200260200160405190810160405280939291908181526020018383602002808284376000920191909152509295949360208101935035915050600160201b81111561064f57600080fd5b82018360208201111561066157600080fd5b803590602001918460208302840111600160201b8311171561068257600080fd5b9190808060200260200160405190810160405280939291908181526020018383602002808284376000920191909152509295949360208101935035915050600160201b8111156106d157600080fd5b8201836020820111156106e357600080fd5b803590602001918460208302840111600160201b8311171561070457600080fd5b919080806020026020016040519081016040528093929190818152602001838360200280828437600092019190915250929550611226945050505050565b34801561074e57600080fd5b506102e76004803603606081101561076557600080fd5b810190602081018135600160201b81111561077f57600080fd5b82018360208201111561079157600080fd5b803590602001918460208302840111600160201b831117156107b257600080fd5b9190808060200260200160405190810160405280939291908181526020018383602002808284376000920191909152509295949360208101935035915050600160201b81111561080157600080fd5b82018360208201111561081357600080fd5b803590602001918460208302840111600160201b8311171561083457600080fd5b9190808060200260200160405190810160405280939291908181526020018383602002808284376000920191909152509295949360208101935035915050600160201b81111561088357600080fd5b82018360208201111561089557600080fd5b803590602001918460208302840111600160201b831117156108b657600080fd5b919080806020026020016040519081016040528093929190818152602001838360200280828437600092019190915250929550611796945050505050565b34801561090057600080fd5b506102e7611b33565b34801561091557600080fd5b506102e76004803603602081101561092c57600080fd5b5035611bd5565b34801561093f57600080fd5b50610948611c88565b604080516001600160a01b039092168252519081900360200190f35b34801561097057600080fd5b506103ba600480360360a081101561098757600080fd5b6001600160a01b038235811692602081013590911691810190606081016040820135600160201b8111156109ba57600080fd5b8201836020820111156109cc57600080fd5b803590602001918460208302840111600160201b831117156109ed57600080fd5b919390929091602081019035600160201b811115610a0a57600080fd5b820183602082011115610a1c57600080fd5b803590602001918460208302840111600160201b83111715610a3d57600080fd5b919390929091602081019035600160201b811115610a5a57600080fd5b820183602082011115610a6c57600080fd5b803590602001918460018302840111600160201b83111715610a8d57600080fd5b509092509050611c97565b348015610aa457600080fd5b50610aad611cab565b60408051918252519081900360200190f35b6102e760048036036080811015610ad557600080fd5b810190602081018135600160201b811115610aef57600080fd5b820183602082011115610b0157600080fd5b803590602001918460208302840111600160201b83111715610b2257600080fd5b9190808060200260200160405190810160405280939291908181526020018383602002808284376000920191909152509295949360208101935035915050600160201b811115610b7157600080fd5b820183602082011115610b8357600080fd5b803590602001918460208302840111600160201b83111715610ba457600080fd5b9190808060200260200160405190810160405280939291908181526020018383602002808284376000920191909152509295949360208101935035915050600160201b811115610bf357600080fd5b820183602082011115610c0557600080fd5b803590602001918460208302840111600160201b83111715610c2657600080fd5b9190808060200260200160405190810160405280939291908181526020018383602002808284376000920191909152509295949360208101935035915050600160201b811115610c7557600080fd5b820183602082011115610c8757600080fd5b803590602001918460208302840111600160201b83111715610ca857600080fd5b919080806020026020016040519081016040528093929190818152602001838360200280828437600092019190915250929550611cb1945050505050565b348015610cf257600080fd5b506103ba600480360360a0811015610d0957600080fd5b6001600160a01b03823581169260208101359091169160408201359160608101359181019060a081016080820135600160201b811115610d4857600080fd5b820183602082011115610d5a57600080fd5b803590602001918460018302840111600160201b83111715610d7b57600080fd5b509092509050612477565b348015610d9257600080fd5b506102e760048036036020811015610da957600080fd5b50356001600160a01b0316612489565b348015610dc557600080fd5b506102e760048036036060811015610ddc57600080fd5b810190602081018135600160201b811115610df657600080fd5b820183602082011115610e0857600080fd5b803590602001918460208302840111600160201b83111715610e2957600080fd5b9190808060200260200160405190810160405280939291908181526020018383602002808284376000920191909152509295949360208101935035915050600160201b811115610e7857600080fd5b820183602082011115610e8a57600080fd5b803590602001918460208302840111600160201b83111715610eab57600080fd5b9190808060200260200160405190810160405280939291908181526020018383602002808284376000920191909152509295949360208101935035915050600160201b811115610efa57600080fd5b820183602082011115610f0c57600080fd5b803590602001918460208302840111600160201b83111715610f2d57600080fd5b919080806020026020016040519081016040528093929190818152602001838360200280828437600092019190915250929550612582945050505050565b6001600160e01b03191660009081526002602052604090205460ff1690565b60005b835181101561119657600060076000868481518110610fa857fe5b6020026020010151868581518110610fbc57fe5b6020026020010151868681518110610fd057fe5b60209081029190910181015160408051606095861b6001600160601b03191681850152603481019490945260548085019290925280518085039092018252607490930183528051908201208452838101949094529182016000208251918201835260018101546001600160a01b0381168352600160a01b810461ffff1694830194909452600160b01b90930463ffffffff169181019190915290915061107590612802565b80546001600160a01b031633146110c9576040805162461bcd60e51b81526020600482015260136024820152721bdb9b1e481b195b99195c88185b1b1bddd959606a1b604482015290519081900360640190fd5b6110fb30338785815181106110da57fe5b60200260200101518786815181106110ee57fe5b60200260200101516128f0565b80546001600160f81b0319168155825183908390811061111757fe5b602002602001015184838151811061112b57fe5b602002602001015186848151811061113f57fe5b60200260200101516001600160a01b03167f8d66e30e8e86dc4affaf59a67cb9877f2935b867994fd273f9e7826dc99d82ef42604051808263ffffffff16815260200191505060405180910390a450600101610f8d565b50505050565b630a85bd0160e11b949350505050565b6111b4612b18565b6001546001600160a01b03908116911614611204576040805162461bcd60e51b81526020600482018190526024820152600080516020613a42833981519152604482015290519081900360640190fd5b600680546001600160a01b0319166001600160a01b0392909216919091179055565b6002600054141561126c576040805162461bcd60e51b815260206004820152601f602482015260008051602061398f833981519152604482015290519081900360640190fd5b600260005584518651146112be576040805162461bcd60e51b81526020600482015260146024820152730c2e4ce40c2e4e4e640c8d2cccc40d8cadccee8d60631b604482015290519081900360640190fd5b835185511461130b576040805162461bcd60e51b81526020600482015260146024820152730c2e4ce40c2e4e4e640c8d2cccc40d8cadccee8d60631b604482015290519081900360640190fd5b8251845114611358576040805162461bcd60e51b81526020600482015260146024820152730c2e4ce40c2e4e4e640c8d2cccc40d8cadccee8d60631b604482015290519081900360640190fd5b80518251146113a5576040805162461bcd60e51b81526020600482015260146024820152730c2e4ce40c2e4e4e640c8d2cccc40d8cadccee8d60631b604482015290519081900360640190fd5b60005b86518110156117885760008582815181106113bf57fe5b602002602001015161ffff161161141d576040805162461bcd60e51b815260206004820152601d60248201527f6d757374206265206174206c65617374206f6e6520646179206c656e64000000604482015290519081900360640190fd5b61072185828151811061142c57fe5b602002602001015161ffff16111561148b576040805162461bcd60e51b815260206004820152601c60248201527f6d757374206265206c657373207468616e206669766520796561727300000000604482015290519081900360640190fd5b6114b0333089848151811061149c57fe5b60200260200101518985815181106110ee57fe5b60008782815181106114be57fe5b60200260200101518783815181106114d257fe5b602002602001015160035460405160200180846001600160a01b031660601b8152601401838152602001828152602001935050505060405160208183030381529060405280519060200120905060006007600083815260200190815260200160002090506040518060a00160405280336001600160a01b0316815260200188858151811061155c57fe5b602002602001015161ffff16815260200187858151811061157957fe5b60200260200101516001600160e01b031916815260200186858151811061159c57fe5b60200260200101516001600160e01b03191681526020018585815181106115bf57fe5b602002602001015160058111156115d257fe5b9052805182546020830151604084015160608501516001600160a01b03199093166001600160a01b039094169390931761ffff60a01b1916600160a01b61ffff909216919091021763ffffffff60b01b1916600160b01b60e093841c021763ffffffff60d01b1916600160d01b9190921c021780835560808201518391829060ff60f01b1916600160f01b83600581111561166957fe5b0217905550905050336001600160a01b031688848151811061168757fe5b60200260200101518a858151811061169b57fe5b60200260200101516001600160a01b03167fd943378df2b44f526472b9d7b62a75c5fdeaae111a1bf411398f8cc33b0e22e16003548b88815181106116dc57fe5b60200260200101518b89815181106116f057fe5b60200260200101518b8a8151811061170457fe5b60200260200101518b8b8151811061171857fe5b6020026020010151604051808681526020018561ffff168152602001846001600160e01b0319168152602001836001600160e01b031916815260200182600581111561176057fe5b81526020019550505050505060405180910390a45050600380546001908101909155016113a8565b505060016000555050505050565b600260005414156117dc576040805162461bcd60e51b815260206004820152601f602482015260008051602061398f833981519152604482015290519081900360640190fd5b600260009081555b8351811015611b28576000600760008684815181106117ff57fe5b602002602001015186858151811061181357fe5b602002602001015186868151811061182757fe5b60209081029190910181015160408051606095861b6001600160601b03191681850152603481019490945260548085019290925280518085039092018252607490930183528051908201208452838101949094529182016000208251918201835260018101546001600160a01b0381168352600160a01b810461ffff1694830194909452600160b01b90930463ffffffff16918101919091529091506118cd9042612b1c565b6040805160a08101825282546001600160a01b0381168252600160a01b810461ffff166020830152600160b01b810460e090811b6001600160e01b031990811694840194909452600160d01b8204901b90921660608201526119589183906080830190600160f01b900460ff16600581111561194557fe5b600581111561195057fe5b905250612b8a565b6040805160608101825260018301546001600160a01b0381168252600160a01b810461ffff166020830152600160b01b900463ffffffff16918101919091526119a090612d52565b6040805160e0808201835283546001600160a01b03811693830193845261ffff600160a01b82041660608401526001600160e01b0319600160b01b8204831b81166080850152600160d01b820490921b90911660a0830152611a7b928491839190839060c084019060ff600160f01b909104166005811115611a1e57fe5b6005811115611a2957fe5b905250815260408051606081018252600193909301546001600160a01b0381168452600160a01b810461ffff16602080860191909152600160b01b90910463ffffffff16918401919091520152612e4b565b80546001600160f81b03191681556001810180546001600160d01b03191690558251839083908110611aa957fe5b6020026020010151848381518110611abd57fe5b6020026020010151868481518110611ad157fe5b60200260200101516001600160a01b03167f05aa5bfe8585cc13e8621c71274852eaa27e35b96473184ca96990fe6a38b80942604051808263ffffffff16815260200191505060405180910390a4506001016117e4565b505060016000555050565b611b3b612b18565b6001546001600160a01b03908116911614611b8b576040805162461bcd60e51b81526020600482018190526024820152600080516020613a42833981519152604482015290519081900360640190fd5b6001546040516000916001600160a01b0316907f8be0079c531659141344cd1fd0a4f28419497f9722a3daafe3b4186f6b6457e0908390a3600180546001600160a01b0319169055565b611bdd612b18565b6001546001600160a01b03908116911614611c2d576040805162461bcd60e51b81526020600482018190526024820152600080516020613a42833981519152604482015290519081900360640190fd5b6127108110611c83576040805162461bcd60e51b815260206004820152601e60248201527f312063616e6e6f742062652074616b696e672031303020706374206665650000604482015290519081900360640190fd5b600455565b6001546001600160a01b031690565b63bc197c8160e01b98975050505050505050565b60045481565b60026000541415611cf7576040805162461bcd60e51b815260206004820152601f602482015260008051602061398f833981519152604482015290519081900360640190fd5b60026000558251845114611d4b576040805162461bcd60e51b815260206004820152601660248201527506240c2e4ce40c2e4e4e640c8d2cccc40d8cadccee8d60531b604482015290519081900360640190fd5b8151835114611d9a576040805162461bcd60e51b815260206004820152601660248201527506440c2e4ce40c2e4e4e640c8d2cccc40d8cadccee8d60531b604482015290519081900360640190fd5b8051825114611de9576040805162461bcd60e51b815260206004820152601660248201527506640c2e4ce40c2e4e4e640c8d2cccc40d8cadccee8d60531b604482015290519081900360640190fd5b611df16138fd565b6000606082018190528551600019016101a08301525b855181101561246a57858181518110611e1c57fe5b60209081029190910101516001600160a01b031660408301528451859082908110611e4357fe5b6020026020010151826000018181525050838181518110611e6057fe5b6020908102919091018101518382018190526040808501518551825160609290921b6001600160601b03191682860152603482015260548082019390935281518082039093018352607401815281519183019190912060009081526007909252902060018101546001600160a01b031615611f15576040805162461bcd60e51b815260206004820152601060248201526f0c48185b1c9958591e481c995b9d195960821b604482015290519081900360640190fd5b6001810154600160a01b900461ffff1615611f6a576040805162461bcd60e51b815260206004820152601060248201526f0c88185b1c9958591e481c995b9d195960821b604482015290519081900360640190fd5b6001810154600160b01b900463ffffffff1615611fc1576040805162461bcd60e51b815260206004820152601060248201526f0cc8185b1c9958591e481c995b9d195960821b604482015290519081900360640190fd5b80546001600160a01b0316331415612014576040805162461bcd60e51b815260206004820152601160248201527018d85b9d081c995b9d081bdddb881b999d607a1b604482015290519081900360640190fd5b83828151811061202057fe5b602090810291909101015161ffff1660808401819052612087576040805162461bcd60e51b815260206004820152601e60248201527f73686f756c642072656e7420666f72206174206c656173742061206461790000604482015290519081900360640190fd5b8054608084015161ffff600160a01b9092048216911611156120f0576040805162461bcd60e51b815260206004820152601a60248201527f6d61782072656e74206475726174696f6e206578636565646564000000000000604482015290519081900360640190fd5b601260a08401528054600160f01b900460ff16600581111561210e57fe5b60ff1660c084018190526005546040805163c6ee427f60e01b81526004810193909352516001600160a01b039091169163c6ee427f916024808301926020929190829003018186803b15801561216357600080fd5b505afa158015612177573d6000803e3d6000fd5b505050506040513d602081101561218d57600080fd5b50516001600160a01b031661010084015260c0830151600160ff9091161161012084018190521561222b578261010001516001600160a01b031663313ce5676040518163ffffffff1660e01b815260040160206040518083038186803b1580156121f657600080fd5b505afa15801561220a573d6000803e3d6000fd5b505050506040513d602081101561222057600080fd5b505160ff1660a08401525b60a0830151600a0a60e0808501829052825461225292600160b01b90910490911b9061302a565b608084015161ffff1602610140840152805460e08085015161227e92600160d01b900490911b9061302a565b6101608401526101408301516122d0576040805162461bcd60e51b815260206004820152601260248201527172656e74207072696365206973207a65726f60701b604482015290519081900360640190fd5b610160830151610140840151016101808401526101208301511561231d5761231833308561018001518661010001516001600160a01b03166130cf909392919063ffffffff16565b61232f565b61018083015160608401805190910190525b826101a0015182141561238a578260600151341461238a576040805162461bcd60e51b81526020600482015260136024820152721a5b9cdd59999a58da595b9d08185b5bdd5b9d606a1b604482015290519081900360640190fd5b6001810180546080850151336001600160a01b0319909216821761ffff60a01b1916600160a01b61ffff909216919091021763ffffffff60b01b1916600160b01b4263ffffffff160217909155604084015184516123eb92309290916128f0565b336001600160a01b0316836000015184604001516001600160a01b03167f239fb88b47e519434a2459f6ad017abd6862eb213c907e9afbd40de3e7ed1c538660200151876080015142604051808481526020018361ffff1681526020018263ffffffff168152602001935050505060405180910390a450600101611e07565b5050600160005550505050565b63f23a6e6160e01b9695505050505050565b612491612b18565b6001546001600160a01b039081169116146124e1576040805162461bcd60e51b81526020600482018190526024820152600080516020613a42833981519152604482015290519081900360640190fd5b6001600160a01b0381166125265760405162461bcd60e51b81526004018080602001828103825260268152602001806139af6026913960400191505060405180910390fd5b6001546040516001600160a01b038084169216907f8be0079c531659141344cd1fd0a4f28419497f9722a3daafe3b4186f6b6457e090600090a3600180546001600160a01b0319166001600160a01b0392909216919091179055565b600260005414156125c8576040805162461bcd60e51b815260206004820152601f602482015260008051602061398f833981519152604482015290519081900360640190fd5b600260009081555b8351811015611b28576000600760008684815181106125eb57fe5b60200260200101518685815181106125ff57fe5b602002602001015186868151811061261357fe5b602002602001015160405160200180846001600160a01b031660601b815260140183815260200182815260200193505050506040516020818303038152906040528051906020012081526020019081526020016000209050336001600160a01b03168160010160000160009054906101000a90046001600160a01b03166001600160a01b0316146126d8576040805162461bcd60e51b815260206004820152600a6024820152693737ba103932b73a32b960b11b604482015290519081900360640190fd5b6040805160608101825260018301546001600160a01b0381168252600160a01b810461ffff166020830152600160b01b900463ffffffff16918101919091526000906127249042613129565b905061274b333088868151811061273757fe5b60200260200101518887815181106110ee57fe5b6127558282613195565b83838151811061276157fe5b602002602001015185848151811061277557fe5b602002602001015187858151811061278957fe5b60200260200101516001600160a01b03167fc2e5648ce895a76d6488be25b8cd6e98aab7b4a4bf183b1baea76ee09da6917d334260405180836001600160a01b031681526020018263ffffffff1681526020019250505060405180910390a450600190810180546001600160d01b0319169055016125d0565b80516001600160a01b0316156128495760405162461bcd60e51b81526004018080602001828103825260228152602001806139fa6022913960400191505060405180910390fd5b602081015161ffff16156128a4576040805162461bcd60e51b815260206004820152601960248201527f72656e74206475726174696f6e206973206e6f74207a65726f00000000000000604482015290519081900360640190fd5b604081015163ffffffff16156128ed576040805162461bcd60e51b81526020600482015260096024820152681a5cc81c995b9d195960ba1b604482015290519081900360640190fd5b50565b604080516301ffc9a760e01b81526380ac58cd60e01b600482015290516001600160a01b038416916301ffc9a7916024808301926020929190829003018186803b15801561293d57600080fd5b505afa158015612951573d6000803e3d6000fd5b505050506040513d602081101561296757600080fd5b5051156129f357816001600160a01b03166342842e0e8585846040518463ffffffff1660e01b815260040180846001600160a01b03168152602001836001600160a01b031681526020018281526020019350505050600060405180830381600087803b1580156129d657600080fd5b505af11580156129ea573d6000803e3d6000fd5b50505050611196565b604080516301ffc9a760e01b8152636cdb3d1360e11b600482015290516001600160a01b038416916301ffc9a7916024808301926020929190829003018186803b158015612a4057600080fd5b505afa158015612a54573d6000803e3d6000fd5b505050506040513d6020811015612a6a57600080fd5b505115612add5760408051637921219560e11b81526001600160a01b0386811660048301528581166024830152604482018490526001606483015260a06084830152600060a4830181905292519085169263f242432a9260c4808201939182900301818387803b1580156129d657600080fd5b6040805162461bcd60e51b815260206004820152600b60248201526a1d5b9cdd5c1c1bdc9d195960aa1b604482015290519081900360640190fd5b3390565b816020015161ffff16620151800262ffffff16826040015163ffffffff16820311612b86576040805162461bcd60e51b8152602060048201526015602482015274191d5c985d1a5bdb881b9bdd08195e18d959591959605a1b604482015290519081900360640190fd5b5050565b80516001600160a01b0316612bdf576040805162461bcd60e51b81526020600482015260166024820152756c656e646572206973207a65726f206164647265737360501b604482015290519081900360640190fd5b602081015161ffff16612c39576040805162461bcd60e51b815260206004820152601960248201527f6d61782072656e74206475726174696f6e206973207a65726f00000000000000604482015290519081900360640190fd5b60408101516001600160e01b031916612c99576040805162461bcd60e51b815260206004820152601860248201527f6461696c792072656e74207072696365206973207a65726f0000000000000000604482015290519081900360640190fd5b60608101516001600160e01b031916612ced576040805162461bcd60e51b81526020600482015260116024820152706e6674207072696365206973207a65726f60781b604482015290519081900360640190fd5b600081608001516005811115612cff57fe5b14156128ed576040805162461bcd60e51b815260206004820152601960248201527f7061796d656e7420746f6b656e2069732073656e74696e656c00000000000000604482015290519081900360640190fd5b80516001600160a01b0316612dae576040805162461bcd60e51b815260206004820152601e60248201527f72656e7465722061646472657373206973207a65726f20616464726573730000604482015290519081900360640190fd5b602081015161ffff16612e00576040805162461bcd60e51b815260206004820152601560248201527472656e74206475726174696f6e206973207a65726f60581b604482015290519081900360640190fd5b604081015163ffffffff166128ed576040805162461bcd60e51b815260206004820152600c60248201526b1b995d995c881c995b9d195960a21b604482015290519081900360640190fd5b8051608001516012906000906005811115612e6257fe5b6005546040805163c6ee427f60e01b815260ff8416600482015290519293506000926001600160a01b039092169163c6ee427f91602480820192602092909190829003018186803b158015612eb657600080fd5b505afa158015612eca573d6000803e3d6000fd5b505050506040513d6020811015612ee057600080fd5b50519050600160ff8316118015612f5c57816001600160a01b031663313ce5676040518163ffffffff1660e01b815260040160206040518083038186803b158015612f2a57600080fd5b505afa158015612f3e573d6000803e3d6000fd5b505050506040513d6020811015612f5457600080fd5b505160ff1693505b845160600151600a85900a90600090612f75908361302a565b90506000612f8b8860000151604001518461302a565b6020808a0151015190915061ffff1681026000612fb68260ff8a166005811115612fb157fe5b6134d1565b90508184018615612fe0578a5151612fdb906001600160a01b038a16908484036135d7565b61301d565b8a51516040516001600160a01b039091169083830380156108fc02916000818181858888f1935050505015801561301b573d6000803e3d6000fd5b505b5050505050505050505050565b600060f083901c60e084901c61ffff16612710840461270f83111561304f5761270f92505b61ffff80841686029061270f908416111561306a5761270f92505b61ffff83168202818101828110156130b9576040805162461bcd60e51b815260206004820152600d60248201526c696e76616c696420707269636560981b604482015290519081900360640190fd5b806130c15750825b955050505050505b92915050565b604080516001600160a01b0380861660248301528416604482015260648082018490528251808303909101815260849091019091526020810180516001600160e01b03166323b872dd60e01b17905261119690859061362e565b6000826040015163ffffffff1682039050826020015161ffff16620151800262ffffff168111156130c9576040805162461bcd60e51b8152602060048201526011602482015270191d5c985d1a5bdb88195e18d959591959607a1b604482015290519081900360640190fd5b8154601290600090600160f01b900460ff1660058111156131b257fe5b6005546040805163c6ee427f60e01b815260ff8416600482015290519293506000926001600160a01b039092169163c6ee427f91602480820192602092909190829003018186803b15801561320657600080fd5b505afa15801561321a573d6000803e3d6000fd5b505050506040513d602081101561323057600080fd5b50519050600160ff83161180156132ac57816001600160a01b031663313ce5676040518163ffffffff1660e01b815260040160206040518083038186803b15801561327a57600080fd5b505afa15801561328e573d6000803e3d6000fd5b505050506040513d60208110156132a457600080fd5b505160ff1693505b8554600a85900a906000906132cb90600160d01b900460e01b8361302a565b88549091506000906132e790600160b01b900460e01b8461302a565b60018a0154909150600160a01b900461ffff1681026201518089830204808210156133435760405162461bcd60e51b81526004018080602001828103825260258152602001806139d56025913960400191505060405180910390fd5b80820380831161339a576040805162461bcd60e51b815260206004820152601b60248201527f756e646572666c6f77206973737565732070726576656e74696f6e0000000000604482015290519081900360640190fd5b8b546000906133b4908490600160f01b900460ff166134d1565b91860191905087156133fc578c546133db906001600160a01b038b811691168386036135d7565b60018d01546133f7906001600160a01b038b81169116846135d7565b6134c2565b8960ff16600114613449576040805162461bcd60e51b815260206004820152601260248201527173656e74696e656c7320646f6e742070617960701b604482015290519081900360640190fd5b8c546040516001600160a01b039091169082850380156108fc02916000818181858888f19350505050158015613483573d6000803e3d6000fd5b5060018d01546040516001600160a01b039091169083156108fc029084906000818181858888f193505050501580156134c0573d6000803e3d6000fd5b505b50505050505050505050505050565b6004546127109083020460008260058111156134e957fe5b905060018160ff161115613594576005546040805163c6ee427f60e01b815260ff8416600482015290516000926001600160a01b03169163c6ee427f916024808301926020929190829003018186803b15801561354557600080fd5b505afa158015613559573d6000803e3d6000fd5b505050506040513d602081101561356f57600080fd5b505160065490915061358e906001600160a01b038084169116856135d7565b506135d0565b6006546040516001600160a01b039091169083156108fc029084906000818181858888f193505050501580156135ce573d6000803e3d6000fd5b505b5092915050565b604080516001600160a01b038416602482015260448082018490528251808303909101815260649091019091526020810180516001600160e01b031663a9059cbb60e01b17905261362990849061362e565b505050565b6000613683826040518060400160405280602081526020017f5361666545524332303a206c6f772d6c6576656c2063616c6c206661696c6564815250856001600160a01b03166136df9092919063ffffffff16565b805190915015613629578080602001905160208110156136a257600080fd5b50516136295760405162461bcd60e51b815260040180806020018281038252602a815260200180613a62602a913960400191505060405180910390fd5b60606136ee84846000856136f8565b90505b9392505050565b6060824710156137395760405162461bcd60e51b8152600401808060200182810382526026815260200180613a1c6026913960400191505060405180910390fd5b61374285613853565b613793576040805162461bcd60e51b815260206004820152601d60248201527f416464726573733a2063616c6c20746f206e6f6e2d636f6e7472616374000000604482015290519081900360640190fd5b600080866001600160a01b031685876040518082805190602001908083835b602083106137d15780518252601f1990920191602091820191016137b2565b6001836020036101000a03801982511681845116808217855250505050505090500191505060006040518083038185875af1925050503d8060008114613833576040519150601f19603f3d011682016040523d82523d6000602084013e613838565b606091505b5091509150613848828286613859565b979650505050505050565b3b151590565b606083156138685750816136f1565b8251156138785782518084602001fd5b8160405162461bcd60e51b81526004018080602001828103825283818151815260200191508051906020019080838360005b838110156138c25781810151838201526020016138aa565b50505050905090810190601f1680156138ef5780820380516001836020036101000a031916815260200191505b509250505060405180910390fd5b604051806101e00160405280600081526020016000815260200160006001600160a01b0316815260200160008152602001600061ffff16815260200160008152602001600060ff1681526020016000815260200160006001600160a01b031681526020016000151581526020016000815260200160008152602001600081526020016000815260200160008152509056fe5265656e7472616e637947756172643a207265656e7472616e742063616c6c004f776e61626c653a206e6577206f776e657220697320746865207a65726f20616464726573736c656e64657220726563656976696e67206d6f7265207468616e2072656e74657220706d7472656e7465722061646472657373206973206e6f74207a65726f2061646472657373416464726573733a20696e73756666696369656e742062616c616e636520666f722063616c6c4f776e61626c653a2063616c6c6572206973206e6f7420746865206f776e65725361666545524332303a204552433230206f7065726174696f6e20646964206e6f742073756363656564a26469706673582212204b746e1e8647d52d2398f661dc822c7921ea7a70014d1ed0188ee326e5409fe664736f6c63430007060033",
  "devdoc": {
    "kind": "dev",
    "methods": {
      "onERC721Received(address,address,uint256,bytes)": {
        "details": "See {IERC721Receiver-onERC721Received}. Always returns `IERC721Receiver.onERC721Received.selector`."
      },
      "owner()": {
        "details": "Returns the address of the current owner."
      },
      "renounceOwnership()": {
        "details": "Leaves the contract without owner. It will not be possible to call `onlyOwner` functions anymore. Can only be called by the current owner. NOTE: Renouncing ownership will leave the contract without an owner, thereby removing any functionality that is only available to the owner."
      },
      "supportsInterface(bytes4)": {
        "details": "See {IERC165-supportsInterface}. Time complexity O(1), guaranteed to always use less than 30 000 gas."
      },
      "transferOwnership(address)": {
        "details": "Transfers ownership of the contract to a new account (`newOwner`). Can only be called by the current owner."
      }
    },
    "version": 1
  },
  "userdoc": {
    "kind": "user",
    "methods": {},
    "version": 1
  },
  "storageLayout": {
    "storage": [
      {
        "astId": 4757,
        "contract": "src/RentNft.sol:RentNft",
        "label": "_status",
        "offset": 0,
        "slot": "0",
        "type": "t_uint256"
      },
      {
        "astId": 30,
        "contract": "src/RentNft.sol:RentNft",
        "label": "_owner",
        "offset": 0,
        "slot": "1",
        "type": "t_address"
      },
      {
        "astId": 145,
        "contract": "src/RentNft.sol:RentNft",
        "label": "_supportedInterfaces",
        "offset": 0,
        "slot": "2",
        "type": "t_mapping(t_bytes4,t_bool)"
      },
      {
        "astId": 4898,
        "contract": "src/RentNft.sol:RentNft",
        "label": "lendingId",
        "offset": 0,
        "slot": "3",
        "type": "t_uint256"
      },
      {
        "astId": 4901,
        "contract": "src/RentNft.sol:RentNft",
        "label": "rentFee",
        "offset": 0,
        "slot": "4",
        "type": "t_uint256"
      },
      {
        "astId": 4903,
        "contract": "src/RentNft.sol:RentNft",
        "label": "resolver",
        "offset": 0,
        "slot": "5",
        "type": "t_contract(Resolver)6727"
      },
      {
        "astId": 4905,
        "contract": "src/RentNft.sol:RentNft",
        "label": "beneficiary",
        "offset": 0,
        "slot": "6",
        "type": "t_address_payable"
      },
      {
        "astId": 5027,
        "contract": "src/RentNft.sol:RentNft",
        "label": "lendingRenting",
        "offset": 0,
        "slot": "7",
        "type": "t_mapping(t_bytes32,t_struct(LendingRenting)4992_storage)"
      }
    ],
    "types": {
      "t_address": {
        "encoding": "inplace",
        "label": "address",
        "numberOfBytes": "20"
      },
      "t_address_payable": {
        "encoding": "inplace",
        "label": "address payable",
        "numberOfBytes": "20"
      },
      "t_bool": {
        "encoding": "inplace",
        "label": "bool",
        "numberOfBytes": "1"
      },
      "t_bytes32": {
        "encoding": "inplace",
        "label": "bytes32",
        "numberOfBytes": "32"
      },
      "t_bytes4": {
        "encoding": "inplace",
        "label": "bytes4",
        "numberOfBytes": "4"
      },
      "t_contract(Resolver)6727": {
        "encoding": "inplace",
        "label": "contract Resolver",
        "numberOfBytes": "20"
      },
      "t_enum(PaymentToken)6683": {
        "encoding": "inplace",
        "label": "enum Resolver.PaymentToken",
        "numberOfBytes": "1"
      },
      "t_mapping(t_bytes32,t_struct(LendingRenting)4992_storage)": {
        "encoding": "mapping",
        "key": "t_bytes32",
        "label": "mapping(bytes32 => struct RentNft.LendingRenting)",
        "numberOfBytes": "32",
        "value": "t_struct(LendingRenting)4992_storage"
      },
      "t_mapping(t_bytes4,t_bool)": {
        "encoding": "mapping",
        "key": "t_bytes4",
        "label": "mapping(bytes4 => bool)",
        "numberOfBytes": "32",
        "value": "t_bool"
      },
      "t_struct(Lending)4980_storage": {
        "encoding": "inplace",
        "label": "struct RentNft.Lending",
        "members": [
          {
            "astId": 4971,
            "contract": "src/RentNft.sol:RentNft",
            "label": "lenderAddress",
            "offset": 0,
            "slot": "0",
            "type": "t_address_payable"
          },
          {
            "astId": 4973,
            "contract": "src/RentNft.sol:RentNft",
            "label": "maxRentDuration",
            "offset": 20,
            "slot": "0",
            "type": "t_uint16"
          },
          {
            "astId": 4975,
            "contract": "src/RentNft.sol:RentNft",
            "label": "dailyRentPrice",
            "offset": 22,
            "slot": "0",
            "type": "t_bytes4"
          },
          {
            "astId": 4977,
            "contract": "src/RentNft.sol:RentNft",
            "label": "nftPrice",
            "offset": 26,
            "slot": "0",
            "type": "t_bytes4"
          },
          {
            "astId": 4979,
            "contract": "src/RentNft.sol:RentNft",
            "label": "paymentToken",
            "offset": 30,
            "slot": "0",
            "type": "t_enum(PaymentToken)6683"
          }
        ],
        "numberOfBytes": "32"
      },
      "t_struct(LendingRenting)4992_storage": {
        "encoding": "inplace",
        "label": "struct RentNft.LendingRenting",
        "members": [
          {
            "astId": 4989,
            "contract": "src/RentNft.sol:RentNft",
            "label": "lending",
            "offset": 0,
            "slot": "0",
            "type": "t_struct(Lending)4980_storage"
          },
          {
            "astId": 4991,
            "contract": "src/RentNft.sol:RentNft",
            "label": "renting",
            "offset": 0,
            "slot": "1",
            "type": "t_struct(Renting)4987_storage"
          }
        ],
        "numberOfBytes": "64"
      },
      "t_struct(Renting)4987_storage": {
        "encoding": "inplace",
        "label": "struct RentNft.Renting",
        "members": [
          {
            "astId": 4982,
            "contract": "src/RentNft.sol:RentNft",
            "label": "renterAddress",
            "offset": 0,
            "slot": "0",
            "type": "t_address_payable"
          },
          {
            "astId": 4984,
            "contract": "src/RentNft.sol:RentNft",
            "label": "rentDuration",
            "offset": 20,
            "slot": "0",
            "type": "t_uint16"
          },
          {
            "astId": 4986,
            "contract": "src/RentNft.sol:RentNft",
            "label": "rentedAt",
            "offset": 22,
            "slot": "0",
            "type": "t_uint32"
          }
        ],
        "numberOfBytes": "32"
      },
      "t_uint16": {
        "encoding": "inplace",
        "label": "uint16",
        "numberOfBytes": "2"
      },
      "t_uint256": {
        "encoding": "inplace",
        "label": "uint256",
        "numberOfBytes": "32"
      },
      "t_uint32": {
        "encoding": "inplace",
        "label": "uint32",
        "numberOfBytes": "4"
      }
    }
  }
}