{
  "address": "0xB8EE1139a614979ff029123B08fA9650A75b2D70",
  "abi": [
    {
      "inputs": [
        {
          "internalType": "contract Resolver",
          "name": "_resolver",
          "type": "address"
        },
        {
          "internalType": "address payable",
          "name": "_beneficiary",
          "type": "address"
        }
      ],
      "stateMutability": "nonpayable",
      "type": "constructor"
    },
    {
      "anonymous": false,
      "inputs": [
        {
          "indexed": true,
          "internalType": "address",
          "name": "nftAddress",
          "type": "address"
        },
        {
          "indexed": true,
          "internalType": "uint256",
          "name": "tokenId",
          "type": "uint256"
        },
        {
          "indexed": true,
          "internalType": "uint256",
          "name": "lendingId",
          "type": "uint256"
        },
        {
          "indexed": false,
          "internalType": "uint32",
          "name": "claimedAt",
          "type": "uint32"
        }
      ],
      "name": "CollateralClaimed",
      "type": "event"
    },
    {
      "anonymous": false,
      "inputs": [
        {
          "indexed": true,
          "internalType": "address",
          "name": "nftAddress",
          "type": "address"
        },
        {
          "indexed": true,
          "internalType": "uint256",
          "name": "tokenId",
          "type": "uint256"
        },
        {
          "indexed": true,
          "internalType": "uint256",
          "name": "lendingId",
          "type": "uint256"
        },
        {
          "indexed": false,
          "internalType": "uint32",
          "name": "stoppedAt",
          "type": "uint32"
        }
      ],
      "name": "LendingStopped",
      "type": "event"
    },
    {
      "anonymous": false,
      "inputs": [
        {
          "indexed": true,
          "internalType": "address",
          "name": "nftAddress",
          "type": "address"
        },
        {
          "indexed": true,
          "internalType": "uint256",
          "name": "tokenId",
          "type": "uint256"
        },
        {
          "indexed": false,
          "internalType": "uint256",
          "name": "lendingId",
          "type": "uint256"
        },
        {
          "indexed": true,
          "internalType": "address",
          "name": "lenderAddress",
          "type": "address"
        },
        {
          "indexed": false,
          "internalType": "uint16",
          "name": "maxRentDuration",
          "type": "uint16"
        },
        {
          "indexed": false,
          "internalType": "uint32",
          "name": "dailyRentPrice",
          "type": "uint32"
        },
        {
          "indexed": false,
          "internalType": "uint32",
          "name": "nftPrice",
          "type": "uint32"
        },
        {
          "indexed": false,
          "internalType": "enum Resolver.PaymentToken",
          "name": "paymentToken",
          "type": "uint8"
        }
      ],
      "name": "Lent",
      "type": "event"
    },
    {
      "anonymous": false,
      "inputs": [
        {
          "indexed": true,
          "internalType": "address",
          "name": "previousOwner",
          "type": "address"
        },
        {
          "indexed": true,
          "internalType": "address",
          "name": "newOwner",
          "type": "address"
        }
      ],
      "name": "OwnershipTransferred",
      "type": "event"
    },
    {
      "anonymous": false,
      "inputs": [
        {
          "indexed": true,
          "internalType": "address",
          "name": "nftAddress",
          "type": "address"
        },
        {
          "indexed": true,
          "internalType": "uint256",
          "name": "tokenId",
          "type": "uint256"
        },
        {
          "indexed": false,
          "internalType": "uint256",
          "name": "lendingId",
          "type": "uint256"
        },
        {
          "indexed": true,
          "internalType": "address",
          "name": "renterAddress",
          "type": "address"
        },
        {
          "indexed": false,
          "internalType": "uint16",
          "name": "rentDuration",
          "type": "uint16"
        },
        {
          "indexed": false,
          "internalType": "uint32",
          "name": "rentedAt",
          "type": "uint32"
        }
      ],
      "name": "Rented",
      "type": "event"
    },
    {
      "anonymous": false,
      "inputs": [
        {
          "indexed": true,
          "internalType": "address",
          "name": "nftAddress",
          "type": "address"
        },
        {
          "indexed": true,
          "internalType": "uint256",
          "name": "tokenId",
          "type": "uint256"
        },
        {
          "indexed": true,
          "internalType": "uint256",
          "name": "lendingId",
          "type": "uint256"
        },
        {
          "indexed": false,
          "internalType": "address",
          "name": "renterAddress",
          "type": "address"
        },
        {
          "indexed": false,
          "internalType": "uint32",
          "name": "returnedAt",
          "type": "uint32"
        }
      ],
      "name": "Returned",
      "type": "event"
    },
    {
      "inputs": [
        {
          "internalType": "address[]",
          "name": "_nft",
          "type": "address[]"
        },
        {
          "internalType": "uint256[]",
          "name": "_tokenId",
          "type": "uint256[]"
        },
        {
          "internalType": "uint256[]",
          "name": "_id",
          "type": "uint256[]"
        }
      ],
      "name": "claimCollateral",
      "outputs": [],
      "stateMutability": "nonpayable",
      "type": "function"
    },
    {
      "inputs": [
        {
          "internalType": "address[]",
          "name": "_nft",
          "type": "address[]"
        },
        {
          "internalType": "enum RentNft.NftContractType[]",
          "name": "_nftType",
          "type": "uint8[]"
        },
        {
          "internalType": "uint256[]",
          "name": "_tokenId",
          "type": "uint256[]"
        },
        {
          "internalType": "uint16[]",
          "name": "_maxRentDuration",
          "type": "uint16[]"
        },
        {
          "internalType": "uint32[]",
          "name": "_dailyRentPrice",
          "type": "uint32[]"
        },
        {
          "internalType": "uint32[]",
          "name": "_nftPrice",
          "type": "uint32[]"
        },
        {
          "internalType": "enum Resolver.PaymentToken[]",
          "name": "_paymentToken",
          "type": "uint8[]"
        }
      ],
      "name": "lend",
      "outputs": [],
      "stateMutability": "nonpayable",
      "type": "function"
    },
    {
      "inputs": [
        {
          "internalType": "address",
          "name": "",
          "type": "address"
        },
        {
          "internalType": "address",
          "name": "",
          "type": "address"
        },
        {
          "internalType": "uint256",
          "name": "",
          "type": "uint256"
        },
        {
          "internalType": "bytes",
          "name": "",
          "type": "bytes"
        }
      ],
      "name": "onERC721Received",
      "outputs": [
        {
          "internalType": "bytes4",
          "name": "",
          "type": "bytes4"
        }
      ],
      "stateMutability": "nonpayable",
      "type": "function"
    },
    {
      "inputs": [],
      "name": "owner",
      "outputs": [
        {
          "internalType": "address",
          "name": "",
          "type": "address"
        }
      ],
      "stateMutability": "view",
      "type": "function"
    },
    {
      "inputs": [],
      "name": "renounceOwnership",
      "outputs": [],
      "stateMutability": "nonpayable",
      "type": "function"
    },
    {
      "inputs": [
        {
          "internalType": "address[]",
          "name": "_nft",
          "type": "address[]"
        },
        {
          "internalType": "enum RentNft.NftContractType[]",
          "name": "_nftType",
          "type": "uint8[]"
        },
        {
          "internalType": "uint256[]",
          "name": "_tokenId",
          "type": "uint256[]"
        },
        {
          "internalType": "uint256[]",
          "name": "_id",
          "type": "uint256[]"
        },
        {
          "internalType": "uint16[]",
          "name": "_rentDuration",
          "type": "uint16[]"
        }
      ],
      "name": "rent",
      "outputs": [],
      "stateMutability": "payable",
      "type": "function"
    },
    {
      "inputs": [],
      "name": "rentFee",
      "outputs": [
        {
          "internalType": "uint256",
          "name": "",
          "type": "uint256"
        }
      ],
      "stateMutability": "view",
      "type": "function"
    },
    {
      "inputs": [
        {
          "internalType": "address[]",
          "name": "_nft",
          "type": "address[]"
        },
        {
          "internalType": "enum RentNft.NftContractType[]",
          "name": "_nftType",
          "type": "uint8[]"
        },
        {
          "internalType": "uint256[]",
          "name": "_tokenId",
          "type": "uint256[]"
        },
        {
          "internalType": "uint256[]",
          "name": "_id",
          "type": "uint256[]"
        }
      ],
      "name": "returnIt",
      "outputs": [],
      "stateMutability": "nonpayable",
      "type": "function"
    },
    {
      "inputs": [
        {
          "internalType": "address payable",
          "name": "_newBeneficiary",
          "type": "address"
        }
      ],
      "name": "setBeneficiary",
      "outputs": [],
      "stateMutability": "nonpayable",
      "type": "function"
    },
    {
      "inputs": [
        {
          "internalType": "uint256",
          "name": "_rentFee",
          "type": "uint256"
        }
      ],
      "name": "setRentFee",
      "outputs": [],
      "stateMutability": "nonpayable",
      "type": "function"
    },
    {
      "inputs": [
        {
          "internalType": "address[]",
          "name": "_nft",
          "type": "address[]"
        },
        {
          "internalType": "enum RentNft.NftContractType[]",
          "name": "_nftType",
          "type": "uint8[]"
        },
        {
          "internalType": "uint256[]",
          "name": "_tokenId",
          "type": "uint256[]"
        },
        {
          "internalType": "uint256[]",
          "name": "_id",
          "type": "uint256[]"
        }
      ],
      "name": "stopLending",
      "outputs": [],
      "stateMutability": "nonpayable",
      "type": "function"
    },
    {
      "inputs": [
        {
          "internalType": "address",
          "name": "newOwner",
          "type": "address"
        }
      ],
      "name": "transferOwnership",
      "outputs": [],
      "stateMutability": "nonpayable",
      "type": "function"
    }
  ],
  "transactionHash": "0x34a39d7138247e38181a29e027df355b3b1979716ca9be6391e514fef61af4d7",
  "args": [
    "0x927dc843d9655eED4F72c51911b094B18904411b",
    "0xefFf4833CE0496fB251B792cF8C08D43eC3C5FF3"
  ],
  "solcInputHash": "1f5e1ad626c9bad5c0c78c8e17fc4986",
  "bytecode": "0x608060405260016002556101f46003553480156200001c57600080fd5b5060405162003abd38038062003abd833981810160405260408110156200004257600080fd5b508051602090910151600160009081556200005c620000dc565b600180546001600160a01b0319166001600160a01b038316908117909155604051919250906000907f8be0079c531659141344cd1fd0a4f28419497f9722a3daafe3b4186f6b6457e0908290a350600480546001600160a01b039384166001600160a01b03199182161790915560058054929093169116179055620000e0565b3390565b6139cd80620000f06000396000f3fe6080604052600436106100a75760003560e01c806376774ea31161006457806376774ea3146108735780638da5cb5b1461089d5780639208cea6146108ce578063a985ad3714610c88578063bf2b23ea14610ebc578063f2fde38b14610ee3576100a7565b8063150b7a02146100ac5780631c31f7101461019a578063259c52a7146101cf578063316d32341461040357806359fe66e4146106ac578063715018a61461085e575b600080fd5b3480156100b857600080fd5b5061017d600480360360808110156100cf57600080fd5b6001600160a01b03823581169260208101359091169160408201359190810190608081016060820135600160201b81111561010957600080fd5b82018360208201111561011b57600080fd5b803590602001918460018302840111600160201b8311171561013c57600080fd5b91908080601f016020809104026020016040519081016040528093929190818152602001838380828437600092019190915250929550610f16945050505050565b604080516001600160e01b03199092168252519081900360200190f35b3480156101a657600080fd5b506101cd600480360360208110156101bd57600080fd5b50356001600160a01b0316610f26565b005b3480156101db57600080fd5b506101cd600480360360808110156101f257600080fd5b810190602081018135600160201b81111561020c57600080fd5b82018360208201111561021e57600080fd5b803590602001918460208302840111600160201b8311171561023f57600080fd5b9190808060200260200160405190810160405280939291908181526020018383602002808284376000920191909152509295949360208101935035915050600160201b81111561028e57600080fd5b8201836020820111156102a057600080fd5b803590602001918460208302840111600160201b831117156102c157600080fd5b9190808060200260200160405190810160405280939291908181526020018383602002808284376000920191909152509295949360208101935035915050600160201b81111561031057600080fd5b82018360208201111561032257600080fd5b803590602001918460208302840111600160201b8311171561034357600080fd5b9190808060200260200160405190810160405280939291908181526020018383602002808284376000920191909152509295949360208101935035915050600160201b81111561039257600080fd5b8201836020820111156103a457600080fd5b803590602001918460208302840111600160201b831117156103c557600080fd5b919080806020026020016040519081016040528093929190818152602001838360200280828437600092019190915250929550610fa0945050505050565b6101cd600480360360a081101561041957600080fd5b810190602081018135600160201b81111561043357600080fd5b82018360208201111561044557600080fd5b803590602001918460208302840111600160201b8311171561046657600080fd5b9190808060200260200160405190810160405280939291908181526020018383602002808284376000920191909152509295949360208101935035915050600160201b8111156104b557600080fd5b8201836020820111156104c757600080fd5b803590602001918460208302840111600160201b831117156104e857600080fd5b9190808060200260200160405190810160405280939291908181526020018383602002808284376000920191909152509295949360208101935035915050600160201b81111561053757600080fd5b82018360208201111561054957600080fd5b803590602001918460208302840111600160201b8311171561056a57600080fd5b9190808060200260200160405190810160405280939291908181526020018383602002808284376000920191909152509295949360208101935035915050600160201b8111156105b957600080fd5b8201836020820111156105cb57600080fd5b803590602001918460208302840111600160201b831117156105ec57600080fd5b9190808060200260200160405190810160405280939291908181526020018383602002808284376000920191909152509295949360208101935035915050600160201b81111561063b57600080fd5b82018360208201111561064d57600080fd5b803590602001918460208302840111600160201b8311171561066e57600080fd5b91908080602002602001604051908101604052809392919081815260200183836020028082843760009201919091525092955061124d945050505050565b3480156106b857600080fd5b506101cd600480360360608110156106cf57600080fd5b810190602081018135600160201b8111156106e957600080fd5b8201836020820111156106fb57600080fd5b803590602001918460208302840111600160201b8311171561071c57600080fd5b9190808060200260200160405190810160405280939291908181526020018383602002808284376000920191909152509295949360208101935035915050600160201b81111561076b57600080fd5b82018360208201111561077d57600080fd5b803590602001918460208302840111600160201b8311171561079e57600080fd5b9190808060200260200160405190810160405280939291908181526020018383602002808284376000920191909152509295949360208101935035915050600160201b8111156107ed57600080fd5b8201836020820111156107ff57600080fd5b803590602001918460208302840111600160201b8311171561082057600080fd5b919080806020026020016040519081016040528093929190818152602001838360200280828437600092019190915250929550611a4f945050505050565b34801561086a57600080fd5b506101cd611dec565b34801561087f57600080fd5b506101cd6004803603602081101561089657600080fd5b5035611e8e565b3480156108a957600080fd5b506108b2611f41565b604080516001600160a01b039092168252519081900360200190f35b3480156108da57600080fd5b506101cd600480360360e08110156108f157600080fd5b810190602081018135600160201b81111561090b57600080fd5b82018360208201111561091d57600080fd5b803590602001918460208302840111600160201b8311171561093e57600080fd5b9190808060200260200160405190810160405280939291908181526020018383602002808284376000920191909152509295949360208101935035915050600160201b81111561098d57600080fd5b82018360208201111561099f57600080fd5b803590602001918460208302840111600160201b831117156109c057600080fd5b9190808060200260200160405190810160405280939291908181526020018383602002808284376000920191909152509295949360208101935035915050600160201b811115610a0f57600080fd5b820183602082011115610a2157600080fd5b803590602001918460208302840111600160201b83111715610a4257600080fd5b9190808060200260200160405190810160405280939291908181526020018383602002808284376000920191909152509295949360208101935035915050600160201b811115610a9157600080fd5b820183602082011115610aa357600080fd5b803590602001918460208302840111600160201b83111715610ac457600080fd5b9190808060200260200160405190810160405280939291908181526020018383602002808284376000920191909152509295949360208101935035915050600160201b811115610b1357600080fd5b820183602082011115610b2557600080fd5b803590602001918460208302840111600160201b83111715610b4657600080fd5b9190808060200260200160405190810160405280939291908181526020018383602002808284376000920191909152509295949360208101935035915050600160201b811115610b9557600080fd5b820183602082011115610ba757600080fd5b803590602001918460208302840111600160201b83111715610bc857600080fd5b9190808060200260200160405190810160405280939291908181526020018383602002808284376000920191909152509295949360208101935035915050600160201b811115610c1757600080fd5b820183602082011115610c2957600080fd5b803590602001918460208302840111600160201b83111715610c4a57600080fd5b919080806020026020016040519081016040528093929190818152602001838360200280828437600092019190915250929550611f50945050505050565b348015610c9457600080fd5b506101cd60048036036080811015610cab57600080fd5b810190602081018135600160201b811115610cc557600080fd5b820183602082011115610cd757600080fd5b803590602001918460208302840111600160201b83111715610cf857600080fd5b9190808060200260200160405190810160405280939291908181526020018383602002808284376000920191909152509295949360208101935035915050600160201b811115610d4757600080fd5b820183602082011115610d5957600080fd5b803590602001918460208302840111600160201b83111715610d7a57600080fd5b9190808060200260200160405190810160405280939291908181526020018383602002808284376000920191909152509295949360208101935035915050600160201b811115610dc957600080fd5b820183602082011115610ddb57600080fd5b803590602001918460208302840111600160201b83111715610dfc57600080fd5b9190808060200260200160405190810160405280939291908181526020018383602002808284376000920191909152509295949360208101935035915050600160201b811115610e4b57600080fd5b820183602082011115610e5d57600080fd5b803590602001918460208302840111600160201b83111715610e7e57600080fd5b9190808060200260200160405190810160405280939291908181526020018383602002808284376000920191909152509295506124d1945050505050565b348015610ec857600080fd5b50610ed16126f8565b60408051918252519081900360200190f35b348015610eef57600080fd5b506101cd60048036036020811015610f0657600080fd5b50356001600160a01b03166126fe565b630a85bd0160e11b949350505050565b610f2e6127f7565b6001546001600160a01b03908116911614610f7e576040805162461bcd60e51b8152602060048201819052602482015260008051602061394e833981519152604482015290519081900360640190fd5b600580546001600160a01b0319166001600160a01b0392909216919091179055565b60026000541415610fe6576040805162461bcd60e51b815260206004820152601f602482015260008051602061389b833981519152604482015290519081900360640190fd5b600260009081555b84518110156112415760006006600087848151811061100957fe5b602002602001015186858151811061101d57fe5b602002602001015186868151811061103157fe5b602002602001015160405160200180846001600160a01b031660601b815260140183815260200182815260200193505050506040516020818303038152906040528051906020012081526020019081526020016000209050336001600160a01b03168160010160000160009054906101000a90046001600160a01b03166001600160a01b0316146110f6576040805162461bcd60e51b815260206004820152600a6024820152693737ba103932b73a32b960b11b604482015290519081900360640190fd5b6040805160608101825260018301546001600160a01b0381168252600160a01b810461ffff166020830152600160b01b900463ffffffff169181019190915260009061114290426127fb565b905061118a86848151811061115357fe5b602002602001015188858151811061116757fe5b602002602001015187868151811061117b57fe5b6020026020010151333061286d565b61119482826129a5565b8383815181106111a057fe5b60200260200101518584815181106111b457fe5b60200260200101518885815181106111c857fe5b60200260200101516001600160a01b03167fc2e5648ce895a76d6488be25b8cd6e98aab7b4a4bf183b1baea76ee09da6917d334260405180836001600160a01b031681526020018263ffffffff1681526020019250505060405180910390a450600190810180546001600160d01b031916905501610fee565b50506001600055505050565b60026000541415611293576040805162461bcd60e51b815260206004820152601f602482015260008051602061389b833981519152604482015290519081900360640190fd5b600260005582518551146112e7576040805162461bcd60e51b815260206004820152601660248201527506240c2e4ce40c2e4e4e640c8d2cccc40d8cadccee8d60531b604482015290519081900360640190fd5b8151835114611336576040805162461bcd60e51b815260206004820152601660248201527506440c2e4ce40c2e4e4e640c8d2cccc40d8cadccee8d60531b604482015290519081900360640190fd5b8051825114611385576040805162461bcd60e51b815260206004820152601660248201527506640c2e4ce40c2e4e4e640c8d2cccc40d8cadccee8d60531b604482015290519081900360640190fd5b61138d613812565b6000608082018190528651600019016101c08301525b8651811015611a41578581815181106113b857fe5b6020026020010151826060019060018111156113d057fe5b908160018111156113dd57fe5b815250508481815181106113ed57fe5b602002602001015182600001818152505083818151811061140a57fe5b602002602001015182602001818152505086818151811061142757fe5b6020908102919091018101516001600160a01b03808216604086810191909152855186850151825160609590951b6001600160601b03191685870152603485019190915260548085019190915281518085039091018152607490930181528251928401929092206000908152600690935291206001810154909116156114e7576040805162461bcd60e51b815260206004820152601060248201526f0c48185b1c9958591e481c995b9d195960821b604482015290519081900360640190fd5b6001810154600160a01b900461ffff161561153c576040805162461bcd60e51b815260206004820152601060248201526f0c88185b1c9958591e481c995b9d195960821b604482015290519081900360640190fd5b6001810154600160b01b900463ffffffff1615611593576040805162461bcd60e51b815260206004820152601060248201526f0cc8185b1c9958591e481c995b9d195960821b604482015290519081900360640190fd5b80546001600160a01b03163314156115e6576040805162461bcd60e51b815260206004820152601160248201527018d85b9d081c995b9d081bdddb881b999d607a1b604482015290519081900360640190fd5b8382815181106115f257fe5b602090810291909101015161ffff1660a08401819052611659576040805162461bcd60e51b815260206004820152601e60248201527f73686f756c642072656e7420666f72206174206c656173742061206461790000604482015290519081900360640190fd5b805460a084015161ffff600160a01b9092048216911611156116c2576040805162461bcd60e51b815260206004820152601a60248201527f6d61782072656e74206475726174696f6e206578636565646564000000000000604482015290519081900360640190fd5b601260c08401528054600160f01b900460ff1660058111156116e057fe5b60ff1660e08401819052600480546040805163c6ee427f60e01b81529283019390935291516001600160a01b039092169163c6ee427f91602480820192602092909190829003018186803b15801561173757600080fd5b505afa15801561174b573d6000803e3d6000fd5b505050506040513d602081101561176157600080fd5b50516001600160a01b031661012084015260e0830151600160ff909116116101408401819052156117ff578261012001516001600160a01b031663313ce5676040518163ffffffff1660e01b815260040160206040518083038186803b1580156117ca57600080fd5b505afa1580156117de573d6000803e3d6000fd5b505050506040513d60208110156117f457600080fd5b505160ff1660c08401525b60c0830151600a0a6101008401819052815461182691600160b01b90910460e01b90612ce2565b60a084015161ffff1602610160840152805461010084015161185291600160d01b900460e01b90612ce2565b6101808401526101608301516118a4576040805162461bcd60e51b815260206004820152601260248201527172656e74207072696365206973207a65726f60701b604482015290519081900360640190fd5b610180830151610160840151016101a0840152610140830151156118f1576118ec3330856101a001518661012001516001600160a01b0316612d85909392919063ffffffff16565b611903565b6101a083015160808401805190910190525b826101c0015182141561195e578260800151341461195e576040805162461bcd60e51b81526020600482015260136024820152721a5b9cdd59999a58da595b9d08185b5bdd5b9d606a1b604482015290519081900360640190fd5b60018101805460a0850151336001600160a01b0319909216821761ffff60a01b1916600160a01b61ffff909216919091021763ffffffff60b01b1916600160b01b4263ffffffff1602179091556060840151604085015185516119c293309061286d565b336001600160a01b0316836000015184604001516001600160a01b03167f239fb88b47e519434a2459f6ad017abd6862eb213c907e9afbd40de3e7ed1c5386602001518760a0015142604051808481526020018361ffff1681526020018263ffffffff168152602001935050505060405180910390a4506001016113a3565b505060016000555050505050565b60026000541415611a95576040805162461bcd60e51b815260206004820152601f602482015260008051602061389b833981519152604482015290519081900360640190fd5b600260009081555b8351811015611de157600060066000868481518110611ab857fe5b6020026020010151868581518110611acc57fe5b6020026020010151868681518110611ae057fe5b60209081029190910181015160408051606095861b6001600160601b03191681850152603481019490945260548085019290925280518085039092018252607490930183528051908201208452838101949094529182016000208251918201835260018101546001600160a01b0381168352600160a01b810461ffff1694830194909452600160b01b90930463ffffffff1691810191909152909150611b869042612de5565b6040805160a08101825282546001600160a01b0381168252600160a01b810461ffff166020830152600160b01b810460e090811b6001600160e01b031990811694840194909452600160d01b8204901b9092166060820152611c119183906080830190600160f01b900460ff166005811115611bfe57fe5b6005811115611c0957fe5b905250612e53565b6040805160608101825260018301546001600160a01b0381168252600160a01b810461ffff166020830152600160b01b900463ffffffff1691810191909152611c599061301e565b6040805160e0808201835283546001600160a01b03811693830193845261ffff600160a01b82041660608401526001600160e01b0319600160b01b8204831b81166080850152600160d01b820490921b90911660a0830152611d34928491839190839060c084019060ff600160f01b909104166005811115611cd757fe5b6005811115611ce257fe5b905250815260408051606081018252600193909301546001600160a01b0381168452600160a01b810461ffff16602080860191909152600160b01b90910463ffffffff16918401919091520152613117565b80546001600160f81b03191681556001810180546001600160d01b03191690558251839083908110611d6257fe5b6020026020010151848381518110611d7657fe5b6020026020010151868481518110611d8a57fe5b60200260200101516001600160a01b03167f05aa5bfe8585cc13e8621c71274852eaa27e35b96473184ca96990fe6a38b80942604051808263ffffffff16815260200191505060405180910390a450600101611a9d565b505060016000555050565b611df46127f7565b6001546001600160a01b03908116911614611e44576040805162461bcd60e51b8152602060048201819052602482015260008051602061394e833981519152604482015290519081900360640190fd5b6001546040516000916001600160a01b0316907f8be0079c531659141344cd1fd0a4f28419497f9722a3daafe3b4186f6b6457e0908390a3600180546001600160a01b0319169055565b611e966127f7565b6001546001600160a01b03908116911614611ee6576040805162461bcd60e51b8152602060048201819052602482015260008051602061394e833981519152604482015290519081900360640190fd5b6127108110611f3c576040805162461bcd60e51b815260206004820152601e60248201527f312063616e6e6f742062652074616b696e672031303020706374206665650000604482015290519081900360640190fd5b600355565b6001546001600160a01b031690565b60026000541415611f96576040805162461bcd60e51b815260206004820152601f602482015260008051602061389b833981519152604482015290519081900360640190fd5b60026000558451875114611fe8576040805162461bcd60e51b81526020600482015260146024820152730c2e4ce40c2e4e4e640c8d2cccc40d8cadccee8d60631b604482015290519081900360640190fd5b8351855114612035576040805162461bcd60e51b81526020600482015260146024820152730c2e4ce40c2e4e4e640c8d2cccc40d8cadccee8d60631b604482015290519081900360640190fd5b8251845114612082576040805162461bcd60e51b81526020600482015260146024820152730c2e4ce40c2e4e4e640c8d2cccc40d8cadccee8d60631b604482015290519081900360640190fd5b80518251146120cf576040805162461bcd60e51b81526020600482015260146024820152730c2e4ce40c2e4e4e640c8d2cccc40d8cadccee8d60631b604482015290519081900360640190fd5b60005b87518110156124c25760008582815181106120e957fe5b602002602001015161ffff1611612147576040805162461bcd60e51b815260206004820152601d60248201527f6d757374206265206174206c65617374206f6e6520646179206c656e64000000604482015290519081900360640190fd5b61072185828151811061215657fe5b602002602001015161ffff1611156121b5576040805162461bcd60e51b815260206004820152601c60248201527f6d757374206265206c657373207468616e206669766520796561727300000000604482015290519081900360640190fd5b6121ec8782815181106121c457fe5b60200260200101518983815181106121d857fe5b602002602001015188848151811061117b57fe5b60008882815181106121fa57fe5b602002602001015187838151811061220e57fe5b602002602001015160025460405160200180846001600160a01b031660601b8152601401838152602001828152602001935050505060405160208183030381529060405280519060200120905060006006600083815260200190815260200160002090506040518060a00160405280336001600160a01b0316815260200188858151811061229857fe5b602002602001015161ffff1681526020018785815181106122b557fe5b602002602001015160e01b6001600160e01b03191681526020018685815181106122db57fe5b602002602001015160e01b6001600160e01b031916815260200185858151811061230157fe5b6020026020010151600581111561231457fe5b9052805182546020830151604084015160608501516001600160a01b03199093166001600160a01b039094169390931761ffff60a01b1916600160a01b61ffff909216919091021763ffffffff60b01b1916600160b01b60e093841c021763ffffffff60d01b1916600160d01b9190921c021780835560808201518391829060ff60f01b1916600160f01b8360058111156123ab57fe5b0217905550905050336001600160a01b03168884815181106123c957fe5b60200260200101518b85815181106123dd57fe5b60200260200101516001600160a01b03167f78868c543d8f4f530a989d9f6ba80dc2d95b3e5480d38b371305a04b3502903c6002548b888151811061241e57fe5b60200260200101518b898151811061243257fe5b60200260200101518b8a8151811061244657fe5b60200260200101518b8b8151811061245a57fe5b6020026020010151604051808681526020018561ffff1681526020018463ffffffff1681526020018363ffffffff16815260200182600581111561249a57fe5b81526020019550505050505060405180910390a45050600280546001908101909155016120d2565b50506001600055505050505050565b60005b84518110156126f1576000600660008784815181106124ef57fe5b602002602001015186858151811061250357fe5b602002602001015186868151811061251757fe5b60209081029190910181015160408051606095861b6001600160601b03191681850152603481019490945260548085019290925280518085039092018252607490930183528051908201208452838101949094529182016000208251918201835260018101546001600160a01b0381168352600160a01b810461ffff1694830194909452600160b01b90930463ffffffff16918101919091529091506125bc906132f7565b80546001600160a01b03163314612610576040805162461bcd60e51b81526020600482015260136024820152721bdb9b1e481b195b99195c88185b1b1bddd959606a1b604482015290519081900360640190fd5b61265685838151811061261f57fe5b602002602001015187848151811061263357fe5b602002602001015186858151811061264757fe5b6020026020010151303361286d565b80546001600160f81b0319168155825183908390811061267257fe5b602002602001015184838151811061268657fe5b602002602001015187848151811061269a57fe5b60200260200101516001600160a01b03167f8d66e30e8e86dc4affaf59a67cb9877f2935b867994fd273f9e7826dc99d82ef42604051808263ffffffff16815260200191505060405180910390a4506001016124d4565b5050505050565b60035481565b6127066127f7565b6001546001600160a01b03908116911614612756576040805162461bcd60e51b8152602060048201819052602482015260008051602061394e833981519152604482015290519081900360640190fd5b6001600160a01b03811661279b5760405162461bcd60e51b81526004018080602001828103825260268152602001806138bb6026913960400191505060405180910390fd5b6001546040516001600160a01b038084169216907f8be0079c531659141344cd1fd0a4f28419497f9722a3daafe3b4186f6b6457e090600090a3600180546001600160a01b0319166001600160a01b0392909216919091179055565b3390565b6000826040015163ffffffff1682039050826020015161ffff16620151800262ffffff16811115612867576040805162461bcd60e51b8152602060048201526011602482015270191d5c985d1a5bdb88195e18d959591959607a1b604482015290519081900360640190fd5b92915050565b600085600181111561287b57fe5b141561290a5760408051637921219560e11b81526001600160a01b0384811660048301528381166024830152604482018690526001606483015260a06084830152600060a4830181905292519087169263f242432a9260c4808201939182900301818387803b1580156128ed57600080fd5b505af1158015612901573d6000803e3d6000fd5b505050506126f1565b600185600181111561291857fe5b14156126f157836001600160a01b03166323b872dd8383866040518463ffffffff1660e01b815260040180846001600160a01b03168152602001836001600160a01b031681526020018281526020019350505050600060405180830381600087803b15801561298657600080fd5b505af115801561299a573d6000803e3d6000fd5b505050505050505050565b8154601290600090600160f01b900460ff1660058111156129c257fe5b600480546040805163c6ee427f60e01b815260ff851693810193909352519293506000926001600160a01b039091169163c6ee427f916024808301926020929190829003018186803b158015612a1757600080fd5b505afa158015612a2b573d6000803e3d6000fd5b505050506040513d6020811015612a4157600080fd5b50519050600160ff8316118015612abd57816001600160a01b031663313ce5676040518163ffffffff1660e01b815260040160206040518083038186803b158015612a8b57600080fd5b505afa158015612a9f573d6000803e3d6000fd5b505050506040513d6020811015612ab557600080fd5b505160ff1693505b8554600a85900a90600090612adc90600160d01b900460e01b83612ce2565b8854909150600090612af890600160b01b900460e01b84612ce2565b60018a0154909150600160a01b900461ffff168102620151808983020480821015612b545760405162461bcd60e51b81526004018080602001828103825260258152602001806138e16025913960400191505060405180910390fd5b808203808311612bab576040805162461bcd60e51b815260206004820152601b60248201527f756e646572666c6f77206973737565732070726576656e74696f6e0000000000604482015290519081900360640190fd5b8b54600090612bc5908490600160f01b900460ff166133e2565b9186019190508715612c0d578c54612bec906001600160a01b038b811691168386036134ec565b60018d0154612c08906001600160a01b038b81169116846134ec565b612cd3565b8960ff16600114612c5a576040805162461bcd60e51b815260206004820152601260248201527173656e74696e656c7320646f6e742070617960701b604482015290519081900360640190fd5b8c546040516001600160a01b039091169082850380156108fc02916000818181858888f19350505050158015612c94573d6000803e3d6000fd5b5060018d01546040516001600160a01b039091169083156108fc029084906000818181858888f19350505050158015612cd1573d6000803e3d6000fd5b505b50505050505050505050505050565b600060f083901c60e084901c61ffff16612710840461270f831115612d075761270f92505b61ffff80841686029061270f9084161115612d225761270f92505b61ffff8316820281810182811015612d71576040805162461bcd60e51b815260206004820152600d60248201526c696e76616c696420707269636560981b604482015290519081900360640190fd5b80612d795750825b98975050505050505050565b604080516001600160a01b0380861660248301528416604482015260648082018490528251808303909101815260849091019091526020810180516001600160e01b03166323b872dd60e01b179052612ddf908590613543565b50505050565b816020015161ffff16620151800262ffffff16826040015163ffffffff16820311612e4f576040805162461bcd60e51b8152602060048201526015602482015274191d5c985d1a5bdb881b9bdd08195e18d959591959605a1b604482015290519081900360640190fd5b5050565b80516001600160a01b0316612ea8576040805162461bcd60e51b81526020600482015260166024820152756c656e646572206973207a65726f206164647265737360501b604482015290519081900360640190fd5b602081015161ffff16612f02576040805162461bcd60e51b815260206004820152601960248201527f6d61782072656e74206475726174696f6e206973207a65726f00000000000000604482015290519081900360640190fd5b60408101516001600160e01b031916612f62576040805162461bcd60e51b815260206004820152601860248201527f6461696c792072656e74207072696365206973207a65726f0000000000000000604482015290519081900360640190fd5b60608101516001600160e01b031916612fb6576040805162461bcd60e51b81526020600482015260116024820152706e6674207072696365206973207a65726f60781b604482015290519081900360640190fd5b600081608001516005811115612fc857fe5b141561301b576040805162461bcd60e51b815260206004820152601960248201527f7061796d656e7420746f6b656e2069732073656e74696e656c00000000000000604482015290519081900360640190fd5b50565b80516001600160a01b031661307a576040805162461bcd60e51b815260206004820152601e60248201527f72656e7465722061646472657373206973207a65726f20616464726573730000604482015290519081900360640190fd5b602081015161ffff166130cc576040805162461bcd60e51b815260206004820152601560248201527472656e74206475726174696f6e206973207a65726f60581b604482015290519081900360640190fd5b604081015163ffffffff1661301b576040805162461bcd60e51b815260206004820152600c60248201526b1b995d995c881c995b9d195960a21b604482015290519081900360640190fd5b805160800151601290600090600581111561312e57fe5b600480546040805163c6ee427f60e01b815260ff851693810193909352519293506000926001600160a01b039091169163c6ee427f916024808301926020929190829003018186803b15801561318357600080fd5b505afa158015613197573d6000803e3d6000fd5b505050506040513d60208110156131ad57600080fd5b50519050600160ff831611801561322957816001600160a01b031663313ce5676040518163ffffffff1660e01b815260040160206040518083038186803b1580156131f757600080fd5b505afa15801561320b573d6000803e3d6000fd5b505050506040513d602081101561322157600080fd5b505160ff1693505b845160600151600a85900a906000906132429083612ce2565b9050600061325888600001516040015184612ce2565b6020808a0151015190915061ffff16810260006132838260ff8a16600581111561327e57fe5b6133e2565b905081840186156132ad578a51516132a8906001600160a01b038a16908484036134ec565b6132ea565b8a51516040516001600160a01b039091169083830380156108fc02916000818181858888f193505050501580156132e8573d6000803e3d6000fd5b505b5050505050505050505050565b80516001600160a01b03161561333e5760405162461bcd60e51b81526004018080602001828103825260228152602001806139066022913960400191505060405180910390fd5b602081015161ffff1615613399576040805162461bcd60e51b815260206004820152601960248201527f72656e74206475726174696f6e206973206e6f74207a65726f00000000000000604482015290519081900360640190fd5b604081015163ffffffff161561301b576040805162461bcd60e51b81526020600482015260096024820152681a5cc81c995b9d195960ba1b604482015290519081900360640190fd5b6003546127109083020460008260058111156133fa57fe5b905060018160ff1611156134a957600480546040805163c6ee427f60e01b815260ff851693810193909352516000926001600160a01b039092169163c6ee427f916024808301926020929190829003018186803b15801561345a57600080fd5b505afa15801561346e573d6000803e3d6000fd5b505050506040513d602081101561348457600080fd5b50516005549091506134a3906001600160a01b038084169116856134ec565b506134e5565b6005546040516001600160a01b039091169083156108fc029084906000818181858888f193505050501580156134e3573d6000803e3d6000fd5b505b5092915050565b604080516001600160a01b038416602482015260448082018490528251808303909101815260649091019091526020810180516001600160e01b031663a9059cbb60e01b17905261353e908490613543565b505050565b6000613598826040518060400160405280602081526020017f5361666545524332303a206c6f772d6c6576656c2063616c6c206661696c6564815250856001600160a01b03166135f49092919063ffffffff16565b80519091501561353e578080602001905160208110156135b757600080fd5b505161353e5760405162461bcd60e51b815260040180806020018281038252602a81526020018061396e602a913960400191505060405180910390fd5b6060613603848460008561360d565b90505b9392505050565b60608247101561364e5760405162461bcd60e51b81526004018080602001828103825260268152602001806139286026913960400191505060405180910390fd5b61365785613768565b6136a8576040805162461bcd60e51b815260206004820152601d60248201527f416464726573733a2063616c6c20746f206e6f6e2d636f6e7472616374000000604482015290519081900360640190fd5b600080866001600160a01b031685876040518082805190602001908083835b602083106136e65780518252601f1990920191602091820191016136c7565b6001836020036101000a03801982511681845116808217855250505050505090500191505060006040518083038185875af1925050503d8060008114613748576040519150601f19603f3d011682016040523d82523d6000602084013e61374d565b606091505b509150915061375d82828661376e565b979650505050505050565b3b151590565b6060831561377d575081613606565b82511561378d5782518084602001fd5b8160405162461bcd60e51b81526004018080602001828103825283818151815260200191508051906020019080838360005b838110156137d75781810151838201526020016137bf565b50505050905090810190601f1680156138045780820380516001836020036101000a031916815260200191505b509250505060405180910390fd5b604080516101e081018252600080825260208201819052918101829052906060820190815260200160008152602001600061ffff16815260200160008152602001600060ff1681526020016000815260200160006001600160a01b0316815260200160001515815260200160008152602001600081526020016000815260200160008152509056fe5265656e7472616e637947756172643a207265656e7472616e742063616c6c004f776e61626c653a206e6577206f776e657220697320746865207a65726f20616464726573736c656e64657220726563656976696e67206d6f7265207468616e2072656e74657220706d7472656e7465722061646472657373206973206e6f74207a65726f2061646472657373416464726573733a20696e73756666696369656e742062616c616e636520666f722063616c6c4f776e61626c653a2063616c6c6572206973206e6f7420746865206f776e65725361666545524332303a204552433230206f7065726174696f6e20646964206e6f742073756363656564a26469706673582212204807939ae7107d6b5109bfcdedf7d7eb5dc1af459f63f076f65b254297861caf64736f6c63430007060033",
  "devdoc": {
    "kind": "dev",
    "methods": {
      "onERC721Received(address,address,uint256,bytes)": {
        "details": "See {IERC721Receiver-onERC721Received}. Always returns `IERC721Receiver.onERC721Received.selector`."
      },
      "owner()": {
        "details": "Returns the address of the current owner."
      },
      "renounceOwnership()": {
        "details": "Leaves the contract without owner. It will not be possible to call `onlyOwner` functions anymore. Can only be called by the current owner. NOTE: Renouncing ownership will leave the contract without an owner, thereby removing any functionality that is only available to the owner."
      },
      "transferOwnership(address)": {
        "details": "Transfers ownership of the contract to a new account (`newOwner`). Can only be called by the current owner."
      }
    },
    "version": 1
  },
  "userdoc": {
    "kind": "user",
    "methods": {},
    "version": 1
  },
  "storageLayout": {
    "storage": [
      {
        "astId": 4729,
        "contract": "src/RentNft.sol:RentNft",
        "label": "_status",
        "offset": 0,
        "slot": "0",
        "type": "t_uint256"
      },
      {
        "astId": 30,
        "contract": "src/RentNft.sol:RentNft",
        "label": "_owner",
        "offset": 0,
        "slot": "1",
        "type": "t_address"
      },
      {
        "astId": 12932,
        "contract": "src/RentNft.sol:RentNft",
        "label": "id",
        "offset": 0,
        "slot": "2",
        "type": "t_uint256"
      },
      {
        "astId": 12935,
        "contract": "src/RentNft.sol:RentNft",
        "label": "rentFee",
        "offset": 0,
        "slot": "3",
        "type": "t_uint256"
      },
      {
        "astId": 12937,
        "contract": "src/RentNft.sol:RentNft",
        "label": "resolver",
        "offset": 0,
        "slot": "4",
        "type": "t_contract(Resolver)14752"
      },
      {
        "astId": 12939,
        "contract": "src/RentNft.sol:RentNft",
        "label": "beneficiary",
        "offset": 0,
        "slot": "5",
        "type": "t_address_payable"
      },
      {
        "astId": 13064,
        "contract": "src/RentNft.sol:RentNft",
        "label": "lendingRenting",
        "offset": 0,
        "slot": "6",
        "type": "t_mapping(t_bytes32,t_struct(LendingRenting)13029_storage)"
      }
    ],
    "types": {
      "t_address": {
        "encoding": "inplace",
        "label": "address",
        "numberOfBytes": "20"
      },
      "t_address_payable": {
        "encoding": "inplace",
        "label": "address payable",
        "numberOfBytes": "20"
      },
      "t_bytes32": {
        "encoding": "inplace",
        "label": "bytes32",
        "numberOfBytes": "32"
      },
      "t_bytes4": {
        "encoding": "inplace",
        "label": "bytes4",
        "numberOfBytes": "4"
      },
      "t_contract(Resolver)14752": {
        "encoding": "inplace",
        "label": "contract Resolver",
        "numberOfBytes": "20"
      },
      "t_enum(PaymentToken)14708": {
        "encoding": "inplace",
        "label": "enum Resolver.PaymentToken",
        "numberOfBytes": "1"
      },
      "t_mapping(t_bytes32,t_struct(LendingRenting)13029_storage)": {
        "encoding": "mapping",
        "key": "t_bytes32",
        "label": "mapping(bytes32 => struct RentNft.LendingRenting)",
        "numberOfBytes": "32",
        "value": "t_struct(LendingRenting)13029_storage"
      },
      "t_struct(Lending)13017_storage": {
        "encoding": "inplace",
        "label": "struct RentNft.Lending",
        "members": [
          {
            "astId": 13008,
            "contract": "src/RentNft.sol:RentNft",
            "label": "lenderAddress",
            "offset": 0,
            "slot": "0",
            "type": "t_address_payable"
          },
          {
            "astId": 13010,
            "contract": "src/RentNft.sol:RentNft",
            "label": "maxRentDuration",
            "offset": 20,
            "slot": "0",
            "type": "t_uint16"
          },
          {
            "astId": 13012,
            "contract": "src/RentNft.sol:RentNft",
            "label": "dailyRentPrice",
            "offset": 22,
            "slot": "0",
            "type": "t_bytes4"
          },
          {
            "astId": 13014,
            "contract": "src/RentNft.sol:RentNft",
            "label": "nftPrice",
            "offset": 26,
            "slot": "0",
            "type": "t_bytes4"
          },
          {
            "astId": 13016,
            "contract": "src/RentNft.sol:RentNft",
            "label": "paymentToken",
            "offset": 30,
            "slot": "0",
            "type": "t_enum(PaymentToken)14708"
          }
        ],
        "numberOfBytes": "32"
      },
      "t_struct(LendingRenting)13029_storage": {
        "encoding": "inplace",
        "label": "struct RentNft.LendingRenting",
        "members": [
          {
            "astId": 13026,
            "contract": "src/RentNft.sol:RentNft",
            "label": "lending",
            "offset": 0,
            "slot": "0",
            "type": "t_struct(Lending)13017_storage"
          },
          {
            "astId": 13028,
            "contract": "src/RentNft.sol:RentNft",
            "label": "renting",
            "offset": 0,
            "slot": "1",
            "type": "t_struct(Renting)13024_storage"
          }
        ],
        "numberOfBytes": "64"
      },
      "t_struct(Renting)13024_storage": {
        "encoding": "inplace",
        "label": "struct RentNft.Renting",
        "members": [
          {
            "astId": 13019,
            "contract": "src/RentNft.sol:RentNft",
            "label": "renterAddress",
            "offset": 0,
            "slot": "0",
            "type": "t_address_payable"
          },
          {
            "astId": 13021,
            "contract": "src/RentNft.sol:RentNft",
            "label": "rentDuration",
            "offset": 20,
            "slot": "0",
            "type": "t_uint16"
          },
          {
            "astId": 13023,
            "contract": "src/RentNft.sol:RentNft",
            "label": "rentedAt",
            "offset": 22,
            "slot": "0",
            "type": "t_uint32"
          }
        ],
        "numberOfBytes": "32"
      },
      "t_uint16": {
        "encoding": "inplace",
        "label": "uint16",
        "numberOfBytes": "2"
      },
      "t_uint256": {
        "encoding": "inplace",
        "label": "uint256",
        "numberOfBytes": "32"
      },
      "t_uint32": {
        "encoding": "inplace",
        "label": "uint32",
        "numberOfBytes": "4"
      }
    }
  }
}