{
  "address": "0x88E163BD5c873C68dd08d2692F5bcFcD0393a6FE",
  "abi": [
    {
      "inputs": [
        {
          "internalType": "bytes4",
          "name": "_price",
          "type": "bytes4"
        },
        {
          "internalType": "uint256",
          "name": "_scale",
          "type": "uint256"
        }
      ],
      "name": "_unpackPrice",
      "outputs": [
        {
          "internalType": "uint256",
          "name": "",
          "type": "uint256"
        }
      ],
      "stateMutability": "pure",
      "type": "function"
    }
  ],
  "transactionHash": "0xdc2645b84a24a3fbf4c7389b642ee71b23cde727227717701f33afbb11567248",
  "args": [],
  "solcInputHash": "507152089c0e48e7dc19179fcca58b5e",
  "bytecode": "0x608060405234801561001057600080fd5b50610148806100206000396000f3fe608060405234801561001057600080fd5b506004361061002b5760003560e01c806345bbd14114610030575b600080fd5b61005d6004803603604081101561004657600080fd5b506001600160e01b0319813516906020013561006f565b60408051918252519081900360200190f35b600060f083901c60e084901c61ffff16612710840461270f8311156100945761270f92505b61ffff80841686029061270f90841611156100af5761270f92505b61ffff83168202818101828110156100fe576040805162461bcd60e51b815260206004820152600d60248201526c696e76616c696420707269636560981b604482015290519081900360640190fd5b806101065750825b9897505050505050505056fea2646970667358221220460a164ceb28bcea8fa5db4a7764dd25cb9a45e0fb9cf8dda8e3f6d835f5f56964736f6c63430007060033",
  "devdoc": {
    "kind": "dev",
    "methods": {
      "_unpackPrice(bytes4,uint256)": {
        "details": "for tests only. this must be exact replica of the one in RentNft.sol"
      }
    },
    "version": 1
  },
  "userdoc": {
    "kind": "user",
    "methods": {},
    "version": 1
  },
  "storageLayout": {
    "storage": [],
    "types": null
  }
}