{
  "address": "0xa75af488f6fF876F6AB801669A77Db7929F6E462",
  "abi": [
    {
      "inputs": [],
      "stateMutability": "nonpayable",
      "type": "constructor"
    },
    {
      "anonymous": false,
      "inputs": [
        {
          "indexed": true,
          "internalType": "address",
          "name": "account",
          "type": "address"
        },
        {
          "indexed": true,
          "internalType": "address",
          "name": "operator",
          "type": "address"
        },
        {
          "indexed": false,
          "internalType": "bool",
          "name": "approved",
          "type": "bool"
        }
      ],
      "name": "ApprovalForAll",
      "type": "event"
    },
    {
      "anonymous": false,
      "inputs": [
        {
          "indexed": true,
          "internalType": "address",
          "name": "operator",
          "type": "address"
        },
        {
          "indexed": true,
          "internalType": "address",
          "name": "from",
          "type": "address"
        },
        {
          "indexed": true,
          "internalType": "address",
          "name": "to",
          "type": "address"
        },
        {
          "indexed": false,
          "internalType": "uint256[]",
          "name": "ids",
          "type": "uint256[]"
        },
        {
          "indexed": false,
          "internalType": "uint256[]",
          "name": "values",
          "type": "uint256[]"
        }
      ],
      "name": "TransferBatch",
      "type": "event"
    },
    {
      "anonymous": false,
      "inputs": [
        {
          "indexed": true,
          "internalType": "address",
          "name": "operator",
          "type": "address"
        },
        {
          "indexed": true,
          "internalType": "address",
          "name": "from",
          "type": "address"
        },
        {
          "indexed": true,
          "internalType": "address",
          "name": "to",
          "type": "address"
        },
        {
          "indexed": false,
          "internalType": "uint256",
          "name": "id",
          "type": "uint256"
        },
        {
          "indexed": false,
          "internalType": "uint256",
          "name": "value",
          "type": "uint256"
        }
      ],
      "name": "TransferSingle",
      "type": "event"
    },
    {
      "anonymous": false,
      "inputs": [
        {
          "indexed": false,
          "internalType": "string",
          "name": "value",
          "type": "string"
        },
        {
          "indexed": true,
          "internalType": "uint256",
          "name": "id",
          "type": "uint256"
        }
      ],
      "name": "URI",
      "type": "event"
    },
    {
      "inputs": [],
      "name": "GOLD",
      "outputs": [
        {
          "internalType": "uint256",
          "name": "",
          "type": "uint256"
        }
      ],
      "stateMutability": "view",
      "type": "function"
    },
    {
      "inputs": [],
      "name": "SHIELD",
      "outputs": [
        {
          "internalType": "uint256",
          "name": "",
          "type": "uint256"
        }
      ],
      "stateMutability": "view",
      "type": "function"
    },
    {
      "inputs": [],
      "name": "SILVER",
      "outputs": [
        {
          "internalType": "uint256",
          "name": "",
          "type": "uint256"
        }
      ],
      "stateMutability": "view",
      "type": "function"
    },
    {
      "inputs": [],
      "name": "SWORD",
      "outputs": [
        {
          "internalType": "uint256",
          "name": "",
          "type": "uint256"
        }
      ],
      "stateMutability": "view",
      "type": "function"
    },
    {
      "inputs": [],
      "name": "THORS_HAMMER",
      "outputs": [
        {
          "internalType": "uint256",
          "name": "",
          "type": "uint256"
        }
      ],
      "stateMutability": "view",
      "type": "function"
    },
    {
      "inputs": [],
      "name": "award",
      "outputs": [
        {
          "internalType": "uint256",
          "name": "",
          "type": "uint256"
        }
      ],
      "stateMutability": "nonpayable",
      "type": "function"
    },
    {
      "inputs": [
        {
          "internalType": "address",
          "name": "account",
          "type": "address"
        },
        {
          "internalType": "uint256",
          "name": "id",
          "type": "uint256"
        }
      ],
      "name": "balanceOf",
      "outputs": [
        {
          "internalType": "uint256",
          "name": "",
          "type": "uint256"
        }
      ],
      "stateMutability": "view",
      "type": "function"
    },
    {
      "inputs": [
        {
          "internalType": "address[]",
          "name": "accounts",
          "type": "address[]"
        },
        {
          "internalType": "uint256[]",
          "name": "ids",
          "type": "uint256[]"
        }
      ],
      "name": "balanceOfBatch",
      "outputs": [
        {
          "internalType": "uint256[]",
          "name": "",
          "type": "uint256[]"
        }
      ],
      "stateMutability": "view",
      "type": "function"
    },
    {
      "inputs": [
        {
          "internalType": "address",
          "name": "account",
          "type": "address"
        },
        {
          "internalType": "address",
          "name": "operator",
          "type": "address"
        }
      ],
      "name": "isApprovedForAll",
      "outputs": [
        {
          "internalType": "bool",
          "name": "",
          "type": "bool"
        }
      ],
      "stateMutability": "view",
      "type": "function"
    },
    {
      "inputs": [
        {
          "internalType": "address",
          "name": "from",
          "type": "address"
        },
        {
          "internalType": "address",
          "name": "to",
          "type": "address"
        },
        {
          "internalType": "uint256[]",
          "name": "ids",
          "type": "uint256[]"
        },
        {
          "internalType": "uint256[]",
          "name": "amounts",
          "type": "uint256[]"
        },
        {
          "internalType": "bytes",
          "name": "data",
          "type": "bytes"
        }
      ],
      "name": "safeBatchTransferFrom",
      "outputs": [],
      "stateMutability": "nonpayable",
      "type": "function"
    },
    {
      "inputs": [
        {
          "internalType": "address",
          "name": "from",
          "type": "address"
        },
        {
          "internalType": "address",
          "name": "to",
          "type": "address"
        },
        {
          "internalType": "uint256",
          "name": "id",
          "type": "uint256"
        },
        {
          "internalType": "uint256",
          "name": "amount",
          "type": "uint256"
        },
        {
          "internalType": "bytes",
          "name": "data",
          "type": "bytes"
        }
      ],
      "name": "safeTransferFrom",
      "outputs": [],
      "stateMutability": "nonpayable",
      "type": "function"
    },
    {
      "inputs": [
        {
          "internalType": "address",
          "name": "operator",
          "type": "address"
        },
        {
          "internalType": "bool",
          "name": "approved",
          "type": "bool"
        }
      ],
      "name": "setApprovalForAll",
      "outputs": [],
      "stateMutability": "nonpayable",
      "type": "function"
    },
    {
      "inputs": [
        {
          "internalType": "bytes4",
          "name": "interfaceId",
          "type": "bytes4"
        }
      ],
      "name": "supportsInterface",
      "outputs": [
        {
          "internalType": "bool",
          "name": "",
          "type": "bool"
        }
      ],
      "stateMutability": "view",
      "type": "function"
    },
    {
      "inputs": [
        {
          "internalType": "uint256",
          "name": "",
          "type": "uint256"
        }
      ],
      "name": "uri",
      "outputs": [
        {
          "internalType": "string",
          "name": "",
          "type": "string"
        }
      ],
      "stateMutability": "view",
      "type": "function"
    }
  ],
  "transactionHash": "0x7e28fccae5a04bc73d34595d9ea4e31945def151e9c9f3977afdb57075799880",
  "args": [],
  "solcInputHash": "fbc0b8ebc8e1ae7e314f57d794442c60",
  "bytecode": "0x60806040523480156200001157600080fd5b506040518060600160405280602b815260200162001f0a602b9139620000378162000160565b506200007273f39fd6e51aad88f6f4ce6ab8827279cfffb922666103e86001604051806020016040528060008152506200017960201b60201c565b620000ac73f39fd6e51aad88f6f4ce6ab8827279cfffb922666103e9600a604051806020016040528060008152506200017960201b60201c565b620000e67370997970c51812dc3a010c7d01b50e0d17dc79c86103ea6014604051806020016040528060008152506200017960201b60201c565b62000120733c44cdddb6a900fa2b585dd299e03d12fa4293bc6103eb6001604051806020016040528060008152506200017960201b60201c565b6200015a733c44cdddb6a900fa2b585dd299e03d12fa4293bc6103ec6014604051806020016040528060008152506200017960201b60201c565b620007ba565b8051620001759060029060208401906200042d565b5050565b6001600160a01b038416620001ab5760405162461bcd60e51b8152600401620001a29062000653565b60405180910390fd5b6000620001b762000289565b9050620001de81600087620001cc886200028e565b620001d7886200028e565b87620002e8565b6000848152602081815260408083206001600160a01b03891684529091528120805485929062000210908490620006a2565b92505081905550846001600160a01b031660006001600160a01b0316826001600160a01b03167fc3d58168c5ae7397731d063d5bbf3d657854427343f4c083240f7aacaa2d0f6287876040516200026992919062000694565b60405180910390a46200028281600087878787620002f0565b5050505050565b335b90565b60408051600180825281830190925260609160009190602080830190803683370190505090508281600081518110620002d757634e487b7160e01b600052603260045260246000fd5b602090810291909101015292915050565b505050505050565b6200030f846001600160a01b03166200042760201b6200099a1760201c565b15620002e85760405163f23a6e6160e01b81526001600160a01b0385169063f23a6e61906200034b908990899088908890889060040162000552565b602060405180830381600087803b1580156200036657600080fd5b505af192505050801562000399575060408051601f3d908101601f191682019092526200039691810190620004d3565b60015b620003eb57620003a86200070a565b80620003b55750620003d1565b8060405162461bcd60e51b8152600401620001a2919062000599565b60405162461bcd60e51b8152600401620001a290620005ae565b6001600160e01b0319811663f23a6e6160e01b146200041e5760405162461bcd60e51b8152600401620001a2906200060b565b50505050505050565b3b151590565b8280546200043b90620006c7565b90600052602060002090601f0160209004810192826200045f5760008555620004aa565b82601f106200047a57805160ff1916838001178555620004aa565b82800160010185558215620004aa579182015b82811115620004aa5782518255916020019190600101906200048d565b50620004b8929150620004bc565b5090565b5b80821115620004b85760008155600101620004bd565b600060208284031215620004e5578081fd5b81516001600160e01b031981168114620004fd578182fd5b9392505050565b60008151808452815b818110156200052b576020818501810151868301820152016200050d565b818111156200053d5782602083870101525b50601f01601f19169290920160200192915050565b6001600160a01b03868116825285166020820152604081018490526060810183905260a0608082018190526000906200058e9083018462000504565b979650505050505050565b600060208252620004fd602083018462000504565b60208082526034908201527f455243313135353a207472616e7366657220746f206e6f6e204552433131353560408201527f526563656976657220696d706c656d656e746572000000000000000000000000606082015260800190565b60208082526028908201527f455243313135353a204552433131353552656365697665722072656a656374656040820152676420746f6b656e7360c01b606082015260800190565b60208082526021908201527f455243313135353a206d696e7420746f20746865207a65726f206164647265736040820152607360f81b606082015260800190565b918252602082015260400190565b60008219821115620006c257634e487b7160e01b81526011600452602481fd5b500190565b600281046001821680620006dc57607f821691505b60208210811415620006fe57634e487b7160e01b600052602260045260246000fd5b50919050565b60e01c90565b600060443d10156200071c576200028b565b600481823e6308c379a062000732825162000704565b146200073e576200028b565b6040513d600319016004823e80513d6001600160401b0380831160248401831017156200076f57505050506200028b565b828401925082519150808211156200078b57505050506200028b565b503d83016020828401011115620007a5575050506200028b565b601f01601f1916810160200160405291505090565b61174080620007ca6000396000f3fe608060405234801561001057600080fd5b50600436106100e95760003560e01c80634e1273f41161008c578063d562e20411610066578063d562e204146101bf578063e3e55f08146101c7578063e985e9c5146101cf578063f242432a146101e2576100e9565b80634e1273f4146101845780635b2725ed146101a4578063a22cb465146101ac576100e9565b806313dc989f116100c857806313dc989f146101575780632eb2c2d61461015f5780633e4bee381461017457806341a494c51461017c576100e9565b8062fdd58e146100ee57806301ffc9a7146101175780630e89341c14610137575b600080fd5b6101016100fc366004610f3f565b6101f5565b60405161010e9190611530565b60405180910390f35b61012a610125366004611026565b61024c565b60405161010e91906111e6565b61014a610145366004611065565b610294565b60405161010e91906111f1565b610101610328565b61017261016d366004610dfc565b61032e565b005b610101610594565b61010161059a565b610197610192366004610f68565b6105d6565b60405161010e91906111a5565b6101016106f6565b6101726101ba366004610f05565b6106fc565b6101016107ca565b6101016107d0565b61012a6101dd366004610dca565b6107d6565b6101726101f0366004610ea2565b610804565b60006001600160a01b0383166102265760405162461bcd60e51b815260040161021d906112a0565b60405180910390fd5b506000908152602081815260408083206001600160a01b03949094168352929052205490565b60006001600160e01b03198216636cdb3d1360e11b148061027d57506001600160e01b031982166303a24d0760e21b145b8061028c575061028c826109a0565b90505b919050565b6060600280546102a3906115c4565b80601f01602080910402602001604051908101604052809291908181526020018280546102cf906115c4565b801561031c5780601f106102f15761010080835404028352916020019161031c565b820191906000526020600020905b8154815290600101906020018083116102ff57829003601f168201915b50505050509050919050565b6103eb81565b815183511461034f5760405162461bcd60e51b815260040161021d906114a7565b6001600160a01b0384166103755760405162461bcd60e51b815260040161021d90611334565b61037d6109b9565b6001600160a01b0316856001600160a01b031614806103a357506103a3856101dd6109b9565b6103bf5760405162461bcd60e51b815260040161021d90611379565b60006103c96109b9565b90506103d981878787878761058c565b60005b845181101561052657600085828151811061040757634e487b7160e01b600052603260045260246000fd5b60200260200101519050600085838151811061043357634e487b7160e01b600052603260045260246000fd5b602090810291909101810151600084815280835260408082206001600160a01b038e1683529093529190912054909150818110156104835760405162461bcd60e51b815260040161021d906113cb565b61048d82826115ad565b60008085815260200190815260200160002060008c6001600160a01b03166001600160a01b03168152602001908152602001600020819055508160008085815260200190815260200160002060008b6001600160a01b03166001600160a01b03168152602001908152602001600020600082825461050b9190611595565b925050819055505050508061051f906115ff565b90506103dc565b50846001600160a01b0316866001600160a01b0316826001600160a01b03167f4a39dc06d4c0dbc64b70af90fd698a233a518aa5d07e595d983b8c0526c8f7fb87876040516105769291906111b8565b60405180910390a461058c8187878787876109bd565b505050505050565b6103e881565b60038054600091826105ab836115ff565b91905055506105ce33600354600160405180602001604052806000815250610acb565b506003545b90565b606081518351146105f95760405162461bcd60e51b815260040161021d9061145e565b6000835167ffffffffffffffff81111561062357634e487b7160e01b600052604160045260246000fd5b60405190808252806020026020018201604052801561064c578160200160208202803683370190505b50905060005b84518110156106ee576106b385828151811061067e57634e487b7160e01b600052603260045260246000fd5b60200260200101518583815181106106a657634e487b7160e01b600052603260045260246000fd5b60200260200101516101f5565b8282815181106106d357634e487b7160e01b600052603260045260246000fd5b60209081029190910101526106e7816115ff565b9050610652565b509392505050565b6103ec81565b816001600160a01b031661070e6109b9565b6001600160a01b031614156107355760405162461bcd60e51b815260040161021d90611415565b80600160006107426109b9565b6001600160a01b03908116825260208083019390935260409182016000908120918716808252919093529120805460ff1916921515929092179091556107866109b9565b6001600160a01b03167f17307eab39ab6107e8899845ad3d59bd9653f200f220920489ca2b5937696c31836040516107be91906111e6565b60405180910390a35050565b6103ea81565b6103e981565b6001600160a01b03918216600090815260016020908152604080832093909416825291909152205460ff1690565b6001600160a01b03841661082a5760405162461bcd60e51b815260040161021d90611334565b6108326109b9565b6001600160a01b0316856001600160a01b031614806108585750610858856101dd6109b9565b6108745760405162461bcd60e51b815260040161021d906112eb565b600061087e6109b9565b905061089e81878761088f88610bb2565b61089888610bb2565b8761058c565b6000848152602081815260408083206001600160a01b038a168452909152902054838110156108df5760405162461bcd60e51b815260040161021d906113cb565b6108e984826115ad565b6000868152602081815260408083206001600160a01b038c81168552925280832093909355881681529081208054869290610925908490611595565b92505081905550856001600160a01b0316876001600160a01b0316836001600160a01b03167fc3d58168c5ae7397731d063d5bbf3d657854427343f4c083240f7aacaa2d0f62888860405161097b929190611539565b60405180910390a4610991828888888888610c0b565b50505050505050565b3b151590565b6001600160e01b031981166301ffc9a760e01b14919050565b3390565b6109cf846001600160a01b031661099a565b1561058c5760405163bc197c8160e01b81526001600160a01b0385169063bc197c8190610a089089908990889088908890600401611102565b602060405180830381600087803b158015610a2257600080fd5b505af1925050508015610a52575060408051601f3d908101601f19168201909252610a4f91810190611049565b60015b610a9b57610a5e61164c565b80610a695750610a83565b8060405162461bcd60e51b815260040161021d91906111f1565b60405162461bcd60e51b815260040161021d90611204565b6001600160e01b0319811663bc197c8160e01b146109915760405162461bcd60e51b815260040161021d90611258565b6001600160a01b038416610af15760405162461bcd60e51b815260040161021d906114ef565b6000610afb6109b9565b9050610b0d8160008761088f88610bb2565b6000848152602081815260408083206001600160a01b038916845290915281208054859290610b3d908490611595565b92505081905550846001600160a01b031660006001600160a01b0316826001600160a01b03167fc3d58168c5ae7397731d063d5bbf3d657854427343f4c083240f7aacaa2d0f628787604051610b94929190611539565b60405180910390a4610bab81600087878787610c0b565b5050505050565b60408051600180825281830190925260609160009190602080830190803683370190505090508281600081518110610bfa57634e487b7160e01b600052603260045260246000fd5b602090810291909101015292915050565b610c1d846001600160a01b031661099a565b1561058c5760405163f23a6e6160e01b81526001600160a01b0385169063f23a6e6190610c569089908990889088908890600401611160565b602060405180830381600087803b158015610c7057600080fd5b505af1925050508015610ca0575060408051601f3d908101601f19168201909252610c9d91810190611049565b60015b610cac57610a5e61164c565b6001600160e01b0319811663f23a6e6160e01b146109915760405162461bcd60e51b815260040161021d90611258565b80356001600160a01b038116811461028f57600080fd5b600082601f830112610d03578081fd5b81356020610d18610d1383611571565b611547565b8281528181019085830183850287018401881015610d34578586fd5b855b85811015610d5257813584529284019290840190600101610d36565b5090979650505050505050565b600082601f830112610d6f578081fd5b813567ffffffffffffffff811115610d8957610d89611630565b610d9c601f8201601f1916602001611547565b818152846020838601011115610db0578283fd5b816020850160208301379081016020019190915292915050565b60008060408385031215610ddc578182fd5b610de583610cdc565b9150610df360208401610cdc565b90509250929050565b600080600080600060a08688031215610e13578081fd5b610e1c86610cdc565b9450610e2a60208701610cdc565b9350604086013567ffffffffffffffff80821115610e46578283fd5b610e5289838a01610cf3565b94506060880135915080821115610e67578283fd5b610e7389838a01610cf3565b93506080880135915080821115610e88578283fd5b50610e9588828901610d5f565b9150509295509295909350565b600080600080600060a08688031215610eb9578081fd5b610ec286610cdc565b9450610ed060208701610cdc565b93506040860135925060608601359150608086013567ffffffffffffffff811115610ef9578182fd5b610e9588828901610d5f565b60008060408385031215610f17578182fd5b610f2083610cdc565b915060208301358015158114610f34578182fd5b809150509250929050565b60008060408385031215610f51578182fd5b610f5a83610cdc565b946020939093013593505050565b60008060408385031215610f7a578182fd5b823567ffffffffffffffff80821115610f91578384fd5b818501915085601f830112610fa4578384fd5b81356020610fb4610d1383611571565b82815281810190858301838502870184018b1015610fd0578889fd5b8896505b84871015610ff957610fe581610cdc565b835260019690960195918301918301610fd4565b509650508601359250508082111561100f578283fd5b5061101c85828601610cf3565b9150509250929050565b600060208284031215611037578081fd5b8135611042816116f1565b9392505050565b60006020828403121561105a578081fd5b8151611042816116f1565b600060208284031215611076578081fd5b5035919050565b6000815180845260208085019450808401835b838110156110ac57815187529582019590820190600101611090565b509495945050505050565b60008151808452815b818110156110dc576020818501810151868301820152016110c0565b818111156110ed5782602083870101525b50601f01601f19169290920160200192915050565b6001600160a01b0386811682528516602082015260a06040820181905260009061112e9083018661107d565b8281036060840152611140818661107d565b9050828103608084015261115481856110b7565b98975050505050505050565b6001600160a01b03868116825285166020820152604081018490526060810183905260a06080820181905260009061119a908301846110b7565b979650505050505050565b600060208252611042602083018461107d565b6000604082526111cb604083018561107d565b82810360208401526111dd818561107d565b95945050505050565b901515815260200190565b60006020825261104260208301846110b7565b60208082526034908201527f455243313135353a207472616e7366657220746f206e6f6e20455243313135356040820152732932b1b2b4bb32b91034b6b83632b6b2b73a32b960611b606082015260800190565b60208082526028908201527f455243313135353a204552433131353552656365697665722072656a656374656040820152676420746f6b656e7360c01b606082015260800190565b6020808252602b908201527f455243313135353a2062616c616e636520717565727920666f7220746865207a60408201526a65726f206164647265737360a81b606082015260800190565b60208082526029908201527f455243313135353a2063616c6c6572206973206e6f74206f776e6572206e6f7260408201526808185c1c1c9bdd995960ba1b606082015260800190565b60208082526025908201527f455243313135353a207472616e7366657220746f20746865207a65726f206164604082015264647265737360d81b606082015260800190565b60208082526032908201527f455243313135353a207472616e736665722063616c6c6572206973206e6f74206040820152711bdddb995c881b9bdc88185c1c1c9bdd995960721b606082015260800190565b6020808252602a908201527f455243313135353a20696e73756666696369656e742062616c616e636520666f60408201526939103a3930b739b332b960b11b606082015260800190565b60208082526029908201527f455243313135353a2073657474696e6720617070726f76616c20737461747573604082015268103337b91039b2b63360b91b606082015260800190565b60208082526029908201527f455243313135353a206163636f756e747320616e6420696473206c656e677468604082015268040dad2e6dac2e8c6d60bb1b606082015260800190565b60208082526028908201527f455243313135353a2069647320616e6420616d6f756e7473206c656e677468206040820152670dad2e6dac2e8c6d60c31b606082015260800190565b60208082526021908201527f455243313135353a206d696e7420746f20746865207a65726f206164647265736040820152607360f81b606082015260800190565b90815260200190565b918252602082015260400190565b60405181810167ffffffffffffffff8111828210171561156957611569611630565b604052919050565b600067ffffffffffffffff82111561158b5761158b611630565b5060209081020190565b600082198211156115a8576115a861161a565b500190565b6000828210156115bf576115bf61161a565b500390565b6002810460018216806115d857607f821691505b602082108114156115f957634e487b7160e01b600052602260045260246000fd5b50919050565b60006000198214156116135761161361161a565b5060010190565b634e487b7160e01b600052601160045260246000fd5b634e487b7160e01b600052604160045260246000fd5b60e01c90565b600060443d101561165c576105d3565b600481823e6308c379a06116708251611646565b1461167a576105d3565b6040513d600319016004823e80513d67ffffffffffffffff81602484011181841117156116aa57505050506105d3565b828401925082519150808211156116c457505050506105d3565b503d830160208284010111156116dc575050506105d3565b601f01601f1916810160200160405291505090565b6001600160e01b03198116811461170757600080fd5b5056fea264697066735822122044293f6b54a9a57114a2826a8f94e9c5dd09313ad1e41ce5076c55112a71aa0964736f6c6343000800003368747470733a2f2f6170692e626363672e6469676974616c2f6170692f626363672f7b69647d2e6a736f6e",
  "devdoc": {
    "kind": "dev",
    "methods": {
      "balanceOf(address,uint256)": {
        "details": "See {IERC1155-balanceOf}. Requirements: - `account` cannot be the zero address."
      },
      "balanceOfBatch(address[],uint256[])": {
        "details": "See {IERC1155-balanceOfBatch}. Requirements: - `accounts` and `ids` must have the same length."
      },
      "isApprovedForAll(address,address)": {
        "details": "See {IERC1155-isApprovedForAll}."
      },
      "safeBatchTransferFrom(address,address,uint256[],uint256[],bytes)": {
        "details": "See {IERC1155-safeBatchTransferFrom}."
      },
      "safeTransferFrom(address,address,uint256,uint256,bytes)": {
        "details": "See {IERC1155-safeTransferFrom}."
      },
      "setApprovalForAll(address,bool)": {
        "details": "See {IERC1155-setApprovalForAll}."
      },
      "supportsInterface(bytes4)": {
        "details": "See {IERC165-supportsInterface}."
      },
      "uri(uint256)": {
        "details": "See {IERC1155MetadataURI-uri}. This implementation returns the same URI for *all* token types. It relies on the token type ID substitution mechanism https://eips.ethereum.org/EIPS/eip-1155#metadata[defined in the EIP]. Clients calling this function must replace the `\\{id\\}` substring with the actual token type ID."
      }
    },
    "version": 1
  },
  "userdoc": {
    "kind": "user",
    "methods": {},
    "version": 1
  },
  "storageLayout": {
    "storage": [
      {
        "astId": 135,
        "contract": "src/Test/E1155.sol:E1155",
        "label": "_balances",
        "offset": 0,
        "slot": "0",
        "type": "t_mapping(t_uint256,t_mapping(t_address,t_uint256))"
      },
      {
        "astId": 141,
        "contract": "src/Test/E1155.sol:E1155",
        "label": "_operatorApprovals",
        "offset": 0,
        "slot": "1",
        "type": "t_mapping(t_address,t_mapping(t_address,t_bool))"
      },
      {
        "astId": 143,
        "contract": "src/Test/E1155.sol:E1155",
        "label": "_uri",
        "offset": 0,
        "slot": "2",
        "type": "t_string_storage"
      },
      {
        "astId": 6492,
        "contract": "src/Test/E1155.sol:E1155",
        "label": "tokenId",
        "offset": 0,
        "slot": "3",
        "type": "t_uint256"
      }
    ],
    "types": {
      "t_address": {
        "encoding": "inplace",
        "label": "address",
        "numberOfBytes": "20"
      },
      "t_bool": {
        "encoding": "inplace",
        "label": "bool",
        "numberOfBytes": "1"
      },
      "t_mapping(t_address,t_bool)": {
        "encoding": "mapping",
        "key": "t_address",
        "label": "mapping(address => bool)",
        "numberOfBytes": "32",
        "value": "t_bool"
      },
      "t_mapping(t_address,t_mapping(t_address,t_bool))": {
        "encoding": "mapping",
        "key": "t_address",
        "label": "mapping(address => mapping(address => bool))",
        "numberOfBytes": "32",
        "value": "t_mapping(t_address,t_bool)"
      },
      "t_mapping(t_address,t_uint256)": {
        "encoding": "mapping",
        "key": "t_address",
        "label": "mapping(address => uint256)",
        "numberOfBytes": "32",
        "value": "t_uint256"
      },
      "t_mapping(t_uint256,t_mapping(t_address,t_uint256))": {
        "encoding": "mapping",
        "key": "t_uint256",
        "label": "mapping(uint256 => mapping(address => uint256))",
        "numberOfBytes": "32",
        "value": "t_mapping(t_address,t_uint256)"
      },
      "t_string_storage": {
        "encoding": "bytes",
        "label": "string",
        "numberOfBytes": "32"
      },
      "t_uint256": {
        "encoding": "inplace",
        "label": "uint256",
        "numberOfBytes": "32"
      }
    }
  }
}